{
  "contractName": "ContractEvent",
  "abi": [
    {
      "anonymous": false,
      "inputs": [
        {
          "indexed": false,
          "internalType": "bytes32",
          "name": "eventID",
          "type": "bytes32"
        }
      ],
      "name": "EventCreated",
      "type": "event"
    },
    {
      "inputs": [
        {
          "internalType": "bytes32",
          "name": "",
          "type": "bytes32"
        }
      ],
      "name": "allEvents",
      "outputs": [
        {
          "internalType": "bytes32",
          "name": "eventID",
          "type": "bytes32"
        },
        {
          "internalType": "string",
          "name": "eventName",
          "type": "string"
        },
        {
          "internalType": "string",
          "name": "placeName",
          "type": "string"
        },
        {
          "internalType": "string",
          "name": "placeAddress",
          "type": "string"
        },
        {
          "internalType": "string",
          "name": "eventDescription",
          "type": "string"
        },
        {
          "internalType": "string",
          "name": "eventCategory",
          "type": "string"
        },
        {
          "internalType": "address",
          "name": "ownerOfEvent",
          "type": "address"
        },
        {
          "internalType": "string",
          "name": "imageSrc",
          "type": "string"
        },
        {
          "internalType": "uint64",
          "name": "dateOfEvent",
          "type": "uint64"
        },
        {
          "internalType": "uint64",
          "name": "numberOfTickets",
          "type": "uint64"
        },
        {
          "internalType": "uint64",
          "name": "ticketPrice",
          "type": "uint64"
        },
        {
          "internalType": "bool",
          "name": "exists",
          "type": "bool"
        }
      ],
      "stateMutability": "view",
      "type": "function"
    },
    {
      "inputs": [
        {
          "internalType": "uint256",
          "name": "",
          "type": "uint256"
        }
      ],
      "name": "eventIdsList",
      "outputs": [
        {
          "internalType": "bytes32",
          "name": "",
          "type": "bytes32"
        }
      ],
      "stateMutability": "view",
      "type": "function"
    },
    {
      "inputs": [
        {
          "internalType": "bytes32",
          "name": "_eventID",
          "type": "bytes32"
        },
        {
          "internalType": "string",
          "name": "_eventName",
          "type": "string"
        },
        {
          "internalType": "string",
          "name": "_placeName",
          "type": "string"
        },
        {
          "internalType": "string",
          "name": "_placeAddress",
          "type": "string"
        },
        {
          "internalType": "string",
          "name": "_eventDescription",
          "type": "string"
        },
        {
          "internalType": "string",
          "name": "_eventCategory",
          "type": "string"
        },
        {
          "internalType": "string",
          "name": "_imageSrc",
          "type": "string"
        },
        {
          "internalType": "uint64",
          "name": "_dateOfEvent",
          "type": "uint64"
        },
        {
          "internalType": "uint64",
          "name": "_numberOfTickets",
          "type": "uint64"
        },
        {
          "internalType": "uint64",
          "name": "_ticketPrice",
          "type": "uint64"
        }
      ],
      "name": "createEvent",
      "outputs": [],
      "stateMutability": "nonpayable",
      "type": "function"
    },
    {
      "inputs": [],
      "name": "getEvents",
      "outputs": [
        {
          "internalType": "bytes32[]",
          "name": "eventList",
          "type": "bytes32[]"
        }
      ],
      "stateMutability": "view",
      "type": "function"
    },
    {
      "inputs": [
        {
          "internalType": "bytes32",
          "name": "eventID",
          "type": "bytes32"
        }
      ],
      "name": "getEventInfo",
      "outputs": [
        {
          "internalType": "bytes32",
          "name": "id",
          "type": "bytes32"
        },
        {
          "internalType": "string",
          "name": "eventName",
          "type": "string"
        },
        {
          "internalType": "string",
          "name": "placeName",
          "type": "string"
        },
        {
          "internalType": "string",
          "name": "placeAddress",
          "type": "string"
        },
        {
          "internalType": "string",
          "name": "eventDescription",
          "type": "string"
        },
        {
          "internalType": "string",
          "name": "eventCategory",
          "type": "string"
        },
        {
          "internalType": "address",
          "name": "ownerOfEvent",
          "type": "address"
        },
        {
          "internalType": "string",
          "name": "imageSrc",
          "type": "string"
        },
        {
          "internalType": "uint64",
          "name": "dateOfEvent",
          "type": "uint64"
        },
        {
          "internalType": "uint64",
          "name": "numberOfTickets",
          "type": "uint64"
        },
        {
          "internalType": "uint64",
          "name": "ticketPrice",
          "type": "uint64"
        }
      ],
      "stateMutability": "view",
      "type": "function"
    }
  ],
  "bytecode": "0x608060405234801561001057600080fd5b506118ae806100206000396000f3fe608060405234801561001057600080fd5b50600436106100575760003560e01c80631a51f4241461005c578063404aa8f9146100785780636f5f490714610096578063dfb60285146100c6578063f765b6b114610101575b600080fd5b61007660048036038101906100719190611094565b61013b565b005b610080610436565b60405161008d91906112d9565b60405180910390f35b6100b060048036038101906100ab9190611331565b61048e565b6040516100bd919061136d565b60405180910390f35b6100e060048036038101906100db9190611388565b6104b2565b6040516100f89c9b9a999897969594939291906114a8565b60405180910390f35b61011b60048036038101906101169190611388565b6108ab565b6040516101329b9a9998979695949392919061158c565b60405180910390f35b6000808b815260200190815260200160002060080160189054906101000a900460ff161561019e576040517f08c379a0000000000000000000000000000000000000000000000000000000008152600401610195906116d3565b60405180910390fd5b60008267ffffffffffffffff1611156101ec576040517f08c379a00000000000000000000000000000000000000000000000000000000081526004016101e390611765565b60405180910390fd5b60016000808c815260200190815260200160002060080160186101000a81548160ff021916908315150217905550886000808c81526020019081526020016000206001019080519060200190610243929190610e21565b50876000808c8152602001908152602001600020600201908051906020019061026d929190610e21565b50866000808c81526020019081526020016000206003019080519060200190610297929190610e21565b50856000808c815260200190815260200160002060040190805190602001906102c1929190610e21565b50846000808c815260200190815260200160002060050190805190602001906102eb929190610e21565b50836000808c81526020019081526020016000206007019080519060200190610315929190610e21565b50826000808c815260200190815260200160002060080160006101000a81548167ffffffffffffffff021916908367ffffffffffffffff160217905550816000808c815260200190815260200160002060080160086101000a81548167ffffffffffffffff021916908367ffffffffffffffff160217905550806000808c815260200190815260200160002060080160106101000a81548167ffffffffffffffff021916908367ffffffffffffffff16021790555060018a90806001815401808255809150506001900390600052602060002001600090919091909150557f9734e2c6faef2085e2efacd33d54cf02df9e7fd5618121b33589f637ac6080418a604051610422919061136d565b60405180910390a150505050505050505050565b6060600180548060200260200160405190810160405280929190818152602001828054801561048457602002820191906000526020600020905b815481526020019060010190808311610470575b5050505050905090565b6001818154811061049e57600080fd5b906000526020600020016000915090505481565b60006020528060005260406000206000915090508060000154908060010180546104db906117b4565b80601f0160208091040260200160405190810160405280929190818152602001828054610507906117b4565b80156105545780601f1061052957610100808354040283529160200191610554565b820191906000526020600020905b81548152906001019060200180831161053757829003601f168201915b505050505090806002018054610569906117b4565b80601f0160208091040260200160405190810160405280929190818152602001828054610595906117b4565b80156105e25780601f106105b7576101008083540402835291602001916105e2565b820191906000526020600020905b8154815290600101906020018083116105c557829003601f168201915b5050505050908060030180546105f7906117b4565b80601f0160208091040260200160405190810160405280929190818152602001828054610623906117b4565b80156106705780601f1061064557610100808354040283529160200191610670565b820191906000526020600020905b81548152906001019060200180831161065357829003601f168201915b505050505090806004018054610685906117b4565b80601f01602080910402602001604051908101604052809291908181526020018280546106b1906117b4565b80156106fe5780601f106106d3576101008083540402835291602001916106fe565b820191906000526020600020905b8154815290600101906020018083116106e157829003601f168201915b505050505090806005018054610713906117b4565b80601f016020809104026020016040519081016040528092919081815260200182805461073f906117b4565b801561078c5780601f106107615761010080835404028352916020019161078c565b820191906000526020600020905b81548152906001019060200180831161076f57829003601f168201915b5050505050908060060160009054906101000a900473ffffffffffffffffffffffffffffffffffffffff16908060070180546107c7906117b4565b80601f01602080910402602001604051908101604052809291908181526020018280546107f3906117b4565b80156108405780601f1061081557610100808354040283529160200191610840565b820191906000526020600020905b81548152906001019060200180831161082357829003601f168201915b5050505050908060080160009054906101000a900467ffffffffffffffff16908060080160089054906101000a900467ffffffffffffffff16908060080160109054906101000a900467ffffffffffffffff16908060080160189054906101000a900460ff1690508c565b600060608060608060606000606060008060008b60008082815260200190815260200160002060080160189054906101000a900460ff16610921576040517f08c379a000000000000000000000000000000000000000000000000000000000815260040161091890611858565b60405180910390fd5b60008060008f8152602001908152602001600020604051806101800160405290816000820154815260200160018201805461095b906117b4565b80601f0160208091040260200160405190810160405280929190818152602001828054610987906117b4565b80156109d45780601f106109a9576101008083540402835291602001916109d4565b820191906000526020600020905b8154815290600101906020018083116109b757829003601f168201915b505050505081526020016002820180546109ed906117b4565b80601f0160208091040260200160405190810160405280929190818152602001828054610a19906117b4565b8015610a665780601f10610a3b57610100808354040283529160200191610a66565b820191906000526020600020905b815481529060010190602001808311610a4957829003601f168201915b50505050508152602001600382018054610a7f906117b4565b80601f0160208091040260200160405190810160405280929190818152602001828054610aab906117b4565b8015610af85780601f10610acd57610100808354040283529160200191610af8565b820191906000526020600020905b815481529060010190602001808311610adb57829003601f168201915b50505050508152602001600482018054610b11906117b4565b80601f0160208091040260200160405190810160405280929190818152602001828054610b3d906117b4565b8015610b8a5780601f10610b5f57610100808354040283529160200191610b8a565b820191906000526020600020905b815481529060010190602001808311610b6d57829003601f168201915b50505050508152602001600582018054610ba3906117b4565b80601f0160208091040260200160405190810160405280929190818152602001828054610bcf906117b4565b8015610c1c5780601f10610bf157610100808354040283529160200191610c1c565b820191906000526020600020905b815481529060010190602001808311610bff57829003601f168201915b505050505081526020016006820160009054906101000a900473ffffffffffffffffffffffffffffffffffffffff1673ffffffffffffffffffffffffffffffffffffffff1673ffffffffffffffffffffffffffffffffffffffff168152602001600782018054610c8b906117b4565b80601f0160208091040260200160405190810160405280929190818152602001828054610cb7906117b4565b8015610d045780601f10610cd957610100808354040283529160200191610d04565b820191906000526020600020905b815481529060010190602001808311610ce757829003601f168201915b505050505081526020016008820160009054906101000a900467ffffffffffffffff1667ffffffffffffffff1667ffffffffffffffff1681526020016008820160089054906101000a900467ffffffffffffffff1667ffffffffffffffff1667ffffffffffffffff1681526020016008820160109054906101000a900467ffffffffffffffff1667ffffffffffffffff1667ffffffffffffffff1681526020016008820160189054906101000a900460ff1615151515815250509050806000015181602001518260400151836060015184608001518560a001518660c001518760e001518861010001518961012001518a61014001519c509c509c509c509c509c509c509c509c509c509c50505091939597999b90929496989a50565b828054610e2d906117b4565b90600052602060002090601f016020900481019282610e4f5760008555610e96565b82601f10610e6857805160ff1916838001178555610e96565b82800160010185558215610e96579182015b82811115610e95578251825591602001919060010190610e7a565b5b509050610ea39190610ea7565b5090565b5b80821115610ec0576000816000905550600101610ea8565b5090565b6000604051905090565b600080fd5b600080fd5b6000819050919050565b610eeb81610ed8565b8114610ef657600080fd5b50565b600081359050610f0881610ee2565b92915050565b600080fd5b600080fd5b6000601f19601f8301169050919050565b7f4e487b7100000000000000000000000000000000000000000000000000000000600052604160045260246000fd5b610f6182610f18565b810181811067ffffffffffffffff82111715610f8057610f7f610f29565b5b80604052505050565b6000610f93610ec4565b9050610f9f8282610f58565b919050565b600067ffffffffffffffff821115610fbf57610fbe610f29565b5b610fc882610f18565b9050602081019050919050565b82818337600083830152505050565b6000610ff7610ff284610fa4565b610f89565b90508281526020810184848401111561101357611012610f13565b5b61101e848285610fd5565b509392505050565b600082601f83011261103b5761103a610f0e565b5b813561104b848260208601610fe4565b91505092915050565b600067ffffffffffffffff82169050919050565b61107181611054565b811461107c57600080fd5b50565b60008135905061108e81611068565b92915050565b6000806000806000806000806000806101408b8d0312156110b8576110b7610ece565b5b60006110c68d828e01610ef9565b9a505060208b013567ffffffffffffffff8111156110e7576110e6610ed3565b5b6110f38d828e01611026565b99505060408b013567ffffffffffffffff81111561111457611113610ed3565b5b6111208d828e01611026565b98505060608b013567ffffffffffffffff81111561114157611140610ed3565b5b61114d8d828e01611026565b97505060808b013567ffffffffffffffff81111561116e5761116d610ed3565b5b61117a8d828e01611026565b96505060a08b013567ffffffffffffffff81111561119b5761119a610ed3565b5b6111a78d828e01611026565b95505060c08b013567ffffffffffffffff8111156111c8576111c7610ed3565b5b6111d48d828e01611026565b94505060e06111e58d828e0161107f565b9350506101006111f78d828e0161107f565b9250506101206112098d828e0161107f565b9150509295989b9194979a5092959850565b600081519050919050565b600082825260208201905092915050565b6000819050602082019050919050565b61125081610ed8565b82525050565b60006112628383611247565b60208301905092915050565b6000602082019050919050565b60006112868261121b565b6112908185611226565b935061129b83611237565b8060005b838110156112cc5781516112b38882611256565b97506112be8361126e565b92505060018101905061129f565b5085935050505092915050565b600060208201905081810360008301526112f3818461127b565b905092915050565b6000819050919050565b61130e816112fb565b811461131957600080fd5b50565b60008135905061132b81611305565b92915050565b60006020828403121561134757611346610ece565b5b60006113558482850161131c565b91505092915050565b61136781610ed8565b82525050565b6000602082019050611382600083018461135e565b92915050565b60006020828403121561139e5761139d610ece565b5b60006113ac84828501610ef9565b91505092915050565b600081519050919050565b600082825260208201905092915050565b60005b838110156113ef5780820151818401526020810190506113d4565b838111156113fe576000848401525b50505050565b600061140f826113b5565b61141981856113c0565b93506114298185602086016113d1565b61143281610f18565b840191505092915050565b600073ffffffffffffffffffffffffffffffffffffffff82169050919050565b60006114688261143d565b9050919050565b6114788161145d565b82525050565b61148781611054565b82525050565b60008115159050919050565b6114a28161148d565b82525050565b6000610180820190506114be600083018f61135e565b81810360208301526114d0818e611404565b905081810360408301526114e4818d611404565b905081810360608301526114f8818c611404565b9050818103608083015261150c818b611404565b905081810360a0830152611520818a611404565b905061152f60c083018961146f565b81810360e08301526115418188611404565b905061155161010083018761147e565b61155f61012083018661147e565b61156d61014083018561147e565b61157b610160830184611499565b9d9c50505050505050505050505050565b6000610160820190506115a2600083018e61135e565b81810360208301526115b4818d611404565b905081810360408301526115c8818c611404565b905081810360608301526115dc818b611404565b905081810360808301526115f0818a611404565b905081810360a08301526116048189611404565b905061161360c083018861146f565b81810360e08301526116258187611404565b905061163561010083018661147e565b61164361012083018561147e565b61165161014083018461147e565b9c9b505050505050505050505050565b7f4576656e742077697468207468697320494420616c726561647920657869737460008201527f7321000000000000000000000000000000000000000000000000000000000000602082015250565b60006116bd6022836113c0565b91506116c882611661565b604082019050919050565b600060208201905081810360008301526116ec816116b0565b9050919050565b7f43616e6e6f742063726561746520616e206576656e7420776974686f7574207460008201527f69636b6574730000000000000000000000000000000000000000000000000000602082015250565b600061174f6026836113c0565b915061175a826116f3565b604082019050919050565b6000602082019050818103600083015261177e81611742565b9050919050565b7f4e487b7100000000000000000000000000000000000000000000000000000000600052602260045260246000fd5b600060028204905060018216806117cc57607f821691505b602082108114156117e0576117df611785565b5b50919050565b7f4576656e742077697468207468697320696420646f6573206e6f74206578697460008201527f2100000000000000000000000000000000000000000000000000000000000000602082015250565b60006118426021836113c0565b915061184d826117e6565b604082019050919050565b6000602082019050818103600083015261187181611835565b905091905056fea2646970667358221220ec76849ee55d1a48127b20c0485c61d17df53c4f354b71b4098f2b779d3f1dee64736f6c634300080a0033",
  "immutableReferences": {},
  "source": "// SPDX-License-Identifier: MIT\npragma solidity ^0.8.10;\n\ncontract ContractEvent {\n  mapping(bytes32 => Event) public allEvents;\n  bytes32[] public eventIdsList;\n\n  struct Event {\n    bytes32 eventID;\n    string eventName;\n    string placeName;\n    string placeAddress;\n    string eventDescription;\n    string eventCategory;\n    address ownerOfEvent;\n    string imageSrc;\n    uint64 dateOfEvent;\n    uint64 numberOfTickets;\n    uint64 ticketPrice;\n    bool exists;\n  }\n\n  event EventCreated(bytes32 eventID);\n\n  modifier isEventExists(bytes32 eventID) {\n    require(allEvents[eventID].exists, 'Event with this id does not exit!');\n    _;\n  }\n\n  //function to create an event\n  function createEvent(\n    bytes32 _eventID,\n    string memory _eventName,\n    string memory _placeName,\n    string memory _placeAddress,\n    string memory _eventDescription,\n    string memory _eventCategory,\n    string memory _imageSrc,\n    uint64 _dateOfEvent,\n    uint64 _numberOfTickets,\n    uint64 _ticketPrice\n  ) external {\n    require(!allEvents[_eventID].exists, 'Event with this ID already exists!');\n    require(_numberOfTickets <= 0, 'Cannot create an event without tickets');\n    allEvents[_eventID].exists = true;\n    allEvents[_eventID].eventName = _eventName;\n    allEvents[_eventID].placeName = _placeName;\n    allEvents[_eventID].placeAddress = _placeAddress;\n    allEvents[_eventID].eventDescription = _eventDescription;\n    allEvents[_eventID].eventCategory = _eventCategory;\n    allEvents[_eventID].imageSrc = _imageSrc;\n    allEvents[_eventID].dateOfEvent = _dateOfEvent;\n    allEvents[_eventID].numberOfTickets = _numberOfTickets;\n    allEvents[_eventID].ticketPrice = _ticketPrice;\n    eventIdsList.push(_eventID);\n    emit EventCreated(_eventID);\n  }\n\n  //function to get events IDs\n  function getEvents() external view returns (bytes32[] memory eventList) {\n    return eventIdsList;\n  }\n  //function to get info about event with given ID\n  function getEventInfo(\n    bytes32 eventID\n  )\n    external\n    view\n    isEventExists(eventID)\n    returns (\n      bytes32 id,\n      string memory eventName,\n      string memory placeName,\n      string memory placeAddress,\n      string memory eventDescription,\n      string memory eventCategory,\n      address ownerOfEvent,\n      string memory imageSrc,\n      uint64 dateOfEvent,\n      uint64 numberOfTickets,\n      uint64 ticketPrice\n    )\n  {\n    Event memory _event = allEvents[eventID];\n    return (\n      _event.eventID,\n      _event.eventName,\n      _event.placeName,\n      _event.placeAddress,\n      _event.eventDescription,\n      _event.eventCategory,\n      _event.ownerOfEvent,\n      _event.imageSrc,\n      _event.dateOfEvent,\n      _event.numberOfTickets,\n      _event.ticketPrice\n    );\n  }\n}\n",
  "sourcePath": "/Users/janmrakava/Documents/GitHub/blockticket_blockchain/client/contracts/Event.sol",
  "compiler": {
    "name": "solc",
    "version": "0.8.10+commit.fc410830.Emscripten.clang"
  },
  "schemaVersion": "3.4.16",
  "updatedAt": "2024-04-05T10:25:37.833Z",
  "devdoc": {
    "kind": "dev",
    "methods": {},
    "version": 1
  },
  "userdoc": {
    "kind": "user",
    "methods": {},
    "version": 1
  }
}