{
  "contractName": "ContractEvent",
  "abi": [
    {
      "anonymous": false,
      "inputs": [
        {
          "indexed": false,
          "internalType": "bytes32",
          "name": "eventID",
          "type": "bytes32"
        }
      ],
      "name": "EventCancelled",
      "type": "event"
    },
    {
      "anonymous": false,
      "inputs": [
        {
          "indexed": false,
          "internalType": "bytes32",
          "name": "eventID",
          "type": "bytes32"
        }
      ],
      "name": "EventCreated",
      "type": "event"
    },
    {
      "inputs": [
        {
          "internalType": "bytes32",
          "name": "",
          "type": "bytes32"
        }
      ],
      "name": "allEvents",
      "outputs": [
        {
          "internalType": "bytes32",
          "name": "eventID",
          "type": "bytes32"
        },
        {
          "internalType": "string",
          "name": "eventName",
          "type": "string"
        },
        {
          "internalType": "uint64",
          "name": "dateOfEvent",
          "type": "uint64"
        },
        {
          "internalType": "uint64",
          "name": "numberOfTickets",
          "type": "uint64"
        },
        {
          "internalType": "uint64",
          "name": "ticketPrice",
          "type": "uint64"
        },
        {
          "internalType": "string",
          "name": "placeName",
          "type": "string"
        },
        {
          "internalType": "string",
          "name": "eventDescription",
          "type": "string"
        },
        {
          "internalType": "string",
          "name": "eventCategory",
          "type": "string"
        },
        {
          "internalType": "address",
          "name": "eventOwner",
          "type": "address"
        },
        {
          "internalType": "string",
          "name": "eventImage",
          "type": "string"
        }
      ],
      "stateMutability": "view",
      "type": "function",
      "constant": true
    },
    {
      "inputs": [
        {
          "internalType": "uint256",
          "name": "",
          "type": "uint256"
        }
      ],
      "name": "eventIdsList",
      "outputs": [
        {
          "internalType": "bytes32",
          "name": "",
          "type": "bytes32"
        }
      ],
      "stateMutability": "view",
      "type": "function",
      "constant": true
    },
    {
      "inputs": [
        {
          "internalType": "bytes32",
          "name": "_eventID",
          "type": "bytes32"
        },
        {
          "internalType": "string",
          "name": "_eventName",
          "type": "string"
        },
        {
          "internalType": "uint64",
          "name": "_dateOfEvent",
          "type": "uint64"
        },
        {
          "internalType": "uint64",
          "name": "_numberOfTickets",
          "type": "uint64"
        },
        {
          "internalType": "uint64",
          "name": "_ticketPrice",
          "type": "uint64"
        },
        {
          "internalType": "string",
          "name": "_placeName",
          "type": "string"
        },
        {
          "internalType": "string",
          "name": "_eventDescription",
          "type": "string"
        },
        {
          "internalType": "string",
          "name": "_eventCategory",
          "type": "string"
        },
        {
          "internalType": "string",
          "name": "_eventImage",
          "type": "string"
        }
      ],
      "name": "createEvent",
      "outputs": [],
      "stateMutability": "nonpayable",
      "type": "function"
    },
    {
      "inputs": [
        {
          "internalType": "bytes32",
          "name": "_eventID",
          "type": "bytes32"
        }
      ],
      "name": "cancelEvent",
      "outputs": [],
      "stateMutability": "nonpayable",
      "type": "function"
    },
    {
      "inputs": [],
      "name": "getEventIDs",
      "outputs": [
        {
          "internalType": "bytes32[]",
          "name": "eventList",
          "type": "bytes32[]"
        }
      ],
      "stateMutability": "view",
      "type": "function",
      "constant": true
    },
    {
      "inputs": [],
      "name": "getEvents",
      "outputs": [
        {
          "components": [
            {
              "internalType": "bytes32",
              "name": "eventID",
              "type": "bytes32"
            },
            {
              "internalType": "string",
              "name": "eventName",
              "type": "string"
            },
            {
              "internalType": "uint64",
              "name": "dateOfEvent",
              "type": "uint64"
            },
            {
              "internalType": "uint64",
              "name": "numberOfTickets",
              "type": "uint64"
            },
            {
              "internalType": "uint64",
              "name": "ticketPrice",
              "type": "uint64"
            },
            {
              "internalType": "string",
              "name": "placeName",
              "type": "string"
            },
            {
              "internalType": "string",
              "name": "eventDescription",
              "type": "string"
            },
            {
              "internalType": "string",
              "name": "eventCategory",
              "type": "string"
            },
            {
              "internalType": "address",
              "name": "eventOwner",
              "type": "address"
            },
            {
              "internalType": "string",
              "name": "eventImage",
              "type": "string"
            }
          ],
          "internalType": "struct ContractEvent.Event[]",
          "name": "eventList",
          "type": "tuple[]"
        }
      ],
      "stateMutability": "view",
      "type": "function",
      "constant": true
    },
    {
      "inputs": [
        {
          "internalType": "bytes32",
          "name": "_eventID",
          "type": "bytes32"
        }
      ],
      "name": "getEventInfo",
      "outputs": [
        {
          "internalType": "bytes32",
          "name": "eventId",
          "type": "bytes32"
        },
        {
          "internalType": "string",
          "name": "eventName",
          "type": "string"
        },
        {
          "internalType": "uint64",
          "name": "dateOfEvent",
          "type": "uint64"
        },
        {
          "internalType": "uint64",
          "name": "numberOfTickets",
          "type": "uint64"
        },
        {
          "internalType": "uint64",
          "name": "ticketPrice",
          "type": "uint64"
        },
        {
          "internalType": "string",
          "name": "placeName",
          "type": "string"
        },
        {
          "internalType": "string",
          "name": "eventDescription",
          "type": "string"
        },
        {
          "internalType": "string",
          "name": "eventCategory",
          "type": "string"
        },
        {
          "internalType": "address",
          "name": "eventOwner",
          "type": "address"
        },
        {
          "internalType": "string",
          "name": "eventImage",
          "type": "string"
        }
      ],
      "stateMutability": "view",
      "type": "function",
      "constant": true
    },
    {
      "inputs": [
        {
          "internalType": "string",
          "name": "_category",
          "type": "string"
        }
      ],
      "name": "getEventsByCategory",
      "outputs": [
        {
          "components": [
            {
              "internalType": "bytes32",
              "name": "eventID",
              "type": "bytes32"
            },
            {
              "internalType": "string",
              "name": "eventName",
              "type": "string"
            },
            {
              "internalType": "uint64",
              "name": "dateOfEvent",
              "type": "uint64"
            },
            {
              "internalType": "uint64",
              "name": "numberOfTickets",
              "type": "uint64"
            },
            {
              "internalType": "uint64",
              "name": "ticketPrice",
              "type": "uint64"
            },
            {
              "internalType": "string",
              "name": "placeName",
              "type": "string"
            },
            {
              "internalType": "string",
              "name": "eventDescription",
              "type": "string"
            },
            {
              "internalType": "string",
              "name": "eventCategory",
              "type": "string"
            },
            {
              "internalType": "address",
              "name": "eventOwner",
              "type": "address"
            },
            {
              "internalType": "string",
              "name": "eventImage",
              "type": "string"
            }
          ],
          "internalType": "struct ContractEvent.Event[]",
          "name": "",
          "type": "tuple[]"
        }
      ],
      "stateMutability": "view",
      "type": "function",
      "constant": true
    }
  ],
  "bytecode": "0x608060405234801561001057600080fd5b50612973806100206000396000f3fe608060405234801561001057600080fd5b50600436106100885760003560e01c8063ae1829e11161005b578063ae1829e114610115578063dfb6028514610145578063f765b6b11461017e578063f971e1e6146101b757610088565b80633cbb95f61461008d578063404aa8f9146100ab5780636f5f4907146100c9578063aa26176c146100f9575b600080fd5b6100956101d3565b6040516100a29190611cdb565b60405180910390f35b6100b361022b565b6040516100c09190611fb2565b60405180910390f35b6100e360048036038101906100de919061201e565b6106d9565b6040516100f0919061205a565b60405180910390f35b610113600480360381019061010e91906120a1565b6106fd565b005b61012f600480360381019061012a9190612203565b610a5b565b60405161013c9190611fb2565b60405180910390f35b61015f600480360381019061015a91906120a1565b610ffe565b6040516101759a999897969594939291906122b4565b60405180910390f35b610198600480360381019061019391906120a1565b611356565b6040516101ae9a999897969594939291906122b4565b60405180910390f35b6101d160048036038101906101cc919061239f565b6117c2565b005b6060600180548060200260200160405190810160405280929190818152602001828054801561022157602002820191906000526020600020905b81548152602001906001019080831161020d575b5050505050905090565b606060018054905067ffffffffffffffff81111561024c5761024b6120d8565b5b60405190808252806020026020018201604052801561028557816020015b610272611aa6565b81526020019060019003908161026a5790505b50905060005b6001805490508110156106d557600080600183815481106102af576102ae6124f5565b5b9060005260206000200154815260200190815260200160002060405180610140016040529081600082015481526020016001820180546102ee90612553565b80601f016020809104026020016040519081016040528092919081815260200182805461031a90612553565b80156103675780601f1061033c57610100808354040283529160200191610367565b820191906000526020600020905b81548152906001019060200180831161034a57829003601f168201915b505050505081526020016002820160009054906101000a900467ffffffffffffffff1667ffffffffffffffff1667ffffffffffffffff1681526020016002820160089054906101000a900467ffffffffffffffff1667ffffffffffffffff1667ffffffffffffffff1681526020016002820160109054906101000a900467ffffffffffffffff1667ffffffffffffffff1667ffffffffffffffff16815260200160038201805461041690612553565b80601f016020809104026020016040519081016040528092919081815260200182805461044290612553565b801561048f5780601f106104645761010080835404028352916020019161048f565b820191906000526020600020905b81548152906001019060200180831161047257829003601f168201915b505050505081526020016004820180546104a890612553565b80601f01602080910402602001604051908101604052809291908181526020018280546104d490612553565b80156105215780601f106104f657610100808354040283529160200191610521565b820191906000526020600020905b81548152906001019060200180831161050457829003601f168201915b5050505050815260200160058201805461053a90612553565b80601f016020809104026020016040519081016040528092919081815260200182805461056690612553565b80156105b35780601f10610588576101008083540402835291602001916105b3565b820191906000526020600020905b81548152906001019060200180831161059657829003601f168201915b505050505081526020016006820160009054906101000a900473ffffffffffffffffffffffffffffffffffffffff1673ffffffffffffffffffffffffffffffffffffffff1673ffffffffffffffffffffffffffffffffffffffff16815260200160078201805461062290612553565b80601f016020809104026020016040519081016040528092919081815260200182805461064e90612553565b801561069b5780601f106106705761010080835404028352916020019161069b565b820191906000526020600020905b81548152906001019060200180831161067e57829003601f168201915b5050505050815250508282815181106106b7576106b66124f5565b5b602002602001018190525080806106cd906125b4565b91505061028b565b5090565b600181815481106106e957600080fd5b906000526020600020016000915090505481565b803373ffffffffffffffffffffffffffffffffffffffff1660008083815260200190815260200160002060060160009054906101000a900473ffffffffffffffffffffffffffffffffffffffff1673ffffffffffffffffffffffffffffffffffffffff16146107a1576040517f08c379a00000000000000000000000000000000000000000000000000000000081526004016107989061266f565b60405180910390fd5b4260008084815260200190815260200160002060020160009054906101000a900467ffffffffffffffff1667ffffffffffffffff1611610816576040517f08c379a000000000000000000000000000000000000000000000000000000000815260040161080d90612701565b60405180910390fd5b600080600084815260200190815260200160002060020160109054906101000a900467ffffffffffffffff1660008085815260200190815260200160002060020160089054906101000a900467ffffffffffffffff166108769190612721565b90503373ffffffffffffffffffffffffffffffffffffffff166108fc8267ffffffffffffffff169081150290604051600060405180830381858888f193505050501580156108c8573d6000803e3d6000fd5b506000808481526020019081526020016000206000808201600090556001820160006108f49190611b30565b6002820160006101000a81549067ffffffffffffffff02191690556002820160086101000a81549067ffffffffffffffff02191690556002820160106101000a81549067ffffffffffffffff02191690556003820160006109559190611b30565b6004820160006109659190611b30565b6005820160006109759190611b30565b6006820160006101000a81549073ffffffffffffffffffffffffffffffffffffffff02191690556007820160006109ac9190611b30565b505060005b600180549050811015610a1e5783600182815481106109d3576109d26124f5565b5b90600052602060002001541415610a0b57600181815481106109f8576109f76124f5565b5b9060005260206000200160009055610a1e565b8080610a16906125b4565b9150506109b1565b507fc0919dcb7e0b464ce8146ec897e4a566e6a1af62233364998f3da696e08b500b83604051610a4e919061205a565b60405180910390a1505050565b60606000805b600180549050811015610ae657838051906020012060008060018481548110610a8d57610a8c6124f5565b5b90600052602060002001548152602001908152602001600020600501604051610ab69190612802565b60405180910390201415610ad3578180610acf906125b4565b9250505b8080610ade906125b4565b915050610a61565b5060008167ffffffffffffffff811115610b0357610b026120d8565b5b604051908082528060200260200182016040528015610b3c57816020015b610b29611aa6565b815260200190600190039081610b215790505b5090506000805b600180549050811015610ff257858051906020012060008060018481548110610b6f57610b6e6124f5565b5b90600052602060002001548152602001908152602001600020600501604051610b989190612802565b60405180910390201415610fdf5760008060018381548110610bbd57610bbc6124f5565b5b906000526020600020015481526020019081526020016000206040518061014001604052908160008201548152602001600182018054610bfc90612553565b80601f0160208091040260200160405190810160405280929190818152602001828054610c2890612553565b8015610c755780601f10610c4a57610100808354040283529160200191610c75565b820191906000526020600020905b815481529060010190602001808311610c5857829003601f168201915b505050505081526020016002820160009054906101000a900467ffffffffffffffff1667ffffffffffffffff1667ffffffffffffffff1681526020016002820160089054906101000a900467ffffffffffffffff1667ffffffffffffffff1667ffffffffffffffff1681526020016002820160109054906101000a900467ffffffffffffffff1667ffffffffffffffff1667ffffffffffffffff168152602001600382018054610d2490612553565b80601f0160208091040260200160405190810160405280929190818152602001828054610d5090612553565b8015610d9d5780601f10610d7257610100808354040283529160200191610d9d565b820191906000526020600020905b815481529060010190602001808311610d8057829003601f168201915b50505050508152602001600482018054610db690612553565b80601f0160208091040260200160405190810160405280929190818152602001828054610de290612553565b8015610e2f5780601f10610e0457610100808354040283529160200191610e2f565b820191906000526020600020905b815481529060010190602001808311610e1257829003601f168201915b50505050508152602001600582018054610e4890612553565b80601f0160208091040260200160405190810160405280929190818152602001828054610e7490612553565b8015610ec15780601f10610e9657610100808354040283529160200191610ec1565b820191906000526020600020905b815481529060010190602001808311610ea457829003601f168201915b505050505081526020016006820160009054906101000a900473ffffffffffffffffffffffffffffffffffffffff1673ffffffffffffffffffffffffffffffffffffffff1673ffffffffffffffffffffffffffffffffffffffff168152602001600782018054610f3090612553565b80601f0160208091040260200160405190810160405280929190818152602001828054610f5c90612553565b8015610fa95780601f10610f7e57610100808354040283529160200191610fa9565b820191906000526020600020905b815481529060010190602001808311610f8c57829003601f168201915b505050505081525050838381518110610fc557610fc46124f5565b5b60200260200101819052508180610fdb906125b4565b9250505b8080610fea906125b4565b915050610b43565b50819350505050919050565b600060205280600052604060002060009150905080600001549080600101805461102790612553565b80601f016020809104026020016040519081016040528092919081815260200182805461105390612553565b80156110a05780601f10611075576101008083540402835291602001916110a0565b820191906000526020600020905b81548152906001019060200180831161108357829003601f168201915b5050505050908060020160009054906101000a900467ffffffffffffffff16908060020160089054906101000a900467ffffffffffffffff16908060020160109054906101000a900467ffffffffffffffff169080600301805461110390612553565b80601f016020809104026020016040519081016040528092919081815260200182805461112f90612553565b801561117c5780601f106111515761010080835404028352916020019161117c565b820191906000526020600020905b81548152906001019060200180831161115f57829003601f168201915b50505050509080600401805461119190612553565b80601f01602080910402602001604051908101604052809291908181526020018280546111bd90612553565b801561120a5780601f106111df5761010080835404028352916020019161120a565b820191906000526020600020905b8154815290600101906020018083116111ed57829003601f168201915b50505050509080600501805461121f90612553565b80601f016020809104026020016040519081016040528092919081815260200182805461124b90612553565b80156112985780601f1061126d57610100808354040283529160200191611298565b820191906000526020600020905b81548152906001019060200180831161127b57829003601f168201915b5050505050908060060160009054906101000a900473ffffffffffffffffffffffffffffffffffffffff16908060070180546112d390612553565b80601f01602080910402602001604051908101604052809291908181526020018280546112ff90612553565b801561134c5780601f106113215761010080835404028352916020019161134c565b820191906000526020600020905b81548152906001019060200180831161132f57829003601f168201915b505050505090508a565b6000606060008060006060806060600060608a8060008083815260200190815260200160002060000154146113c0576040517f08c379a00000000000000000000000000000000000000000000000000000000081526004016113b79061288b565b60405180910390fd5b6000808d8152602001908152602001600020600001549a506000808d815260200190815260200160002060010180546113f890612553565b80601f016020809104026020016040519081016040528092919081815260200182805461142490612553565b80156114715780601f1061144657610100808354040283529160200191611471565b820191906000526020600020905b81548152906001019060200180831161145457829003601f168201915b505050505099506000808d815260200190815260200160002060020160009054906101000a900467ffffffffffffffff1698506000808d815260200190815260200160002060020160089054906101000a900467ffffffffffffffff1697506000808d815260200190815260200160002060020160109054906101000a900467ffffffffffffffff1696506000808d8152602001908152602001600020600301805461151c90612553565b80601f016020809104026020016040519081016040528092919081815260200182805461154890612553565b80156115955780601f1061156a57610100808354040283529160200191611595565b820191906000526020600020905b81548152906001019060200180831161157857829003601f168201915b505050505095506000808d815260200190815260200160002060040180546115bc90612553565b80601f01602080910402602001604051908101604052809291908181526020018280546115e890612553565b80156116355780601f1061160a57610100808354040283529160200191611635565b820191906000526020600020905b81548152906001019060200180831161161857829003601f168201915b505050505094506000808d8152602001908152602001600020600501805461165c90612553565b80601f016020809104026020016040519081016040528092919081815260200182805461168890612553565b80156116d55780601f106116aa576101008083540402835291602001916116d5565b820191906000526020600020905b8154815290600101906020018083116116b857829003601f168201915b505050505093506000808d815260200190815260200160002060060160009054906101000a900473ffffffffffffffffffffffffffffffffffffffff1692506000808d8152602001908152602001600020600701805461173490612553565b80601f016020809104026020016040519081016040528092919081815260200182805461176090612553565b80156117ad5780601f10611782576101008083540402835291602001916117ad565b820191906000526020600020905b81548152906001019060200180831161179057829003601f168201915b50505050509150509193959799509193959799565b60005b6001805490508110156118465789600182815481106117e7576117e66124f5565b5b90600052602060002001541415611833576040517f08c379a000000000000000000000000000000000000000000000000000000000815260040161182a9061291d565b60405180910390fd5b808061183e906125b4565b9150506117c5565b50876000808b81526020019081526020016000206001019080519060200190611870929190611b70565b50886000808b815260200190815260200160002060000181905550866000808b815260200190815260200160002060020160006101000a81548167ffffffffffffffff021916908367ffffffffffffffff160217905550856000808b815260200190815260200160002060020160086101000a81548167ffffffffffffffff021916908367ffffffffffffffff160217905550846000808b815260200190815260200160002060020160106101000a81548167ffffffffffffffff021916908367ffffffffffffffff160217905550836000808b81526020019081526020016000206003019080519060200190611968929190611b70565b50826000808b81526020019081526020016000206004019080519060200190611992929190611b70565b50816000808b815260200190815260200160002060050190805190602001906119bc929190611b70565b50336000808b815260200190815260200160002060060160006101000a81548173ffffffffffffffffffffffffffffffffffffffff021916908373ffffffffffffffffffffffffffffffffffffffff160217905550806000808b81526020019081526020016000206007019080519060200190611a3a929190611b70565b5060018990806001815401808255809150506001900390600052602060002001600090919091909150557f9734e2c6faef2085e2efacd33d54cf02df9e7fd5618121b33589f637ac60804189604051611a93919061205a565b60405180910390a1505050505050505050565b6040518061014001604052806000801916815260200160608152602001600067ffffffffffffffff168152602001600067ffffffffffffffff168152602001600067ffffffffffffffff168152602001606081526020016060815260200160608152602001600073ffffffffffffffffffffffffffffffffffffffff168152602001606081525090565b508054611b3c90612553565b6000825580601f10611b4e5750611b6d565b601f016020900490600052602060002090810190611b6c9190611bf6565b5b50565b828054611b7c90612553565b90600052602060002090601f016020900481019282611b9e5760008555611be5565b82601f10611bb757805160ff1916838001178555611be5565b82800160010185558215611be5579182015b82811115611be4578251825591602001919060010190611bc9565b5b509050611bf29190611bf6565b5090565b5b80821115611c0f576000816000905550600101611bf7565b5090565b600081519050919050565b600082825260208201905092915050565b6000819050602082019050919050565b6000819050919050565b611c5281611c3f565b82525050565b6000611c648383611c49565b60208301905092915050565b6000602082019050919050565b6000611c8882611c13565b611c928185611c1e565b9350611c9d83611c2f565b8060005b83811015611cce578151611cb58882611c58565b9750611cc083611c70565b925050600181019050611ca1565b5085935050505092915050565b60006020820190508181036000830152611cf58184611c7d565b905092915050565b600081519050919050565b600082825260208201905092915050565b6000819050602082019050919050565b600081519050919050565b600082825260208201905092915050565b60005b83811015611d63578082015181840152602081019050611d48565b83811115611d72576000848401525b50505050565b6000601f19601f8301169050919050565b6000611d9482611d29565b611d9e8185611d34565b9350611dae818560208601611d45565b611db781611d78565b840191505092915050565b600067ffffffffffffffff82169050919050565b611ddf81611dc2565b82525050565b600073ffffffffffffffffffffffffffffffffffffffff82169050919050565b6000611e1082611de5565b9050919050565b611e2081611e05565b82525050565b600061014083016000830151611e3f6000860182611c49565b5060208301518482036020860152611e578282611d89565b9150506040830151611e6c6040860182611dd6565b506060830151611e7f6060860182611dd6565b506080830151611e926080860182611dd6565b5060a083015184820360a0860152611eaa8282611d89565b91505060c083015184820360c0860152611ec48282611d89565b91505060e083015184820360e0860152611ede8282611d89565b915050610100830151611ef5610100860182611e17565b50610120830151848203610120860152611f0f8282611d89565b9150508091505092915050565b6000611f288383611e26565b905092915050565b6000602082019050919050565b6000611f4882611cfd565b611f528185611d08565b935083602082028501611f6485611d19565b8060005b85811015611fa05784840389528151611f818582611f1c565b9450611f8c83611f30565b925060208a01995050600181019050611f68565b50829750879550505050505092915050565b60006020820190508181036000830152611fcc8184611f3d565b905092915050565b6000604051905090565b600080fd5b600080fd5b6000819050919050565b611ffb81611fe8565b811461200657600080fd5b50565b60008135905061201881611ff2565b92915050565b60006020828403121561203457612033611fde565b5b600061204284828501612009565b91505092915050565b61205481611c3f565b82525050565b600060208201905061206f600083018461204b565b92915050565b61207e81611c3f565b811461208957600080fd5b50565b60008135905061209b81612075565b92915050565b6000602082840312156120b7576120b6611fde565b5b60006120c58482850161208c565b91505092915050565b600080fd5b600080fd5b7f4e487b7100000000000000000000000000000000000000000000000000000000600052604160045260246000fd5b61211082611d78565b810181811067ffffffffffffffff8211171561212f5761212e6120d8565b5b80604052505050565b6000612142611fd4565b905061214e8282612107565b919050565b600067ffffffffffffffff82111561216e5761216d6120d8565b5b61217782611d78565b9050602081019050919050565b82818337600083830152505050565b60006121a66121a184612153565b612138565b9050828152602081018484840111156121c2576121c16120d3565b5b6121cd848285612184565b509392505050565b600082601f8301126121ea576121e96120ce565b5b81356121fa848260208601612193565b91505092915050565b60006020828403121561221957612218611fde565b5b600082013567ffffffffffffffff81111561223757612236611fe3565b5b612243848285016121d5565b91505092915050565b600082825260208201905092915050565b600061226882611d29565b612272818561224c565b9350612282818560208601611d45565b61228b81611d78565b840191505092915050565b61229f81611dc2565b82525050565b6122ae81611e05565b82525050565b6000610140820190506122ca600083018d61204b565b81810360208301526122dc818c61225d565b90506122eb604083018b612296565b6122f8606083018a612296565b6123056080830189612296565b81810360a0830152612317818861225d565b905081810360c083015261232b818761225d565b905081810360e083015261233f818661225d565b905061234f6101008301856122a5565b818103610120830152612362818461225d565b90509b9a5050505050505050505050565b61237c81611dc2565b811461238757600080fd5b50565b60008135905061239981612373565b92915050565b60008060008060008060008060006101208a8c0312156123c2576123c1611fde565b5b60006123d08c828d0161208c565b99505060208a013567ffffffffffffffff8111156123f1576123f0611fe3565b5b6123fd8c828d016121d5565b985050604061240e8c828d0161238a565b975050606061241f8c828d0161238a565b96505060806124308c828d0161238a565b95505060a08a013567ffffffffffffffff81111561245157612450611fe3565b5b61245d8c828d016121d5565b94505060c08a013567ffffffffffffffff81111561247e5761247d611fe3565b5b61248a8c828d016121d5565b93505060e08a013567ffffffffffffffff8111156124ab576124aa611fe3565b5b6124b78c828d016121d5565b9250506101008a013567ffffffffffffffff8111156124d9576124d8611fe3565b5b6124e58c828d016121d5565b9150509295985092959850929598565b7f4e487b7100000000000000000000000000000000000000000000000000000000600052603260045260246000fd5b7f4e487b7100000000000000000000000000000000000000000000000000000000600052602260045260246000fd5b6000600282049050600182168061256b57607f821691505b6020821081141561257f5761257e612524565b5b50919050565b7f4e487b7100000000000000000000000000000000000000000000000000000000600052601160045260246000fd5b60006125bf82611fe8565b91507fffffffffffffffffffffffffffffffffffffffffffffffffffffffffffffffff8214156125f2576125f1612585565b5b600182019050919050565b7f4f6e6c7920746865206576656e74206f776e65722063616e20706572666f726d60008201527f207468697320616374696f6e0000000000000000000000000000000000000000602082015250565b6000612659602c8361224c565b9150612664826125fd565b604082019050919050565b600060208201905081810360008301526126888161264c565b9050919050565b7f43616e6e6f742063616e63656c206576656e742061667465722069742068617360008201527f2073746172746564000000000000000000000000000000000000000000000000602082015250565b60006126eb60288361224c565b91506126f68261268f565b604082019050919050565b6000602082019050818103600083015261271a816126de565b9050919050565b600061272c82611dc2565b915061273783611dc2565b92508167ffffffffffffffff048311821515161561275857612757612585565b5b828202905092915050565b600081905092915050565b60008190508160005260206000209050919050565b6000815461279081612553565b61279a8186612763565b945060018216600081146127b557600181146127c6576127f9565b60ff198316865281860193506127f9565b6127cf8561276e565b60005b838110156127f1578154818901526001820191506020810190506127d2565b838801955050505b50505092915050565b600061280e8284612783565b915081905092915050565b7f4576656e742077697468207468697320494420646f6573206e6f74206578697360008201527f7400000000000000000000000000000000000000000000000000000000000000602082015250565b600061287560218361224c565b915061288082612819565b604082019050919050565b600060208201905081810360008301526128a481612868565b9050919050565b7f4576656e742077697468207468697320494420616c726561647920657869737460008201527f7300000000000000000000000000000000000000000000000000000000000000602082015250565b600061290760218361224c565b9150612912826128ab565b604082019050919050565b60006020820190508181036000830152612936816128fa565b905091905056fea26469706673582212200893e8f6ee28f69767c27edb1e11e63ee793f4ebcf3b3cf3e7e7fc8901b3aed664736f6c634300080a0033",
  "immutableReferences": {},
  "source": "// SPDX-License-Identifier: MIT\npragma solidity ^0.8.10;\n\ncontract ContractEvent {\n  mapping(bytes32 => Event) public allEvents;\n  bytes32[] public eventIdsList;\n\n  // All attributes for the Events (Maybe i need to add number of sell tickets?)\n  struct Event {\n    bytes32 eventID;\n    string eventName;\n    uint64 dateOfEvent;\n    uint64 numberOfTickets;\n    uint64 ticketPrice;\n    string placeName;\n    string eventDescription;\n    string eventCategory;\n    address eventOwner;\n    string eventImage;\n  }\n\n  event EventCreated(bytes32 eventID);\n  event EventCancelled(bytes32 eventID);\n\n  modifier onlyEventOwner(bytes32 _eventID) {\n    require(\n      allEvents[_eventID].eventOwner == msg.sender,\n      'Only the event owner can perform this action'\n    );\n    _;\n  }\n  modifier eventExists(bytes32 _eventID) {\n    require(allEvents[_eventID].eventID == _eventID, 'Event with this ID does not exist');\n    _;\n  }\n\n  //function to create an event\n  function createEvent(\n    bytes32 _eventID,\n    string memory _eventName,\n    uint64 _dateOfEvent,\n    uint64 _numberOfTickets,\n    uint64 _ticketPrice,\n    string memory _placeName,\n    string memory _eventDescription,\n    string memory _eventCategory,\n    string memory _eventImage\n  ) external {\n    for (uint i = 0; i < eventIdsList.length; i++) {\n      require(eventIdsList[i] != _eventID, 'Event with this ID already exists');\n    }\n\n    allEvents[_eventID].eventName = _eventName;\n    allEvents[_eventID].eventID = _eventID;\n    allEvents[_eventID].dateOfEvent = _dateOfEvent;\n    allEvents[_eventID].numberOfTickets = _numberOfTickets;\n    allEvents[_eventID].ticketPrice = _ticketPrice;\n    allEvents[_eventID].placeName = _placeName;\n    allEvents[_eventID].eventDescription = _eventDescription;\n    allEvents[_eventID].eventCategory = _eventCategory;\n    allEvents[_eventID].eventOwner = msg.sender;\n    allEvents[_eventID].eventImage = _eventImage;\n    eventIdsList.push(_eventID);\n    emit EventCreated(_eventID);\n  }\n\n  function cancelEvent(bytes32 _eventID) external onlyEventOwner(_eventID) {\n    require(\n      allEvents[_eventID].dateOfEvent > block.timestamp,\n      'Cannot cancel event after it has started'\n    );\n    uint64 refundedAmount = allEvents[_eventID].numberOfTickets * allEvents[_eventID].ticketPrice;\n    payable(msg.sender).transfer(refundedAmount);\n    delete allEvents[_eventID];\n    for (uint i = 0; i < eventIdsList.length; i++) {\n      if (eventIdsList[i] == _eventID) {\n        delete eventIdsList[i];\n        break;\n      }\n    }\n    emit EventCancelled(_eventID);\n  }\n\n  function getEventIDs() external view returns (bytes32[] memory eventList) {\n    return eventIdsList;\n  }\n\n  //function to get all events\n  function getEvents() external view returns (Event[] memory eventList) {\n    eventList = new Event[](eventIdsList.length);\n    for (uint i = 0; i < eventIdsList.length; i++) {\n      eventList[i] = allEvents[eventIdsList[i]];\n    }\n    return eventList;\n  }\n  //function to get info about event with given ID\n  function getEventInfo(\n    bytes32 _eventID\n  )\n    external\n    view\n    eventExists(_eventID)\n    returns (\n      bytes32 eventId,\n      string memory eventName,\n      uint64 dateOfEvent,\n      uint64 numberOfTickets,\n      uint64 ticketPrice,\n      string memory placeName,\n      string memory eventDescription,\n      string memory eventCategory,\n      address eventOwner,\n      string memory eventImage\n    )\n  {\n    eventId = allEvents[_eventID].eventID;\n    eventName = allEvents[_eventID].eventName;\n    dateOfEvent = allEvents[_eventID].dateOfEvent;\n    numberOfTickets = allEvents[_eventID].numberOfTickets;\n    ticketPrice = allEvents[_eventID].ticketPrice;\n    placeName = allEvents[_eventID].placeName;\n    eventDescription = allEvents[_eventID].eventDescription;\n    eventCategory = allEvents[_eventID].eventCategory;\n    eventOwner = allEvents[_eventID].eventOwner;\n    eventImage = allEvents[_eventID].eventImage;\n  }\n  //function to get events by selected category\n  function getEventsByCategory(string memory _category) external view returns (Event[] memory) {\n    uint256 count = 0;\n    for (uint256 i = 0; i < eventIdsList.length; i++) {\n      if (\n        keccak256(bytes(allEvents[eventIdsList[i]].eventCategory)) == keccak256(bytes(_category))\n      ) {\n        count++;\n      }\n    }\n    Event[] memory categoryEvents = new Event[](count);\n    uint256 index = 0;\n\n    for (uint256 j = 0; j < eventIdsList.length; j++) {\n      if (\n        keccak256(bytes(allEvents[eventIdsList[j]].eventCategory)) == keccak256(bytes(_category))\n      ) {\n        categoryEvents[index] = allEvents[eventIdsList[j]];\n        index++;\n      }\n    }\n    return categoryEvents;\n  }\n}\n",
  "sourcePath": "/Users/janmrakava/Documents/GitHub/blockticket_blockchain/client/contracts/Event.sol",
  "compiler": {
    "name": "solc",
    "version": "0.8.10+commit.fc410830.Emscripten.clang"
  },
  "schemaVersion": "3.4.16",
  "updatedAt": "2024-04-18T08:13:37.499Z",
  "networkType": "ethereum",
  "devdoc": {
    "kind": "dev",
    "methods": {},
    "version": 1
  },
  "userdoc": {
    "kind": "user",
    "methods": {},
    "version": 1
  }
}