{
  "contractName": "ContractEvent",
  "abi": [
    {
      "anonymous": false,
      "inputs": [
        {
          "indexed": false,
          "internalType": "bytes32",
          "name": "eventID",
          "type": "bytes32"
        }
      ],
      "name": "EventCancelled",
      "type": "event"
    },
    {
      "anonymous": false,
      "inputs": [
        {
          "indexed": false,
          "internalType": "bytes32",
          "name": "eventID",
          "type": "bytes32"
        }
      ],
      "name": "EventCreated",
      "type": "event"
    },
    {
      "anonymous": false,
      "inputs": [
        {
          "indexed": false,
          "internalType": "bytes32",
          "name": "eventID",
          "type": "bytes32"
        },
        {
          "indexed": false,
          "internalType": "bytes32",
          "name": "ticketID",
          "type": "bytes32"
        }
      ],
      "name": "TicketBought",
      "type": "event"
    },
    {
      "anonymous": false,
      "inputs": [
        {
          "indexed": false,
          "internalType": "bytes32",
          "name": "eventID",
          "type": "bytes32"
        },
        {
          "indexed": false,
          "internalType": "uint64",
          "name": "newTicketPrice",
          "type": "uint64"
        }
      ],
      "name": "TicketPriceUpdated",
      "type": "event"
    },
    {
      "inputs": [
        {
          "internalType": "bytes32",
          "name": "",
          "type": "bytes32"
        }
      ],
      "name": "allEvents",
      "outputs": [
        {
          "internalType": "bytes32",
          "name": "eventID",
          "type": "bytes32"
        },
        {
          "internalType": "string",
          "name": "eventName",
          "type": "string"
        },
        {
          "internalType": "uint64",
          "name": "dateOfEvent",
          "type": "uint64"
        },
        {
          "internalType": "uint64",
          "name": "numberOfTickets",
          "type": "uint64"
        },
        {
          "internalType": "uint64",
          "name": "ticketPrice",
          "type": "uint64"
        },
        {
          "internalType": "uint64",
          "name": "ticketsLeft",
          "type": "uint64"
        },
        {
          "internalType": "string",
          "name": "placeName",
          "type": "string"
        },
        {
          "internalType": "string",
          "name": "eventDescription",
          "type": "string"
        },
        {
          "internalType": "string",
          "name": "eventCategory",
          "type": "string"
        },
        {
          "internalType": "address",
          "name": "eventOwner",
          "type": "address"
        },
        {
          "internalType": "string",
          "name": "eventImage",
          "type": "string"
        },
        {
          "internalType": "uint64",
          "name": "soldTickets",
          "type": "uint64"
        }
      ],
      "stateMutability": "view",
      "type": "function",
      "constant": true
    },
    {
      "inputs": [
        {
          "internalType": "bytes32",
          "name": "",
          "type": "bytes32"
        }
      ],
      "name": "eventExists",
      "outputs": [
        {
          "internalType": "bool",
          "name": "",
          "type": "bool"
        }
      ],
      "stateMutability": "view",
      "type": "function",
      "constant": true
    },
    {
      "inputs": [
        {
          "internalType": "uint256",
          "name": "",
          "type": "uint256"
        }
      ],
      "name": "eventIdsList",
      "outputs": [
        {
          "internalType": "bytes32",
          "name": "",
          "type": "bytes32"
        }
      ],
      "stateMutability": "view",
      "type": "function",
      "constant": true
    },
    {
      "inputs": [],
      "name": "ticketAddress",
      "outputs": [
        {
          "internalType": "address",
          "name": "",
          "type": "address"
        }
      ],
      "stateMutability": "view",
      "type": "function",
      "constant": true
    },
    {
      "inputs": [
        {
          "internalType": "address",
          "name": "_ticketAddress",
          "type": "address"
        }
      ],
      "name": "setTicketContractAddress",
      "outputs": [],
      "stateMutability": "nonpayable",
      "type": "function"
    },
    {
      "inputs": [
        {
          "internalType": "string",
          "name": "_eventName",
          "type": "string"
        },
        {
          "internalType": "uint64",
          "name": "_dateOfEvent",
          "type": "uint64"
        },
        {
          "internalType": "uint64",
          "name": "_numberOfTickets",
          "type": "uint64"
        },
        {
          "internalType": "uint64",
          "name": "_ticketPrice",
          "type": "uint64"
        },
        {
          "internalType": "string",
          "name": "_placeName",
          "type": "string"
        },
        {
          "internalType": "string",
          "name": "_eventDescription",
          "type": "string"
        },
        {
          "internalType": "string",
          "name": "_eventCategory",
          "type": "string"
        },
        {
          "internalType": "string",
          "name": "_eventImage",
          "type": "string"
        }
      ],
      "name": "createEvent",
      "outputs": [],
      "stateMutability": "nonpayable",
      "type": "function"
    },
    {
      "inputs": [
        {
          "internalType": "bytes32",
          "name": "_eventID",
          "type": "bytes32"
        },
        {
          "internalType": "uint64",
          "name": "_newTicketPrice",
          "type": "uint64"
        }
      ],
      "name": "updateTicketPrice",
      "outputs": [],
      "stateMutability": "nonpayable",
      "type": "function"
    },
    {
      "inputs": [],
      "name": "getEventIDs",
      "outputs": [
        {
          "internalType": "bytes32[]",
          "name": "eventList",
          "type": "bytes32[]"
        }
      ],
      "stateMutability": "view",
      "type": "function",
      "constant": true
    },
    {
      "inputs": [],
      "name": "getEvents",
      "outputs": [
        {
          "components": [
            {
              "internalType": "bytes32",
              "name": "eventID",
              "type": "bytes32"
            },
            {
              "internalType": "string",
              "name": "eventName",
              "type": "string"
            },
            {
              "internalType": "uint64",
              "name": "dateOfEvent",
              "type": "uint64"
            },
            {
              "internalType": "uint64",
              "name": "numberOfTickets",
              "type": "uint64"
            },
            {
              "internalType": "uint64",
              "name": "ticketPrice",
              "type": "uint64"
            },
            {
              "internalType": "uint64",
              "name": "ticketsLeft",
              "type": "uint64"
            },
            {
              "internalType": "string",
              "name": "placeName",
              "type": "string"
            },
            {
              "internalType": "string",
              "name": "eventDescription",
              "type": "string"
            },
            {
              "internalType": "string",
              "name": "eventCategory",
              "type": "string"
            },
            {
              "internalType": "address",
              "name": "eventOwner",
              "type": "address"
            },
            {
              "internalType": "string",
              "name": "eventImage",
              "type": "string"
            },
            {
              "internalType": "uint64",
              "name": "soldTickets",
              "type": "uint64"
            }
          ],
          "internalType": "struct ContractEvent.Event[]",
          "name": "eventList",
          "type": "tuple[]"
        }
      ],
      "stateMutability": "view",
      "type": "function",
      "constant": true
    },
    {
      "inputs": [
        {
          "internalType": "bytes32",
          "name": "_eventID",
          "type": "bytes32"
        }
      ],
      "name": "getEventInfo",
      "outputs": [
        {
          "components": [
            {
              "internalType": "bytes32",
              "name": "eventID",
              "type": "bytes32"
            },
            {
              "internalType": "string",
              "name": "eventName",
              "type": "string"
            },
            {
              "internalType": "uint64",
              "name": "dateOfEvent",
              "type": "uint64"
            },
            {
              "internalType": "uint64",
              "name": "numberOfTickets",
              "type": "uint64"
            },
            {
              "internalType": "uint64",
              "name": "ticketPrice",
              "type": "uint64"
            },
            {
              "internalType": "uint64",
              "name": "ticketsLeft",
              "type": "uint64"
            },
            {
              "internalType": "string",
              "name": "placeName",
              "type": "string"
            },
            {
              "internalType": "string",
              "name": "eventDescription",
              "type": "string"
            },
            {
              "internalType": "string",
              "name": "eventCategory",
              "type": "string"
            },
            {
              "internalType": "address",
              "name": "eventOwner",
              "type": "address"
            },
            {
              "internalType": "string",
              "name": "eventImage",
              "type": "string"
            },
            {
              "internalType": "uint64",
              "name": "soldTickets",
              "type": "uint64"
            }
          ],
          "internalType": "struct ContractEvent.Event",
          "name": "",
          "type": "tuple"
        }
      ],
      "stateMutability": "view",
      "type": "function",
      "constant": true
    },
    {
      "inputs": [
        {
          "internalType": "string",
          "name": "_category",
          "type": "string"
        }
      ],
      "name": "getEventsByCategory",
      "outputs": [
        {
          "components": [
            {
              "internalType": "bytes32",
              "name": "eventID",
              "type": "bytes32"
            },
            {
              "internalType": "string",
              "name": "eventName",
              "type": "string"
            },
            {
              "internalType": "uint64",
              "name": "dateOfEvent",
              "type": "uint64"
            },
            {
              "internalType": "uint64",
              "name": "numberOfTickets",
              "type": "uint64"
            },
            {
              "internalType": "uint64",
              "name": "ticketPrice",
              "type": "uint64"
            },
            {
              "internalType": "uint64",
              "name": "ticketsLeft",
              "type": "uint64"
            },
            {
              "internalType": "string",
              "name": "placeName",
              "type": "string"
            },
            {
              "internalType": "string",
              "name": "eventDescription",
              "type": "string"
            },
            {
              "internalType": "string",
              "name": "eventCategory",
              "type": "string"
            },
            {
              "internalType": "address",
              "name": "eventOwner",
              "type": "address"
            },
            {
              "internalType": "string",
              "name": "eventImage",
              "type": "string"
            },
            {
              "internalType": "uint64",
              "name": "soldTickets",
              "type": "uint64"
            }
          ],
          "internalType": "struct ContractEvent.Event[]",
          "name": "",
          "type": "tuple[]"
        }
      ],
      "stateMutability": "view",
      "type": "function",
      "constant": true
    },
    {
      "inputs": [],
      "name": "getEventsForOwner",
      "outputs": [
        {
          "components": [
            {
              "internalType": "bytes32",
              "name": "eventID",
              "type": "bytes32"
            },
            {
              "internalType": "string",
              "name": "eventName",
              "type": "string"
            },
            {
              "internalType": "uint64",
              "name": "dateOfEvent",
              "type": "uint64"
            },
            {
              "internalType": "uint64",
              "name": "numberOfTickets",
              "type": "uint64"
            },
            {
              "internalType": "uint64",
              "name": "ticketPrice",
              "type": "uint64"
            },
            {
              "internalType": "uint64",
              "name": "ticketsLeft",
              "type": "uint64"
            },
            {
              "internalType": "string",
              "name": "placeName",
              "type": "string"
            },
            {
              "internalType": "string",
              "name": "eventDescription",
              "type": "string"
            },
            {
              "internalType": "string",
              "name": "eventCategory",
              "type": "string"
            },
            {
              "internalType": "address",
              "name": "eventOwner",
              "type": "address"
            },
            {
              "internalType": "string",
              "name": "eventImage",
              "type": "string"
            },
            {
              "internalType": "uint64",
              "name": "soldTickets",
              "type": "uint64"
            }
          ],
          "internalType": "struct ContractEvent.Event[]",
          "name": "",
          "type": "tuple[]"
        }
      ],
      "stateMutability": "view",
      "type": "function",
      "constant": true
    },
    {
      "inputs": [
        {
          "internalType": "bytes32",
          "name": "_eventID",
          "type": "bytes32"
        }
      ],
      "name": "cancelEvent",
      "outputs": [
        {
          "internalType": "bytes32",
          "name": "",
          "type": "bytes32"
        }
      ],
      "stateMutability": "nonpayable",
      "type": "function"
    },
    {
      "inputs": [
        {
          "internalType": "bytes32",
          "name": "_eventID",
          "type": "bytes32"
        }
      ],
      "name": "buyTicket",
      "outputs": [
        {
          "internalType": "bytes32",
          "name": "",
          "type": "bytes32"
        }
      ],
      "stateMutability": "nonpayable",
      "type": "function"
    }
  ],
  "bytecode": "0x608060405234801561001057600080fd5b50613d98806100206000396000f3fe608060405234801561001057600080fd5b50600436106100ea5760003560e01c806392826b481161008c578063db0817c511610066578063db0817c51461025d578063dfb602851461027b578063e5423274146102b6578063f765b6b1146102e6576100ea565b806392826b48146101e1578063aa26176c146101fd578063ae1829e11461022d576100ea565b8063404aa8f9116100c8578063404aa8f91461015957806357a8e3fe146101775780636f5f49071461019557806370cef5a5146101c5576100ea565b8063118e58bd146100ef57806312acb2401461011f5780633cbb95f61461013b575b600080fd5b61010960048036038101906101049190612ba6565b610316565b6040516101169190612bee565b60405180910390f35b61013960048036038101906101349190612c49565b610336565b005b610143610505565b6040516101509190612d47565b60405180910390f35b61016161055d565b60405161016e9190613034565b60405180910390f35b61017f610a70565b60405161018c9190613065565b60405180910390f35b6101af60048036038101906101aa91906130b6565b610a96565b6040516101bc91906130f2565b60405180910390f35b6101df60048036038101906101da9190613242565b610aba565b005b6101fb60048036038101906101f691906133b0565b610e61565b005b61021760048036038101906102129190612ba6565b610ea4565b60405161022491906130f2565b60405180910390f35b610247600480360381019061024291906133dd565b61124e565b6040516102549190613034565b60405180910390f35b610265611858565b6040516102729190613034565b60405180910390f35b61029560048036038101906102909190612ba6565b611ec2565b6040516102ad9c9b9a9998979695949392919061347f565b60405180910390f35b6102d060048036038101906102cb9190612ba6565b61224e565b6040516102dd91906130f2565b60405180910390f35b61030060048036038101906102fb9190612ba6565b612509565b60405161030d919061367c565b60405180910390f35b60026020528060005260406000206000915054906101000a900460ff1681565b813373ffffffffffffffffffffffffffffffffffffffff166001600083815260200190815260200160002060060160009054906101000a900473ffffffffffffffffffffffffffffffffffffffff1673ffffffffffffffffffffffffffffffffffffffff16146103db576040517f08c379a00000000000000000000000000000000000000000000000000000000081526004016103d290613710565b60405180910390fd5b826002600082815260200190815260200160002060009054906101000a900460ff1661043c576040517f08c379a00000000000000000000000000000000000000000000000000000000081526004016104339061377c565b60405180910390fd5b60008367ffffffffffffffff1611610489576040517f08c379a00000000000000000000000000000000000000000000000000000000081526004016104809061380e565b60405180910390fd5b826001600086815260200190815260200160002060020160106101000a81548167ffffffffffffffff021916908367ffffffffffffffff1602179055507f0dc2e2994cc6121fbd0f46abaefc7de3a48aa2facac17978bb4fe0ef8b7cdabb84846040516104f792919061382e565b60405180910390a150505050565b6060600380548060200260200160405190810160405280929190818152602001828054801561055357602002820191906000526020600020905b81548152602001906001019080831161053f575b5050505050905090565b606060038054905067ffffffffffffffff81111561057e5761057d613117565b5b6040519080825280602002602001820160405280156105b757816020015b6105a46129cd565b81526020019060019003908161059c5790505b50905060005b600380549050811015610a6c5760016000600383815481106105e2576105e1613857565b5b906000526020600020015481526020019081526020016000206040518061018001604052908160008201548152602001600182018054610621906138b5565b80601f016020809104026020016040519081016040528092919081815260200182805461064d906138b5565b801561069a5780601f1061066f5761010080835404028352916020019161069a565b820191906000526020600020905b81548152906001019060200180831161067d57829003601f168201915b505050505081526020016002820160009054906101000a900467ffffffffffffffff1667ffffffffffffffff1667ffffffffffffffff1681526020016002820160089054906101000a900467ffffffffffffffff1667ffffffffffffffff1667ffffffffffffffff1681526020016002820160109054906101000a900467ffffffffffffffff1667ffffffffffffffff1667ffffffffffffffff1681526020016002820160189054906101000a900467ffffffffffffffff1667ffffffffffffffff1667ffffffffffffffff16815260200160038201805461077b906138b5565b80601f01602080910402602001604051908101604052809291908181526020018280546107a7906138b5565b80156107f45780601f106107c9576101008083540402835291602001916107f4565b820191906000526020600020905b8154815290600101906020018083116107d757829003601f168201915b5050505050815260200160048201805461080d906138b5565b80601f0160208091040260200160405190810160405280929190818152602001828054610839906138b5565b80156108865780601f1061085b57610100808354040283529160200191610886565b820191906000526020600020905b81548152906001019060200180831161086957829003601f168201915b5050505050815260200160058201805461089f906138b5565b80601f01602080910402602001604051908101604052809291908181526020018280546108cb906138b5565b80156109185780601f106108ed57610100808354040283529160200191610918565b820191906000526020600020905b8154815290600101906020018083116108fb57829003601f168201915b505050505081526020016006820160009054906101000a900473ffffffffffffffffffffffffffffffffffffffff1673ffffffffffffffffffffffffffffffffffffffff1673ffffffffffffffffffffffffffffffffffffffff168152602001600782018054610987906138b5565b80601f01602080910402602001604051908101604052809291908181526020018280546109b3906138b5565b8015610a005780601f106109d557610100808354040283529160200191610a00565b820191906000526020600020905b8154815290600101906020018083116109e357829003601f168201915b505050505081526020016008820160009054906101000a900467ffffffffffffffff1667ffffffffffffffff1667ffffffffffffffff1681525050828281518110610a4e57610a4d613857565b5b60200260200101819052508080610a6490613916565b9150506105bd565b5090565b600460009054906101000a900473ffffffffffffffffffffffffffffffffffffffff1681565b60038181548110610aa657600080fd5b906000526020600020016000915090505481565b60008842604051602001610acf9291906139bc565b6040516020818303038152906040528051906020012090506002600082815260200190815260200160002060009054906101000a900460ff1615610b48576040517f08c379a0000000000000000000000000000000000000000000000000000000008152600401610b3f90613a56565b60405180910390fd5b6040518061018001604052808281526020018a81526020018967ffffffffffffffff1681526020018867ffffffffffffffff1681526020018767ffffffffffffffff1681526020018867ffffffffffffffff1681526020018681526020018581526020018481526020013373ffffffffffffffffffffffffffffffffffffffff168152602001838152602001600067ffffffffffffffff1681525060016000838152602001908152602001600020600082015181600001556020820151816001019080519060200190610c1c929190612a79565b5060408201518160020160006101000a81548167ffffffffffffffff021916908367ffffffffffffffff16021790555060608201518160020160086101000a81548167ffffffffffffffff021916908367ffffffffffffffff16021790555060808201518160020160106101000a81548167ffffffffffffffff021916908367ffffffffffffffff16021790555060a08201518160020160186101000a81548167ffffffffffffffff021916908367ffffffffffffffff16021790555060c0820151816003019080519060200190610cf5929190612a79565b5060e0820151816004019080519060200190610d12929190612a79565b50610100820151816005019080519060200190610d30929190612a79565b506101208201518160060160006101000a81548173ffffffffffffffffffffffffffffffffffffffff021916908373ffffffffffffffffffffffffffffffffffffffff160217905550610140820151816007019080519060200190610d96929190612a79565b506101608201518160080160006101000a81548167ffffffffffffffff021916908367ffffffffffffffff160217905550905050600381908060018154018082558091505060019003906000526020600020016000909190919091505560016002600083815260200190815260200160002060006101000a81548160ff0219169083151502179055507f9734e2c6faef2085e2efacd33d54cf02df9e7fd5618121b33589f637ac60804181604051610e4e91906130f2565b60405180910390a1505050505050505050565b806000806101000a81548173ffffffffffffffffffffffffffffffffffffffff021916908373ffffffffffffffffffffffffffffffffffffffff16021790555050565b6000813373ffffffffffffffffffffffffffffffffffffffff166001600083815260200190815260200160002060060160009054906101000a900473ffffffffffffffffffffffffffffffffffffffff1673ffffffffffffffffffffffffffffffffffffffff1614610f4b576040517f08c379a0000000000000000000000000000000000000000000000000000000008152600401610f4290613710565b60405180910390fd5b826002600082815260200190815260200160002060009054906101000a900460ff16610fac576040517f08c379a0000000000000000000000000000000000000000000000000000000008152600401610fa39061377c565b60405180910390fd5b6000600160008681526020019081526020016000209050428160020160009054906101000a900467ffffffffffffffff1667ffffffffffffffff1611611027576040517f08c379a000000000000000000000000000000000000000000000000000000000815260040161101e90613ae8565b60405180910390fd5b600160008681526020019081526020016000206000808201600090556001820160006110539190612aff565b6002820160006101000a81549067ffffffffffffffff02191690556002820160086101000a81549067ffffffffffffffff02191690556002820160106101000a81549067ffffffffffffffff02191690556002820160186101000a81549067ffffffffffffffff02191690556003820160006110cf9190612aff565b6004820160006110df9190612aff565b6005820160006110ef9190612aff565b6006820160006101000a81549073ffffffffffffffffffffffffffffffffffffffff02191690556007820160006111269190612aff565b6008820160006101000a81549067ffffffffffffffff0219169055505060005b60038054905081101561120b57856003828154811061116857611167613857565b5b906000526020600020015414156111f8576003600160038054905061118d9190613b08565b8154811061119e5761119d613857565b5b9060005260206000200154600382815481106111bd576111bc613857565b5b906000526020600020018190555060038054806111dd576111dc613b3c565b5b6001900381819060005260206000200160009055905561120b565b808061120390613916565b915050611146565b507fc0919dcb7e0b464ce8146ec897e4a566e6a1af62233364998f3da696e08b500b8560405161123b91906130f2565b60405180910390a1849350505050919050565b60606000805b6003805490508110156112da578380519060200120600160006003848154811061128157611280613857565b5b906000526020600020015481526020019081526020016000206005016040516112aa9190613c0a565b604051809103902014156112c75781806112c390613916565b9250505b80806112d290613916565b915050611254565b5060008167ffffffffffffffff8111156112f7576112f6613117565b5b60405190808252806020026020018201604052801561133057816020015b61131d6129cd565b8152602001906001900390816113155790505b5090506000805b60038054905081101561184c578580519060200120600160006003848154811061136457611363613857565b5b9060005260206000200154815260200190815260200160002060050160405161138d9190613c0a565b604051809103902014156118395760016000600383815481106113b3576113b2613857565b5b9060005260206000200154815260200190815260200160002060405180610180016040529081600082015481526020016001820180546113f2906138b5565b80601f016020809104026020016040519081016040528092919081815260200182805461141e906138b5565b801561146b5780601f106114405761010080835404028352916020019161146b565b820191906000526020600020905b81548152906001019060200180831161144e57829003601f168201915b505050505081526020016002820160009054906101000a900467ffffffffffffffff1667ffffffffffffffff1667ffffffffffffffff1681526020016002820160089054906101000a900467ffffffffffffffff1667ffffffffffffffff1667ffffffffffffffff1681526020016002820160109054906101000a900467ffffffffffffffff1667ffffffffffffffff1667ffffffffffffffff1681526020016002820160189054906101000a900467ffffffffffffffff1667ffffffffffffffff1667ffffffffffffffff16815260200160038201805461154c906138b5565b80601f0160208091040260200160405190810160405280929190818152602001828054611578906138b5565b80156115c55780601f1061159a576101008083540402835291602001916115c5565b820191906000526020600020905b8154815290600101906020018083116115a857829003601f168201915b505050505081526020016004820180546115de906138b5565b80601f016020809104026020016040519081016040528092919081815260200182805461160a906138b5565b80156116575780601f1061162c57610100808354040283529160200191611657565b820191906000526020600020905b81548152906001019060200180831161163a57829003601f168201915b50505050508152602001600582018054611670906138b5565b80601f016020809104026020016040519081016040528092919081815260200182805461169c906138b5565b80156116e95780601f106116be576101008083540402835291602001916116e9565b820191906000526020600020905b8154815290600101906020018083116116cc57829003601f168201915b505050505081526020016006820160009054906101000a900473ffffffffffffffffffffffffffffffffffffffff1673ffffffffffffffffffffffffffffffffffffffff1673ffffffffffffffffffffffffffffffffffffffff168152602001600782018054611758906138b5565b80601f0160208091040260200160405190810160405280929190818152602001828054611784906138b5565b80156117d15780601f106117a6576101008083540402835291602001916117d1565b820191906000526020600020905b8154815290600101906020018083116117b457829003601f168201915b505050505081526020016008820160009054906101000a900467ffffffffffffffff1667ffffffffffffffff1667ffffffffffffffff168152505083838151811061181f5761181e613857565b5b6020026020010181905250818061183590613916565b9250505b808061184490613916565b915050611337565b50819350505050919050565b60606000805b600380549050811015611915573373ffffffffffffffffffffffffffffffffffffffff16600160006003848154811061189a57611899613857565b5b9060005260206000200154815260200190815260200160002060060160009054906101000a900473ffffffffffffffffffffffffffffffffffffffff1673ffffffffffffffffffffffffffffffffffffffff1614156119025781806118fe90613916565b9250505b808061190d90613916565b91505061185e565b5060008167ffffffffffffffff81111561193257611931613117565b5b60405190808252806020026020018201604052801561196b57816020015b6119586129cd565b8152602001906001900390816119505790505b5090506000805b600380549050811015611eb8573373ffffffffffffffffffffffffffffffffffffffff1660016000600384815481106119ae576119ad613857565b5b9060005260206000200154815260200190815260200160002060060160009054906101000a900473ffffffffffffffffffffffffffffffffffffffff1673ffffffffffffffffffffffffffffffffffffffff161415611ea5576001600060038381548110611a1f57611a1e613857565b5b906000526020600020015481526020019081526020016000206040518061018001604052908160008201548152602001600182018054611a5e906138b5565b80601f0160208091040260200160405190810160405280929190818152602001828054611a8a906138b5565b8015611ad75780601f10611aac57610100808354040283529160200191611ad7565b820191906000526020600020905b815481529060010190602001808311611aba57829003601f168201915b505050505081526020016002820160009054906101000a900467ffffffffffffffff1667ffffffffffffffff1667ffffffffffffffff1681526020016002820160089054906101000a900467ffffffffffffffff1667ffffffffffffffff1667ffffffffffffffff1681526020016002820160109054906101000a900467ffffffffffffffff1667ffffffffffffffff1667ffffffffffffffff1681526020016002820160189054906101000a900467ffffffffffffffff1667ffffffffffffffff1667ffffffffffffffff168152602001600382018054611bb8906138b5565b80601f0160208091040260200160405190810160405280929190818152602001828054611be4906138b5565b8015611c315780601f10611c0657610100808354040283529160200191611c31565b820191906000526020600020905b815481529060010190602001808311611c1457829003601f168201915b50505050508152602001600482018054611c4a906138b5565b80601f0160208091040260200160405190810160405280929190818152602001828054611c76906138b5565b8015611cc35780601f10611c9857610100808354040283529160200191611cc3565b820191906000526020600020905b815481529060010190602001808311611ca657829003601f168201915b50505050508152602001600582018054611cdc906138b5565b80601f0160208091040260200160405190810160405280929190818152602001828054611d08906138b5565b8015611d555780601f10611d2a57610100808354040283529160200191611d55565b820191906000526020600020905b815481529060010190602001808311611d3857829003601f168201915b505050505081526020016006820160009054906101000a900473ffffffffffffffffffffffffffffffffffffffff1673ffffffffffffffffffffffffffffffffffffffff1673ffffffffffffffffffffffffffffffffffffffff168152602001600782018054611dc4906138b5565b80601f0160208091040260200160405190810160405280929190818152602001828054611df0906138b5565b8015611e3d5780601f10611e1257610100808354040283529160200191611e3d565b820191906000526020600020905b815481529060010190602001808311611e2057829003601f168201915b505050505081526020016008820160009054906101000a900467ffffffffffffffff1667ffffffffffffffff1667ffffffffffffffff1681525050838381518110611e8b57611e8a613857565b5b60200260200101819052508180611ea190613916565b9250505b8080611eb090613916565b915050611972565b5081935050505090565b6001602052806000526040600020600091509050806000015490806001018054611eeb906138b5565b80601f0160208091040260200160405190810160405280929190818152602001828054611f17906138b5565b8015611f645780601f10611f3957610100808354040283529160200191611f64565b820191906000526020600020905b815481529060010190602001808311611f4757829003601f168201915b5050505050908060020160009054906101000a900467ffffffffffffffff16908060020160089054906101000a900467ffffffffffffffff16908060020160109054906101000a900467ffffffffffffffff16908060020160189054906101000a900467ffffffffffffffff1690806003018054611fe1906138b5565b80601f016020809104026020016040519081016040528092919081815260200182805461200d906138b5565b801561205a5780601f1061202f5761010080835404028352916020019161205a565b820191906000526020600020905b81548152906001019060200180831161203d57829003601f168201915b50505050509080600401805461206f906138b5565b80601f016020809104026020016040519081016040528092919081815260200182805461209b906138b5565b80156120e85780601f106120bd576101008083540402835291602001916120e8565b820191906000526020600020905b8154815290600101906020018083116120cb57829003601f168201915b5050505050908060050180546120fd906138b5565b80601f0160208091040260200160405190810160405280929190818152602001828054612129906138b5565b80156121765780601f1061214b57610100808354040283529160200191612176565b820191906000526020600020905b81548152906001019060200180831161215957829003601f168201915b5050505050908060060160009054906101000a900473ffffffffffffffffffffffffffffffffffffffff16908060070180546121b1906138b5565b80601f01602080910402602001604051908101604052809291908181526020018280546121dd906138b5565b801561222a5780601f106121ff5761010080835404028352916020019161222a565b820191906000526020600020905b81548152906001019060200180831161220d57829003601f168201915b5050505050908060080160009054906101000a900467ffffffffffffffff1690508c565b6000813373ffffffffffffffffffffffffffffffffffffffff166001600083815260200190815260200160002060060160009054906101000a900473ffffffffffffffffffffffffffffffffffffffff1673ffffffffffffffffffffffffffffffffffffffff16146122f5576040517f08c379a00000000000000000000000000000000000000000000000000000000081526004016122ec90613710565b60405180910390fd5b826002600082815260200190815260200160002060009054906101000a900460ff16612356576040517f08c379a000000000000000000000000000000000000000000000000000000000815260040161234d9061377c565b60405180910390fd5b600060016000868152602001908152602001600020905060008060009054906101000a900473ffffffffffffffffffffffffffffffffffffffff1673ffffffffffffffffffffffffffffffffffffffff1663526a98ac878460020160109054906101000a900467ffffffffffffffff166040518363ffffffff1660e01b81526004016123e3929190613c5c565b6020604051808303816000875af1158015612402573d6000803e3d6000fd5b505050506040513d601f19601f820116820180604052508101906124269190613c9a565b905060018260020160188282829054906101000a900467ffffffffffffffff166124509190613cc7565b92506101000a81548167ffffffffffffffff021916908367ffffffffffffffff16021790555060018260080160008282829054906101000a900467ffffffffffffffff1661249e9190613cfb565b92506101000a81548167ffffffffffffffff021916908367ffffffffffffffff1602179055507ff96d4fb6ecc92218c2118e25b073f236cd9a7974b6e8e0835995fdb722e3403586826040516124f5929190613d39565b60405180910390a180945050505050919050565b6125116129cd565b816002600082815260200190815260200160002060009054906101000a900460ff16612572576040517f08c379a00000000000000000000000000000000000000000000000000000000081526004016125699061377c565b60405180910390fd5b6001600084815260200190815260200160002060405180610180016040529081600082015481526020016001820180546125ab906138b5565b80601f01602080910402602001604051908101604052809291908181526020018280546125d7906138b5565b80156126245780601f106125f957610100808354040283529160200191612624565b820191906000526020600020905b81548152906001019060200180831161260757829003601f168201915b505050505081526020016002820160009054906101000a900467ffffffffffffffff1667ffffffffffffffff1667ffffffffffffffff1681526020016002820160089054906101000a900467ffffffffffffffff1667ffffffffffffffff1667ffffffffffffffff1681526020016002820160109054906101000a900467ffffffffffffffff1667ffffffffffffffff1667ffffffffffffffff1681526020016002820160189054906101000a900467ffffffffffffffff1667ffffffffffffffff1667ffffffffffffffff168152602001600382018054612705906138b5565b80601f0160208091040260200160405190810160405280929190818152602001828054612731906138b5565b801561277e5780601f106127535761010080835404028352916020019161277e565b820191906000526020600020905b81548152906001019060200180831161276157829003601f168201915b50505050508152602001600482018054612797906138b5565b80601f01602080910402602001604051908101604052809291908181526020018280546127c3906138b5565b80156128105780601f106127e557610100808354040283529160200191612810565b820191906000526020600020905b8154815290600101906020018083116127f357829003601f168201915b50505050508152602001600582018054612829906138b5565b80601f0160208091040260200160405190810160405280929190818152602001828054612855906138b5565b80156128a25780601f10612877576101008083540402835291602001916128a2565b820191906000526020600020905b81548152906001019060200180831161288557829003601f168201915b505050505081526020016006820160009054906101000a900473ffffffffffffffffffffffffffffffffffffffff1673ffffffffffffffffffffffffffffffffffffffff1673ffffffffffffffffffffffffffffffffffffffff168152602001600782018054612911906138b5565b80601f016020809104026020016040519081016040528092919081815260200182805461293d906138b5565b801561298a5780601f1061295f5761010080835404028352916020019161298a565b820191906000526020600020905b81548152906001019060200180831161296d57829003601f168201915b505050505081526020016008820160009054906101000a900467ffffffffffffffff1667ffffffffffffffff1667ffffffffffffffff1681525050915050919050565b6040518061018001604052806000801916815260200160608152602001600067ffffffffffffffff168152602001600067ffffffffffffffff168152602001600067ffffffffffffffff168152602001600067ffffffffffffffff168152602001606081526020016060815260200160608152602001600073ffffffffffffffffffffffffffffffffffffffff16815260200160608152602001600067ffffffffffffffff1681525090565b828054612a85906138b5565b90600052602060002090601f016020900481019282612aa75760008555612aee565b82601f10612ac057805160ff1916838001178555612aee565b82800160010185558215612aee579182015b82811115612aed578251825591602001919060010190612ad2565b5b509050612afb9190612b3f565b5090565b508054612b0b906138b5565b6000825580601f10612b1d5750612b3c565b601f016020900490600052602060002090810190612b3b9190612b3f565b5b50565b5b80821115612b58576000816000905550600101612b40565b5090565b6000604051905090565b600080fd5b600080fd5b6000819050919050565b612b8381612b70565b8114612b8e57600080fd5b50565b600081359050612ba081612b7a565b92915050565b600060208284031215612bbc57612bbb612b66565b5b6000612bca84828501612b91565b91505092915050565b60008115159050919050565b612be881612bd3565b82525050565b6000602082019050612c036000830184612bdf565b92915050565b600067ffffffffffffffff82169050919050565b612c2681612c09565b8114612c3157600080fd5b50565b600081359050612c4381612c1d565b92915050565b60008060408385031215612c6057612c5f612b66565b5b6000612c6e85828601612b91565b9250506020612c7f85828601612c34565b9150509250929050565b600081519050919050565b600082825260208201905092915050565b6000819050602082019050919050565b612cbe81612b70565b82525050565b6000612cd08383612cb5565b60208301905092915050565b6000602082019050919050565b6000612cf482612c89565b612cfe8185612c94565b9350612d0983612ca5565b8060005b83811015612d3a578151612d218882612cc4565b9750612d2c83612cdc565b925050600181019050612d0d565b5085935050505092915050565b60006020820190508181036000830152612d618184612ce9565b905092915050565b600081519050919050565b600082825260208201905092915050565b6000819050602082019050919050565b600081519050919050565b600082825260208201905092915050565b60005b83811015612dcf578082015181840152602081019050612db4565b83811115612dde576000848401525b50505050565b6000601f19601f8301169050919050565b6000612e0082612d95565b612e0a8185612da0565b9350612e1a818560208601612db1565b612e2381612de4565b840191505092915050565b612e3781612c09565b82525050565b600073ffffffffffffffffffffffffffffffffffffffff82169050919050565b6000612e6882612e3d565b9050919050565b612e7881612e5d565b82525050565b600061018083016000830151612e976000860182612cb5565b5060208301518482036020860152612eaf8282612df5565b9150506040830151612ec46040860182612e2e565b506060830151612ed76060860182612e2e565b506080830151612eea6080860182612e2e565b5060a0830151612efd60a0860182612e2e565b5060c083015184820360c0860152612f158282612df5565b91505060e083015184820360e0860152612f2f8282612df5565b915050610100830151848203610100860152612f4b8282612df5565b915050610120830151612f62610120860182612e6f565b50610140830151848203610140860152612f7c8282612df5565b915050610160830151612f93610160860182612e2e565b508091505092915050565b6000612faa8383612e7e565b905092915050565b6000602082019050919050565b6000612fca82612d69565b612fd48185612d74565b935083602082028501612fe685612d85565b8060005b8581101561302257848403895281516130038582612f9e565b945061300e83612fb2565b925060208a01995050600181019050612fea565b50829750879550505050505092915050565b6000602082019050818103600083015261304e8184612fbf565b905092915050565b61305f81612e5d565b82525050565b600060208201905061307a6000830184613056565b92915050565b6000819050919050565b61309381613080565b811461309e57600080fd5b50565b6000813590506130b08161308a565b92915050565b6000602082840312156130cc576130cb612b66565b5b60006130da848285016130a1565b91505092915050565b6130ec81612b70565b82525050565b600060208201905061310760008301846130e3565b92915050565b600080fd5b600080fd5b7f4e487b7100000000000000000000000000000000000000000000000000000000600052604160045260246000fd5b61314f82612de4565b810181811067ffffffffffffffff8211171561316e5761316d613117565b5b80604052505050565b6000613181612b5c565b905061318d8282613146565b919050565b600067ffffffffffffffff8211156131ad576131ac613117565b5b6131b682612de4565b9050602081019050919050565b82818337600083830152505050565b60006131e56131e084613192565b613177565b90508281526020810184848401111561320157613200613112565b5b61320c8482856131c3565b509392505050565b600082601f8301126132295761322861310d565b5b81356132398482602086016131d2565b91505092915050565b600080600080600080600080610100898b03121561326357613262612b66565b5b600089013567ffffffffffffffff81111561328157613280612b6b565b5b61328d8b828c01613214565b985050602061329e8b828c01612c34565b97505060406132af8b828c01612c34565b96505060606132c08b828c01612c34565b955050608089013567ffffffffffffffff8111156132e1576132e0612b6b565b5b6132ed8b828c01613214565b94505060a089013567ffffffffffffffff81111561330e5761330d612b6b565b5b61331a8b828c01613214565b93505060c089013567ffffffffffffffff81111561333b5761333a612b6b565b5b6133478b828c01613214565b92505060e089013567ffffffffffffffff81111561336857613367612b6b565b5b6133748b828c01613214565b9150509295985092959890939650565b61338d81612e5d565b811461339857600080fd5b50565b6000813590506133aa81613384565b92915050565b6000602082840312156133c6576133c5612b66565b5b60006133d48482850161339b565b91505092915050565b6000602082840312156133f3576133f2612b66565b5b600082013567ffffffffffffffff81111561341157613410612b6b565b5b61341d84828501613214565b91505092915050565b600082825260208201905092915050565b600061344282612d95565b61344c8185613426565b935061345c818560208601612db1565b61346581612de4565b840191505092915050565b61347981612c09565b82525050565b600061018082019050613495600083018f6130e3565b81810360208301526134a7818e613437565b90506134b6604083018d613470565b6134c3606083018c613470565b6134d0608083018b613470565b6134dd60a083018a613470565b81810360c08301526134ef8189613437565b905081810360e08301526135038188613437565b90508181036101008301526135188187613437565b9050613528610120830186613056565b81810361014083015261353b8185613437565b905061354b610160830184613470565b9d9c50505050505050505050505050565b6000610180830160008301516135756000860182612cb5565b506020830151848203602086015261358d8282612df5565b91505060408301516135a26040860182612e2e565b5060608301516135b56060860182612e2e565b5060808301516135c86080860182612e2e565b5060a08301516135db60a0860182612e2e565b5060c083015184820360c08601526135f38282612df5565b91505060e083015184820360e086015261360d8282612df5565b9150506101008301518482036101008601526136298282612df5565b915050610120830151613640610120860182612e6f565b5061014083015184820361014086015261365a8282612df5565b915050610160830151613671610160860182612e2e565b508091505092915050565b60006020820190508181036000830152613696818461355c565b905092915050565b7f4f6e6c7920746865206576656e74206f776e65722063616e20706572666f726d60008201527f207468697320616374696f6e0000000000000000000000000000000000000000602082015250565b60006136fa602c83613426565b91506137058261369e565b604082019050919050565b60006020820190508181036000830152613729816136ed565b9050919050565b7f4576656e7420646f6573206e6f74206578697374000000000000000000000000600082015250565b6000613766601483613426565b915061377182613730565b602082019050919050565b6000602082019050818103600083015261379581613759565b9050919050565b7f4e6577207469636b6574207072696365206d757374206265206772656174657260008201527f207468616e207a65726f2e000000000000000000000000000000000000000000602082015250565b60006137f8602b83613426565b91506138038261379c565b604082019050919050565b60006020820190508181036000830152613827816137eb565b9050919050565b600060408201905061384360008301856130e3565b6138506020830184613470565b9392505050565b7f4e487b7100000000000000000000000000000000000000000000000000000000600052603260045260246000fd5b7f4e487b7100000000000000000000000000000000000000000000000000000000600052602260045260246000fd5b600060028204905060018216806138cd57607f821691505b602082108114156138e1576138e0613886565b5b50919050565b7f4e487b7100000000000000000000000000000000000000000000000000000000600052601160045260246000fd5b600061392182613080565b91507fffffffffffffffffffffffffffffffffffffffffffffffffffffffffffffffff821415613954576139536138e7565b5b600182019050919050565b600081905092915050565b600061397582612d95565b61397f818561395f565b935061398f818560208601612db1565b80840191505092915050565b6000819050919050565b6139b66139b182613080565b61399b565b82525050565b60006139c8828561396a565b91506139d482846139a5565b6020820191508190509392505050565b7f4576656e742077697468207468697320494420616c726561647920657869737460008201527f7300000000000000000000000000000000000000000000000000000000000000602082015250565b6000613a40602183613426565b9150613a4b826139e4565b604082019050919050565b60006020820190508181036000830152613a6f81613a33565b9050919050565b7f43616e6e6f742063616e63656c206576656e742061667465722069742068617360008201527f2073746172746564000000000000000000000000000000000000000000000000602082015250565b6000613ad2602883613426565b9150613add82613a76565b604082019050919050565b60006020820190508181036000830152613b0181613ac5565b9050919050565b6000613b1382613080565b9150613b1e83613080565b925082821015613b3157613b306138e7565b5b828203905092915050565b7f4e487b7100000000000000000000000000000000000000000000000000000000600052603160045260246000fd5b600081905092915050565b60008190508160005260206000209050919050565b60008154613b98816138b5565b613ba28186613b6b565b94506001821660008114613bbd5760018114613bce57613c01565b60ff19831686528186019350613c01565b613bd785613b76565b60005b83811015613bf957815481890152600182019150602081019050613bda565b838801955050505b50505092915050565b6000613c168284613b8b565b915081905092915050565b6000819050919050565b6000613c46613c41613c3c84612c09565b613c21565b613080565b9050919050565b613c5681613c2b565b82525050565b6000604082019050613c7160008301856130e3565b613c7e6020830184613c4d565b9392505050565b600081519050613c9481612b7a565b92915050565b600060208284031215613cb057613caf612b66565b5b6000613cbe84828501613c85565b91505092915050565b6000613cd282612c09565b9150613cdd83612c09565b925082821015613cf057613cef6138e7565b5b828203905092915050565b6000613d0682612c09565b9150613d1183612c09565b92508267ffffffffffffffff03821115613d2e57613d2d6138e7565b5b828201905092915050565b6000604082019050613d4e60008301856130e3565b613d5b60208301846130e3565b939250505056fea26469706673582212208667e735bbb33012901e0e3da0e067308614b08ede46754f16b2763971ffd49964736f6c634300080a0033",
  "immutableReferences": {},
  "source": "// SPDX-License-Identifier: MIT\npragma solidity ^0.8.10;\nimport './ITicketContract.sol';\n\ncontract ContractEvent {\n  ITicketContract ticketContract;\n\n  function setTicketContractAddress(address _ticketAddress) external {\n    ticketContract = ITicketContract(_ticketAddress);\n  }\n\n  mapping(bytes32 => Event) public allEvents;\n  mapping(bytes32 => bool) public eventExists;\n\n  bytes32[] public eventIdsList;\n\n  address public ticketAddress;\n\n  // All attributes for the Events (Maybe i need to add number of sell tickets?)\n  struct Event {\n    bytes32 eventID;\n    string eventName;\n    uint64 dateOfEvent;\n    uint64 numberOfTickets;\n    uint64 ticketPrice;\n    uint64 ticketsLeft;\n    string placeName;\n    string eventDescription;\n    string eventCategory;\n    address eventOwner;\n    string eventImage;\n    uint64 soldTickets;\n  }\n\n  event EventCreated(bytes32 eventID);\n  event EventCancelled(bytes32 eventID);\n\n  event TicketPriceUpdated(bytes32 eventID, uint64 newTicketPrice);\n  event TicketBought(bytes32 eventID, bytes32 ticketID);\n\n  modifier isEnoughTickets(bytes32 _eventID) {\n    require(allEvents[_eventID].ticketsLeft > 0, 'There is no remaining tickets!');\n    _;\n  }\n\n  modifier onlyEventOwner(bytes32 _eventID) {\n    require(\n      allEvents[_eventID].eventOwner == msg.sender,\n      'Only the event owner can perform this action'\n    );\n    _;\n  }\n  modifier eventExistsModifier(bytes32 _eventID) {\n    require(eventExists[_eventID], 'Event does not exist');\n    _;\n  }\n  //function to create an event\n  function createEvent(\n    string memory _eventName,\n    uint64 _dateOfEvent,\n    uint64 _numberOfTickets,\n    uint64 _ticketPrice,\n    string memory _placeName,\n    string memory _eventDescription,\n    string memory _eventCategory,\n    string memory _eventImage\n  ) external {\n    bytes32 _eventID = keccak256(abi.encodePacked(_eventName, block.timestamp));\n    require(!eventExists[_eventID], 'Event with this ID already exists');\n\n    allEvents[_eventID] = Event({\n      eventID: _eventID,\n      eventName: _eventName,\n      dateOfEvent: _dateOfEvent,\n      numberOfTickets: _numberOfTickets,\n      ticketPrice: _ticketPrice,\n      ticketsLeft: _numberOfTickets,\n      placeName: _placeName,\n      eventDescription: _eventDescription,\n      eventCategory: _eventCategory,\n      eventOwner: msg.sender,\n      eventImage: _eventImage,\n      soldTickets: 0\n    });\n\n    eventIdsList.push(_eventID);\n    eventExists[_eventID] = true;\n\n    emit EventCreated(_eventID);\n  }\n\n  function updateTicketPrice(\n    bytes32 _eventID,\n    uint64 _newTicketPrice\n  ) external onlyEventOwner(_eventID) eventExistsModifier(_eventID) {\n    require(_newTicketPrice > 0, 'New ticket price must be greater than zero.');\n\n    allEvents[_eventID].ticketPrice = _newTicketPrice;\n    emit TicketPriceUpdated(_eventID, _newTicketPrice);\n  }\n\n  function getEventIDs() external view returns (bytes32[] memory eventList) {\n    return eventIdsList;\n  }\n\n  //function to get all events\n  function getEvents() external view returns (Event[] memory eventList) {\n    eventList = new Event[](eventIdsList.length);\n    for (uint i = 0; i < eventIdsList.length; i++) {\n      eventList[i] = allEvents[eventIdsList[i]];\n    }\n    return eventList;\n  }\n  //function to get info about event with given ID\n  function getEventInfo(\n    bytes32 _eventID\n  ) external view eventExistsModifier(_eventID) returns (Event memory) {\n    return allEvents[_eventID];\n  }\n  //function to get events by selected category\n  function getEventsByCategory(string memory _category) external view returns (Event[] memory) {\n    uint256 count = 0;\n    for (uint256 i = 0; i < eventIdsList.length; i++) {\n      if (\n        keccak256(bytes(allEvents[eventIdsList[i]].eventCategory)) == keccak256(bytes(_category))\n      ) {\n        count++;\n      }\n    }\n    Event[] memory categoryEvents = new Event[](count);\n    uint256 index = 0;\n\n    for (uint256 j = 0; j < eventIdsList.length; j++) {\n      if (\n        keccak256(bytes(allEvents[eventIdsList[j]].eventCategory)) == keccak256(bytes(_category))\n      ) {\n        categoryEvents[index] = allEvents[eventIdsList[j]];\n        index++;\n      }\n    }\n    return categoryEvents;\n  }\n  // Function to get events owned by the caller\n  function getEventsForOwner() external view returns (Event[] memory) {\n    uint256 count = 0;\n    for (uint256 i = 0; i < eventIdsList.length; i++) {\n      if (allEvents[eventIdsList[i]].eventOwner == msg.sender) {\n        count++;\n      }\n    }\n\n    Event[] memory ownerEvents = new Event[](count);\n    uint256 index = 0;\n\n    for (uint256 j = 0; j < eventIdsList.length; j++) {\n      if (allEvents[eventIdsList[j]].eventOwner == msg.sender) {\n        ownerEvents[index] = allEvents[eventIdsList[j]];\n        index++;\n      }\n    }\n    return ownerEvents;\n  }\n  //function to cancel event\n  function cancelEvent(\n    bytes32 _eventID\n  ) external onlyEventOwner(_eventID) eventExistsModifier(_eventID) returns (bytes32) {\n    Event storage _event = allEvents[_eventID];\n    require(_event.dateOfEvent > block.timestamp, 'Cannot cancel event after it has started');\n\n    //ticketContract.cancelAllTickets(_eventID);\n    delete allEvents[_eventID];\n\n    for (uint i = 0; i < eventIdsList.length; i++) {\n      if (eventIdsList[i] == _eventID) {\n        eventIdsList[i] = eventIdsList[eventIdsList.length - 1];\n        eventIdsList.pop();\n        break;\n      }\n    }\n\n    emit EventCancelled(_eventID);\n    return _eventID;\n  }\n  // function to buyticket\n  function buyTicket(\n    bytes32 _eventID\n  ) external onlyEventOwner(_eventID) eventExistsModifier(_eventID) returns (bytes32) {\n    Event storage _event = allEvents[_eventID];\n\n    bytes32 ticketID = ticketContract.createNewTicket(_eventID, _event.ticketPrice);\n    _event.ticketsLeft -= 1;\n    _event.soldTickets += 1;\n\n    emit TicketBought(_eventID, ticketID);\n\n    return ticketID;\n  }\n}\n",
  "sourcePath": "/Users/janmrakava/Documents/GitHub/blockticket_blockchain/client/contracts/Event.sol",
  "compiler": {
    "name": "solc",
    "version": "0.8.10+commit.fc410830.Emscripten.clang"
  },
  "schemaVersion": "3.4.16",
  "updatedAt": "2024-04-28T13:17:18.797Z",
  "networkType": "ethereum",
  "devdoc": {
    "kind": "dev",
    "methods": {},
    "version": 1
  },
  "userdoc": {
    "kind": "user",
    "methods": {},
    "version": 1
  }
}