{
  "contractName": "ContractEvent",
  "abi": [
    {
      "anonymous": false,
      "inputs": [
        {
          "indexed": false,
          "internalType": "bytes32",
          "name": "eventID",
          "type": "bytes32"
        }
      ],
      "name": "EventCancelled",
      "type": "event"
    },
    {
      "anonymous": false,
      "inputs": [
        {
          "indexed": false,
          "internalType": "bytes32",
          "name": "eventID",
          "type": "bytes32"
        }
      ],
      "name": "EventCreated",
      "type": "event"
    },
    {
      "anonymous": false,
      "inputs": [
        {
          "indexed": false,
          "internalType": "bytes32",
          "name": "eventID",
          "type": "bytes32"
        },
        {
          "indexed": false,
          "internalType": "uint64",
          "name": "newTicketPrice",
          "type": "uint64"
        }
      ],
      "name": "TicketPriceUpdated",
      "type": "event"
    },
    {
      "inputs": [
        {
          "internalType": "bytes32",
          "name": "",
          "type": "bytes32"
        }
      ],
      "name": "allEvents",
      "outputs": [
        {
          "internalType": "bytes32",
          "name": "eventID",
          "type": "bytes32"
        },
        {
          "internalType": "string",
          "name": "eventName",
          "type": "string"
        },
        {
          "internalType": "uint64",
          "name": "dateOfEvent",
          "type": "uint64"
        },
        {
          "internalType": "uint64",
          "name": "numberOfTickets",
          "type": "uint64"
        },
        {
          "internalType": "uint64",
          "name": "ticketPrice",
          "type": "uint64"
        },
        {
          "internalType": "string",
          "name": "placeName",
          "type": "string"
        },
        {
          "internalType": "string",
          "name": "eventDescription",
          "type": "string"
        },
        {
          "internalType": "string",
          "name": "eventCategory",
          "type": "string"
        },
        {
          "internalType": "address",
          "name": "eventOwner",
          "type": "address"
        },
        {
          "internalType": "string",
          "name": "eventImage",
          "type": "string"
        }
      ],
      "stateMutability": "view",
      "type": "function",
      "constant": true
    },
    {
      "inputs": [
        {
          "internalType": "uint256",
          "name": "",
          "type": "uint256"
        }
      ],
      "name": "eventIdsList",
      "outputs": [
        {
          "internalType": "bytes32",
          "name": "",
          "type": "bytes32"
        }
      ],
      "stateMutability": "view",
      "type": "function",
      "constant": true
    },
    {
      "inputs": [
        {
          "internalType": "bytes32",
          "name": "_eventID",
          "type": "bytes32"
        },
        {
          "internalType": "string",
          "name": "_eventName",
          "type": "string"
        },
        {
          "internalType": "uint64",
          "name": "_dateOfEvent",
          "type": "uint64"
        },
        {
          "internalType": "uint64",
          "name": "_numberOfTickets",
          "type": "uint64"
        },
        {
          "internalType": "uint64",
          "name": "_ticketPrice",
          "type": "uint64"
        },
        {
          "internalType": "string",
          "name": "_placeName",
          "type": "string"
        },
        {
          "internalType": "string",
          "name": "_eventDescription",
          "type": "string"
        },
        {
          "internalType": "string",
          "name": "_eventCategory",
          "type": "string"
        },
        {
          "internalType": "string",
          "name": "_eventImage",
          "type": "string"
        }
      ],
      "name": "createEvent",
      "outputs": [],
      "stateMutability": "nonpayable",
      "type": "function"
    },
    {
      "inputs": [
        {
          "internalType": "bytes32",
          "name": "_eventID",
          "type": "bytes32"
        }
      ],
      "name": "cancelEvent",
      "outputs": [],
      "stateMutability": "nonpayable",
      "type": "function"
    },
    {
      "inputs": [
        {
          "internalType": "bytes32",
          "name": "_eventID",
          "type": "bytes32"
        },
        {
          "internalType": "uint64",
          "name": "_newTicketPrice",
          "type": "uint64"
        }
      ],
      "name": "updateTicketPrice",
      "outputs": [],
      "stateMutability": "nonpayable",
      "type": "function"
    },
    {
      "inputs": [],
      "name": "getEventIDs",
      "outputs": [
        {
          "internalType": "bytes32[]",
          "name": "eventList",
          "type": "bytes32[]"
        }
      ],
      "stateMutability": "view",
      "type": "function",
      "constant": true
    },
    {
      "inputs": [],
      "name": "getEvents",
      "outputs": [
        {
          "components": [
            {
              "internalType": "bytes32",
              "name": "eventID",
              "type": "bytes32"
            },
            {
              "internalType": "string",
              "name": "eventName",
              "type": "string"
            },
            {
              "internalType": "uint64",
              "name": "dateOfEvent",
              "type": "uint64"
            },
            {
              "internalType": "uint64",
              "name": "numberOfTickets",
              "type": "uint64"
            },
            {
              "internalType": "uint64",
              "name": "ticketPrice",
              "type": "uint64"
            },
            {
              "internalType": "string",
              "name": "placeName",
              "type": "string"
            },
            {
              "internalType": "string",
              "name": "eventDescription",
              "type": "string"
            },
            {
              "internalType": "string",
              "name": "eventCategory",
              "type": "string"
            },
            {
              "internalType": "address",
              "name": "eventOwner",
              "type": "address"
            },
            {
              "internalType": "string",
              "name": "eventImage",
              "type": "string"
            }
          ],
          "internalType": "struct ContractEvent.Event[]",
          "name": "eventList",
          "type": "tuple[]"
        }
      ],
      "stateMutability": "view",
      "type": "function",
      "constant": true
    },
    {
      "inputs": [
        {
          "internalType": "bytes32",
          "name": "_eventID",
          "type": "bytes32"
        }
      ],
      "name": "getEventInfo",
      "outputs": [
        {
          "internalType": "bytes32",
          "name": "eventId",
          "type": "bytes32"
        },
        {
          "internalType": "string",
          "name": "eventName",
          "type": "string"
        },
        {
          "internalType": "uint64",
          "name": "dateOfEvent",
          "type": "uint64"
        },
        {
          "internalType": "uint64",
          "name": "numberOfTickets",
          "type": "uint64"
        },
        {
          "internalType": "uint64",
          "name": "ticketPrice",
          "type": "uint64"
        },
        {
          "internalType": "string",
          "name": "placeName",
          "type": "string"
        },
        {
          "internalType": "string",
          "name": "eventDescription",
          "type": "string"
        },
        {
          "internalType": "string",
          "name": "eventCategory",
          "type": "string"
        },
        {
          "internalType": "address",
          "name": "eventOwner",
          "type": "address"
        },
        {
          "internalType": "string",
          "name": "eventImage",
          "type": "string"
        }
      ],
      "stateMutability": "view",
      "type": "function",
      "constant": true
    },
    {
      "inputs": [
        {
          "internalType": "string",
          "name": "_category",
          "type": "string"
        }
      ],
      "name": "getEventsByCategory",
      "outputs": [
        {
          "components": [
            {
              "internalType": "bytes32",
              "name": "eventID",
              "type": "bytes32"
            },
            {
              "internalType": "string",
              "name": "eventName",
              "type": "string"
            },
            {
              "internalType": "uint64",
              "name": "dateOfEvent",
              "type": "uint64"
            },
            {
              "internalType": "uint64",
              "name": "numberOfTickets",
              "type": "uint64"
            },
            {
              "internalType": "uint64",
              "name": "ticketPrice",
              "type": "uint64"
            },
            {
              "internalType": "string",
              "name": "placeName",
              "type": "string"
            },
            {
              "internalType": "string",
              "name": "eventDescription",
              "type": "string"
            },
            {
              "internalType": "string",
              "name": "eventCategory",
              "type": "string"
            },
            {
              "internalType": "address",
              "name": "eventOwner",
              "type": "address"
            },
            {
              "internalType": "string",
              "name": "eventImage",
              "type": "string"
            }
          ],
          "internalType": "struct ContractEvent.Event[]",
          "name": "",
          "type": "tuple[]"
        }
      ],
      "stateMutability": "view",
      "type": "function",
      "constant": true
    }
  ],
  "bytecode": "0x608060405234801561001057600080fd5b50612b7a806100206000396000f3fe608060405234801561001057600080fd5b50600436106100935760003560e01c8063aa26176c11610066578063aa26176c14610120578063ae1829e11461013c578063dfb602851461016c578063f765b6b1146101a5578063f971e1e6146101de57610093565b806312acb240146100985780633cbb95f6146100b4578063404aa8f9146100d25780636f5f4907146100f0575b600080fd5b6100b260048036038101906100ad9190611e3b565b6101fa565b005b6100bc610371565b6040516100c99190611f39565b60405180910390f35b6100da6103c9565b6040516100e791906121fc565b60405180910390f35b61010a60048036038101906101059190612254565b610877565b6040516101179190612290565b60405180910390f35b61013a600480360381019061013591906122ab565b61089b565b005b6101566004803603810190610151919061240d565b610bf9565b60405161016391906121fc565b60405180910390f35b610186600480360381019061018191906122ab565b61119c565b60405161019c9a999897969594939291906124be565b60405180910390f35b6101bf60048036038101906101ba91906122ab565b6114f4565b6040516101d59a999897969594939291906124be565b60405180910390f35b6101f860048036038101906101f3919061257d565b611960565b005b813373ffffffffffffffffffffffffffffffffffffffff1660008083815260200190815260200160002060060160009054906101000a900473ffffffffffffffffffffffffffffffffffffffff1673ffffffffffffffffffffffffffffffffffffffff161461029e576040517f08c379a000000000000000000000000000000000000000000000000000000000815260040161029590612745565b60405180910390fd5b828060008083815260200190815260200160002060000154146102f6576040517f08c379a00000000000000000000000000000000000000000000000000000000081526004016102ed906127d7565b60405180910390fd5b8260008086815260200190815260200160002060020160106101000a81548167ffffffffffffffff021916908367ffffffffffffffff1602179055507f0dc2e2994cc6121fbd0f46abaefc7de3a48aa2facac17978bb4fe0ef8b7cdabb84846040516103639291906127f7565b60405180910390a150505050565b606060018054806020026020016040519081016040528092919081815260200182805480156103bf57602002820191906000526020600020905b8154815260200190600101908083116103ab575b5050505050905090565b606060018054905067ffffffffffffffff8111156103ea576103e96122e2565b5b60405190808252806020026020018201604052801561042357816020015b610410611c44565b8152602001906001900390816104085790505b50905060005b600180549050811015610873576000806001838154811061044d5761044c612820565b5b90600052602060002001548152602001908152602001600020604051806101400160405290816000820154815260200160018201805461048c9061287e565b80601f01602080910402602001604051908101604052809291908181526020018280546104b89061287e565b80156105055780601f106104da57610100808354040283529160200191610505565b820191906000526020600020905b8154815290600101906020018083116104e857829003601f168201915b505050505081526020016002820160009054906101000a900467ffffffffffffffff1667ffffffffffffffff1667ffffffffffffffff1681526020016002820160089054906101000a900467ffffffffffffffff1667ffffffffffffffff1667ffffffffffffffff1681526020016002820160109054906101000a900467ffffffffffffffff1667ffffffffffffffff1667ffffffffffffffff1681526020016003820180546105b49061287e565b80601f01602080910402602001604051908101604052809291908181526020018280546105e09061287e565b801561062d5780601f106106025761010080835404028352916020019161062d565b820191906000526020600020905b81548152906001019060200180831161061057829003601f168201915b505050505081526020016004820180546106469061287e565b80601f01602080910402602001604051908101604052809291908181526020018280546106729061287e565b80156106bf5780601f10610694576101008083540402835291602001916106bf565b820191906000526020600020905b8154815290600101906020018083116106a257829003601f168201915b505050505081526020016005820180546106d89061287e565b80601f01602080910402602001604051908101604052809291908181526020018280546107049061287e565b80156107515780601f1061072657610100808354040283529160200191610751565b820191906000526020600020905b81548152906001019060200180831161073457829003601f168201915b505050505081526020016006820160009054906101000a900473ffffffffffffffffffffffffffffffffffffffff1673ffffffffffffffffffffffffffffffffffffffff1673ffffffffffffffffffffffffffffffffffffffff1681526020016007820180546107c09061287e565b80601f01602080910402602001604051908101604052809291908181526020018280546107ec9061287e565b80156108395780601f1061080e57610100808354040283529160200191610839565b820191906000526020600020905b81548152906001019060200180831161081c57829003601f168201915b50505050508152505082828151811061085557610854612820565b5b6020026020010181905250808061086b906128df565b915050610429565b5090565b6001818154811061088757600080fd5b906000526020600020016000915090505481565b803373ffffffffffffffffffffffffffffffffffffffff1660008083815260200190815260200160002060060160009054906101000a900473ffffffffffffffffffffffffffffffffffffffff1673ffffffffffffffffffffffffffffffffffffffff161461093f576040517f08c379a000000000000000000000000000000000000000000000000000000000815260040161093690612745565b60405180910390fd5b4260008084815260200190815260200160002060020160009054906101000a900467ffffffffffffffff1667ffffffffffffffff16116109b4576040517f08c379a00000000000000000000000000000000000000000000000000000000081526004016109ab9061299a565b60405180910390fd5b600080600084815260200190815260200160002060020160109054906101000a900467ffffffffffffffff1660008085815260200190815260200160002060020160089054906101000a900467ffffffffffffffff16610a1491906129ba565b90503373ffffffffffffffffffffffffffffffffffffffff166108fc8267ffffffffffffffff169081150290604051600060405180830381858888f19350505050158015610a66573d6000803e3d6000fd5b50600080848152602001908152602001600020600080820160009055600182016000610a929190611cce565b6002820160006101000a81549067ffffffffffffffff02191690556002820160086101000a81549067ffffffffffffffff02191690556002820160106101000a81549067ffffffffffffffff0219169055600382016000610af39190611cce565b600482016000610b039190611cce565b600582016000610b139190611cce565b6006820160006101000a81549073ffffffffffffffffffffffffffffffffffffffff0219169055600782016000610b4a9190611cce565b505060005b600180549050811015610bbc578360018281548110610b7157610b70612820565b5b90600052602060002001541415610ba95760018181548110610b9657610b95612820565b5b9060005260206000200160009055610bbc565b8080610bb4906128df565b915050610b4f565b507fc0919dcb7e0b464ce8146ec897e4a566e6a1af62233364998f3da696e08b500b83604051610bec9190612290565b60405180910390a1505050565b60606000805b600180549050811015610c8457838051906020012060008060018481548110610c2b57610c2a612820565b5b90600052602060002001548152602001908152602001600020600501604051610c549190612a9b565b60405180910390201415610c71578180610c6d906128df565b9250505b8080610c7c906128df565b915050610bff565b5060008167ffffffffffffffff811115610ca157610ca06122e2565b5b604051908082528060200260200182016040528015610cda57816020015b610cc7611c44565b815260200190600190039081610cbf5790505b5090506000805b60018054905081101561119057858051906020012060008060018481548110610d0d57610d0c612820565b5b90600052602060002001548152602001908152602001600020600501604051610d369190612a9b565b6040518091039020141561117d5760008060018381548110610d5b57610d5a612820565b5b906000526020600020015481526020019081526020016000206040518061014001604052908160008201548152602001600182018054610d9a9061287e565b80601f0160208091040260200160405190810160405280929190818152602001828054610dc69061287e565b8015610e135780601f10610de857610100808354040283529160200191610e13565b820191906000526020600020905b815481529060010190602001808311610df657829003601f168201915b505050505081526020016002820160009054906101000a900467ffffffffffffffff1667ffffffffffffffff1667ffffffffffffffff1681526020016002820160089054906101000a900467ffffffffffffffff1667ffffffffffffffff1667ffffffffffffffff1681526020016002820160109054906101000a900467ffffffffffffffff1667ffffffffffffffff1667ffffffffffffffff168152602001600382018054610ec29061287e565b80601f0160208091040260200160405190810160405280929190818152602001828054610eee9061287e565b8015610f3b5780601f10610f1057610100808354040283529160200191610f3b565b820191906000526020600020905b815481529060010190602001808311610f1e57829003601f168201915b50505050508152602001600482018054610f549061287e565b80601f0160208091040260200160405190810160405280929190818152602001828054610f809061287e565b8015610fcd5780601f10610fa257610100808354040283529160200191610fcd565b820191906000526020600020905b815481529060010190602001808311610fb057829003601f168201915b50505050508152602001600582018054610fe69061287e565b80601f01602080910402602001604051908101604052809291908181526020018280546110129061287e565b801561105f5780601f106110345761010080835404028352916020019161105f565b820191906000526020600020905b81548152906001019060200180831161104257829003601f168201915b505050505081526020016006820160009054906101000a900473ffffffffffffffffffffffffffffffffffffffff1673ffffffffffffffffffffffffffffffffffffffff1673ffffffffffffffffffffffffffffffffffffffff1681526020016007820180546110ce9061287e565b80601f01602080910402602001604051908101604052809291908181526020018280546110fa9061287e565b80156111475780601f1061111c57610100808354040283529160200191611147565b820191906000526020600020905b81548152906001019060200180831161112a57829003601f168201915b50505050508152505083838151811061116357611162612820565b5b60200260200101819052508180611179906128df565b9250505b8080611188906128df565b915050610ce1565b50819350505050919050565b60006020528060005260406000206000915090508060000154908060010180546111c59061287e565b80601f01602080910402602001604051908101604052809291908181526020018280546111f19061287e565b801561123e5780601f106112135761010080835404028352916020019161123e565b820191906000526020600020905b81548152906001019060200180831161122157829003601f168201915b5050505050908060020160009054906101000a900467ffffffffffffffff16908060020160089054906101000a900467ffffffffffffffff16908060020160109054906101000a900467ffffffffffffffff16908060030180546112a19061287e565b80601f01602080910402602001604051908101604052809291908181526020018280546112cd9061287e565b801561131a5780601f106112ef5761010080835404028352916020019161131a565b820191906000526020600020905b8154815290600101906020018083116112fd57829003601f168201915b50505050509080600401805461132f9061287e565b80601f016020809104026020016040519081016040528092919081815260200182805461135b9061287e565b80156113a85780601f1061137d576101008083540402835291602001916113a8565b820191906000526020600020905b81548152906001019060200180831161138b57829003601f168201915b5050505050908060050180546113bd9061287e565b80601f01602080910402602001604051908101604052809291908181526020018280546113e99061287e565b80156114365780601f1061140b57610100808354040283529160200191611436565b820191906000526020600020905b81548152906001019060200180831161141957829003601f168201915b5050505050908060060160009054906101000a900473ffffffffffffffffffffffffffffffffffffffff16908060070180546114719061287e565b80601f016020809104026020016040519081016040528092919081815260200182805461149d9061287e565b80156114ea5780601f106114bf576101008083540402835291602001916114ea565b820191906000526020600020905b8154815290600101906020018083116114cd57829003601f168201915b505050505090508a565b6000606060008060006060806060600060608a80600080838152602001908152602001600020600001541461155e576040517f08c379a0000000000000000000000000000000000000000000000000000000008152600401611555906127d7565b60405180910390fd5b6000808d8152602001908152602001600020600001549a506000808d815260200190815260200160002060010180546115969061287e565b80601f01602080910402602001604051908101604052809291908181526020018280546115c29061287e565b801561160f5780601f106115e45761010080835404028352916020019161160f565b820191906000526020600020905b8154815290600101906020018083116115f257829003601f168201915b505050505099506000808d815260200190815260200160002060020160009054906101000a900467ffffffffffffffff1698506000808d815260200190815260200160002060020160089054906101000a900467ffffffffffffffff1697506000808d815260200190815260200160002060020160109054906101000a900467ffffffffffffffff1696506000808d815260200190815260200160002060030180546116ba9061287e565b80601f01602080910402602001604051908101604052809291908181526020018280546116e69061287e565b80156117335780601f1061170857610100808354040283529160200191611733565b820191906000526020600020905b81548152906001019060200180831161171657829003601f168201915b505050505095506000808d8152602001908152602001600020600401805461175a9061287e565b80601f01602080910402602001604051908101604052809291908181526020018280546117869061287e565b80156117d35780601f106117a8576101008083540402835291602001916117d3565b820191906000526020600020905b8154815290600101906020018083116117b657829003601f168201915b505050505094506000808d815260200190815260200160002060050180546117fa9061287e565b80601f01602080910402602001604051908101604052809291908181526020018280546118269061287e565b80156118735780601f1061184857610100808354040283529160200191611873565b820191906000526020600020905b81548152906001019060200180831161185657829003601f168201915b505050505093506000808d815260200190815260200160002060060160009054906101000a900473ffffffffffffffffffffffffffffffffffffffff1692506000808d815260200190815260200160002060070180546118d29061287e565b80601f01602080910402602001604051908101604052809291908181526020018280546118fe9061287e565b801561194b5780601f106119205761010080835404028352916020019161194b565b820191906000526020600020905b81548152906001019060200180831161192e57829003601f168201915b50505050509150509193959799509193959799565b60005b6001805490508110156119e457896001828154811061198557611984612820565b5b906000526020600020015414156119d1576040517f08c379a00000000000000000000000000000000000000000000000000000000081526004016119c890612b24565b60405180910390fd5b80806119dc906128df565b915050611963565b50876000808b81526020019081526020016000206001019080519060200190611a0e929190611d0e565b50886000808b815260200190815260200160002060000181905550866000808b815260200190815260200160002060020160006101000a81548167ffffffffffffffff021916908367ffffffffffffffff160217905550856000808b815260200190815260200160002060020160086101000a81548167ffffffffffffffff021916908367ffffffffffffffff160217905550846000808b815260200190815260200160002060020160106101000a81548167ffffffffffffffff021916908367ffffffffffffffff160217905550836000808b81526020019081526020016000206003019080519060200190611b06929190611d0e565b50826000808b81526020019081526020016000206004019080519060200190611b30929190611d0e565b50816000808b81526020019081526020016000206005019080519060200190611b5a929190611d0e565b50336000808b815260200190815260200160002060060160006101000a81548173ffffffffffffffffffffffffffffffffffffffff021916908373ffffffffffffffffffffffffffffffffffffffff160217905550806000808b81526020019081526020016000206007019080519060200190611bd8929190611d0e565b5060018990806001815401808255809150506001900390600052602060002001600090919091909150557f9734e2c6faef2085e2efacd33d54cf02df9e7fd5618121b33589f637ac60804189604051611c319190612290565b60405180910390a1505050505050505050565b6040518061014001604052806000801916815260200160608152602001600067ffffffffffffffff168152602001600067ffffffffffffffff168152602001600067ffffffffffffffff168152602001606081526020016060815260200160608152602001600073ffffffffffffffffffffffffffffffffffffffff168152602001606081525090565b508054611cda9061287e565b6000825580601f10611cec5750611d0b565b601f016020900490600052602060002090810190611d0a9190611d94565b5b50565b828054611d1a9061287e565b90600052602060002090601f016020900481019282611d3c5760008555611d83565b82601f10611d5557805160ff1916838001178555611d83565b82800160010185558215611d83579182015b82811115611d82578251825591602001919060010190611d67565b5b509050611d909190611d94565b5090565b5b80821115611dad576000816000905550600101611d95565b5090565b6000604051905090565b600080fd5b600080fd5b6000819050919050565b611dd881611dc5565b8114611de357600080fd5b50565b600081359050611df581611dcf565b92915050565b600067ffffffffffffffff82169050919050565b611e1881611dfb565b8114611e2357600080fd5b50565b600081359050611e3581611e0f565b92915050565b60008060408385031215611e5257611e51611dbb565b5b6000611e6085828601611de6565b9250506020611e7185828601611e26565b9150509250929050565b600081519050919050565b600082825260208201905092915050565b6000819050602082019050919050565b611eb081611dc5565b82525050565b6000611ec28383611ea7565b60208301905092915050565b6000602082019050919050565b6000611ee682611e7b565b611ef08185611e86565b9350611efb83611e97565b8060005b83811015611f2c578151611f138882611eb6565b9750611f1e83611ece565b925050600181019050611eff565b5085935050505092915050565b60006020820190508181036000830152611f538184611edb565b905092915050565b600081519050919050565b600082825260208201905092915050565b6000819050602082019050919050565b600081519050919050565b600082825260208201905092915050565b60005b83811015611fc1578082015181840152602081019050611fa6565b83811115611fd0576000848401525b50505050565b6000601f19601f8301169050919050565b6000611ff282611f87565b611ffc8185611f92565b935061200c818560208601611fa3565b61201581611fd6565b840191505092915050565b61202981611dfb565b82525050565b600073ffffffffffffffffffffffffffffffffffffffff82169050919050565b600061205a8261202f565b9050919050565b61206a8161204f565b82525050565b6000610140830160008301516120896000860182611ea7565b50602083015184820360208601526120a18282611fe7565b91505060408301516120b66040860182612020565b5060608301516120c96060860182612020565b5060808301516120dc6080860182612020565b5060a083015184820360a08601526120f48282611fe7565b91505060c083015184820360c086015261210e8282611fe7565b91505060e083015184820360e08601526121288282611fe7565b91505061010083015161213f610100860182612061565b506101208301518482036101208601526121598282611fe7565b9150508091505092915050565b60006121728383612070565b905092915050565b6000602082019050919050565b600061219282611f5b565b61219c8185611f66565b9350836020820285016121ae85611f77565b8060005b858110156121ea57848403895281516121cb8582612166565b94506121d68361217a565b925060208a019950506001810190506121b2565b50829750879550505050505092915050565b600060208201905081810360008301526122168184612187565b905092915050565b6000819050919050565b6122318161221e565b811461223c57600080fd5b50565b60008135905061224e81612228565b92915050565b60006020828403121561226a57612269611dbb565b5b60006122788482850161223f565b91505092915050565b61228a81611dc5565b82525050565b60006020820190506122a56000830184612281565b92915050565b6000602082840312156122c1576122c0611dbb565b5b60006122cf84828501611de6565b91505092915050565b600080fd5b600080fd5b7f4e487b7100000000000000000000000000000000000000000000000000000000600052604160045260246000fd5b61231a82611fd6565b810181811067ffffffffffffffff82111715612339576123386122e2565b5b80604052505050565b600061234c611db1565b90506123588282612311565b919050565b600067ffffffffffffffff821115612378576123776122e2565b5b61238182611fd6565b9050602081019050919050565b82818337600083830152505050565b60006123b06123ab8461235d565b612342565b9050828152602081018484840111156123cc576123cb6122dd565b5b6123d784828561238e565b509392505050565b600082601f8301126123f4576123f36122d8565b5b813561240484826020860161239d565b91505092915050565b60006020828403121561242357612422611dbb565b5b600082013567ffffffffffffffff81111561244157612440611dc0565b5b61244d848285016123df565b91505092915050565b600082825260208201905092915050565b600061247282611f87565b61247c8185612456565b935061248c818560208601611fa3565b61249581611fd6565b840191505092915050565b6124a981611dfb565b82525050565b6124b88161204f565b82525050565b6000610140820190506124d4600083018d612281565b81810360208301526124e6818c612467565b90506124f5604083018b6124a0565b612502606083018a6124a0565b61250f60808301896124a0565b81810360a08301526125218188612467565b905081810360c08301526125358187612467565b905081810360e08301526125498186612467565b90506125596101008301856124af565b81810361012083015261256c8184612467565b90509b9a5050505050505050505050565b60008060008060008060008060006101208a8c0312156125a05761259f611dbb565b5b60006125ae8c828d01611de6565b99505060208a013567ffffffffffffffff8111156125cf576125ce611dc0565b5b6125db8c828d016123df565b98505060406125ec8c828d01611e26565b97505060606125fd8c828d01611e26565b965050608061260e8c828d01611e26565b95505060a08a013567ffffffffffffffff81111561262f5761262e611dc0565b5b61263b8c828d016123df565b94505060c08a013567ffffffffffffffff81111561265c5761265b611dc0565b5b6126688c828d016123df565b93505060e08a013567ffffffffffffffff81111561268957612688611dc0565b5b6126958c828d016123df565b9250506101008a013567ffffffffffffffff8111156126b7576126b6611dc0565b5b6126c38c828d016123df565b9150509295985092959850929598565b7f4f6e6c7920746865206576656e74206f776e65722063616e20706572666f726d60008201527f207468697320616374696f6e0000000000000000000000000000000000000000602082015250565b600061272f602c83612456565b915061273a826126d3565b604082019050919050565b6000602082019050818103600083015261275e81612722565b9050919050565b7f4576656e742077697468207468697320494420646f6573206e6f74206578697360008201527f7400000000000000000000000000000000000000000000000000000000000000602082015250565b60006127c1602183612456565b91506127cc82612765565b604082019050919050565b600060208201905081810360008301526127f0816127b4565b9050919050565b600060408201905061280c6000830185612281565b61281960208301846124a0565b9392505050565b7f4e487b7100000000000000000000000000000000000000000000000000000000600052603260045260246000fd5b7f4e487b7100000000000000000000000000000000000000000000000000000000600052602260045260246000fd5b6000600282049050600182168061289657607f821691505b602082108114156128aa576128a961284f565b5b50919050565b7f4e487b7100000000000000000000000000000000000000000000000000000000600052601160045260246000fd5b60006128ea8261221e565b91507fffffffffffffffffffffffffffffffffffffffffffffffffffffffffffffffff82141561291d5761291c6128b0565b5b600182019050919050565b7f43616e6e6f742063616e63656c206576656e742061667465722069742068617360008201527f2073746172746564000000000000000000000000000000000000000000000000602082015250565b6000612984602883612456565b915061298f82612928565b604082019050919050565b600060208201905081810360008301526129b381612977565b9050919050565b60006129c582611dfb565b91506129d083611dfb565b92508167ffffffffffffffff04831182151516156129f1576129f06128b0565b5b828202905092915050565b600081905092915050565b60008190508160005260206000209050919050565b60008154612a298161287e565b612a3381866129fc565b94506001821660008114612a4e5760018114612a5f57612a92565b60ff19831686528186019350612a92565b612a6885612a07565b60005b83811015612a8a57815481890152600182019150602081019050612a6b565b838801955050505b50505092915050565b6000612aa78284612a1c565b915081905092915050565b7f4576656e742077697468207468697320494420616c726561647920657869737460008201527f7300000000000000000000000000000000000000000000000000000000000000602082015250565b6000612b0e602183612456565b9150612b1982612ab2565b604082019050919050565b60006020820190508181036000830152612b3d81612b01565b905091905056fea2646970667358221220d1e24f679669edeb6ade54e360d49ed490a776a6328f1cb4f1e895198e58431d64736f6c634300080a0033",
  "immutableReferences": {},
  "source": "// SPDX-License-Identifier: MIT\npragma solidity ^0.8.10;\n\ncontract ContractEvent {\n  mapping(bytes32 => Event) public allEvents;\n  bytes32[] public eventIdsList;\n\n  // All attributes for the Events (Maybe i need to add number of sell tickets?)\n  struct Event {\n    bytes32 eventID;\n    string eventName;\n    uint64 dateOfEvent;\n    uint64 numberOfTickets;\n    uint64 ticketPrice;\n    string placeName;\n    string eventDescription;\n    string eventCategory;\n    address eventOwner;\n    string eventImage;\n  }\n\n  event EventCreated(bytes32 eventID);\n  event EventCancelled(bytes32 eventID);\n  event TicketPriceUpdated(bytes32 eventID, uint64 newTicketPrice);\n\n  modifier onlyEventOwner(bytes32 _eventID) {\n    require(\n      allEvents[_eventID].eventOwner == msg.sender,\n      'Only the event owner can perform this action'\n    );\n    _;\n  }\n  modifier eventExists(bytes32 _eventID) {\n    require(allEvents[_eventID].eventID == _eventID, 'Event with this ID does not exist');\n    _;\n  }\n\n  //function to create an event\n  function createEvent(\n    bytes32 _eventID,\n    string memory _eventName,\n    uint64 _dateOfEvent,\n    uint64 _numberOfTickets,\n    uint64 _ticketPrice,\n    string memory _placeName,\n    string memory _eventDescription,\n    string memory _eventCategory,\n    string memory _eventImage\n  ) external {\n    for (uint i = 0; i < eventIdsList.length; i++) {\n      require(eventIdsList[i] != _eventID, 'Event with this ID already exists');\n    }\n\n    allEvents[_eventID].eventName = _eventName;\n    allEvents[_eventID].eventID = _eventID;\n    allEvents[_eventID].dateOfEvent = _dateOfEvent;\n    allEvents[_eventID].numberOfTickets = _numberOfTickets;\n    allEvents[_eventID].ticketPrice = _ticketPrice;\n    allEvents[_eventID].placeName = _placeName;\n    allEvents[_eventID].eventDescription = _eventDescription;\n    allEvents[_eventID].eventCategory = _eventCategory;\n    allEvents[_eventID].eventOwner = msg.sender;\n    allEvents[_eventID].eventImage = _eventImage;\n    eventIdsList.push(_eventID);\n    emit EventCreated(_eventID);\n  }\n\n  function cancelEvent(bytes32 _eventID) external onlyEventOwner(_eventID) {\n    require(\n      allEvents[_eventID].dateOfEvent > block.timestamp,\n      'Cannot cancel event after it has started'\n    );\n    uint64 refundedAmount = allEvents[_eventID].numberOfTickets * allEvents[_eventID].ticketPrice;\n    payable(msg.sender).transfer(refundedAmount);\n    delete allEvents[_eventID];\n    for (uint i = 0; i < eventIdsList.length; i++) {\n      if (eventIdsList[i] == _eventID) {\n        delete eventIdsList[i];\n        break;\n      }\n    }\n    emit EventCancelled(_eventID);\n  }\n  function updateTicketPrice(\n    bytes32 _eventID,\n    uint64 _newTicketPrice\n  ) external onlyEventOwner(_eventID) eventExists(_eventID) {\n    allEvents[_eventID].ticketPrice = _newTicketPrice;\n    emit TicketPriceUpdated(_eventID, _newTicketPrice);\n  }\n\n  function getEventIDs() external view returns (bytes32[] memory eventList) {\n    return eventIdsList;\n  }\n\n  //function to get all events\n  function getEvents() external view returns (Event[] memory eventList) {\n    eventList = new Event[](eventIdsList.length);\n    for (uint i = 0; i < eventIdsList.length; i++) {\n      eventList[i] = allEvents[eventIdsList[i]];\n    }\n    return eventList;\n  }\n  //function to get info about event with given ID\n  function getEventInfo(\n    bytes32 _eventID\n  )\n    external\n    view\n    eventExists(_eventID)\n    returns (\n      bytes32 eventId,\n      string memory eventName,\n      uint64 dateOfEvent,\n      uint64 numberOfTickets,\n      uint64 ticketPrice,\n      string memory placeName,\n      string memory eventDescription,\n      string memory eventCategory,\n      address eventOwner,\n      string memory eventImage\n    )\n  {\n    eventId = allEvents[_eventID].eventID;\n    eventName = allEvents[_eventID].eventName;\n    dateOfEvent = allEvents[_eventID].dateOfEvent;\n    numberOfTickets = allEvents[_eventID].numberOfTickets;\n    ticketPrice = allEvents[_eventID].ticketPrice;\n    placeName = allEvents[_eventID].placeName;\n    eventDescription = allEvents[_eventID].eventDescription;\n    eventCategory = allEvents[_eventID].eventCategory;\n    eventOwner = allEvents[_eventID].eventOwner;\n    eventImage = allEvents[_eventID].eventImage;\n  }\n  //function to get events by selected category\n  function getEventsByCategory(string memory _category) external view returns (Event[] memory) {\n    uint256 count = 0;\n    for (uint256 i = 0; i < eventIdsList.length; i++) {\n      if (\n        keccak256(bytes(allEvents[eventIdsList[i]].eventCategory)) == keccak256(bytes(_category))\n      ) {\n        count++;\n      }\n    }\n    Event[] memory categoryEvents = new Event[](count);\n    uint256 index = 0;\n\n    for (uint256 j = 0; j < eventIdsList.length; j++) {\n      if (\n        keccak256(bytes(allEvents[eventIdsList[j]].eventCategory)) == keccak256(bytes(_category))\n      ) {\n        categoryEvents[index] = allEvents[eventIdsList[j]];\n        index++;\n      }\n    }\n    return categoryEvents;\n  }\n}\n",
  "sourcePath": "/Users/janmrakava/Documents/GitHub/blockticket_blockchain/client/contracts/Event.sol",
  "compiler": {
    "name": "solc",
    "version": "0.8.10+commit.fc410830.Emscripten.clang"
  },
  "schemaVersion": "3.4.16",
  "updatedAt": "2024-04-18T15:21:14.622Z",
  "networkType": "ethereum",
  "devdoc": {
    "kind": "dev",
    "methods": {},
    "version": 1
  },
  "userdoc": {
    "kind": "user",
    "methods": {},
    "version": 1
  }
}