{
  "contractName": "ContractEvent",
  "abi": [
    {
      "anonymous": false,
      "inputs": [
        {
          "indexed": false,
          "internalType": "bytes32",
          "name": "eventID",
          "type": "bytes32"
        }
      ],
      "name": "EventCreated",
      "type": "event"
    },
    {
      "inputs": [
        {
          "internalType": "bytes32",
          "name": "",
          "type": "bytes32"
        }
      ],
      "name": "allEvents",
      "outputs": [
        {
          "internalType": "bytes32",
          "name": "eventID",
          "type": "bytes32"
        },
        {
          "internalType": "string",
          "name": "eventName",
          "type": "string"
        },
        {
          "internalType": "uint64",
          "name": "dateOfEvent",
          "type": "uint64"
        },
        {
          "internalType": "uint64",
          "name": "numberOfTickets",
          "type": "uint64"
        },
        {
          "internalType": "uint64",
          "name": "ticketPrice",
          "type": "uint64"
        }
      ],
      "stateMutability": "view",
      "type": "function",
      "constant": true
    },
    {
      "inputs": [
        {
          "internalType": "uint256",
          "name": "",
          "type": "uint256"
        }
      ],
      "name": "eventIdsList",
      "outputs": [
        {
          "internalType": "bytes32",
          "name": "",
          "type": "bytes32"
        }
      ],
      "stateMutability": "view",
      "type": "function",
      "constant": true
    },
    {
      "inputs": [
        {
          "internalType": "bytes32",
          "name": "_eventID",
          "type": "bytes32"
        },
        {
          "internalType": "string",
          "name": "_eventName",
          "type": "string"
        },
        {
          "internalType": "uint64",
          "name": "_dateOfEvent",
          "type": "uint64"
        },
        {
          "internalType": "uint64",
          "name": "_numberOfTickets",
          "type": "uint64"
        },
        {
          "internalType": "uint64",
          "name": "_ticketPrice",
          "type": "uint64"
        }
      ],
      "name": "createEvent",
      "outputs": [],
      "stateMutability": "nonpayable",
      "type": "function"
    },
    {
      "inputs": [],
      "name": "getEvents",
      "outputs": [
        {
          "components": [
            {
              "internalType": "bytes32",
              "name": "eventID",
              "type": "bytes32"
            },
            {
              "internalType": "string",
              "name": "eventName",
              "type": "string"
            },
            {
              "internalType": "uint64",
              "name": "dateOfEvent",
              "type": "uint64"
            },
            {
              "internalType": "uint64",
              "name": "numberOfTickets",
              "type": "uint64"
            },
            {
              "internalType": "uint64",
              "name": "ticketPrice",
              "type": "uint64"
            }
          ],
          "internalType": "struct ContractEvent.Event[]",
          "name": "eventList",
          "type": "tuple[]"
        }
      ],
      "stateMutability": "view",
      "type": "function",
      "constant": true
    },
    {
      "inputs": [
        {
          "internalType": "bytes32",
          "name": "_eventID",
          "type": "bytes32"
        }
      ],
      "name": "getEventInfo",
      "outputs": [
        {
          "internalType": "bytes32",
          "name": "eventId",
          "type": "bytes32"
        },
        {
          "internalType": "string",
          "name": "eventName",
          "type": "string"
        },
        {
          "internalType": "uint64",
          "name": "dateOfEvent",
          "type": "uint64"
        },
        {
          "internalType": "uint64",
          "name": "numberOfTickets",
          "type": "uint64"
        },
        {
          "internalType": "uint64",
          "name": "ticketPrice",
          "type": "uint64"
        }
      ],
      "stateMutability": "view",
      "type": "function",
      "constant": true
    }
  ],
  "bytecode": "0x608060405234801561001057600080fd5b50611024806100206000396000f3fe608060405234801561001057600080fd5b50600436106100575760003560e01c8063404aa8f91461005c5780636f5f49071461007a578063a58c1f9d146100aa578063dfb60285146100c6578063f765b6b1146100fa575b600080fd5b61006461012e565b6040516100719190610a8d565b60405180910390f35b610094600480360381019061008f9190610af9565b61033d565b6040516100a19190610b35565b60405180910390f35b6100c460048036038101906100bf9190610cdd565b610361565b005b6100e060048036038101906100db9190610d74565b610545565b6040516100f1959493929190610dfa565b60405180910390f35b610114600480360381019061010f9190610d74565b61063f565b604051610125959493929190610dfa565b60405180910390f35b606060018054905067ffffffffffffffff81111561014f5761014e610b86565b5b60405190808252806020026020018201604052801561018857816020015b61017561078d565b81526020019060019003908161016d5790505b50905060005b60018054905081101561033957600080600183815481106101b2576101b1610e54565b5b906000526020600020015481526020019081526020016000206040518060a0016040529081600082015481526020016001820180546101f090610eb2565b80601f016020809104026020016040519081016040528092919081815260200182805461021c90610eb2565b80156102695780601f1061023e57610100808354040283529160200191610269565b820191906000526020600020905b81548152906001019060200180831161024c57829003601f168201915b505050505081526020016002820160009054906101000a900467ffffffffffffffff1667ffffffffffffffff1667ffffffffffffffff1681526020016002820160089054906101000a900467ffffffffffffffff1667ffffffffffffffff1667ffffffffffffffff1681526020016002820160109054906101000a900467ffffffffffffffff1667ffffffffffffffff1667ffffffffffffffff168152505082828151811061031b5761031a610e54565b5b6020026020010181905250808061033190610f13565b91505061018e565b5090565b6001818154811061034d57600080fd5b906000526020600020016000915090505481565b60005b6001805490508110156103e557856001828154811061038657610385610e54565b5b906000526020600020015414156103d2576040517f08c379a00000000000000000000000000000000000000000000000000000000081526004016103c990610fce565b60405180910390fd5b80806103dd90610f13565b915050610364565b5083600080878152602001908152602001600020600101908051906020019061040f9291906107dd565b5084600080878152602001908152602001600020600001819055508260008087815260200190815260200160002060020160006101000a81548167ffffffffffffffff021916908367ffffffffffffffff1602179055508160008087815260200190815260200160002060020160086101000a81548167ffffffffffffffff021916908367ffffffffffffffff1602179055508060008087815260200190815260200160002060020160106101000a81548167ffffffffffffffff021916908367ffffffffffffffff16021790555060018590806001815401808255809150506001900390600052602060002001600090919091909150557f9734e2c6faef2085e2efacd33d54cf02df9e7fd5618121b33589f637ac608041856040516105369190610b35565b60405180910390a15050505050565b600060205280600052604060002060009150905080600001549080600101805461056e90610eb2565b80601f016020809104026020016040519081016040528092919081815260200182805461059a90610eb2565b80156105e75780601f106105bc576101008083540402835291602001916105e7565b820191906000526020600020905b8154815290600101906020018083116105ca57829003601f168201915b5050505050908060020160009054906101000a900467ffffffffffffffff16908060020160089054906101000a900467ffffffffffffffff16908060020160109054906101000a900467ffffffffffffffff16905085565b600060606000806000806000878152602001908152602001600020600001549450600080878152602001908152602001600020600101805461068090610eb2565b80601f01602080910402602001604051908101604052809291908181526020018280546106ac90610eb2565b80156106f95780601f106106ce576101008083540402835291602001916106f9565b820191906000526020600020905b8154815290600101906020018083116106dc57829003601f168201915b5050505050935060008087815260200190815260200160002060020160009054906101000a900467ffffffffffffffff16925060008087815260200190815260200160002060020160089054906101000a900467ffffffffffffffff16915060008087815260200190815260200160002060020160109054906101000a900467ffffffffffffffff16905091939590929450565b6040518060a001604052806000801916815260200160608152602001600067ffffffffffffffff168152602001600067ffffffffffffffff168152602001600067ffffffffffffffff1681525090565b8280546107e990610eb2565b90600052602060002090601f01602090048101928261080b5760008555610852565b82601f1061082457805160ff1916838001178555610852565b82800160010185558215610852579182015b82811115610851578251825591602001919060010190610836565b5b50905061085f9190610863565b5090565b5b8082111561087c576000816000905550600101610864565b5090565b600081519050919050565b600082825260208201905092915050565b6000819050602082019050919050565b6000819050919050565b6108bf816108ac565b82525050565b600081519050919050565b600082825260208201905092915050565b60005b838110156108ff5780820151818401526020810190506108e4565b8381111561090e576000848401525b50505050565b6000601f19601f8301169050919050565b6000610930826108c5565b61093a81856108d0565b935061094a8185602086016108e1565b61095381610914565b840191505092915050565b600067ffffffffffffffff82169050919050565b61097b8161095e565b82525050565b600060a08301600083015161099960008601826108b6565b50602083015184820360208601526109b18282610925565b91505060408301516109c66040860182610972565b5060608301516109d96060860182610972565b5060808301516109ec6080860182610972565b508091505092915050565b6000610a038383610981565b905092915050565b6000602082019050919050565b6000610a2382610880565b610a2d818561088b565b935083602082028501610a3f8561089c565b8060005b85811015610a7b5784840389528151610a5c85826109f7565b9450610a6783610a0b565b925060208a01995050600181019050610a43565b50829750879550505050505092915050565b60006020820190508181036000830152610aa78184610a18565b905092915050565b6000604051905090565b600080fd5b600080fd5b6000819050919050565b610ad681610ac3565b8114610ae157600080fd5b50565b600081359050610af381610acd565b92915050565b600060208284031215610b0f57610b0e610ab9565b5b6000610b1d84828501610ae4565b91505092915050565b610b2f816108ac565b82525050565b6000602082019050610b4a6000830184610b26565b92915050565b610b59816108ac565b8114610b6457600080fd5b50565b600081359050610b7681610b50565b92915050565b600080fd5b600080fd5b7f4e487b7100000000000000000000000000000000000000000000000000000000600052604160045260246000fd5b610bbe82610914565b810181811067ffffffffffffffff82111715610bdd57610bdc610b86565b5b80604052505050565b6000610bf0610aaf565b9050610bfc8282610bb5565b919050565b600067ffffffffffffffff821115610c1c57610c1b610b86565b5b610c2582610914565b9050602081019050919050565b82818337600083830152505050565b6000610c54610c4f84610c01565b610be6565b905082815260208101848484011115610c7057610c6f610b81565b5b610c7b848285610c32565b509392505050565b600082601f830112610c9857610c97610b7c565b5b8135610ca8848260208601610c41565b91505092915050565b610cba8161095e565b8114610cc557600080fd5b50565b600081359050610cd781610cb1565b92915050565b600080600080600060a08688031215610cf957610cf8610ab9565b5b6000610d0788828901610b67565b955050602086013567ffffffffffffffff811115610d2857610d27610abe565b5b610d3488828901610c83565b9450506040610d4588828901610cc8565b9350506060610d5688828901610cc8565b9250506080610d6788828901610cc8565b9150509295509295909350565b600060208284031215610d8a57610d89610ab9565b5b6000610d9884828501610b67565b91505092915050565b600082825260208201905092915050565b6000610dbd826108c5565b610dc78185610da1565b9350610dd78185602086016108e1565b610de081610914565b840191505092915050565b610df48161095e565b82525050565b600060a082019050610e0f6000830188610b26565b8181036020830152610e218187610db2565b9050610e306040830186610deb565b610e3d6060830185610deb565b610e4a6080830184610deb565b9695505050505050565b7f4e487b7100000000000000000000000000000000000000000000000000000000600052603260045260246000fd5b7f4e487b7100000000000000000000000000000000000000000000000000000000600052602260045260246000fd5b60006002820490506001821680610eca57607f821691505b60208210811415610ede57610edd610e83565b5b50919050565b7f4e487b7100000000000000000000000000000000000000000000000000000000600052601160045260246000fd5b6000610f1e82610ac3565b91507fffffffffffffffffffffffffffffffffffffffffffffffffffffffffffffffff821415610f5157610f50610ee4565b5b600182019050919050565b7f4576656e742077697468207468697320494420616c726561647920657869737460008201527f7300000000000000000000000000000000000000000000000000000000000000602082015250565b6000610fb8602183610da1565b9150610fc382610f5c565b604082019050919050565b60006020820190508181036000830152610fe781610fab565b905091905056fea2646970667358221220bb1533edf6083bc7c12afddb6b05081e9f5576b99d2ec9865adf80fdc9bb876364736f6c634300080a0033",
  "immutableReferences": {},
  "source": "// SPDX-License-Identifier: MIT\npragma solidity ^0.8.10;\n\ncontract ContractEvent {\n  mapping(bytes32 => Event) public allEvents;\n  bytes32[] public eventIdsList;\n\n  struct Event {\n    bytes32 eventID;\n    string eventName;\n    uint64 dateOfEvent;\n    uint64 numberOfTickets;\n    uint64 ticketPrice;\n  }\n\n  event EventCreated(bytes32 eventID);\n\n  //function to create an event\n  function createEvent(\n    bytes32 _eventID,\n    string memory _eventName,\n    uint64 _dateOfEvent,\n    uint64 _numberOfTickets,\n    uint64 _ticketPrice\n  ) external {\n    for (uint i = 0; i < eventIdsList.length; i++) {\n      require(eventIdsList[i] != _eventID, 'Event with this ID already exists');\n    }\n\n    allEvents[_eventID].eventName = _eventName;\n    allEvents[_eventID].eventID = _eventID;\n    allEvents[_eventID].dateOfEvent = _dateOfEvent;\n    allEvents[_eventID].numberOfTickets = _numberOfTickets;\n    allEvents[_eventID].ticketPrice = _ticketPrice;\n    eventIdsList.push(_eventID);\n    emit EventCreated(_eventID);\n  }\n\n  //function to get events IDs\n  function getEvents() external view returns (Event[] memory eventList) {\n    eventList = new Event[](eventIdsList.length);\n    for (uint i = 0; i < eventIdsList.length; i++) {\n      eventList[i] = allEvents[eventIdsList[i]];\n    }\n    return eventList;\n  }\n  //function to get info about event with given ID\n  function getEventInfo(\n    bytes32 _eventID\n  )\n    external\n    view\n    returns (\n      bytes32 eventId,\n      string memory eventName,\n      uint64 dateOfEvent,\n      uint64 numberOfTickets,\n      uint64 ticketPrice\n    )\n  {\n    eventId = allEvents[_eventID].eventID;\n    eventName = allEvents[_eventID].eventName;\n    dateOfEvent = allEvents[_eventID].dateOfEvent;\n    numberOfTickets = allEvents[_eventID].numberOfTickets;\n    ticketPrice = allEvents[_eventID].ticketPrice;\n  }\n}\n",
  "sourcePath": "/Users/janmrakava/Documents/GitHub/blockticket_blockchain/client/contracts/Event.sol",
  "compiler": {
    "name": "solc",
    "version": "0.8.10+commit.fc410830.Emscripten.clang"
  },
  "schemaVersion": "3.4.16",
  "updatedAt": "2024-04-08T18:58:48.803Z",
  "networkType": "ethereum",
  "devdoc": {
    "kind": "dev",
    "methods": {},
    "version": 1
  },
  "userdoc": {
    "kind": "user",
    "methods": {},
    "version": 1
  }
}