{
  "contractName": "ContractEvent",
  "abi": [
    {
      "anonymous": false,
      "inputs": [
        {
          "indexed": false,
          "internalType": "bytes32",
          "name": "eventID",
          "type": "bytes32"
        }
      ],
      "name": "EventCancelled",
      "type": "event"
    },
    {
      "anonymous": false,
      "inputs": [
        {
          "indexed": false,
          "internalType": "bytes32",
          "name": "eventID",
          "type": "bytes32"
        }
      ],
      "name": "EventCreated",
      "type": "event"
    },
    {
      "anonymous": false,
      "inputs": [
        {
          "indexed": false,
          "internalType": "bytes32",
          "name": "eventID",
          "type": "bytes32"
        },
        {
          "indexed": false,
          "internalType": "bytes32",
          "name": "ticketID",
          "type": "bytes32"
        }
      ],
      "name": "TicketBought",
      "type": "event"
    },
    {
      "anonymous": false,
      "inputs": [
        {
          "indexed": false,
          "internalType": "bytes32",
          "name": "eventID",
          "type": "bytes32"
        },
        {
          "indexed": false,
          "internalType": "uint64",
          "name": "newTicketPrice",
          "type": "uint64"
        }
      ],
      "name": "TicketPriceUpdated",
      "type": "event"
    },
    {
      "inputs": [
        {
          "internalType": "bytes32",
          "name": "",
          "type": "bytes32"
        }
      ],
      "name": "allEvents",
      "outputs": [
        {
          "internalType": "bytes32",
          "name": "eventID",
          "type": "bytes32"
        },
        {
          "internalType": "string",
          "name": "eventName",
          "type": "string"
        },
        {
          "internalType": "uint64",
          "name": "dateOfEvent",
          "type": "uint64"
        },
        {
          "internalType": "uint64",
          "name": "numberOfTickets",
          "type": "uint64"
        },
        {
          "internalType": "uint64",
          "name": "ticketPrice",
          "type": "uint64"
        },
        {
          "internalType": "uint64",
          "name": "ticketsLeft",
          "type": "uint64"
        },
        {
          "internalType": "string",
          "name": "placeName",
          "type": "string"
        },
        {
          "internalType": "string",
          "name": "eventDescription",
          "type": "string"
        },
        {
          "internalType": "string",
          "name": "eventCategory",
          "type": "string"
        },
        {
          "internalType": "address",
          "name": "eventOwner",
          "type": "address"
        },
        {
          "internalType": "string",
          "name": "eventImage",
          "type": "string"
        },
        {
          "internalType": "uint64",
          "name": "soldTickets",
          "type": "uint64"
        }
      ],
      "stateMutability": "view",
      "type": "function",
      "constant": true
    },
    {
      "inputs": [
        {
          "internalType": "bytes32",
          "name": "",
          "type": "bytes32"
        }
      ],
      "name": "eventExists",
      "outputs": [
        {
          "internalType": "bool",
          "name": "",
          "type": "bool"
        }
      ],
      "stateMutability": "view",
      "type": "function",
      "constant": true
    },
    {
      "inputs": [
        {
          "internalType": "uint256",
          "name": "",
          "type": "uint256"
        }
      ],
      "name": "eventIdsList",
      "outputs": [
        {
          "internalType": "bytes32",
          "name": "",
          "type": "bytes32"
        }
      ],
      "stateMutability": "view",
      "type": "function",
      "constant": true
    },
    {
      "inputs": [],
      "name": "ticketAddress",
      "outputs": [
        {
          "internalType": "address",
          "name": "",
          "type": "address"
        }
      ],
      "stateMutability": "view",
      "type": "function",
      "constant": true
    },
    {
      "inputs": [
        {
          "internalType": "address",
          "name": "_ticketAddress",
          "type": "address"
        }
      ],
      "name": "setTicketContractAddress",
      "outputs": [],
      "stateMutability": "nonpayable",
      "type": "function"
    },
    {
      "inputs": [
        {
          "internalType": "string",
          "name": "_eventName",
          "type": "string"
        },
        {
          "internalType": "uint64",
          "name": "_dateOfEvent",
          "type": "uint64"
        },
        {
          "internalType": "uint64",
          "name": "_numberOfTickets",
          "type": "uint64"
        },
        {
          "internalType": "uint64",
          "name": "_ticketPrice",
          "type": "uint64"
        },
        {
          "internalType": "string",
          "name": "_placeName",
          "type": "string"
        },
        {
          "internalType": "string",
          "name": "_eventDescription",
          "type": "string"
        },
        {
          "internalType": "string",
          "name": "_eventCategory",
          "type": "string"
        },
        {
          "internalType": "string",
          "name": "_eventImage",
          "type": "string"
        }
      ],
      "name": "createEvent",
      "outputs": [],
      "stateMutability": "nonpayable",
      "type": "function"
    },
    {
      "inputs": [
        {
          "internalType": "bytes32",
          "name": "_eventID",
          "type": "bytes32"
        },
        {
          "internalType": "uint64",
          "name": "_newTicketPrice",
          "type": "uint64"
        }
      ],
      "name": "updateTicketPrice",
      "outputs": [],
      "stateMutability": "nonpayable",
      "type": "function"
    },
    {
      "inputs": [],
      "name": "getEventIDs",
      "outputs": [
        {
          "internalType": "bytes32[]",
          "name": "eventList",
          "type": "bytes32[]"
        }
      ],
      "stateMutability": "view",
      "type": "function",
      "constant": true
    },
    {
      "inputs": [],
      "name": "getEvents",
      "outputs": [
        {
          "components": [
            {
              "internalType": "bytes32",
              "name": "eventID",
              "type": "bytes32"
            },
            {
              "internalType": "string",
              "name": "eventName",
              "type": "string"
            },
            {
              "internalType": "uint64",
              "name": "dateOfEvent",
              "type": "uint64"
            },
            {
              "internalType": "uint64",
              "name": "numberOfTickets",
              "type": "uint64"
            },
            {
              "internalType": "uint64",
              "name": "ticketPrice",
              "type": "uint64"
            },
            {
              "internalType": "uint64",
              "name": "ticketsLeft",
              "type": "uint64"
            },
            {
              "internalType": "string",
              "name": "placeName",
              "type": "string"
            },
            {
              "internalType": "string",
              "name": "eventDescription",
              "type": "string"
            },
            {
              "internalType": "string",
              "name": "eventCategory",
              "type": "string"
            },
            {
              "internalType": "address",
              "name": "eventOwner",
              "type": "address"
            },
            {
              "internalType": "string",
              "name": "eventImage",
              "type": "string"
            },
            {
              "internalType": "uint64",
              "name": "soldTickets",
              "type": "uint64"
            }
          ],
          "internalType": "struct ContractEvent.Event[]",
          "name": "eventList",
          "type": "tuple[]"
        }
      ],
      "stateMutability": "view",
      "type": "function",
      "constant": true
    },
    {
      "inputs": [
        {
          "internalType": "bytes32",
          "name": "_eventID",
          "type": "bytes32"
        }
      ],
      "name": "getEventInfo",
      "outputs": [
        {
          "components": [
            {
              "internalType": "bytes32",
              "name": "eventID",
              "type": "bytes32"
            },
            {
              "internalType": "string",
              "name": "eventName",
              "type": "string"
            },
            {
              "internalType": "uint64",
              "name": "dateOfEvent",
              "type": "uint64"
            },
            {
              "internalType": "uint64",
              "name": "numberOfTickets",
              "type": "uint64"
            },
            {
              "internalType": "uint64",
              "name": "ticketPrice",
              "type": "uint64"
            },
            {
              "internalType": "uint64",
              "name": "ticketsLeft",
              "type": "uint64"
            },
            {
              "internalType": "string",
              "name": "placeName",
              "type": "string"
            },
            {
              "internalType": "string",
              "name": "eventDescription",
              "type": "string"
            },
            {
              "internalType": "string",
              "name": "eventCategory",
              "type": "string"
            },
            {
              "internalType": "address",
              "name": "eventOwner",
              "type": "address"
            },
            {
              "internalType": "string",
              "name": "eventImage",
              "type": "string"
            },
            {
              "internalType": "uint64",
              "name": "soldTickets",
              "type": "uint64"
            }
          ],
          "internalType": "struct ContractEvent.Event",
          "name": "",
          "type": "tuple"
        }
      ],
      "stateMutability": "view",
      "type": "function",
      "constant": true
    },
    {
      "inputs": [
        {
          "internalType": "string",
          "name": "_category",
          "type": "string"
        }
      ],
      "name": "getEventsByCategory",
      "outputs": [
        {
          "components": [
            {
              "internalType": "bytes32",
              "name": "eventID",
              "type": "bytes32"
            },
            {
              "internalType": "string",
              "name": "eventName",
              "type": "string"
            },
            {
              "internalType": "uint64",
              "name": "dateOfEvent",
              "type": "uint64"
            },
            {
              "internalType": "uint64",
              "name": "numberOfTickets",
              "type": "uint64"
            },
            {
              "internalType": "uint64",
              "name": "ticketPrice",
              "type": "uint64"
            },
            {
              "internalType": "uint64",
              "name": "ticketsLeft",
              "type": "uint64"
            },
            {
              "internalType": "string",
              "name": "placeName",
              "type": "string"
            },
            {
              "internalType": "string",
              "name": "eventDescription",
              "type": "string"
            },
            {
              "internalType": "string",
              "name": "eventCategory",
              "type": "string"
            },
            {
              "internalType": "address",
              "name": "eventOwner",
              "type": "address"
            },
            {
              "internalType": "string",
              "name": "eventImage",
              "type": "string"
            },
            {
              "internalType": "uint64",
              "name": "soldTickets",
              "type": "uint64"
            }
          ],
          "internalType": "struct ContractEvent.Event[]",
          "name": "",
          "type": "tuple[]"
        }
      ],
      "stateMutability": "view",
      "type": "function",
      "constant": true
    },
    {
      "inputs": [],
      "name": "getEventsForOwner",
      "outputs": [
        {
          "components": [
            {
              "internalType": "bytes32",
              "name": "eventID",
              "type": "bytes32"
            },
            {
              "internalType": "string",
              "name": "eventName",
              "type": "string"
            },
            {
              "internalType": "uint64",
              "name": "dateOfEvent",
              "type": "uint64"
            },
            {
              "internalType": "uint64",
              "name": "numberOfTickets",
              "type": "uint64"
            },
            {
              "internalType": "uint64",
              "name": "ticketPrice",
              "type": "uint64"
            },
            {
              "internalType": "uint64",
              "name": "ticketsLeft",
              "type": "uint64"
            },
            {
              "internalType": "string",
              "name": "placeName",
              "type": "string"
            },
            {
              "internalType": "string",
              "name": "eventDescription",
              "type": "string"
            },
            {
              "internalType": "string",
              "name": "eventCategory",
              "type": "string"
            },
            {
              "internalType": "address",
              "name": "eventOwner",
              "type": "address"
            },
            {
              "internalType": "string",
              "name": "eventImage",
              "type": "string"
            },
            {
              "internalType": "uint64",
              "name": "soldTickets",
              "type": "uint64"
            }
          ],
          "internalType": "struct ContractEvent.Event[]",
          "name": "",
          "type": "tuple[]"
        }
      ],
      "stateMutability": "view",
      "type": "function",
      "constant": true
    },
    {
      "inputs": [
        {
          "internalType": "bytes32",
          "name": "_eventID",
          "type": "bytes32"
        }
      ],
      "name": "buyTicket",
      "outputs": [
        {
          "internalType": "bytes32",
          "name": "",
          "type": "bytes32"
        }
      ],
      "stateMutability": "payable",
      "type": "function",
      "payable": true
    },
    {
      "inputs": [
        {
          "internalType": "bytes32",
          "name": "_eventID",
          "type": "bytes32"
        }
      ],
      "name": "cancelEvent",
      "outputs": [
        {
          "internalType": "bytes32",
          "name": "",
          "type": "bytes32"
        }
      ],
      "stateMutability": "nonpayable",
      "type": "function"
    }
  ],
  "bytecode": "0x608060405234801561001057600080fd5b50614170806100206000396000f3fe6080604052600436106100dd5760003560e01c806392826b481161007f578063db0817c511610059578063db0817c5146102d2578063dfb60285146102fd578063e542327414610345578063f765b6b114610375576100dd565b806392826b481461022f578063aa26176c14610258578063ae1829e114610295576100dd565b8063404aa8f9116100bb578063404aa8f91461017357806357a8e3fe1461019e5780636f5f4907146101c957806370cef5a514610206576100dd565b8063118e58bd146100e257806312acb2401461011f5780633cbb95f614610148575b600080fd5b3480156100ee57600080fd5b5061010960048036038101906101049190612df1565b6103b2565b6040516101169190612e39565b60405180910390f35b34801561012b57600080fd5b5061014660048036038101906101419190612e94565b6103d2565b005b34801561015457600080fd5b5061015d6105a1565b60405161016a9190612f92565b60405180910390f35b34801561017f57600080fd5b506101886105f9565b604051610195919061327f565b60405180910390f35b3480156101aa57600080fd5b506101b3610b0c565b6040516101c091906132b0565b60405180910390f35b3480156101d557600080fd5b506101f060048036038101906101eb9190613301565b610b32565b6040516101fd919061333d565b60405180910390f35b34801561021257600080fd5b5061022d6004803603810190610228919061348d565b610b56565b005b34801561023b57600080fd5b50610256600480360381019061025191906135fb565b610efd565b005b34801561026457600080fd5b5061027f600480360381019061027a9190612df1565b610f40565b60405161028c919061333d565b60405180910390f35b3480156102a157600080fd5b506102bc60048036038101906102b79190613628565b611375565b6040516102c9919061327f565b60405180910390f35b3480156102de57600080fd5b506102e761197f565b6040516102f4919061327f565b60405180910390f35b34801561030957600080fd5b50610324600480360381019061031f9190612df1565b611fe9565b60405161033c9c9b9a999897969594939291906136ca565b60405180910390f35b61035f600480360381019061035a9190612df1565b612375565b60405161036c919061333d565b60405180910390f35b34801561038157600080fd5b5061039c60048036038101906103979190612df1565b612754565b6040516103a991906138c7565b60405180910390f35b60026020528060005260406000206000915054906101000a900460ff1681565b813373ffffffffffffffffffffffffffffffffffffffff166001600083815260200190815260200160002060060160009054906101000a900473ffffffffffffffffffffffffffffffffffffffff1673ffffffffffffffffffffffffffffffffffffffff1614610477576040517f08c379a000000000000000000000000000000000000000000000000000000000815260040161046e9061395b565b60405180910390fd5b826002600082815260200190815260200160002060009054906101000a900460ff166104d8576040517f08c379a00000000000000000000000000000000000000000000000000000000081526004016104cf906139c7565b60405180910390fd5b60008367ffffffffffffffff1611610525576040517f08c379a000000000000000000000000000000000000000000000000000000000815260040161051c90613a59565b60405180910390fd5b826001600086815260200190815260200160002060020160106101000a81548167ffffffffffffffff021916908367ffffffffffffffff1602179055507f0dc2e2994cc6121fbd0f46abaefc7de3a48aa2facac17978bb4fe0ef8b7cdabb8484604051610593929190613a79565b60405180910390a150505050565b606060038054806020026020016040519081016040528092919081815260200182805480156105ef57602002820191906000526020600020905b8154815260200190600101908083116105db575b5050505050905090565b606060038054905067ffffffffffffffff81111561061a57610619613362565b5b60405190808252806020026020018201604052801561065357816020015b610640612c18565b8152602001906001900390816106385790505b50905060005b600380549050811015610b0857600160006003838154811061067e5761067d613aa2565b5b9060005260206000200154815260200190815260200160002060405180610180016040529081600082015481526020016001820180546106bd90613b00565b80601f01602080910402602001604051908101604052809291908181526020018280546106e990613b00565b80156107365780601f1061070b57610100808354040283529160200191610736565b820191906000526020600020905b81548152906001019060200180831161071957829003601f168201915b505050505081526020016002820160009054906101000a900467ffffffffffffffff1667ffffffffffffffff1667ffffffffffffffff1681526020016002820160089054906101000a900467ffffffffffffffff1667ffffffffffffffff1667ffffffffffffffff1681526020016002820160109054906101000a900467ffffffffffffffff1667ffffffffffffffff1667ffffffffffffffff1681526020016002820160189054906101000a900467ffffffffffffffff1667ffffffffffffffff1667ffffffffffffffff16815260200160038201805461081790613b00565b80601f016020809104026020016040519081016040528092919081815260200182805461084390613b00565b80156108905780601f1061086557610100808354040283529160200191610890565b820191906000526020600020905b81548152906001019060200180831161087357829003601f168201915b505050505081526020016004820180546108a990613b00565b80601f01602080910402602001604051908101604052809291908181526020018280546108d590613b00565b80156109225780601f106108f757610100808354040283529160200191610922565b820191906000526020600020905b81548152906001019060200180831161090557829003601f168201915b5050505050815260200160058201805461093b90613b00565b80601f016020809104026020016040519081016040528092919081815260200182805461096790613b00565b80156109b45780601f10610989576101008083540402835291602001916109b4565b820191906000526020600020905b81548152906001019060200180831161099757829003601f168201915b505050505081526020016006820160009054906101000a900473ffffffffffffffffffffffffffffffffffffffff1673ffffffffffffffffffffffffffffffffffffffff1673ffffffffffffffffffffffffffffffffffffffff168152602001600782018054610a2390613b00565b80601f0160208091040260200160405190810160405280929190818152602001828054610a4f90613b00565b8015610a9c5780601f10610a7157610100808354040283529160200191610a9c565b820191906000526020600020905b815481529060010190602001808311610a7f57829003601f168201915b505050505081526020016008820160009054906101000a900467ffffffffffffffff1667ffffffffffffffff1667ffffffffffffffff1681525050828281518110610aea57610ae9613aa2565b5b60200260200101819052508080610b0090613b61565b915050610659565b5090565b600460009054906101000a900473ffffffffffffffffffffffffffffffffffffffff1681565b60038181548110610b4257600080fd5b906000526020600020016000915090505481565b60008842604051602001610b6b929190613c07565b6040516020818303038152906040528051906020012090506002600082815260200190815260200160002060009054906101000a900460ff1615610be4576040517f08c379a0000000000000000000000000000000000000000000000000000000008152600401610bdb90613ca1565b60405180910390fd5b6040518061018001604052808281526020018a81526020018967ffffffffffffffff1681526020018867ffffffffffffffff1681526020018767ffffffffffffffff1681526020018867ffffffffffffffff1681526020018681526020018581526020018481526020013373ffffffffffffffffffffffffffffffffffffffff168152602001838152602001600067ffffffffffffffff1681525060016000838152602001908152602001600020600082015181600001556020820151816001019080519060200190610cb8929190612cc4565b5060408201518160020160006101000a81548167ffffffffffffffff021916908367ffffffffffffffff16021790555060608201518160020160086101000a81548167ffffffffffffffff021916908367ffffffffffffffff16021790555060808201518160020160106101000a81548167ffffffffffffffff021916908367ffffffffffffffff16021790555060a08201518160020160186101000a81548167ffffffffffffffff021916908367ffffffffffffffff16021790555060c0820151816003019080519060200190610d91929190612cc4565b5060e0820151816004019080519060200190610dae929190612cc4565b50610100820151816005019080519060200190610dcc929190612cc4565b506101208201518160060160006101000a81548173ffffffffffffffffffffffffffffffffffffffff021916908373ffffffffffffffffffffffffffffffffffffffff160217905550610140820151816007019080519060200190610e32929190612cc4565b506101608201518160080160006101000a81548167ffffffffffffffff021916908367ffffffffffffffff160217905550905050600381908060018154018082558091505060019003906000526020600020016000909190919091505560016002600083815260200190815260200160002060006101000a81548160ff0219169083151502179055507f9734e2c6faef2085e2efacd33d54cf02df9e7fd5618121b33589f637ac60804181604051610eea919061333d565b60405180910390a1505050505050505050565b806000806101000a81548173ffffffffffffffffffffffffffffffffffffffff021916908373ffffffffffffffffffffffffffffffffffffffff16021790555050565b6000813373ffffffffffffffffffffffffffffffffffffffff166001600083815260200190815260200160002060060160009054906101000a900473ffffffffffffffffffffffffffffffffffffffff1673ffffffffffffffffffffffffffffffffffffffff1614610fe7576040517f08c379a0000000000000000000000000000000000000000000000000000000008152600401610fde9061395b565b60405180910390fd5b826002600082815260200190815260200160002060009054906101000a900460ff16611048576040517f08c379a000000000000000000000000000000000000000000000000000000000815260040161103f906139c7565b60405180910390fd5b6000600160008681526020019081526020016000209050428160020160009054906101000a900467ffffffffffffffff1667ffffffffffffffff16116110c3576040517f08c379a00000000000000000000000000000000000000000000000000000000081526004016110ba90613d33565b60405180910390fd5b60008054906101000a900473ffffffffffffffffffffffffffffffffffffffff1673ffffffffffffffffffffffffffffffffffffffff1663bf3f733e866040518263ffffffff1660e01b815260040161111c919061333d565b600060405180830381600087803b15801561113657600080fd5b505af115801561114a573d6000803e3d6000fd5b505050506001600086815260200190815260200160002060008082016000905560018201600061117a9190612d4a565b6002820160006101000a81549067ffffffffffffffff02191690556002820160086101000a81549067ffffffffffffffff02191690556002820160106101000a81549067ffffffffffffffff02191690556002820160186101000a81549067ffffffffffffffff02191690556003820160006111f69190612d4a565b6004820160006112069190612d4a565b6005820160006112169190612d4a565b6006820160006101000a81549073ffffffffffffffffffffffffffffffffffffffff021916905560078201600061124d9190612d4a565b6008820160006101000a81549067ffffffffffffffff0219169055505060005b60038054905081101561133257856003828154811061128f5761128e613aa2565b5b9060005260206000200154141561131f57600360016003805490506112b49190613d53565b815481106112c5576112c4613aa2565b5b9060005260206000200154600382815481106112e4576112e3613aa2565b5b9060005260206000200181905550600380548061130457611303613d87565b5b60019003818190600052602060002001600090559055611332565b808061132a90613b61565b91505061126d565b507fc0919dcb7e0b464ce8146ec897e4a566e6a1af62233364998f3da696e08b500b85604051611362919061333d565b60405180910390a1849350505050919050565b60606000805b60038054905081101561140157838051906020012060016000600384815481106113a8576113a7613aa2565b5b906000526020600020015481526020019081526020016000206005016040516113d19190613e55565b604051809103902014156113ee5781806113ea90613b61565b9250505b80806113f990613b61565b91505061137b565b5060008167ffffffffffffffff81111561141e5761141d613362565b5b60405190808252806020026020018201604052801561145757816020015b611444612c18565b81526020019060019003908161143c5790505b5090506000805b600380549050811015611973578580519060200120600160006003848154811061148b5761148a613aa2565b5b906000526020600020015481526020019081526020016000206005016040516114b49190613e55565b604051809103902014156119605760016000600383815481106114da576114d9613aa2565b5b90600052602060002001548152602001908152602001600020604051806101800160405290816000820154815260200160018201805461151990613b00565b80601f016020809104026020016040519081016040528092919081815260200182805461154590613b00565b80156115925780601f1061156757610100808354040283529160200191611592565b820191906000526020600020905b81548152906001019060200180831161157557829003601f168201915b505050505081526020016002820160009054906101000a900467ffffffffffffffff1667ffffffffffffffff1667ffffffffffffffff1681526020016002820160089054906101000a900467ffffffffffffffff1667ffffffffffffffff1667ffffffffffffffff1681526020016002820160109054906101000a900467ffffffffffffffff1667ffffffffffffffff1667ffffffffffffffff1681526020016002820160189054906101000a900467ffffffffffffffff1667ffffffffffffffff1667ffffffffffffffff16815260200160038201805461167390613b00565b80601f016020809104026020016040519081016040528092919081815260200182805461169f90613b00565b80156116ec5780601f106116c1576101008083540402835291602001916116ec565b820191906000526020600020905b8154815290600101906020018083116116cf57829003601f168201915b5050505050815260200160048201805461170590613b00565b80601f016020809104026020016040519081016040528092919081815260200182805461173190613b00565b801561177e5780601f106117535761010080835404028352916020019161177e565b820191906000526020600020905b81548152906001019060200180831161176157829003601f168201915b5050505050815260200160058201805461179790613b00565b80601f01602080910402602001604051908101604052809291908181526020018280546117c390613b00565b80156118105780601f106117e557610100808354040283529160200191611810565b820191906000526020600020905b8154815290600101906020018083116117f357829003601f168201915b505050505081526020016006820160009054906101000a900473ffffffffffffffffffffffffffffffffffffffff1673ffffffffffffffffffffffffffffffffffffffff1673ffffffffffffffffffffffffffffffffffffffff16815260200160078201805461187f90613b00565b80601f01602080910402602001604051908101604052809291908181526020018280546118ab90613b00565b80156118f85780601f106118cd576101008083540402835291602001916118f8565b820191906000526020600020905b8154815290600101906020018083116118db57829003601f168201915b505050505081526020016008820160009054906101000a900467ffffffffffffffff1667ffffffffffffffff1667ffffffffffffffff168152505083838151811061194657611945613aa2565b5b6020026020010181905250818061195c90613b61565b9250505b808061196b90613b61565b91505061145e565b50819350505050919050565b60606000805b600380549050811015611a3c573373ffffffffffffffffffffffffffffffffffffffff1660016000600384815481106119c1576119c0613aa2565b5b9060005260206000200154815260200190815260200160002060060160009054906101000a900473ffffffffffffffffffffffffffffffffffffffff1673ffffffffffffffffffffffffffffffffffffffff161415611a29578180611a2590613b61565b9250505b8080611a3490613b61565b915050611985565b5060008167ffffffffffffffff811115611a5957611a58613362565b5b604051908082528060200260200182016040528015611a9257816020015b611a7f612c18565b815260200190600190039081611a775790505b5090506000805b600380549050811015611fdf573373ffffffffffffffffffffffffffffffffffffffff166001600060038481548110611ad557611ad4613aa2565b5b9060005260206000200154815260200190815260200160002060060160009054906101000a900473ffffffffffffffffffffffffffffffffffffffff1673ffffffffffffffffffffffffffffffffffffffff161415611fcc576001600060038381548110611b4657611b45613aa2565b5b906000526020600020015481526020019081526020016000206040518061018001604052908160008201548152602001600182018054611b8590613b00565b80601f0160208091040260200160405190810160405280929190818152602001828054611bb190613b00565b8015611bfe5780601f10611bd357610100808354040283529160200191611bfe565b820191906000526020600020905b815481529060010190602001808311611be157829003601f168201915b505050505081526020016002820160009054906101000a900467ffffffffffffffff1667ffffffffffffffff1667ffffffffffffffff1681526020016002820160089054906101000a900467ffffffffffffffff1667ffffffffffffffff1667ffffffffffffffff1681526020016002820160109054906101000a900467ffffffffffffffff1667ffffffffffffffff1667ffffffffffffffff1681526020016002820160189054906101000a900467ffffffffffffffff1667ffffffffffffffff1667ffffffffffffffff168152602001600382018054611cdf90613b00565b80601f0160208091040260200160405190810160405280929190818152602001828054611d0b90613b00565b8015611d585780601f10611d2d57610100808354040283529160200191611d58565b820191906000526020600020905b815481529060010190602001808311611d3b57829003601f168201915b50505050508152602001600482018054611d7190613b00565b80601f0160208091040260200160405190810160405280929190818152602001828054611d9d90613b00565b8015611dea5780601f10611dbf57610100808354040283529160200191611dea565b820191906000526020600020905b815481529060010190602001808311611dcd57829003601f168201915b50505050508152602001600582018054611e0390613b00565b80601f0160208091040260200160405190810160405280929190818152602001828054611e2f90613b00565b8015611e7c5780601f10611e5157610100808354040283529160200191611e7c565b820191906000526020600020905b815481529060010190602001808311611e5f57829003601f168201915b505050505081526020016006820160009054906101000a900473ffffffffffffffffffffffffffffffffffffffff1673ffffffffffffffffffffffffffffffffffffffff1673ffffffffffffffffffffffffffffffffffffffff168152602001600782018054611eeb90613b00565b80601f0160208091040260200160405190810160405280929190818152602001828054611f1790613b00565b8015611f645780601f10611f3957610100808354040283529160200191611f64565b820191906000526020600020905b815481529060010190602001808311611f4757829003601f168201915b505050505081526020016008820160009054906101000a900467ffffffffffffffff1667ffffffffffffffff1667ffffffffffffffff1681525050838381518110611fb257611fb1613aa2565b5b60200260200101819052508180611fc890613b61565b9250505b8080611fd790613b61565b915050611a99565b5081935050505090565b600160205280600052604060002060009150905080600001549080600101805461201290613b00565b80601f016020809104026020016040519081016040528092919081815260200182805461203e90613b00565b801561208b5780601f106120605761010080835404028352916020019161208b565b820191906000526020600020905b81548152906001019060200180831161206e57829003601f168201915b5050505050908060020160009054906101000a900467ffffffffffffffff16908060020160089054906101000a900467ffffffffffffffff16908060020160109054906101000a900467ffffffffffffffff16908060020160189054906101000a900467ffffffffffffffff169080600301805461210890613b00565b80601f016020809104026020016040519081016040528092919081815260200182805461213490613b00565b80156121815780601f1061215657610100808354040283529160200191612181565b820191906000526020600020905b81548152906001019060200180831161216457829003601f168201915b50505050509080600401805461219690613b00565b80601f01602080910402602001604051908101604052809291908181526020018280546121c290613b00565b801561220f5780601f106121e45761010080835404028352916020019161220f565b820191906000526020600020905b8154815290600101906020018083116121f257829003601f168201915b50505050509080600501805461222490613b00565b80601f016020809104026020016040519081016040528092919081815260200182805461225090613b00565b801561229d5780601f106122725761010080835404028352916020019161229d565b820191906000526020600020905b81548152906001019060200180831161228057829003601f168201915b5050505050908060060160009054906101000a900473ffffffffffffffffffffffffffffffffffffffff16908060070180546122d890613b00565b80601f016020809104026020016040519081016040528092919081815260200182805461230490613b00565b80156123515780601f1061232657610100808354040283529160200191612351565b820191906000526020600020905b81548152906001019060200180831161233457829003601f168201915b5050505050908060080160009054906101000a900467ffffffffffffffff1690508c565b60008160006001600083815260200190815260200160002060020160189054906101000a900467ffffffffffffffff1667ffffffffffffffff16116123ef576040517f08c379a00000000000000000000000000000000000000000000000000000000081526004016123e690613eb8565b60405180910390fd5b826002600082815260200190815260200160002060009054906101000a900460ff16612450576040517f08c379a0000000000000000000000000000000000000000000000000000000008152600401612447906139c7565b60405180910390fd5b60006001600086815260200190815260200160002090508060020160109054906101000a900467ffffffffffffffff1667ffffffffffffffff163410156124cc576040517f08c379a00000000000000000000000000000000000000000000000000000000081526004016124c390613f24565b60405180910390fd5b60008160020160109054906101000a900467ffffffffffffffff1667ffffffffffffffff16346124fc9190613d53565b905060008060009054906101000a900473ffffffffffffffffffffffffffffffffffffffff1673ffffffffffffffffffffffffffffffffffffffff1663cfe632ef88338660020160109054906101000a900467ffffffffffffffff166040518463ffffffff1660e01b815260040161257693929190613f7f565b6020604051808303816000875af1158015612595573d6000803e3d6000fd5b505050506040513d601f19601f820116820180604052508101906125b99190613fcb565b905060018360020160188282829054906101000a900467ffffffffffffffff166125e39190613ff8565b92506101000a81548167ffffffffffffffff021916908367ffffffffffffffff16021790555060018360080160008282829054906101000a900467ffffffffffffffff16612631919061402c565b92506101000a81548167ffffffffffffffff021916908367ffffffffffffffff1602179055507ff96d4fb6ecc92218c2118e25b073f236cd9a7974b6e8e0835995fdb722e34035878260405161268892919061406a565b60405180910390a160008211156127475760003373ffffffffffffffffffffffffffffffffffffffff16836040516126bf906140b9565b60006040518083038185875af1925050503d80600081146126fc576040519150601f19603f3d011682016040523d82523d6000602084013e612701565b606091505b5050905080612745576040517f08c379a000000000000000000000000000000000000000000000000000000000815260040161273c9061411a565b60405180910390fd5b505b8095505050505050919050565b61275c612c18565b816002600082815260200190815260200160002060009054906101000a900460ff166127bd576040517f08c379a00000000000000000000000000000000000000000000000000000000081526004016127b4906139c7565b60405180910390fd5b6001600084815260200190815260200160002060405180610180016040529081600082015481526020016001820180546127f690613b00565b80601f016020809104026020016040519081016040528092919081815260200182805461282290613b00565b801561286f5780601f106128445761010080835404028352916020019161286f565b820191906000526020600020905b81548152906001019060200180831161285257829003601f168201915b505050505081526020016002820160009054906101000a900467ffffffffffffffff1667ffffffffffffffff1667ffffffffffffffff1681526020016002820160089054906101000a900467ffffffffffffffff1667ffffffffffffffff1667ffffffffffffffff1681526020016002820160109054906101000a900467ffffffffffffffff1667ffffffffffffffff1667ffffffffffffffff1681526020016002820160189054906101000a900467ffffffffffffffff1667ffffffffffffffff1667ffffffffffffffff16815260200160038201805461295090613b00565b80601f016020809104026020016040519081016040528092919081815260200182805461297c90613b00565b80156129c95780601f1061299e576101008083540402835291602001916129c9565b820191906000526020600020905b8154815290600101906020018083116129ac57829003601f168201915b505050505081526020016004820180546129e290613b00565b80601f0160208091040260200160405190810160405280929190818152602001828054612a0e90613b00565b8015612a5b5780601f10612a3057610100808354040283529160200191612a5b565b820191906000526020600020905b815481529060010190602001808311612a3e57829003601f168201915b50505050508152602001600582018054612a7490613b00565b80601f0160208091040260200160405190810160405280929190818152602001828054612aa090613b00565b8015612aed5780601f10612ac257610100808354040283529160200191612aed565b820191906000526020600020905b815481529060010190602001808311612ad057829003601f168201915b505050505081526020016006820160009054906101000a900473ffffffffffffffffffffffffffffffffffffffff1673ffffffffffffffffffffffffffffffffffffffff1673ffffffffffffffffffffffffffffffffffffffff168152602001600782018054612b5c90613b00565b80601f0160208091040260200160405190810160405280929190818152602001828054612b8890613b00565b8015612bd55780601f10612baa57610100808354040283529160200191612bd5565b820191906000526020600020905b815481529060010190602001808311612bb857829003601f168201915b505050505081526020016008820160009054906101000a900467ffffffffffffffff1667ffffffffffffffff1667ffffffffffffffff1681525050915050919050565b6040518061018001604052806000801916815260200160608152602001600067ffffffffffffffff168152602001600067ffffffffffffffff168152602001600067ffffffffffffffff168152602001600067ffffffffffffffff168152602001606081526020016060815260200160608152602001600073ffffffffffffffffffffffffffffffffffffffff16815260200160608152602001600067ffffffffffffffff1681525090565b828054612cd090613b00565b90600052602060002090601f016020900481019282612cf25760008555612d39565b82601f10612d0b57805160ff1916838001178555612d39565b82800160010185558215612d39579182015b82811115612d38578251825591602001919060010190612d1d565b5b509050612d469190612d8a565b5090565b508054612d5690613b00565b6000825580601f10612d685750612d87565b601f016020900490600052602060002090810190612d869190612d8a565b5b50565b5b80821115612da3576000816000905550600101612d8b565b5090565b6000604051905090565b600080fd5b600080fd5b6000819050919050565b612dce81612dbb565b8114612dd957600080fd5b50565b600081359050612deb81612dc5565b92915050565b600060208284031215612e0757612e06612db1565b5b6000612e1584828501612ddc565b91505092915050565b60008115159050919050565b612e3381612e1e565b82525050565b6000602082019050612e4e6000830184612e2a565b92915050565b600067ffffffffffffffff82169050919050565b612e7181612e54565b8114612e7c57600080fd5b50565b600081359050612e8e81612e68565b92915050565b60008060408385031215612eab57612eaa612db1565b5b6000612eb985828601612ddc565b9250506020612eca85828601612e7f565b9150509250929050565b600081519050919050565b600082825260208201905092915050565b6000819050602082019050919050565b612f0981612dbb565b82525050565b6000612f1b8383612f00565b60208301905092915050565b6000602082019050919050565b6000612f3f82612ed4565b612f498185612edf565b9350612f5483612ef0565b8060005b83811015612f85578151612f6c8882612f0f565b9750612f7783612f27565b925050600181019050612f58565b5085935050505092915050565b60006020820190508181036000830152612fac8184612f34565b905092915050565b600081519050919050565b600082825260208201905092915050565b6000819050602082019050919050565b600081519050919050565b600082825260208201905092915050565b60005b8381101561301a578082015181840152602081019050612fff565b83811115613029576000848401525b50505050565b6000601f19601f8301169050919050565b600061304b82612fe0565b6130558185612feb565b9350613065818560208601612ffc565b61306e8161302f565b840191505092915050565b61308281612e54565b82525050565b600073ffffffffffffffffffffffffffffffffffffffff82169050919050565b60006130b382613088565b9050919050565b6130c3816130a8565b82525050565b6000610180830160008301516130e26000860182612f00565b50602083015184820360208601526130fa8282613040565b915050604083015161310f6040860182613079565b5060608301516131226060860182613079565b5060808301516131356080860182613079565b5060a083015161314860a0860182613079565b5060c083015184820360c08601526131608282613040565b91505060e083015184820360e086015261317a8282613040565b9150506101008301518482036101008601526131968282613040565b9150506101208301516131ad6101208601826130ba565b506101408301518482036101408601526131c78282613040565b9150506101608301516131de610160860182613079565b508091505092915050565b60006131f583836130c9565b905092915050565b6000602082019050919050565b600061321582612fb4565b61321f8185612fbf565b93508360208202850161323185612fd0565b8060005b8581101561326d578484038952815161324e85826131e9565b9450613259836131fd565b925060208a01995050600181019050613235565b50829750879550505050505092915050565b60006020820190508181036000830152613299818461320a565b905092915050565b6132aa816130a8565b82525050565b60006020820190506132c560008301846132a1565b92915050565b6000819050919050565b6132de816132cb565b81146132e957600080fd5b50565b6000813590506132fb816132d5565b92915050565b60006020828403121561331757613316612db1565b5b6000613325848285016132ec565b91505092915050565b61333781612dbb565b82525050565b6000602082019050613352600083018461332e565b92915050565b600080fd5b600080fd5b7f4e487b7100000000000000000000000000000000000000000000000000000000600052604160045260246000fd5b61339a8261302f565b810181811067ffffffffffffffff821117156133b9576133b8613362565b5b80604052505050565b60006133cc612da7565b90506133d88282613391565b919050565b600067ffffffffffffffff8211156133f8576133f7613362565b5b6134018261302f565b9050602081019050919050565b82818337600083830152505050565b600061343061342b846133dd565b6133c2565b90508281526020810184848401111561344c5761344b61335d565b5b61345784828561340e565b509392505050565b600082601f83011261347457613473613358565b5b813561348484826020860161341d565b91505092915050565b600080600080600080600080610100898b0312156134ae576134ad612db1565b5b600089013567ffffffffffffffff8111156134cc576134cb612db6565b5b6134d88b828c0161345f565b98505060206134e98b828c01612e7f565b97505060406134fa8b828c01612e7f565b965050606061350b8b828c01612e7f565b955050608089013567ffffffffffffffff81111561352c5761352b612db6565b5b6135388b828c0161345f565b94505060a089013567ffffffffffffffff81111561355957613558612db6565b5b6135658b828c0161345f565b93505060c089013567ffffffffffffffff81111561358657613585612db6565b5b6135928b828c0161345f565b92505060e089013567ffffffffffffffff8111156135b3576135b2612db6565b5b6135bf8b828c0161345f565b9150509295985092959890939650565b6135d8816130a8565b81146135e357600080fd5b50565b6000813590506135f5816135cf565b92915050565b60006020828403121561361157613610612db1565b5b600061361f848285016135e6565b91505092915050565b60006020828403121561363e5761363d612db1565b5b600082013567ffffffffffffffff81111561365c5761365b612db6565b5b6136688482850161345f565b91505092915050565b600082825260208201905092915050565b600061368d82612fe0565b6136978185613671565b93506136a7818560208601612ffc565b6136b08161302f565b840191505092915050565b6136c481612e54565b82525050565b6000610180820190506136e0600083018f61332e565b81810360208301526136f2818e613682565b9050613701604083018d6136bb565b61370e606083018c6136bb565b61371b608083018b6136bb565b61372860a083018a6136bb565b81810360c083015261373a8189613682565b905081810360e083015261374e8188613682565b90508181036101008301526137638187613682565b90506137736101208301866132a1565b8181036101408301526137868185613682565b90506137966101608301846136bb565b9d9c50505050505050505050505050565b6000610180830160008301516137c06000860182612f00565b50602083015184820360208601526137d88282613040565b91505060408301516137ed6040860182613079565b5060608301516138006060860182613079565b5060808301516138136080860182613079565b5060a083015161382660a0860182613079565b5060c083015184820360c086015261383e8282613040565b91505060e083015184820360e08601526138588282613040565b9150506101008301518482036101008601526138748282613040565b91505061012083015161388b6101208601826130ba565b506101408301518482036101408601526138a58282613040565b9150506101608301516138bc610160860182613079565b508091505092915050565b600060208201905081810360008301526138e181846137a7565b905092915050565b7f4f6e6c7920746865206576656e74206f776e65722063616e20706572666f726d60008201527f207468697320616374696f6e0000000000000000000000000000000000000000602082015250565b6000613945602c83613671565b9150613950826138e9565b604082019050919050565b6000602082019050818103600083015261397481613938565b9050919050565b7f4576656e7420646f6573206e6f74206578697374000000000000000000000000600082015250565b60006139b1601483613671565b91506139bc8261397b565b602082019050919050565b600060208201905081810360008301526139e0816139a4565b9050919050565b7f4e6577207469636b6574207072696365206d757374206265206772656174657260008201527f207468616e207a65726f2e000000000000000000000000000000000000000000602082015250565b6000613a43602b83613671565b9150613a4e826139e7565b604082019050919050565b60006020820190508181036000830152613a7281613a36565b9050919050565b6000604082019050613a8e600083018561332e565b613a9b60208301846136bb565b9392505050565b7f4e487b7100000000000000000000000000000000000000000000000000000000600052603260045260246000fd5b7f4e487b7100000000000000000000000000000000000000000000000000000000600052602260045260246000fd5b60006002820490506001821680613b1857607f821691505b60208210811415613b2c57613b2b613ad1565b5b50919050565b7f4e487b7100000000000000000000000000000000000000000000000000000000600052601160045260246000fd5b6000613b6c826132cb565b91507fffffffffffffffffffffffffffffffffffffffffffffffffffffffffffffffff821415613b9f57613b9e613b32565b5b600182019050919050565b600081905092915050565b6000613bc082612fe0565b613bca8185613baa565b9350613bda818560208601612ffc565b80840191505092915050565b6000819050919050565b613c01613bfc826132cb565b613be6565b82525050565b6000613c138285613bb5565b9150613c1f8284613bf0565b6020820191508190509392505050565b7f4576656e742077697468207468697320494420616c726561647920657869737460008201527f7300000000000000000000000000000000000000000000000000000000000000602082015250565b6000613c8b602183613671565b9150613c9682613c2f565b604082019050919050565b60006020820190508181036000830152613cba81613c7e565b9050919050565b7f43616e6e6f742063616e63656c206576656e742061667465722069742068617360008201527f2073746172746564000000000000000000000000000000000000000000000000602082015250565b6000613d1d602883613671565b9150613d2882613cc1565b604082019050919050565b60006020820190508181036000830152613d4c81613d10565b9050919050565b6000613d5e826132cb565b9150613d69836132cb565b925082821015613d7c57613d7b613b32565b5b828203905092915050565b7f4e487b7100000000000000000000000000000000000000000000000000000000600052603160045260246000fd5b600081905092915050565b60008190508160005260206000209050919050565b60008154613de381613b00565b613ded8186613db6565b94506001821660008114613e085760018114613e1957613e4c565b60ff19831686528186019350613e4c565b613e2285613dc1565b60005b83811015613e4457815481890152600182019150602081019050613e25565b838801955050505b50505092915050565b6000613e618284613dd6565b915081905092915050565b7f5468657265206973206e6f2072656d61696e696e67207469636b657473210000600082015250565b6000613ea2601e83613671565b9150613ead82613e6c565b602082019050919050565b60006020820190508181036000830152613ed181613e95565b9050919050565b7f496e73756666696369656e742066756e64732073656e74000000000000000000600082015250565b6000613f0e601783613671565b9150613f1982613ed8565b602082019050919050565b60006020820190508181036000830152613f3d81613f01565b9050919050565b6000819050919050565b6000613f69613f64613f5f84612e54565b613f44565b6132cb565b9050919050565b613f7981613f4e565b82525050565b6000606082019050613f94600083018661332e565b613fa160208301856132a1565b613fae6040830184613f70565b949350505050565b600081519050613fc581612dc5565b92915050565b600060208284031215613fe157613fe0612db1565b5b6000613fef84828501613fb6565b91505092915050565b600061400382612e54565b915061400e83612e54565b92508282101561402157614020613b32565b5b828203905092915050565b600061403782612e54565b915061404283612e54565b92508267ffffffffffffffff0382111561405f5761405e613b32565b5b828201905092915050565b600060408201905061407f600083018561332e565b61408c602083018461332e565b9392505050565b50565b60006140a3600083613db6565b91506140ae82614093565b600082019050919050565b60006140c482614096565b9150819050919050565b7f4661696c656420746f20726566756e64206f7665727061696420616d6f756e74600082015250565b6000614104602083613671565b915061410f826140ce565b602082019050919050565b60006020820190508181036000830152614133816140f7565b905091905056fea2646970667358221220a86e171cf2ebfa479063567894bd4fa4016230cc9c1a765b6ef5a8ebc8eb1ad364736f6c634300080a0033",
  "immutableReferences": {},
  "source": "// SPDX-License-Identifier: MIT\npragma solidity ^0.8.10;\nimport './Ticket.sol';\n\ncontract ContractEvent {\n  TicketContract ticketContract;\n\n  function setTicketContractAddress(address _ticketAddress) external {\n    ticketContract = TicketContract(_ticketAddress);\n  }\n\n  mapping(bytes32 => Event) public allEvents;\n  mapping(bytes32 => bool) public eventExists;\n\n  bytes32[] public eventIdsList;\n\n  address public ticketAddress;\n\n  // All attributes for the Events (Maybe i need to add number of sell tickets?)\n  struct Event {\n    bytes32 eventID;\n    string eventName;\n    uint64 dateOfEvent;\n    uint64 numberOfTickets;\n    uint64 ticketPrice;\n    uint64 ticketsLeft;\n    string placeName;\n    string eventDescription;\n    string eventCategory;\n    address eventOwner;\n    string eventImage;\n    uint64 soldTickets;\n  }\n\n  event EventCreated(bytes32 eventID);\n  event EventCancelled(bytes32 eventID);\n\n  event TicketPriceUpdated(bytes32 eventID, uint64 newTicketPrice);\n  event TicketBought(bytes32 eventID, bytes32 ticketID);\n\n  modifier isEnoughTickets(bytes32 _eventID) {\n    require(allEvents[_eventID].ticketsLeft > 0, 'There is no remaining tickets!');\n    _;\n  }\n\n  modifier onlyEventOwner(bytes32 _eventID) {\n    require(\n      allEvents[_eventID].eventOwner == msg.sender,\n      'Only the event owner can perform this action'\n    );\n    _;\n  }\n  modifier eventExistsModifier(bytes32 _eventID) {\n    require(eventExists[_eventID], 'Event does not exist');\n    _;\n  }\n  //function to create an event\n  function createEvent(\n    string memory _eventName,\n    uint64 _dateOfEvent,\n    uint64 _numberOfTickets,\n    uint64 _ticketPrice,\n    string memory _placeName,\n    string memory _eventDescription,\n    string memory _eventCategory,\n    string memory _eventImage\n  ) external {\n    bytes32 _eventID = keccak256(abi.encodePacked(_eventName, block.timestamp));\n    require(!eventExists[_eventID], 'Event with this ID already exists');\n\n    allEvents[_eventID] = Event({\n      eventID: _eventID,\n      eventName: _eventName,\n      dateOfEvent: _dateOfEvent,\n      numberOfTickets: _numberOfTickets,\n      ticketPrice: _ticketPrice,\n      ticketsLeft: _numberOfTickets,\n      placeName: _placeName,\n      eventDescription: _eventDescription,\n      eventCategory: _eventCategory,\n      eventOwner: msg.sender,\n      eventImage: _eventImage,\n      soldTickets: 0\n    });\n\n    eventIdsList.push(_eventID);\n    eventExists[_eventID] = true;\n\n    emit EventCreated(_eventID);\n  }\n\n  function updateTicketPrice(\n    bytes32 _eventID,\n    uint64 _newTicketPrice\n  ) external onlyEventOwner(_eventID) eventExistsModifier(_eventID) {\n    require(_newTicketPrice > 0, 'New ticket price must be greater than zero.');\n\n    allEvents[_eventID].ticketPrice = _newTicketPrice;\n    emit TicketPriceUpdated(_eventID, _newTicketPrice);\n  }\n\n  function getEventIDs() external view returns (bytes32[] memory eventList) {\n    return eventIdsList;\n  }\n\n  //function to get all events\n  function getEvents() external view returns (Event[] memory eventList) {\n    eventList = new Event[](eventIdsList.length);\n    for (uint i = 0; i < eventIdsList.length; i++) {\n      eventList[i] = allEvents[eventIdsList[i]];\n    }\n    return eventList;\n  }\n  //function to get info about event with given ID\n  function getEventInfo(\n    bytes32 _eventID\n  ) external view eventExistsModifier(_eventID) returns (Event memory) {\n    return allEvents[_eventID];\n  }\n  //function to get events by selected category\n  function getEventsByCategory(string memory _category) external view returns (Event[] memory) {\n    uint256 count = 0;\n    for (uint256 i = 0; i < eventIdsList.length; i++) {\n      if (\n        keccak256(bytes(allEvents[eventIdsList[i]].eventCategory)) == keccak256(bytes(_category))\n      ) {\n        count++;\n      }\n    }\n    Event[] memory categoryEvents = new Event[](count);\n    uint256 index = 0;\n\n    for (uint256 j = 0; j < eventIdsList.length; j++) {\n      if (\n        keccak256(bytes(allEvents[eventIdsList[j]].eventCategory)) == keccak256(bytes(_category))\n      ) {\n        categoryEvents[index] = allEvents[eventIdsList[j]];\n        index++;\n      }\n    }\n    return categoryEvents;\n  }\n  // Function to get events owned by the caller\n  function getEventsForOwner() external view returns (Event[] memory) {\n    uint256 count = 0;\n    for (uint256 i = 0; i < eventIdsList.length; i++) {\n      if (allEvents[eventIdsList[i]].eventOwner == msg.sender) {\n        count++;\n      }\n    }\n\n    Event[] memory ownerEvents = new Event[](count);\n    uint256 index = 0;\n\n    for (uint256 j = 0; j < eventIdsList.length; j++) {\n      if (allEvents[eventIdsList[j]].eventOwner == msg.sender) {\n        ownerEvents[index] = allEvents[eventIdsList[j]];\n        index++;\n      }\n    }\n    return ownerEvents;\n  }\n  // function to buy (Create) new ticket for the user\n  function buyTicket(\n    bytes32 _eventID\n  ) external payable isEnoughTickets(_eventID) eventExistsModifier(_eventID) returns (bytes32) {\n    Event storage _event = allEvents[_eventID];\n    require(msg.value >= _event.ticketPrice, 'Insufficient funds sent');\n\n    uint256 overpaidAmount = msg.value - _event.ticketPrice;\n\n    bytes32 ticketID = ticketContract.createNewTicket(_eventID, msg.sender, _event.ticketPrice);\n    _event.ticketsLeft -= 1;\n    _event.soldTickets += 1;\n\n    emit TicketBought(_eventID, ticketID);\n    if (overpaidAmount > 0) {\n      (bool refunded, ) = msg.sender.call{value: overpaidAmount}('');\n      require(refunded, 'Failed to refund overpaid amount');\n    }\n\n    return ticketID;\n  }\n  function cancelEvent(\n    bytes32 _eventID\n  ) external onlyEventOwner(_eventID) eventExistsModifier(_eventID) returns (bytes32) {\n    Event storage _event = allEvents[_eventID];\n    require(_event.dateOfEvent > block.timestamp, 'Cannot cancel event after it has started');\n\n    ticketContract.cancelAllTickets(_eventID);\n    delete allEvents[_eventID];\n\n    for (uint i = 0; i < eventIdsList.length; i++) {\n      if (eventIdsList[i] == _eventID) {\n        eventIdsList[i] = eventIdsList[eventIdsList.length - 1];\n        eventIdsList.pop();\n        break;\n      }\n    }\n\n    emit EventCancelled(_eventID);\n    return _eventID;\n  }\n}\n",
  "sourcePath": "/Users/janmrakava/Documents/GitHub/blockticket_blockchain/client/contracts/Event.sol",
  "compiler": {
    "name": "solc",
    "version": "0.8.10+commit.fc410830.Emscripten.clang"
  },
  "schemaVersion": "3.4.16",
  "updatedAt": "2024-04-25T19:26:02.305Z",
  "networkType": "ethereum",
  "devdoc": {
    "kind": "dev",
    "methods": {},
    "version": 1
  },
  "userdoc": {
    "kind": "user",
    "methods": {},
    "version": 1
  }
}