{
  "contractName": "ContractEvent",
  "abi": [
    {
      "anonymous": false,
      "inputs": [
        {
          "indexed": false,
          "internalType": "bytes32",
          "name": "eventID",
          "type": "bytes32"
        }
      ],
      "name": "EventCancelled",
      "type": "event"
    },
    {
      "anonymous": false,
      "inputs": [
        {
          "indexed": false,
          "internalType": "bytes32",
          "name": "eventID",
          "type": "bytes32"
        }
      ],
      "name": "EventCreated",
      "type": "event"
    },
    {
      "anonymous": false,
      "inputs": [
        {
          "indexed": false,
          "internalType": "bytes32",
          "name": "eventID",
          "type": "bytes32"
        },
        {
          "indexed": false,
          "internalType": "bytes32",
          "name": "ticketID",
          "type": "bytes32"
        }
      ],
      "name": "TicketBought",
      "type": "event"
    },
    {
      "anonymous": false,
      "inputs": [
        {
          "indexed": false,
          "internalType": "bytes32",
          "name": "eventID",
          "type": "bytes32"
        },
        {
          "indexed": false,
          "internalType": "uint64",
          "name": "newTicketPrice",
          "type": "uint64"
        }
      ],
      "name": "TicketPriceUpdated",
      "type": "event"
    },
    {
      "inputs": [
        {
          "internalType": "bytes32",
          "name": "",
          "type": "bytes32"
        }
      ],
      "name": "allEvents",
      "outputs": [
        {
          "internalType": "bytes32",
          "name": "eventID",
          "type": "bytes32"
        },
        {
          "internalType": "string",
          "name": "eventName",
          "type": "string"
        },
        {
          "internalType": "uint64",
          "name": "dateOfEvent",
          "type": "uint64"
        },
        {
          "internalType": "uint64",
          "name": "numberOfTickets",
          "type": "uint64"
        },
        {
          "internalType": "uint64",
          "name": "ticketPrice",
          "type": "uint64"
        },
        {
          "internalType": "uint64",
          "name": "ticketsLeft",
          "type": "uint64"
        },
        {
          "internalType": "string",
          "name": "placeName",
          "type": "string"
        },
        {
          "internalType": "string",
          "name": "eventDescription",
          "type": "string"
        },
        {
          "internalType": "string",
          "name": "eventCategory",
          "type": "string"
        },
        {
          "internalType": "address",
          "name": "eventOwner",
          "type": "address"
        },
        {
          "internalType": "string",
          "name": "eventImage",
          "type": "string"
        },
        {
          "internalType": "uint64",
          "name": "soldTickets",
          "type": "uint64"
        }
      ],
      "stateMutability": "view",
      "type": "function",
      "constant": true
    },
    {
      "inputs": [
        {
          "internalType": "uint256",
          "name": "",
          "type": "uint256"
        }
      ],
      "name": "eventIdsList",
      "outputs": [
        {
          "internalType": "bytes32",
          "name": "",
          "type": "bytes32"
        }
      ],
      "stateMutability": "view",
      "type": "function",
      "constant": true
    },
    {
      "inputs": [],
      "name": "ticketAddress",
      "outputs": [
        {
          "internalType": "address",
          "name": "",
          "type": "address"
        }
      ],
      "stateMutability": "view",
      "type": "function",
      "constant": true
    },
    {
      "inputs": [
        {
          "internalType": "bytes32",
          "name": "_eventID",
          "type": "bytes32"
        },
        {
          "internalType": "string",
          "name": "_eventName",
          "type": "string"
        },
        {
          "internalType": "uint64",
          "name": "_dateOfEvent",
          "type": "uint64"
        },
        {
          "internalType": "uint64",
          "name": "_numberOfTickets",
          "type": "uint64"
        },
        {
          "internalType": "uint64",
          "name": "_ticketPrice",
          "type": "uint64"
        },
        {
          "internalType": "string",
          "name": "_placeName",
          "type": "string"
        },
        {
          "internalType": "string",
          "name": "_eventDescription",
          "type": "string"
        },
        {
          "internalType": "string",
          "name": "_eventCategory",
          "type": "string"
        },
        {
          "internalType": "string",
          "name": "_eventImage",
          "type": "string"
        }
      ],
      "name": "createEvent",
      "outputs": [],
      "stateMutability": "nonpayable",
      "type": "function"
    },
    {
      "inputs": [
        {
          "internalType": "bytes32",
          "name": "_eventID",
          "type": "bytes32"
        },
        {
          "internalType": "uint64",
          "name": "_newTicketPrice",
          "type": "uint64"
        }
      ],
      "name": "updateTicketPrice",
      "outputs": [],
      "stateMutability": "nonpayable",
      "type": "function"
    },
    {
      "inputs": [],
      "name": "getEventIDs",
      "outputs": [
        {
          "internalType": "bytes32[]",
          "name": "eventList",
          "type": "bytes32[]"
        }
      ],
      "stateMutability": "view",
      "type": "function",
      "constant": true
    },
    {
      "inputs": [],
      "name": "getEvents",
      "outputs": [
        {
          "components": [
            {
              "internalType": "bytes32",
              "name": "eventID",
              "type": "bytes32"
            },
            {
              "internalType": "string",
              "name": "eventName",
              "type": "string"
            },
            {
              "internalType": "uint64",
              "name": "dateOfEvent",
              "type": "uint64"
            },
            {
              "internalType": "uint64",
              "name": "numberOfTickets",
              "type": "uint64"
            },
            {
              "internalType": "uint64",
              "name": "ticketPrice",
              "type": "uint64"
            },
            {
              "internalType": "uint64",
              "name": "ticketsLeft",
              "type": "uint64"
            },
            {
              "internalType": "string",
              "name": "placeName",
              "type": "string"
            },
            {
              "internalType": "string",
              "name": "eventDescription",
              "type": "string"
            },
            {
              "internalType": "string",
              "name": "eventCategory",
              "type": "string"
            },
            {
              "internalType": "address",
              "name": "eventOwner",
              "type": "address"
            },
            {
              "internalType": "string",
              "name": "eventImage",
              "type": "string"
            },
            {
              "internalType": "uint64",
              "name": "soldTickets",
              "type": "uint64"
            }
          ],
          "internalType": "struct ContractEvent.Event[]",
          "name": "eventList",
          "type": "tuple[]"
        }
      ],
      "stateMutability": "view",
      "type": "function",
      "constant": true
    },
    {
      "inputs": [
        {
          "internalType": "bytes32",
          "name": "_eventID",
          "type": "bytes32"
        }
      ],
      "name": "getEventInfo",
      "outputs": [
        {
          "internalType": "bytes32",
          "name": "eventId",
          "type": "bytes32"
        },
        {
          "internalType": "string",
          "name": "eventName",
          "type": "string"
        },
        {
          "internalType": "uint64",
          "name": "dateOfEvent",
          "type": "uint64"
        },
        {
          "internalType": "uint64",
          "name": "numberOfTickets",
          "type": "uint64"
        },
        {
          "internalType": "uint64",
          "name": "ticketPrice",
          "type": "uint64"
        },
        {
          "internalType": "uint64",
          "name": "ticketsLeft",
          "type": "uint64"
        },
        {
          "internalType": "string",
          "name": "placeName",
          "type": "string"
        },
        {
          "internalType": "string",
          "name": "eventDescription",
          "type": "string"
        },
        {
          "internalType": "string",
          "name": "eventCategory",
          "type": "string"
        },
        {
          "internalType": "address",
          "name": "eventOwner",
          "type": "address"
        },
        {
          "internalType": "string",
          "name": "eventImage",
          "type": "string"
        },
        {
          "internalType": "uint64",
          "name": "soldTickets",
          "type": "uint64"
        }
      ],
      "stateMutability": "view",
      "type": "function",
      "constant": true
    },
    {
      "inputs": [
        {
          "internalType": "string",
          "name": "_category",
          "type": "string"
        }
      ],
      "name": "getEventsByCategory",
      "outputs": [
        {
          "components": [
            {
              "internalType": "bytes32",
              "name": "eventID",
              "type": "bytes32"
            },
            {
              "internalType": "string",
              "name": "eventName",
              "type": "string"
            },
            {
              "internalType": "uint64",
              "name": "dateOfEvent",
              "type": "uint64"
            },
            {
              "internalType": "uint64",
              "name": "numberOfTickets",
              "type": "uint64"
            },
            {
              "internalType": "uint64",
              "name": "ticketPrice",
              "type": "uint64"
            },
            {
              "internalType": "uint64",
              "name": "ticketsLeft",
              "type": "uint64"
            },
            {
              "internalType": "string",
              "name": "placeName",
              "type": "string"
            },
            {
              "internalType": "string",
              "name": "eventDescription",
              "type": "string"
            },
            {
              "internalType": "string",
              "name": "eventCategory",
              "type": "string"
            },
            {
              "internalType": "address",
              "name": "eventOwner",
              "type": "address"
            },
            {
              "internalType": "string",
              "name": "eventImage",
              "type": "string"
            },
            {
              "internalType": "uint64",
              "name": "soldTickets",
              "type": "uint64"
            }
          ],
          "internalType": "struct ContractEvent.Event[]",
          "name": "",
          "type": "tuple[]"
        }
      ],
      "stateMutability": "view",
      "type": "function",
      "constant": true
    },
    {
      "inputs": [
        {
          "internalType": "bytes32",
          "name": "_eventID",
          "type": "bytes32"
        }
      ],
      "name": "buyTicket",
      "outputs": [
        {
          "internalType": "uint256",
          "name": "",
          "type": "uint256"
        }
      ],
      "stateMutability": "payable",
      "type": "function",
      "payable": true
    }
  ],
  "bytecode": "0x608060405234801561001057600080fd5b50612b9c806100206000396000f3fe6080604052600436106100915760003560e01c8063ae1829e111610059578063ae1829e11461017d578063dfb60285146101ba578063e542327414610202578063f765b6b114610232578063f971e1e61461027a57610091565b806312acb240146100965780633cbb95f6146100bf578063404aa8f9146100ea57806357a8e3fe146101155780636f5f490714610140575b600080fd5b3480156100a257600080fd5b506100bd60048036038101906100b89190611e38565b6102a3565b005b3480156100cb57600080fd5b506100d461041a565b6040516100e19190611f36565b60405180910390f35b3480156100f657600080fd5b506100ff610472565b60405161010c9190612223565b60405180910390f35b34801561012157600080fd5b5061012a610984565b6040516101379190612254565b60405180910390f35b34801561014c57600080fd5b50610167600480360381019061016291906122a5565b6109aa565b60405161017491906122e1565b60405180910390f35b34801561018957600080fd5b506101a4600480360381019061019f9190612431565b6109ce565b6040516101b19190612223565b60405180910390f35b3480156101c657600080fd5b506101e160048036038101906101dc919061247a565b610fd5565b6040516101f99c9b9a99989796959493929190612500565b60405180910390f35b61021c6004803603810190610217919061247a565b611361565b60405161022991906125ec565b60405180910390f35b34801561023e57600080fd5b506102596004803603810190610254919061247a565b611439565b6040516102719c9b9a99989796959493929190612500565b60405180910390f35b34801561028657600080fd5b506102a1600480360381019061029c9190612607565b611902565b005b813373ffffffffffffffffffffffffffffffffffffffff1660008083815260200190815260200160002060060160009054906101000a900473ffffffffffffffffffffffffffffffffffffffff1673ffffffffffffffffffffffffffffffffffffffff1614610347576040517f08c379a000000000000000000000000000000000000000000000000000000000815260040161033e906127cf565b60405180910390fd5b8280600080838152602001908152602001600020600001541461039f576040517f08c379a000000000000000000000000000000000000000000000000000000000815260040161039690612861565b60405180910390fd5b8260008086815260200190815260200160002060020160106101000a81548167ffffffffffffffff021916908367ffffffffffffffff1602179055507f0dc2e2994cc6121fbd0f46abaefc7de3a48aa2facac17978bb4fe0ef8b7cdabb848460405161040c929190612881565b60405180910390a150505050565b6060600180548060200260200160405190810160405280929190818152602001828054801561046857602002820191906000526020600020905b815481526020019060010190808311610454575b5050505050905090565b606060018054905067ffffffffffffffff81111561049357610492612306565b5b6040519080825280602002602001820160405280156104cc57816020015b6104b9611c5f565b8152602001906001900390816104b15790505b50905060005b60018054905081101561098057600080600183815481106104f6576104f56128aa565b5b90600052602060002001548152602001908152602001600020604051806101800160405290816000820154815260200160018201805461053590612908565b80601f016020809104026020016040519081016040528092919081815260200182805461056190612908565b80156105ae5780601f10610583576101008083540402835291602001916105ae565b820191906000526020600020905b81548152906001019060200180831161059157829003601f168201915b505050505081526020016002820160009054906101000a900467ffffffffffffffff1667ffffffffffffffff1667ffffffffffffffff1681526020016002820160089054906101000a900467ffffffffffffffff1667ffffffffffffffff1667ffffffffffffffff1681526020016002820160109054906101000a900467ffffffffffffffff1667ffffffffffffffff1667ffffffffffffffff1681526020016002820160189054906101000a900467ffffffffffffffff1667ffffffffffffffff1667ffffffffffffffff16815260200160038201805461068f90612908565b80601f01602080910402602001604051908101604052809291908181526020018280546106bb90612908565b80156107085780601f106106dd57610100808354040283529160200191610708565b820191906000526020600020905b8154815290600101906020018083116106eb57829003601f168201915b5050505050815260200160048201805461072190612908565b80601f016020809104026020016040519081016040528092919081815260200182805461074d90612908565b801561079a5780601f1061076f5761010080835404028352916020019161079a565b820191906000526020600020905b81548152906001019060200180831161077d57829003601f168201915b505050505081526020016005820180546107b390612908565b80601f01602080910402602001604051908101604052809291908181526020018280546107df90612908565b801561082c5780601f106108015761010080835404028352916020019161082c565b820191906000526020600020905b81548152906001019060200180831161080f57829003601f168201915b505050505081526020016006820160009054906101000a900473ffffffffffffffffffffffffffffffffffffffff1673ffffffffffffffffffffffffffffffffffffffff1673ffffffffffffffffffffffffffffffffffffffff16815260200160078201805461089b90612908565b80601f01602080910402602001604051908101604052809291908181526020018280546108c790612908565b80156109145780601f106108e957610100808354040283529160200191610914565b820191906000526020600020905b8154815290600101906020018083116108f757829003601f168201915b505050505081526020016008820160009054906101000a900467ffffffffffffffff1667ffffffffffffffff1667ffffffffffffffff1681525050828281518110610962576109616128aa565b5b6020026020010181905250808061097890612969565b9150506104d2565b5090565b600260009054906101000a900473ffffffffffffffffffffffffffffffffffffffff1681565b600181815481106109ba57600080fd5b906000526020600020016000915090505481565b60606000805b600180549050811015610a5957838051906020012060008060018481548110610a00576109ff6128aa565b5b90600052602060002001548152602001908152602001600020600501604051610a299190612a51565b60405180910390201415610a46578180610a4290612969565b9250505b8080610a5190612969565b9150506109d4565b5060008167ffffffffffffffff811115610a7657610a75612306565b5b604051908082528060200260200182016040528015610aaf57816020015b610a9c611c5f565b815260200190600190039081610a945790505b5090506000805b600180549050811015610fc957858051906020012060008060018481548110610ae257610ae16128aa565b5b90600052602060002001548152602001908152602001600020600501604051610b0b9190612a51565b60405180910390201415610fb65760008060018381548110610b3057610b2f6128aa565b5b906000526020600020015481526020019081526020016000206040518061018001604052908160008201548152602001600182018054610b6f90612908565b80601f0160208091040260200160405190810160405280929190818152602001828054610b9b90612908565b8015610be85780601f10610bbd57610100808354040283529160200191610be8565b820191906000526020600020905b815481529060010190602001808311610bcb57829003601f168201915b505050505081526020016002820160009054906101000a900467ffffffffffffffff1667ffffffffffffffff1667ffffffffffffffff1681526020016002820160089054906101000a900467ffffffffffffffff1667ffffffffffffffff1667ffffffffffffffff1681526020016002820160109054906101000a900467ffffffffffffffff1667ffffffffffffffff1667ffffffffffffffff1681526020016002820160189054906101000a900467ffffffffffffffff1667ffffffffffffffff1667ffffffffffffffff168152602001600382018054610cc990612908565b80601f0160208091040260200160405190810160405280929190818152602001828054610cf590612908565b8015610d425780601f10610d1757610100808354040283529160200191610d42565b820191906000526020600020905b815481529060010190602001808311610d2557829003601f168201915b50505050508152602001600482018054610d5b90612908565b80601f0160208091040260200160405190810160405280929190818152602001828054610d8790612908565b8015610dd45780601f10610da957610100808354040283529160200191610dd4565b820191906000526020600020905b815481529060010190602001808311610db757829003601f168201915b50505050508152602001600582018054610ded90612908565b80601f0160208091040260200160405190810160405280929190818152602001828054610e1990612908565b8015610e665780601f10610e3b57610100808354040283529160200191610e66565b820191906000526020600020905b815481529060010190602001808311610e4957829003601f168201915b505050505081526020016006820160009054906101000a900473ffffffffffffffffffffffffffffffffffffffff1673ffffffffffffffffffffffffffffffffffffffff1673ffffffffffffffffffffffffffffffffffffffff168152602001600782018054610ed590612908565b80601f0160208091040260200160405190810160405280929190818152602001828054610f0190612908565b8015610f4e5780601f10610f2357610100808354040283529160200191610f4e565b820191906000526020600020905b815481529060010190602001808311610f3157829003601f168201915b505050505081526020016008820160009054906101000a900467ffffffffffffffff1667ffffffffffffffff1667ffffffffffffffff1681525050838381518110610f9c57610f9b6128aa565b5b60200260200101819052508180610fb290612969565b9250505b8080610fc190612969565b915050610ab6565b50819350505050919050565b6000602052806000526040600020600091509050806000015490806001018054610ffe90612908565b80601f016020809104026020016040519081016040528092919081815260200182805461102a90612908565b80156110775780601f1061104c57610100808354040283529160200191611077565b820191906000526020600020905b81548152906001019060200180831161105a57829003601f168201915b5050505050908060020160009054906101000a900467ffffffffffffffff16908060020160089054906101000a900467ffffffffffffffff16908060020160109054906101000a900467ffffffffffffffff16908060020160189054906101000a900467ffffffffffffffff16908060030180546110f490612908565b80601f016020809104026020016040519081016040528092919081815260200182805461112090612908565b801561116d5780601f106111425761010080835404028352916020019161116d565b820191906000526020600020905b81548152906001019060200180831161115057829003601f168201915b50505050509080600401805461118290612908565b80601f01602080910402602001604051908101604052809291908181526020018280546111ae90612908565b80156111fb5780601f106111d0576101008083540402835291602001916111fb565b820191906000526020600020905b8154815290600101906020018083116111de57829003601f168201915b50505050509080600501805461121090612908565b80601f016020809104026020016040519081016040528092919081815260200182805461123c90612908565b80156112895780601f1061125e57610100808354040283529160200191611289565b820191906000526020600020905b81548152906001019060200180831161126c57829003601f168201915b5050505050908060060160009054906101000a900473ffffffffffffffffffffffffffffffffffffffff16908060070180546112c490612908565b80601f01602080910402602001604051908101604052809291908181526020018280546112f090612908565b801561133d5780601f106113125761010080835404028352916020019161133d565b820191906000526020600020905b81548152906001019060200180831161132057829003601f168201915b5050505050908060080160009054906101000a900467ffffffffffffffff1690508c565b6000818060008083815260200190815260200160002060000154146113bb576040517f08c379a00000000000000000000000000000000000000000000000000000000081526004016113b290612861565b60405180910390fd5b82600080600083815260200190815260200160002060020160189054906101000a900467ffffffffffffffff1667ffffffffffffffff1611611432576040517f08c379a000000000000000000000000000000000000000000000000000000000815260040161142990612ab4565b60405180910390fd5b5050919050565b6000606060008060008060608060606000606060008c8060008083815260200190815260200160002060000154146114a6576040517f08c379a000000000000000000000000000000000000000000000000000000000815260040161149d90612861565b60405180910390fd5b6000808f8152602001908152602001600020600001549c506000808f815260200190815260200160002060010180546114de90612908565b80601f016020809104026020016040519081016040528092919081815260200182805461150a90612908565b80156115575780601f1061152c57610100808354040283529160200191611557565b820191906000526020600020905b81548152906001019060200180831161153a57829003601f168201915b50505050509b506000808f815260200190815260200160002060020160009054906101000a900467ffffffffffffffff169a506000808f815260200190815260200160002060020160089054906101000a900467ffffffffffffffff1699506000808f815260200190815260200160002060020160109054906101000a900467ffffffffffffffff1698506000808f815260200190815260200160002060020160189054906101000a900467ffffffffffffffff1697506000808f8152602001908152602001600020600301805461162e90612908565b80601f016020809104026020016040519081016040528092919081815260200182805461165a90612908565b80156116a75780601f1061167c576101008083540402835291602001916116a7565b820191906000526020600020905b81548152906001019060200180831161168a57829003601f168201915b505050505096506000808f815260200190815260200160002060040180546116ce90612908565b80601f01602080910402602001604051908101604052809291908181526020018280546116fa90612908565b80156117475780601f1061171c57610100808354040283529160200191611747565b820191906000526020600020905b81548152906001019060200180831161172a57829003601f168201915b505050505095506000808f8152602001908152602001600020600501805461176e90612908565b80601f016020809104026020016040519081016040528092919081815260200182805461179a90612908565b80156117e75780601f106117bc576101008083540402835291602001916117e7565b820191906000526020600020905b8154815290600101906020018083116117ca57829003601f168201915b505050505094506000808f815260200190815260200160002060060160009054906101000a900473ffffffffffffffffffffffffffffffffffffffff1693506000808f8152602001908152602001600020600701805461184690612908565b80601f016020809104026020016040519081016040528092919081815260200182805461187290612908565b80156118bf5780601f10611894576101008083540402835291602001916118bf565b820191906000526020600020905b8154815290600101906020018083116118a257829003601f168201915b505050505092506000808f815260200190815260200160002060080160009054906101000a900467ffffffffffffffff1691505091939597999b5091939597999b565b60005b600180549050811015611986578960018281548110611927576119266128aa565b5b90600052602060002001541415611973576040517f08c379a000000000000000000000000000000000000000000000000000000000815260040161196a90612b46565b60405180910390fd5b808061197e90612969565b915050611905565b50876000808b815260200190815260200160002060010190805190602001906119b0929190611d0b565b50886000808b815260200190815260200160002060000181905550866000808b815260200190815260200160002060020160006101000a81548167ffffffffffffffff021916908367ffffffffffffffff160217905550856000808b815260200190815260200160002060020160086101000a81548167ffffffffffffffff021916908367ffffffffffffffff160217905550846000808b815260200190815260200160002060020160106101000a81548167ffffffffffffffff021916908367ffffffffffffffff160217905550856000808b815260200190815260200160002060020160186101000a81548167ffffffffffffffff021916908367ffffffffffffffff160217905550836000808b81526020019081526020016000206003019080519060200190611ae4929190611d0b565b50826000808b81526020019081526020016000206004019080519060200190611b0e929190611d0b565b50816000808b81526020019081526020016000206005019080519060200190611b38929190611d0b565b50336000808b815260200190815260200160002060060160006101000a81548173ffffffffffffffffffffffffffffffffffffffff021916908373ffffffffffffffffffffffffffffffffffffffff160217905550806000808b81526020019081526020016000206007019080519060200190611bb6929190611d0b565b5060008060008b815260200190815260200160002060080160006101000a81548167ffffffffffffffff021916908367ffffffffffffffff16021790555060018990806001815401808255809150506001900390600052602060002001600090919091909150557f9734e2c6faef2085e2efacd33d54cf02df9e7fd5618121b33589f637ac60804189604051611c4c91906122e1565b60405180910390a1505050505050505050565b6040518061018001604052806000801916815260200160608152602001600067ffffffffffffffff168152602001600067ffffffffffffffff168152602001600067ffffffffffffffff168152602001600067ffffffffffffffff168152602001606081526020016060815260200160608152602001600073ffffffffffffffffffffffffffffffffffffffff16815260200160608152602001600067ffffffffffffffff1681525090565b828054611d1790612908565b90600052602060002090601f016020900481019282611d395760008555611d80565b82601f10611d5257805160ff1916838001178555611d80565b82800160010185558215611d80579182015b82811115611d7f578251825591602001919060010190611d64565b5b509050611d8d9190611d91565b5090565b5b80821115611daa576000816000905550600101611d92565b5090565b6000604051905090565b600080fd5b600080fd5b6000819050919050565b611dd581611dc2565b8114611de057600080fd5b50565b600081359050611df281611dcc565b92915050565b600067ffffffffffffffff82169050919050565b611e1581611df8565b8114611e2057600080fd5b50565b600081359050611e3281611e0c565b92915050565b60008060408385031215611e4f57611e4e611db8565b5b6000611e5d85828601611de3565b9250506020611e6e85828601611e23565b9150509250929050565b600081519050919050565b600082825260208201905092915050565b6000819050602082019050919050565b611ead81611dc2565b82525050565b6000611ebf8383611ea4565b60208301905092915050565b6000602082019050919050565b6000611ee382611e78565b611eed8185611e83565b9350611ef883611e94565b8060005b83811015611f29578151611f108882611eb3565b9750611f1b83611ecb565b925050600181019050611efc565b5085935050505092915050565b60006020820190508181036000830152611f508184611ed8565b905092915050565b600081519050919050565b600082825260208201905092915050565b6000819050602082019050919050565b600081519050919050565b600082825260208201905092915050565b60005b83811015611fbe578082015181840152602081019050611fa3565b83811115611fcd576000848401525b50505050565b6000601f19601f8301169050919050565b6000611fef82611f84565b611ff98185611f8f565b9350612009818560208601611fa0565b61201281611fd3565b840191505092915050565b61202681611df8565b82525050565b600073ffffffffffffffffffffffffffffffffffffffff82169050919050565b60006120578261202c565b9050919050565b6120678161204c565b82525050565b6000610180830160008301516120866000860182611ea4565b506020830151848203602086015261209e8282611fe4565b91505060408301516120b3604086018261201d565b5060608301516120c6606086018261201d565b5060808301516120d9608086018261201d565b5060a08301516120ec60a086018261201d565b5060c083015184820360c08601526121048282611fe4565b91505060e083015184820360e086015261211e8282611fe4565b91505061010083015184820361010086015261213a8282611fe4565b91505061012083015161215161012086018261205e565b5061014083015184820361014086015261216b8282611fe4565b91505061016083015161218261016086018261201d565b508091505092915050565b6000612199838361206d565b905092915050565b6000602082019050919050565b60006121b982611f58565b6121c38185611f63565b9350836020820285016121d585611f74565b8060005b8581101561221157848403895281516121f2858261218d565b94506121fd836121a1565b925060208a019950506001810190506121d9565b50829750879550505050505092915050565b6000602082019050818103600083015261223d81846121ae565b905092915050565b61224e8161204c565b82525050565b60006020820190506122696000830184612245565b92915050565b6000819050919050565b6122828161226f565b811461228d57600080fd5b50565b60008135905061229f81612279565b92915050565b6000602082840312156122bb576122ba611db8565b5b60006122c984828501612290565b91505092915050565b6122db81611dc2565b82525050565b60006020820190506122f660008301846122d2565b92915050565b600080fd5b600080fd5b7f4e487b7100000000000000000000000000000000000000000000000000000000600052604160045260246000fd5b61233e82611fd3565b810181811067ffffffffffffffff8211171561235d5761235c612306565b5b80604052505050565b6000612370611dae565b905061237c8282612335565b919050565b600067ffffffffffffffff82111561239c5761239b612306565b5b6123a582611fd3565b9050602081019050919050565b82818337600083830152505050565b60006123d46123cf84612381565b612366565b9050828152602081018484840111156123f0576123ef612301565b5b6123fb8482856123b2565b509392505050565b600082601f830112612418576124176122fc565b5b81356124288482602086016123c1565b91505092915050565b60006020828403121561244757612446611db8565b5b600082013567ffffffffffffffff81111561246557612464611dbd565b5b61247184828501612403565b91505092915050565b6000602082840312156124905761248f611db8565b5b600061249e84828501611de3565b91505092915050565b600082825260208201905092915050565b60006124c382611f84565b6124cd81856124a7565b93506124dd818560208601611fa0565b6124e681611fd3565b840191505092915050565b6124fa81611df8565b82525050565b600061018082019050612516600083018f6122d2565b8181036020830152612528818e6124b8565b9050612537604083018d6124f1565b612544606083018c6124f1565b612551608083018b6124f1565b61255e60a083018a6124f1565b81810360c083015261257081896124b8565b905081810360e083015261258481886124b8565b905081810361010083015261259981876124b8565b90506125a9610120830186612245565b8181036101408301526125bc81856124b8565b90506125cc6101608301846124f1565b9d9c50505050505050505050505050565b6125e68161226f565b82525050565b600060208201905061260160008301846125dd565b92915050565b60008060008060008060008060006101208a8c03121561262a57612629611db8565b5b60006126388c828d01611de3565b99505060208a013567ffffffffffffffff81111561265957612658611dbd565b5b6126658c828d01612403565b98505060406126768c828d01611e23565b97505060606126878c828d01611e23565b96505060806126988c828d01611e23565b95505060a08a013567ffffffffffffffff8111156126b9576126b8611dbd565b5b6126c58c828d01612403565b94505060c08a013567ffffffffffffffff8111156126e6576126e5611dbd565b5b6126f28c828d01612403565b93505060e08a013567ffffffffffffffff81111561271357612712611dbd565b5b61271f8c828d01612403565b9250506101008a013567ffffffffffffffff81111561274157612740611dbd565b5b61274d8c828d01612403565b9150509295985092959850929598565b7f4f6e6c7920746865206576656e74206f776e65722063616e20706572666f726d60008201527f207468697320616374696f6e0000000000000000000000000000000000000000602082015250565b60006127b9602c836124a7565b91506127c48261275d565b604082019050919050565b600060208201905081810360008301526127e8816127ac565b9050919050565b7f4576656e742077697468207468697320494420646f6573206e6f74206578697360008201527f7400000000000000000000000000000000000000000000000000000000000000602082015250565b600061284b6021836124a7565b9150612856826127ef565b604082019050919050565b6000602082019050818103600083015261287a8161283e565b9050919050565b600060408201905061289660008301856122d2565b6128a360208301846124f1565b9392505050565b7f4e487b7100000000000000000000000000000000000000000000000000000000600052603260045260246000fd5b7f4e487b7100000000000000000000000000000000000000000000000000000000600052602260045260246000fd5b6000600282049050600182168061292057607f821691505b60208210811415612934576129336128d9565b5b50919050565b7f4e487b7100000000000000000000000000000000000000000000000000000000600052601160045260246000fd5b60006129748261226f565b91507fffffffffffffffffffffffffffffffffffffffffffffffffffffffffffffffff8214156129a7576129a661293a565b5b600182019050919050565b600081905092915050565b60008190508160005260206000209050919050565b600081546129df81612908565b6129e981866129b2565b94506001821660008114612a045760018114612a1557612a48565b60ff19831686528186019350612a48565b612a1e856129bd565b60005b83811015612a4057815481890152600182019150602081019050612a21565b838801955050505b50505092915050565b6000612a5d82846129d2565b915081905092915050565b7f5468657265206973206e6f2072656d61696e696e67207469636b657473210000600082015250565b6000612a9e601e836124a7565b9150612aa982612a68565b602082019050919050565b60006020820190508181036000830152612acd81612a91565b9050919050565b7f4576656e742077697468207468697320494420616c726561647920657869737460008201527f7300000000000000000000000000000000000000000000000000000000000000602082015250565b6000612b306021836124a7565b9150612b3b82612ad4565b604082019050919050565b60006020820190508181036000830152612b5f81612b23565b905091905056fea264697066735822122010027e414f02f9be5002df9665185967745de23b1d4e79cd7f21fc704e918fe764736f6c634300080a0033",
  "immutableReferences": {},
  "source": "// SPDX-License-Identifier: MIT\npragma solidity ^0.8.10;\nimport './Ticket.sol';\n\ncontract ContractEvent {\n  mapping(bytes32 => Event) public allEvents;\n  bytes32[] public eventIdsList;\n\n  address public ticketAddress;\n\n  // All attributes for the Events (Maybe i need to add number of sell tickets?)\n  struct Event {\n    bytes32 eventID;\n    string eventName;\n    uint64 dateOfEvent;\n    uint64 numberOfTickets;\n    uint64 ticketPrice;\n    uint64 ticketsLeft;\n    string placeName;\n    string eventDescription;\n    string eventCategory;\n    address eventOwner;\n    string eventImage;\n    uint64 soldTickets;\n  }\n\n  event EventCreated(bytes32 eventID);\n  event EventCancelled(bytes32 eventID);\n\n  event TicketPriceUpdated(bytes32 eventID, uint64 newTicketPrice);\n\n  event TicketBought(bytes32 eventID, bytes32 ticketID);\n\n  modifier isEnoughTickets(bytes32 _eventID) {\n    require(allEvents[_eventID].ticketsLeft > 0, 'There is no remaining tickets!');\n    _;\n  }\n\n  modifier onlyEventOwner(bytes32 _eventID) {\n    require(\n      allEvents[_eventID].eventOwner == msg.sender,\n      'Only the event owner can perform this action'\n    );\n    _;\n  }\n  modifier eventExists(bytes32 _eventID) {\n    require(allEvents[_eventID].eventID == _eventID, 'Event with this ID does not exist');\n    _;\n  }\n\n  //function to create an event\n  function createEvent(\n    bytes32 _eventID,\n    string memory _eventName,\n    uint64 _dateOfEvent,\n    uint64 _numberOfTickets,\n    uint64 _ticketPrice,\n    string memory _placeName,\n    string memory _eventDescription,\n    string memory _eventCategory,\n    string memory _eventImage\n  ) external {\n    for (uint i = 0; i < eventIdsList.length; i++) {\n      require(eventIdsList[i] != _eventID, 'Event with this ID already exists');\n    }\n\n    allEvents[_eventID].eventName = _eventName;\n    allEvents[_eventID].eventID = _eventID;\n    allEvents[_eventID].dateOfEvent = _dateOfEvent;\n    allEvents[_eventID].numberOfTickets = _numberOfTickets;\n    allEvents[_eventID].ticketPrice = _ticketPrice;\n    allEvents[_eventID].ticketsLeft = _numberOfTickets;\n    allEvents[_eventID].placeName = _placeName;\n    allEvents[_eventID].eventDescription = _eventDescription;\n    allEvents[_eventID].eventCategory = _eventCategory;\n    allEvents[_eventID].eventOwner = msg.sender;\n    allEvents[_eventID].eventImage = _eventImage;\n    allEvents[_eventID].soldTickets = 0;\n    eventIdsList.push(_eventID);\n    emit EventCreated(_eventID);\n  }\n  /*\n  function cancelEvent(bytes32 _eventID) external onlyEventOwner(_eventID) {\n    Event storage _event = allEvents[_eventID];\n    require(\n      _event[_eventID].dateOfEvent > block.timestamp,\n      'Cannot cancel event after it has started'\n    );\n\n    uint64 refundedAmount = _event.numberOfTickets * _event.ticketPrice;\n    payable(msg.sender).transfer(refundedAmount);\n\n    delete allEvents[_eventID];\n\n    for (uint i = 0; i < eventIdsList.length; i++) {\n      if (eventIdsList[i] == _eventID) {\n        eventIdsList[i] = eventIdsList[eventIdsList.length - 1];\n        eventIdsList.pop();\n        break;\n      }\n    }\n\n    emit EventCancelled(_eventID);\n  }\n*/\n  function updateTicketPrice(\n    bytes32 _eventID,\n    uint64 _newTicketPrice\n  ) external onlyEventOwner(_eventID) eventExists(_eventID) {\n    allEvents[_eventID].ticketPrice = _newTicketPrice;\n    emit TicketPriceUpdated(_eventID, _newTicketPrice);\n  }\n\n  function getEventIDs() external view returns (bytes32[] memory eventList) {\n    return eventIdsList;\n  }\n\n  //function to get all events\n  function getEvents() external view returns (Event[] memory eventList) {\n    eventList = new Event[](eventIdsList.length);\n    for (uint i = 0; i < eventIdsList.length; i++) {\n      eventList[i] = allEvents[eventIdsList[i]];\n    }\n    return eventList;\n  }\n  //function to get info about event with given ID\n  function getEventInfo(\n    bytes32 _eventID\n  )\n    external\n    view\n    eventExists(_eventID)\n    returns (\n      bytes32 eventId,\n      string memory eventName,\n      uint64 dateOfEvent,\n      uint64 numberOfTickets,\n      uint64 ticketPrice,\n      uint64 ticketsLeft,\n      string memory placeName,\n      string memory eventDescription,\n      string memory eventCategory,\n      address eventOwner,\n      string memory eventImage,\n      uint64 soldTickets\n    )\n  {\n    eventId = allEvents[_eventID].eventID;\n    eventName = allEvents[_eventID].eventName;\n    dateOfEvent = allEvents[_eventID].dateOfEvent;\n    numberOfTickets = allEvents[_eventID].numberOfTickets;\n    ticketPrice = allEvents[_eventID].ticketPrice;\n    ticketsLeft = allEvents[_eventID].ticketsLeft;\n    placeName = allEvents[_eventID].placeName;\n    eventDescription = allEvents[_eventID].eventDescription;\n    eventCategory = allEvents[_eventID].eventCategory;\n    eventOwner = allEvents[_eventID].eventOwner;\n    eventImage = allEvents[_eventID].eventImage;\n    soldTickets = allEvents[_eventID].soldTickets;\n  }\n  //function to get events by selected category\n  function getEventsByCategory(string memory _category) external view returns (Event[] memory) {\n    uint256 count = 0;\n    for (uint256 i = 0; i < eventIdsList.length; i++) {\n      if (\n        keccak256(bytes(allEvents[eventIdsList[i]].eventCategory)) == keccak256(bytes(_category))\n      ) {\n        count++;\n      }\n    }\n    Event[] memory categoryEvents = new Event[](count);\n    uint256 index = 0;\n\n    for (uint256 j = 0; j < eventIdsList.length; j++) {\n      if (\n        keccak256(bytes(allEvents[eventIdsList[j]].eventCategory)) == keccak256(bytes(_category))\n      ) {\n        categoryEvents[index] = allEvents[eventIdsList[j]];\n        index++;\n      }\n    }\n    return categoryEvents;\n  }\n  function buyTicket(\n    bytes32 _eventID\n  ) external payable eventExists(_eventID) isEnoughTickets(_eventID) returns (uint) {}\n}\n",
  "sourcePath": "/Users/janmrakava/Documents/GitHub/blockticket_blockchain/client/contracts/Event.sol",
  "compiler": {
    "name": "solc",
    "version": "0.8.10+commit.fc410830.Emscripten.clang"
  },
  "schemaVersion": "3.4.16",
  "updatedAt": "2024-04-21T09:41:50.879Z",
  "networkType": "ethereum",
  "devdoc": {
    "kind": "dev",
    "methods": {},
    "version": 1
  },
  "userdoc": {
    "kind": "user",
    "methods": {},
    "version": 1
  }
}