{
  "contractName": "ContractEvent",
  "abi": [
    {
      "anonymous": false,
      "inputs": [
        {
          "indexed": false,
          "internalType": "bytes32",
          "name": "eventID",
          "type": "bytes32"
        }
      ],
      "name": "EventCreated",
      "type": "event"
    },
    {
      "inputs": [
        {
          "internalType": "bytes32",
          "name": "",
          "type": "bytes32"
        }
      ],
      "name": "allEvents",
      "outputs": [
        {
          "internalType": "bytes32",
          "name": "eventID",
          "type": "bytes32"
        },
        {
          "internalType": "string",
          "name": "eventName",
          "type": "string"
        },
        {
          "internalType": "uint64",
          "name": "dateOfEvent",
          "type": "uint64"
        },
        {
          "internalType": "uint64",
          "name": "numberOfTickets",
          "type": "uint64"
        },
        {
          "internalType": "uint64",
          "name": "ticketPrice",
          "type": "uint64"
        },
        {
          "internalType": "string",
          "name": "placeName",
          "type": "string"
        },
        {
          "internalType": "string",
          "name": "eventDescription",
          "type": "string"
        },
        {
          "internalType": "string",
          "name": "eventCategory",
          "type": "string"
        },
        {
          "internalType": "address",
          "name": "eventOwner",
          "type": "address"
        },
        {
          "internalType": "string",
          "name": "eventImage",
          "type": "string"
        }
      ],
      "stateMutability": "view",
      "type": "function",
      "constant": true
    },
    {
      "inputs": [
        {
          "internalType": "uint256",
          "name": "",
          "type": "uint256"
        }
      ],
      "name": "eventIdsList",
      "outputs": [
        {
          "internalType": "bytes32",
          "name": "",
          "type": "bytes32"
        }
      ],
      "stateMutability": "view",
      "type": "function",
      "constant": true
    },
    {
      "inputs": [
        {
          "internalType": "bytes32",
          "name": "_eventID",
          "type": "bytes32"
        },
        {
          "internalType": "string",
          "name": "_eventName",
          "type": "string"
        },
        {
          "internalType": "uint64",
          "name": "_dateOfEvent",
          "type": "uint64"
        },
        {
          "internalType": "uint64",
          "name": "_numberOfTickets",
          "type": "uint64"
        },
        {
          "internalType": "uint64",
          "name": "_ticketPrice",
          "type": "uint64"
        },
        {
          "internalType": "string",
          "name": "_placeName",
          "type": "string"
        },
        {
          "internalType": "string",
          "name": "_eventDescription",
          "type": "string"
        },
        {
          "internalType": "string",
          "name": "_eventCategory",
          "type": "string"
        },
        {
          "internalType": "string",
          "name": "_eventImage",
          "type": "string"
        }
      ],
      "name": "createEvent",
      "outputs": [],
      "stateMutability": "nonpayable",
      "type": "function"
    },
    {
      "inputs": [],
      "name": "getEvents",
      "outputs": [
        {
          "components": [
            {
              "internalType": "bytes32",
              "name": "eventID",
              "type": "bytes32"
            },
            {
              "internalType": "string",
              "name": "eventName",
              "type": "string"
            },
            {
              "internalType": "uint64",
              "name": "dateOfEvent",
              "type": "uint64"
            },
            {
              "internalType": "uint64",
              "name": "numberOfTickets",
              "type": "uint64"
            },
            {
              "internalType": "uint64",
              "name": "ticketPrice",
              "type": "uint64"
            },
            {
              "internalType": "string",
              "name": "placeName",
              "type": "string"
            },
            {
              "internalType": "string",
              "name": "eventDescription",
              "type": "string"
            },
            {
              "internalType": "string",
              "name": "eventCategory",
              "type": "string"
            },
            {
              "internalType": "address",
              "name": "eventOwner",
              "type": "address"
            },
            {
              "internalType": "string",
              "name": "eventImage",
              "type": "string"
            }
          ],
          "internalType": "struct ContractEvent.Event[]",
          "name": "eventList",
          "type": "tuple[]"
        }
      ],
      "stateMutability": "view",
      "type": "function",
      "constant": true
    },
    {
      "inputs": [
        {
          "internalType": "bytes32",
          "name": "_eventID",
          "type": "bytes32"
        }
      ],
      "name": "getEventInfo",
      "outputs": [
        {
          "internalType": "bytes32",
          "name": "eventId",
          "type": "bytes32"
        },
        {
          "internalType": "string",
          "name": "eventName",
          "type": "string"
        },
        {
          "internalType": "uint64",
          "name": "dateOfEvent",
          "type": "uint64"
        },
        {
          "internalType": "uint64",
          "name": "numberOfTickets",
          "type": "uint64"
        },
        {
          "internalType": "uint64",
          "name": "ticketPrice",
          "type": "uint64"
        },
        {
          "internalType": "string",
          "name": "placeName",
          "type": "string"
        },
        {
          "internalType": "string",
          "name": "eventDescription",
          "type": "string"
        },
        {
          "internalType": "string",
          "name": "eventCategory",
          "type": "string"
        },
        {
          "internalType": "address",
          "name": "eventOwner",
          "type": "address"
        },
        {
          "internalType": "string",
          "name": "eventImage",
          "type": "string"
        }
      ],
      "stateMutability": "view",
      "type": "function",
      "constant": true
    },
    {
      "inputs": [
        {
          "internalType": "string",
          "name": "_category",
          "type": "string"
        }
      ],
      "name": "getEventsByCategory",
      "outputs": [
        {
          "components": [
            {
              "internalType": "bytes32",
              "name": "eventID",
              "type": "bytes32"
            },
            {
              "internalType": "string",
              "name": "eventName",
              "type": "string"
            },
            {
              "internalType": "uint64",
              "name": "dateOfEvent",
              "type": "uint64"
            },
            {
              "internalType": "uint64",
              "name": "numberOfTickets",
              "type": "uint64"
            },
            {
              "internalType": "uint64",
              "name": "ticketPrice",
              "type": "uint64"
            },
            {
              "internalType": "string",
              "name": "placeName",
              "type": "string"
            },
            {
              "internalType": "string",
              "name": "eventDescription",
              "type": "string"
            },
            {
              "internalType": "string",
              "name": "eventCategory",
              "type": "string"
            },
            {
              "internalType": "address",
              "name": "eventOwner",
              "type": "address"
            },
            {
              "internalType": "string",
              "name": "eventImage",
              "type": "string"
            }
          ],
          "internalType": "struct ContractEvent.Event[]",
          "name": "",
          "type": "tuple[]"
        }
      ],
      "stateMutability": "view",
      "type": "function",
      "constant": true
    }
  ],
  "bytecode": "0x608060405234801561001057600080fd5b506121fb806100206000396000f3fe608060405234801561001057600080fd5b50600436106100625760003560e01c8063404aa8f9146100675780636f5f490714610085578063ae1829e1146100b5578063dfb60285146100e5578063f765b6b11461011e578063f971e1e614610157575b600080fd5b61006f610173565b60405161007c9190611a32565b60405180910390f35b61009f600480360381019061009a9190611a9e565b610621565b6040516100ac9190611ada565b60405180910390f35b6100cf60048036038101906100ca9190611c2a565b610645565b6040516100dc9190611a32565b60405180910390f35b6100ff60048036038101906100fa9190611c9f565b610be8565b6040516101159a99989796959493929190611d34565b60405180910390f35b61013860048036038101906101339190611c9f565b610f40565b60405161014e9a99989796959493929190611d34565b60405180910390f35b610171600480360381019061016c9190611e1f565b611353565b005b606060018054905067ffffffffffffffff81111561019457610193611aff565b5b6040519080825280602002602001820160405280156101cd57816020015b6101ba611637565b8152602001906001900390816101b25790505b50905060005b60018054905081101561061d57600080600183815481106101f7576101f6611f75565b5b90600052602060002001548152602001908152602001600020604051806101400160405290816000820154815260200160018201805461023690611fd3565b80601f016020809104026020016040519081016040528092919081815260200182805461026290611fd3565b80156102af5780601f10610284576101008083540402835291602001916102af565b820191906000526020600020905b81548152906001019060200180831161029257829003601f168201915b505050505081526020016002820160009054906101000a900467ffffffffffffffff1667ffffffffffffffff1667ffffffffffffffff1681526020016002820160089054906101000a900467ffffffffffffffff1667ffffffffffffffff1667ffffffffffffffff1681526020016002820160109054906101000a900467ffffffffffffffff1667ffffffffffffffff1667ffffffffffffffff16815260200160038201805461035e90611fd3565b80601f016020809104026020016040519081016040528092919081815260200182805461038a90611fd3565b80156103d75780601f106103ac576101008083540402835291602001916103d7565b820191906000526020600020905b8154815290600101906020018083116103ba57829003601f168201915b505050505081526020016004820180546103f090611fd3565b80601f016020809104026020016040519081016040528092919081815260200182805461041c90611fd3565b80156104695780601f1061043e57610100808354040283529160200191610469565b820191906000526020600020905b81548152906001019060200180831161044c57829003601f168201915b5050505050815260200160058201805461048290611fd3565b80601f01602080910402602001604051908101604052809291908181526020018280546104ae90611fd3565b80156104fb5780601f106104d0576101008083540402835291602001916104fb565b820191906000526020600020905b8154815290600101906020018083116104de57829003601f168201915b505050505081526020016006820160009054906101000a900473ffffffffffffffffffffffffffffffffffffffff1673ffffffffffffffffffffffffffffffffffffffff1673ffffffffffffffffffffffffffffffffffffffff16815260200160078201805461056a90611fd3565b80601f016020809104026020016040519081016040528092919081815260200182805461059690611fd3565b80156105e35780601f106105b8576101008083540402835291602001916105e3565b820191906000526020600020905b8154815290600101906020018083116105c657829003601f168201915b5050505050815250508282815181106105ff576105fe611f75565b5b6020026020010181905250808061061590612034565b9150506101d3565b5090565b6001818154811061063157600080fd5b906000526020600020016000915090505481565b60606000805b6001805490508110156106d05783805190602001206000806001848154811061067757610676611f75565b5b906000526020600020015481526020019081526020016000206005016040516106a0919061211c565b604051809103902014156106bd5781806106b990612034565b9250505b80806106c890612034565b91505061064b565b5060008167ffffffffffffffff8111156106ed576106ec611aff565b5b60405190808252806020026020018201604052801561072657816020015b610713611637565b81526020019060019003908161070b5790505b5090506000805b600180549050811015610bdc5785805190602001206000806001848154811061075957610758611f75565b5b90600052602060002001548152602001908152602001600020600501604051610782919061211c565b60405180910390201415610bc957600080600183815481106107a7576107a6611f75565b5b9060005260206000200154815260200190815260200160002060405180610140016040529081600082015481526020016001820180546107e690611fd3565b80601f016020809104026020016040519081016040528092919081815260200182805461081290611fd3565b801561085f5780601f106108345761010080835404028352916020019161085f565b820191906000526020600020905b81548152906001019060200180831161084257829003601f168201915b505050505081526020016002820160009054906101000a900467ffffffffffffffff1667ffffffffffffffff1667ffffffffffffffff1681526020016002820160089054906101000a900467ffffffffffffffff1667ffffffffffffffff1667ffffffffffffffff1681526020016002820160109054906101000a900467ffffffffffffffff1667ffffffffffffffff1667ffffffffffffffff16815260200160038201805461090e90611fd3565b80601f016020809104026020016040519081016040528092919081815260200182805461093a90611fd3565b80156109875780601f1061095c57610100808354040283529160200191610987565b820191906000526020600020905b81548152906001019060200180831161096a57829003601f168201915b505050505081526020016004820180546109a090611fd3565b80601f01602080910402602001604051908101604052809291908181526020018280546109cc90611fd3565b8015610a195780601f106109ee57610100808354040283529160200191610a19565b820191906000526020600020905b8154815290600101906020018083116109fc57829003601f168201915b50505050508152602001600582018054610a3290611fd3565b80601f0160208091040260200160405190810160405280929190818152602001828054610a5e90611fd3565b8015610aab5780601f10610a8057610100808354040283529160200191610aab565b820191906000526020600020905b815481529060010190602001808311610a8e57829003601f168201915b505050505081526020016006820160009054906101000a900473ffffffffffffffffffffffffffffffffffffffff1673ffffffffffffffffffffffffffffffffffffffff1673ffffffffffffffffffffffffffffffffffffffff168152602001600782018054610b1a90611fd3565b80601f0160208091040260200160405190810160405280929190818152602001828054610b4690611fd3565b8015610b935780601f10610b6857610100808354040283529160200191610b93565b820191906000526020600020905b815481529060010190602001808311610b7657829003601f168201915b505050505081525050838381518110610baf57610bae611f75565b5b60200260200101819052508180610bc590612034565b9250505b8080610bd490612034565b91505061072d565b50819350505050919050565b6000602052806000526040600020600091509050806000015490806001018054610c1190611fd3565b80601f0160208091040260200160405190810160405280929190818152602001828054610c3d90611fd3565b8015610c8a5780601f10610c5f57610100808354040283529160200191610c8a565b820191906000526020600020905b815481529060010190602001808311610c6d57829003601f168201915b5050505050908060020160009054906101000a900467ffffffffffffffff16908060020160089054906101000a900467ffffffffffffffff16908060020160109054906101000a900467ffffffffffffffff1690806003018054610ced90611fd3565b80601f0160208091040260200160405190810160405280929190818152602001828054610d1990611fd3565b8015610d665780601f10610d3b57610100808354040283529160200191610d66565b820191906000526020600020905b815481529060010190602001808311610d4957829003601f168201915b505050505090806004018054610d7b90611fd3565b80601f0160208091040260200160405190810160405280929190818152602001828054610da790611fd3565b8015610df45780601f10610dc957610100808354040283529160200191610df4565b820191906000526020600020905b815481529060010190602001808311610dd757829003601f168201915b505050505090806005018054610e0990611fd3565b80601f0160208091040260200160405190810160405280929190818152602001828054610e3590611fd3565b8015610e825780601f10610e5757610100808354040283529160200191610e82565b820191906000526020600020905b815481529060010190602001808311610e6557829003601f168201915b5050505050908060060160009054906101000a900473ffffffffffffffffffffffffffffffffffffffff1690806007018054610ebd90611fd3565b80601f0160208091040260200160405190810160405280929190818152602001828054610ee990611fd3565b8015610f365780601f10610f0b57610100808354040283529160200191610f36565b820191906000526020600020905b815481529060010190602001808311610f1957829003601f168201915b505050505090508a565b6000606060008060006060806060600060606000808c81526020019081526020016000206000015499506000808c81526020019081526020016000206001018054610f8a90611fd3565b80601f0160208091040260200160405190810160405280929190818152602001828054610fb690611fd3565b80156110035780601f10610fd857610100808354040283529160200191611003565b820191906000526020600020905b815481529060010190602001808311610fe657829003601f168201915b505050505098506000808c815260200190815260200160002060020160009054906101000a900467ffffffffffffffff1697506000808c815260200190815260200160002060020160089054906101000a900467ffffffffffffffff1696506000808c815260200190815260200160002060020160109054906101000a900467ffffffffffffffff1695506000808c815260200190815260200160002060030180546110ae90611fd3565b80601f01602080910402602001604051908101604052809291908181526020018280546110da90611fd3565b80156111275780601f106110fc57610100808354040283529160200191611127565b820191906000526020600020905b81548152906001019060200180831161110a57829003601f168201915b505050505094506000808c8152602001908152602001600020600401805461114e90611fd3565b80601f016020809104026020016040519081016040528092919081815260200182805461117a90611fd3565b80156111c75780601f1061119c576101008083540402835291602001916111c7565b820191906000526020600020905b8154815290600101906020018083116111aa57829003601f168201915b505050505093506000808c815260200190815260200160002060050180546111ee90611fd3565b80601f016020809104026020016040519081016040528092919081815260200182805461121a90611fd3565b80156112675780601f1061123c57610100808354040283529160200191611267565b820191906000526020600020905b81548152906001019060200180831161124a57829003601f168201915b505050505092506000808c815260200190815260200160002060060160009054906101000a900473ffffffffffffffffffffffffffffffffffffffff1691506000808c815260200190815260200160002060070180546112c690611fd3565b80601f01602080910402602001604051908101604052809291908181526020018280546112f290611fd3565b801561133f5780601f106113145761010080835404028352916020019161133f565b820191906000526020600020905b81548152906001019060200180831161132257829003601f168201915b505050505090509193959799509193959799565b60005b6001805490508110156113d757896001828154811061137857611377611f75565b5b906000526020600020015414156113c4576040517f08c379a00000000000000000000000000000000000000000000000000000000081526004016113bb906121a5565b60405180910390fd5b80806113cf90612034565b915050611356565b50876000808b815260200190815260200160002060010190805190602001906114019291906116c1565b50886000808b815260200190815260200160002060000181905550866000808b815260200190815260200160002060020160006101000a81548167ffffffffffffffff021916908367ffffffffffffffff160217905550856000808b815260200190815260200160002060020160086101000a81548167ffffffffffffffff021916908367ffffffffffffffff160217905550846000808b815260200190815260200160002060020160106101000a81548167ffffffffffffffff021916908367ffffffffffffffff160217905550836000808b815260200190815260200160002060030190805190602001906114f99291906116c1565b50826000808b815260200190815260200160002060040190805190602001906115239291906116c1565b50816000808b8152602001908152602001600020600501908051906020019061154d9291906116c1565b50336000808b815260200190815260200160002060060160006101000a81548173ffffffffffffffffffffffffffffffffffffffff021916908373ffffffffffffffffffffffffffffffffffffffff160217905550806000808b815260200190815260200160002060070190805190602001906115cb9291906116c1565b5060018990806001815401808255809150506001900390600052602060002001600090919091909150557f9734e2c6faef2085e2efacd33d54cf02df9e7fd5618121b33589f637ac608041896040516116249190611ada565b60405180910390a1505050505050505050565b6040518061014001604052806000801916815260200160608152602001600067ffffffffffffffff168152602001600067ffffffffffffffff168152602001600067ffffffffffffffff168152602001606081526020016060815260200160608152602001600073ffffffffffffffffffffffffffffffffffffffff168152602001606081525090565b8280546116cd90611fd3565b90600052602060002090601f0160209004810192826116ef5760008555611736565b82601f1061170857805160ff1916838001178555611736565b82800160010185558215611736579182015b8281111561173557825182559160200191906001019061171a565b5b5090506117439190611747565b5090565b5b80821115611760576000816000905550600101611748565b5090565b600081519050919050565b600082825260208201905092915050565b6000819050602082019050919050565b6000819050919050565b6117a381611790565b82525050565b600081519050919050565b600082825260208201905092915050565b60005b838110156117e35780820151818401526020810190506117c8565b838111156117f2576000848401525b50505050565b6000601f19601f8301169050919050565b6000611814826117a9565b61181e81856117b4565b935061182e8185602086016117c5565b611837816117f8565b840191505092915050565b600067ffffffffffffffff82169050919050565b61185f81611842565b82525050565b600073ffffffffffffffffffffffffffffffffffffffff82169050919050565b600061189082611865565b9050919050565b6118a081611885565b82525050565b6000610140830160008301516118bf600086018261179a565b50602083015184820360208601526118d78282611809565b91505060408301516118ec6040860182611856565b5060608301516118ff6060860182611856565b5060808301516119126080860182611856565b5060a083015184820360a086015261192a8282611809565b91505060c083015184820360c08601526119448282611809565b91505060e083015184820360e086015261195e8282611809565b915050610100830151611975610100860182611897565b5061012083015184820361012086015261198f8282611809565b9150508091505092915050565b60006119a883836118a6565b905092915050565b6000602082019050919050565b60006119c882611764565b6119d2818561176f565b9350836020820285016119e485611780565b8060005b85811015611a205784840389528151611a01858261199c565b9450611a0c836119b0565b925060208a019950506001810190506119e8565b50829750879550505050505092915050565b60006020820190508181036000830152611a4c81846119bd565b905092915050565b6000604051905090565b600080fd5b600080fd5b6000819050919050565b611a7b81611a68565b8114611a8657600080fd5b50565b600081359050611a9881611a72565b92915050565b600060208284031215611ab457611ab3611a5e565b5b6000611ac284828501611a89565b91505092915050565b611ad481611790565b82525050565b6000602082019050611aef6000830184611acb565b92915050565b600080fd5b600080fd5b7f4e487b7100000000000000000000000000000000000000000000000000000000600052604160045260246000fd5b611b37826117f8565b810181811067ffffffffffffffff82111715611b5657611b55611aff565b5b80604052505050565b6000611b69611a54565b9050611b758282611b2e565b919050565b600067ffffffffffffffff821115611b9557611b94611aff565b5b611b9e826117f8565b9050602081019050919050565b82818337600083830152505050565b6000611bcd611bc884611b7a565b611b5f565b905082815260208101848484011115611be957611be8611afa565b5b611bf4848285611bab565b509392505050565b600082601f830112611c1157611c10611af5565b5b8135611c21848260208601611bba565b91505092915050565b600060208284031215611c4057611c3f611a5e565b5b600082013567ffffffffffffffff811115611c5e57611c5d611a63565b5b611c6a84828501611bfc565b91505092915050565b611c7c81611790565b8114611c8757600080fd5b50565b600081359050611c9981611c73565b92915050565b600060208284031215611cb557611cb4611a5e565b5b6000611cc384828501611c8a565b91505092915050565b600082825260208201905092915050565b6000611ce8826117a9565b611cf28185611ccc565b9350611d028185602086016117c5565b611d0b816117f8565b840191505092915050565b611d1f81611842565b82525050565b611d2e81611885565b82525050565b600061014082019050611d4a600083018d611acb565b8181036020830152611d5c818c611cdd565b9050611d6b604083018b611d16565b611d78606083018a611d16565b611d856080830189611d16565b81810360a0830152611d978188611cdd565b905081810360c0830152611dab8187611cdd565b905081810360e0830152611dbf8186611cdd565b9050611dcf610100830185611d25565b818103610120830152611de28184611cdd565b90509b9a5050505050505050505050565b611dfc81611842565b8114611e0757600080fd5b50565b600081359050611e1981611df3565b92915050565b60008060008060008060008060006101208a8c031215611e4257611e41611a5e565b5b6000611e508c828d01611c8a565b99505060208a013567ffffffffffffffff811115611e7157611e70611a63565b5b611e7d8c828d01611bfc565b9850506040611e8e8c828d01611e0a565b9750506060611e9f8c828d01611e0a565b9650506080611eb08c828d01611e0a565b95505060a08a013567ffffffffffffffff811115611ed157611ed0611a63565b5b611edd8c828d01611bfc565b94505060c08a013567ffffffffffffffff811115611efe57611efd611a63565b5b611f0a8c828d01611bfc565b93505060e08a013567ffffffffffffffff811115611f2b57611f2a611a63565b5b611f378c828d01611bfc565b9250506101008a013567ffffffffffffffff811115611f5957611f58611a63565b5b611f658c828d01611bfc565b9150509295985092959850929598565b7f4e487b7100000000000000000000000000000000000000000000000000000000600052603260045260246000fd5b7f4e487b7100000000000000000000000000000000000000000000000000000000600052602260045260246000fd5b60006002820490506001821680611feb57607f821691505b60208210811415611fff57611ffe611fa4565b5b50919050565b7f4e487b7100000000000000000000000000000000000000000000000000000000600052601160045260246000fd5b600061203f82611a68565b91507fffffffffffffffffffffffffffffffffffffffffffffffffffffffffffffffff82141561207257612071612005565b5b600182019050919050565b600081905092915050565b60008190508160005260206000209050919050565b600081546120aa81611fd3565b6120b4818661207d565b945060018216600081146120cf57600181146120e057612113565b60ff19831686528186019350612113565b6120e985612088565b60005b8381101561210b578154818901526001820191506020810190506120ec565b838801955050505b50505092915050565b6000612128828461209d565b915081905092915050565b7f4576656e742077697468207468697320494420616c726561647920657869737460008201527f7300000000000000000000000000000000000000000000000000000000000000602082015250565b600061218f602183611ccc565b915061219a82612133565b604082019050919050565b600060208201905081810360008301526121be81612182565b905091905056fea26469706673582212203b1f72b3968a152983a471b6733d873401e94f73fda547807c0e958d71e023ba64736f6c634300080a0033",
  "immutableReferences": {},
  "source": "// SPDX-License-Identifier: MIT\npragma solidity ^0.8.10;\n\ncontract ContractEvent {\n  mapping(bytes32 => Event) public allEvents;\n  bytes32[] public eventIdsList;\n\n  struct Event {\n    bytes32 eventID;\n    string eventName;\n    uint64 dateOfEvent;\n    uint64 numberOfTickets;\n    uint64 ticketPrice;\n    string placeName;\n    string eventDescription;\n    string eventCategory;\n    address eventOwner;\n    string eventImage;\n  }\n\n  event EventCreated(bytes32 eventID);\n\n  //function to create an event\n  function createEvent(\n    bytes32 _eventID,\n    string memory _eventName,\n    uint64 _dateOfEvent,\n    uint64 _numberOfTickets,\n    uint64 _ticketPrice,\n    string memory _placeName,\n    string memory _eventDescription,\n    string memory _eventCategory,\n    string memory _eventImage\n  ) external {\n    for (uint i = 0; i < eventIdsList.length; i++) {\n      require(eventIdsList[i] != _eventID, 'Event with this ID already exists');\n    }\n\n    allEvents[_eventID].eventName = _eventName;\n    allEvents[_eventID].eventID = _eventID;\n    allEvents[_eventID].dateOfEvent = _dateOfEvent;\n    allEvents[_eventID].numberOfTickets = _numberOfTickets;\n    allEvents[_eventID].ticketPrice = _ticketPrice;\n    allEvents[_eventID].placeName = _placeName;\n    allEvents[_eventID].eventDescription = _eventDescription;\n    allEvents[_eventID].eventCategory = _eventCategory;\n    allEvents[_eventID].eventOwner = msg.sender;\n    allEvents[_eventID].eventImage = _eventImage;\n    eventIdsList.push(_eventID);\n    emit EventCreated(_eventID);\n  }\n\n  //function to get events IDs\n  function getEvents() external view returns (Event[] memory eventList) {\n    eventList = new Event[](eventIdsList.length);\n    for (uint i = 0; i < eventIdsList.length; i++) {\n      eventList[i] = allEvents[eventIdsList[i]];\n    }\n    return eventList;\n  }\n  //function to get info about event with given ID\n  function getEventInfo(\n    bytes32 _eventID\n  )\n    external\n    view\n    returns (\n      bytes32 eventId,\n      string memory eventName,\n      uint64 dateOfEvent,\n      uint64 numberOfTickets,\n      uint64 ticketPrice,\n      string memory placeName,\n      string memory eventDescription,\n      string memory eventCategory,\n      address eventOwner,\n      string memory eventImage\n    )\n  {\n    eventId = allEvents[_eventID].eventID;\n    eventName = allEvents[_eventID].eventName;\n    dateOfEvent = allEvents[_eventID].dateOfEvent;\n    numberOfTickets = allEvents[_eventID].numberOfTickets;\n    ticketPrice = allEvents[_eventID].ticketPrice;\n    placeName = allEvents[_eventID].placeName;\n    eventDescription = allEvents[_eventID].eventDescription;\n    eventCategory = allEvents[_eventID].eventCategory;\n    eventOwner = allEvents[_eventID].eventOwner;\n    eventImage = allEvents[_eventID].eventImage;\n  }\n\n  function getEventsByCategory(string memory _category) external view returns (Event[] memory) {\n    uint256 count = 0;\n    for (uint256 i = 0; i < eventIdsList.length; i++) {\n        if (keccak256(bytes(allEvents[eventIdsList[i]].eventCategory)) == keccak256(bytes(_category))) {\n            count++;\n        }\n    }\n    Event[] memory categoryEvents = new Event[](count);\n    uint256 index = 0;\n\n    for (uint256 j = 0; j < eventIdsList.length; j++) {\n        if (keccak256(bytes(allEvents[eventIdsList[j]].eventCategory)) == keccak256(bytes(_category))) {\n            categoryEvents[index] = allEvents[eventIdsList[j]];\n            index++;\n        }\n    }\n    return categoryEvents;\n}\n}\n",
  "sourcePath": "/Users/janmrakava/Documents/GitHub/blockticket_blockchain/client/contracts/Event.sol",
  "compiler": {
    "name": "solc",
    "version": "0.8.10+commit.fc410830.Emscripten.clang"
  },
  "schemaVersion": "3.4.16",
  "updatedAt": "2024-04-09T09:24:21.433Z",
  "networkType": "ethereum",
  "devdoc": {
    "kind": "dev",
    "methods": {},
    "version": 1
  },
  "userdoc": {
    "kind": "user",
    "methods": {},
    "version": 1
  }
}