{
  "contractName": "ContractEvent",
  "abi": [
    {
      "anonymous": false,
      "inputs": [
        {
          "indexed": false,
          "internalType": "bytes32",
          "name": "eventID",
          "type": "bytes32"
        }
      ],
      "name": "EventCancelled",
      "type": "event"
    },
    {
      "anonymous": false,
      "inputs": [
        {
          "indexed": false,
          "internalType": "bytes32",
          "name": "eventID",
          "type": "bytes32"
        }
      ],
      "name": "EventCreated",
      "type": "event"
    },
    {
      "anonymous": false,
      "inputs": [
        {
          "indexed": false,
          "internalType": "bytes32",
          "name": "eventID",
          "type": "bytes32"
        },
        {
          "indexed": false,
          "internalType": "bytes32",
          "name": "ticketID",
          "type": "bytes32"
        }
      ],
      "name": "TicketBought",
      "type": "event"
    },
    {
      "anonymous": false,
      "inputs": [
        {
          "indexed": false,
          "internalType": "bytes32",
          "name": "eventID",
          "type": "bytes32"
        },
        {
          "indexed": false,
          "internalType": "uint64",
          "name": "newTicketPrice",
          "type": "uint64"
        }
      ],
      "name": "TicketPriceUpdated",
      "type": "event"
    },
    {
      "inputs": [
        {
          "internalType": "bytes32",
          "name": "",
          "type": "bytes32"
        }
      ],
      "name": "allEvents",
      "outputs": [
        {
          "internalType": "bytes32",
          "name": "eventID",
          "type": "bytes32"
        },
        {
          "internalType": "string",
          "name": "eventName",
          "type": "string"
        },
        {
          "internalType": "uint64",
          "name": "dateOfEvent",
          "type": "uint64"
        },
        {
          "internalType": "uint64",
          "name": "numberOfTickets",
          "type": "uint64"
        },
        {
          "internalType": "uint64",
          "name": "ticketPrice",
          "type": "uint64"
        },
        {
          "internalType": "uint64",
          "name": "ticketsLeft",
          "type": "uint64"
        },
        {
          "internalType": "string",
          "name": "placeName",
          "type": "string"
        },
        {
          "internalType": "string",
          "name": "eventDescription",
          "type": "string"
        },
        {
          "internalType": "string",
          "name": "eventCategory",
          "type": "string"
        },
        {
          "internalType": "address",
          "name": "eventOwner",
          "type": "address"
        },
        {
          "internalType": "string",
          "name": "eventImage",
          "type": "string"
        },
        {
          "internalType": "uint64",
          "name": "soldTickets",
          "type": "uint64"
        }
      ],
      "stateMutability": "view",
      "type": "function",
      "constant": true
    },
    {
      "inputs": [
        {
          "internalType": "bytes32",
          "name": "",
          "type": "bytes32"
        }
      ],
      "name": "eventExists",
      "outputs": [
        {
          "internalType": "bool",
          "name": "",
          "type": "bool"
        }
      ],
      "stateMutability": "view",
      "type": "function",
      "constant": true
    },
    {
      "inputs": [
        {
          "internalType": "uint256",
          "name": "",
          "type": "uint256"
        }
      ],
      "name": "eventIdsList",
      "outputs": [
        {
          "internalType": "bytes32",
          "name": "",
          "type": "bytes32"
        }
      ],
      "stateMutability": "view",
      "type": "function",
      "constant": true
    },
    {
      "inputs": [],
      "name": "ticketAddress",
      "outputs": [
        {
          "internalType": "address",
          "name": "",
          "type": "address"
        }
      ],
      "stateMutability": "view",
      "type": "function",
      "constant": true
    },
    {
      "inputs": [
        {
          "internalType": "address",
          "name": "_ticketAddress",
          "type": "address"
        }
      ],
      "name": "setTicketContractAddress",
      "outputs": [],
      "stateMutability": "nonpayable",
      "type": "function"
    },
    {
      "inputs": [
        {
          "internalType": "string",
          "name": "_eventName",
          "type": "string"
        },
        {
          "internalType": "uint64",
          "name": "_dateOfEvent",
          "type": "uint64"
        },
        {
          "internalType": "uint64",
          "name": "_numberOfTickets",
          "type": "uint64"
        },
        {
          "internalType": "uint64",
          "name": "_ticketPrice",
          "type": "uint64"
        },
        {
          "internalType": "string",
          "name": "_placeName",
          "type": "string"
        },
        {
          "internalType": "string",
          "name": "_eventDescription",
          "type": "string"
        },
        {
          "internalType": "string",
          "name": "_eventCategory",
          "type": "string"
        },
        {
          "internalType": "string",
          "name": "_eventImage",
          "type": "string"
        }
      ],
      "name": "createEvent",
      "outputs": [],
      "stateMutability": "nonpayable",
      "type": "function"
    },
    {
      "inputs": [
        {
          "internalType": "bytes32",
          "name": "_eventID",
          "type": "bytes32"
        },
        {
          "internalType": "uint64",
          "name": "_newTicketPrice",
          "type": "uint64"
        }
      ],
      "name": "updateTicketPrice",
      "outputs": [],
      "stateMutability": "nonpayable",
      "type": "function"
    },
    {
      "inputs": [],
      "name": "getEventIDs",
      "outputs": [
        {
          "internalType": "bytes32[]",
          "name": "eventList",
          "type": "bytes32[]"
        }
      ],
      "stateMutability": "view",
      "type": "function",
      "constant": true
    },
    {
      "inputs": [],
      "name": "getEvents",
      "outputs": [
        {
          "components": [
            {
              "internalType": "bytes32",
              "name": "eventID",
              "type": "bytes32"
            },
            {
              "internalType": "string",
              "name": "eventName",
              "type": "string"
            },
            {
              "internalType": "uint64",
              "name": "dateOfEvent",
              "type": "uint64"
            },
            {
              "internalType": "uint64",
              "name": "numberOfTickets",
              "type": "uint64"
            },
            {
              "internalType": "uint64",
              "name": "ticketPrice",
              "type": "uint64"
            },
            {
              "internalType": "uint64",
              "name": "ticketsLeft",
              "type": "uint64"
            },
            {
              "internalType": "string",
              "name": "placeName",
              "type": "string"
            },
            {
              "internalType": "string",
              "name": "eventDescription",
              "type": "string"
            },
            {
              "internalType": "string",
              "name": "eventCategory",
              "type": "string"
            },
            {
              "internalType": "address",
              "name": "eventOwner",
              "type": "address"
            },
            {
              "internalType": "string",
              "name": "eventImage",
              "type": "string"
            },
            {
              "internalType": "uint64",
              "name": "soldTickets",
              "type": "uint64"
            }
          ],
          "internalType": "struct ContractEvent.Event[]",
          "name": "eventList",
          "type": "tuple[]"
        }
      ],
      "stateMutability": "view",
      "type": "function",
      "constant": true
    },
    {
      "inputs": [
        {
          "internalType": "bytes32",
          "name": "_eventID",
          "type": "bytes32"
        }
      ],
      "name": "getEventInfo",
      "outputs": [
        {
          "components": [
            {
              "internalType": "bytes32",
              "name": "eventID",
              "type": "bytes32"
            },
            {
              "internalType": "string",
              "name": "eventName",
              "type": "string"
            },
            {
              "internalType": "uint64",
              "name": "dateOfEvent",
              "type": "uint64"
            },
            {
              "internalType": "uint64",
              "name": "numberOfTickets",
              "type": "uint64"
            },
            {
              "internalType": "uint64",
              "name": "ticketPrice",
              "type": "uint64"
            },
            {
              "internalType": "uint64",
              "name": "ticketsLeft",
              "type": "uint64"
            },
            {
              "internalType": "string",
              "name": "placeName",
              "type": "string"
            },
            {
              "internalType": "string",
              "name": "eventDescription",
              "type": "string"
            },
            {
              "internalType": "string",
              "name": "eventCategory",
              "type": "string"
            },
            {
              "internalType": "address",
              "name": "eventOwner",
              "type": "address"
            },
            {
              "internalType": "string",
              "name": "eventImage",
              "type": "string"
            },
            {
              "internalType": "uint64",
              "name": "soldTickets",
              "type": "uint64"
            }
          ],
          "internalType": "struct ContractEvent.Event",
          "name": "",
          "type": "tuple"
        }
      ],
      "stateMutability": "view",
      "type": "function",
      "constant": true
    },
    {
      "inputs": [
        {
          "internalType": "string",
          "name": "_category",
          "type": "string"
        }
      ],
      "name": "getEventsByCategory",
      "outputs": [
        {
          "components": [
            {
              "internalType": "bytes32",
              "name": "eventID",
              "type": "bytes32"
            },
            {
              "internalType": "string",
              "name": "eventName",
              "type": "string"
            },
            {
              "internalType": "uint64",
              "name": "dateOfEvent",
              "type": "uint64"
            },
            {
              "internalType": "uint64",
              "name": "numberOfTickets",
              "type": "uint64"
            },
            {
              "internalType": "uint64",
              "name": "ticketPrice",
              "type": "uint64"
            },
            {
              "internalType": "uint64",
              "name": "ticketsLeft",
              "type": "uint64"
            },
            {
              "internalType": "string",
              "name": "placeName",
              "type": "string"
            },
            {
              "internalType": "string",
              "name": "eventDescription",
              "type": "string"
            },
            {
              "internalType": "string",
              "name": "eventCategory",
              "type": "string"
            },
            {
              "internalType": "address",
              "name": "eventOwner",
              "type": "address"
            },
            {
              "internalType": "string",
              "name": "eventImage",
              "type": "string"
            },
            {
              "internalType": "uint64",
              "name": "soldTickets",
              "type": "uint64"
            }
          ],
          "internalType": "struct ContractEvent.Event[]",
          "name": "",
          "type": "tuple[]"
        }
      ],
      "stateMutability": "view",
      "type": "function",
      "constant": true
    },
    {
      "inputs": [],
      "name": "getEventsForOwner",
      "outputs": [
        {
          "components": [
            {
              "internalType": "bytes32",
              "name": "eventID",
              "type": "bytes32"
            },
            {
              "internalType": "string",
              "name": "eventName",
              "type": "string"
            },
            {
              "internalType": "uint64",
              "name": "dateOfEvent",
              "type": "uint64"
            },
            {
              "internalType": "uint64",
              "name": "numberOfTickets",
              "type": "uint64"
            },
            {
              "internalType": "uint64",
              "name": "ticketPrice",
              "type": "uint64"
            },
            {
              "internalType": "uint64",
              "name": "ticketsLeft",
              "type": "uint64"
            },
            {
              "internalType": "string",
              "name": "placeName",
              "type": "string"
            },
            {
              "internalType": "string",
              "name": "eventDescription",
              "type": "string"
            },
            {
              "internalType": "string",
              "name": "eventCategory",
              "type": "string"
            },
            {
              "internalType": "address",
              "name": "eventOwner",
              "type": "address"
            },
            {
              "internalType": "string",
              "name": "eventImage",
              "type": "string"
            },
            {
              "internalType": "uint64",
              "name": "soldTickets",
              "type": "uint64"
            }
          ],
          "internalType": "struct ContractEvent.Event[]",
          "name": "",
          "type": "tuple[]"
        }
      ],
      "stateMutability": "view",
      "type": "function",
      "constant": true
    },
    {
      "inputs": [
        {
          "internalType": "bytes32",
          "name": "_eventID",
          "type": "bytes32"
        }
      ],
      "name": "cancelEvent",
      "outputs": [
        {
          "internalType": "bytes32",
          "name": "",
          "type": "bytes32"
        }
      ],
      "stateMutability": "nonpayable",
      "type": "function"
    },
    {
      "inputs": [
        {
          "internalType": "bytes32",
          "name": "_eventID",
          "type": "bytes32"
        },
        {
          "internalType": "address",
          "name": "userAddress",
          "type": "address"
        }
      ],
      "name": "buyTicket",
      "outputs": [
        {
          "internalType": "bytes32",
          "name": "",
          "type": "bytes32"
        }
      ],
      "stateMutability": "nonpayable",
      "type": "function"
    }
  ],
  "bytecode": "0x608060405234801561001057600080fd5b50613de9806100206000396000f3fe608060405234801561001057600080fd5b50600436106100ea5760003560e01c806370cef5a51161008c578063ae1829e111610066578063ae1829e11461025d578063db0817c51461028d578063dfb60285146102ab578063f765b6b1146102e6576100ea565b806370cef5a5146101f557806392826b4814610211578063aa26176c1461022d576100ea565b8063404aa8f9116100c8578063404aa8f9146101595780634190b17a1461017757806357a8e3fe146101a75780636f5f4907146101c5576100ea565b8063118e58bd146100ef57806312acb2401461011f5780633cbb95f61461013b575b600080fd5b61010960048036038101906101049190612ba9565b610316565b6040516101169190612bf1565b60405180910390f35b61013960048036038101906101349190612c4c565b610336565b005b610143610505565b6040516101509190612d4a565b60405180910390f35b61016161055d565b60405161016e9190613037565b60405180910390f35b610191600480360381019061018c9190613085565b610a70565b60405161019e91906130d4565b60405180910390f35b6101af610d2e565b6040516101bc91906130fe565b60405180910390f35b6101df60048036038101906101da919061314f565b610d54565b6040516101ec91906130d4565b60405180910390f35b61020f600480360381019061020a91906132b1565b610d78565b005b61022b600480360381019061022691906133f3565b61111f565b005b61024760048036038101906102429190612ba9565b611162565b60405161025491906130d4565b60405180910390f35b61027760048036038101906102729190613420565b61150c565b6040516102849190613037565b60405180910390f35b610295611b16565b6040516102a29190613037565b60405180910390f35b6102c560048036038101906102c09190612ba9565b612180565b6040516102dd9c9b9a999897969594939291906134c2565b60405180910390f35b61030060048036038101906102fb9190612ba9565b61250c565b60405161030d91906136bf565b60405180910390f35b60026020528060005260406000206000915054906101000a900460ff1681565b813373ffffffffffffffffffffffffffffffffffffffff166001600083815260200190815260200160002060060160009054906101000a900473ffffffffffffffffffffffffffffffffffffffff1673ffffffffffffffffffffffffffffffffffffffff16146103db576040517f08c379a00000000000000000000000000000000000000000000000000000000081526004016103d290613753565b60405180910390fd5b826002600082815260200190815260200160002060009054906101000a900460ff1661043c576040517f08c379a0000000000000000000000000000000000000000000000000000000008152600401610433906137bf565b60405180910390fd5b60008367ffffffffffffffff1611610489576040517f08c379a000000000000000000000000000000000000000000000000000000000815260040161048090613851565b60405180910390fd5b826001600086815260200190815260200160002060020160106101000a81548167ffffffffffffffff021916908367ffffffffffffffff1602179055507f0dc2e2994cc6121fbd0f46abaefc7de3a48aa2facac17978bb4fe0ef8b7cdabb84846040516104f7929190613871565b60405180910390a150505050565b6060600380548060200260200160405190810160405280929190818152602001828054801561055357602002820191906000526020600020905b81548152602001906001019080831161053f575b5050505050905090565b606060038054905067ffffffffffffffff81111561057e5761057d613186565b5b6040519080825280602002602001820160405280156105b757816020015b6105a46129d0565b81526020019060019003908161059c5790505b50905060005b600380549050811015610a6c5760016000600383815481106105e2576105e161389a565b5b906000526020600020015481526020019081526020016000206040518061018001604052908160008201548152602001600182018054610621906138f8565b80601f016020809104026020016040519081016040528092919081815260200182805461064d906138f8565b801561069a5780601f1061066f5761010080835404028352916020019161069a565b820191906000526020600020905b81548152906001019060200180831161067d57829003601f168201915b505050505081526020016002820160009054906101000a900467ffffffffffffffff1667ffffffffffffffff1667ffffffffffffffff1681526020016002820160089054906101000a900467ffffffffffffffff1667ffffffffffffffff1667ffffffffffffffff1681526020016002820160109054906101000a900467ffffffffffffffff1667ffffffffffffffff1667ffffffffffffffff1681526020016002820160189054906101000a900467ffffffffffffffff1667ffffffffffffffff1667ffffffffffffffff16815260200160038201805461077b906138f8565b80601f01602080910402602001604051908101604052809291908181526020018280546107a7906138f8565b80156107f45780601f106107c9576101008083540402835291602001916107f4565b820191906000526020600020905b8154815290600101906020018083116107d757829003601f168201915b5050505050815260200160048201805461080d906138f8565b80601f0160208091040260200160405190810160405280929190818152602001828054610839906138f8565b80156108865780601f1061085b57610100808354040283529160200191610886565b820191906000526020600020905b81548152906001019060200180831161086957829003601f168201915b5050505050815260200160058201805461089f906138f8565b80601f01602080910402602001604051908101604052809291908181526020018280546108cb906138f8565b80156109185780601f106108ed57610100808354040283529160200191610918565b820191906000526020600020905b8154815290600101906020018083116108fb57829003601f168201915b505050505081526020016006820160009054906101000a900473ffffffffffffffffffffffffffffffffffffffff1673ffffffffffffffffffffffffffffffffffffffff1673ffffffffffffffffffffffffffffffffffffffff168152602001600782018054610987906138f8565b80601f01602080910402602001604051908101604052809291908181526020018280546109b3906138f8565b8015610a005780601f106109d557610100808354040283529160200191610a00565b820191906000526020600020905b8154815290600101906020018083116109e357829003601f168201915b505050505081526020016008820160009054906101000a900467ffffffffffffffff1667ffffffffffffffff1667ffffffffffffffff1681525050828281518110610a4e57610a4d61389a565b5b60200260200101819052508080610a6490613959565b9150506105bd565b5090565b6000823373ffffffffffffffffffffffffffffffffffffffff166001600083815260200190815260200160002060060160009054906101000a900473ffffffffffffffffffffffffffffffffffffffff1673ffffffffffffffffffffffffffffffffffffffff1614610b17576040517f08c379a0000000000000000000000000000000000000000000000000000000008152600401610b0e90613753565b60405180910390fd5b836002600082815260200190815260200160002060009054906101000a900460ff16610b78576040517f08c379a0000000000000000000000000000000000000000000000000000000008152600401610b6f906137bf565b60405180910390fd5b600060016000878152602001908152602001600020905060008060009054906101000a900473ffffffffffffffffffffffffffffffffffffffff1673ffffffffffffffffffffffffffffffffffffffff166313db90e6888460020160109054906101000a900467ffffffffffffffff16896040518463ffffffff1660e01b8152600401610c07939291906139dd565b6020604051808303816000875af1158015610c26573d6000803e3d6000fd5b505050506040513d601f19601f82011682018060405250810190610c4a9190613a29565b905060018260020160188282829054906101000a900467ffffffffffffffff16610c749190613a56565b92506101000a81548167ffffffffffffffff021916908367ffffffffffffffff16021790555060018260080160008282829054906101000a900467ffffffffffffffff16610cc29190613a8a565b92506101000a81548167ffffffffffffffff021916908367ffffffffffffffff1602179055507ff96d4fb6ecc92218c2118e25b073f236cd9a7974b6e8e0835995fdb722e340358782604051610d19929190613ac8565b60405180910390a18094505050505092915050565b600460009054906101000a900473ffffffffffffffffffffffffffffffffffffffff1681565b60038181548110610d6457600080fd5b906000526020600020016000915090505481565b60008842604051602001610d8d929190613b4e565b6040516020818303038152906040528051906020012090506002600082815260200190815260200160002060009054906101000a900460ff1615610e06576040517f08c379a0000000000000000000000000000000000000000000000000000000008152600401610dfd90613be8565b60405180910390fd5b6040518061018001604052808281526020018a81526020018967ffffffffffffffff1681526020018867ffffffffffffffff1681526020018767ffffffffffffffff1681526020018867ffffffffffffffff1681526020018681526020018581526020018481526020013373ffffffffffffffffffffffffffffffffffffffff168152602001838152602001600067ffffffffffffffff1681525060016000838152602001908152602001600020600082015181600001556020820151816001019080519060200190610eda929190612a7c565b5060408201518160020160006101000a81548167ffffffffffffffff021916908367ffffffffffffffff16021790555060608201518160020160086101000a81548167ffffffffffffffff021916908367ffffffffffffffff16021790555060808201518160020160106101000a81548167ffffffffffffffff021916908367ffffffffffffffff16021790555060a08201518160020160186101000a81548167ffffffffffffffff021916908367ffffffffffffffff16021790555060c0820151816003019080519060200190610fb3929190612a7c565b5060e0820151816004019080519060200190610fd0929190612a7c565b50610100820151816005019080519060200190610fee929190612a7c565b506101208201518160060160006101000a81548173ffffffffffffffffffffffffffffffffffffffff021916908373ffffffffffffffffffffffffffffffffffffffff160217905550610140820151816007019080519060200190611054929190612a7c565b506101608201518160080160006101000a81548167ffffffffffffffff021916908367ffffffffffffffff160217905550905050600381908060018154018082558091505060019003906000526020600020016000909190919091505560016002600083815260200190815260200160002060006101000a81548160ff0219169083151502179055507f9734e2c6faef2085e2efacd33d54cf02df9e7fd5618121b33589f637ac6080418160405161110c91906130d4565b60405180910390a1505050505050505050565b806000806101000a81548173ffffffffffffffffffffffffffffffffffffffff021916908373ffffffffffffffffffffffffffffffffffffffff16021790555050565b6000813373ffffffffffffffffffffffffffffffffffffffff166001600083815260200190815260200160002060060160009054906101000a900473ffffffffffffffffffffffffffffffffffffffff1673ffffffffffffffffffffffffffffffffffffffff1614611209576040517f08c379a000000000000000000000000000000000000000000000000000000000815260040161120090613753565b60405180910390fd5b826002600082815260200190815260200160002060009054906101000a900460ff1661126a576040517f08c379a0000000000000000000000000000000000000000000000000000000008152600401611261906137bf565b60405180910390fd5b6000600160008681526020019081526020016000209050428160020160009054906101000a900467ffffffffffffffff1667ffffffffffffffff16116112e5576040517f08c379a00000000000000000000000000000000000000000000000000000000081526004016112dc90613c7a565b60405180910390fd5b600160008681526020019081526020016000206000808201600090556001820160006113119190612b02565b6002820160006101000a81549067ffffffffffffffff02191690556002820160086101000a81549067ffffffffffffffff02191690556002820160106101000a81549067ffffffffffffffff02191690556002820160186101000a81549067ffffffffffffffff021916905560038201600061138d9190612b02565b60048201600061139d9190612b02565b6005820160006113ad9190612b02565b6006820160006101000a81549073ffffffffffffffffffffffffffffffffffffffff02191690556007820160006113e49190612b02565b6008820160006101000a81549067ffffffffffffffff0219169055505060005b6003805490508110156114c95785600382815481106114265761142561389a565b5b906000526020600020015414156114b6576003600160038054905061144b9190613c9a565b8154811061145c5761145b61389a565b5b90600052602060002001546003828154811061147b5761147a61389a565b5b9060005260206000200181905550600380548061149b5761149a613cce565b5b600190038181906000526020600020016000905590556114c9565b80806114c190613959565b915050611404565b507fc0919dcb7e0b464ce8146ec897e4a566e6a1af62233364998f3da696e08b500b856040516114f991906130d4565b60405180910390a1849350505050919050565b60606000805b600380549050811015611598578380519060200120600160006003848154811061153f5761153e61389a565b5b906000526020600020015481526020019081526020016000206005016040516115689190613d9c565b6040518091039020141561158557818061158190613959565b9250505b808061159090613959565b915050611512565b5060008167ffffffffffffffff8111156115b5576115b4613186565b5b6040519080825280602002602001820160405280156115ee57816020015b6115db6129d0565b8152602001906001900390816115d35790505b5090506000805b600380549050811015611b0a57858051906020012060016000600384815481106116225761162161389a565b5b9060005260206000200154815260200190815260200160002060050160405161164b9190613d9c565b60405180910390201415611af75760016000600383815481106116715761167061389a565b5b9060005260206000200154815260200190815260200160002060405180610180016040529081600082015481526020016001820180546116b0906138f8565b80601f01602080910402602001604051908101604052809291908181526020018280546116dc906138f8565b80156117295780601f106116fe57610100808354040283529160200191611729565b820191906000526020600020905b81548152906001019060200180831161170c57829003601f168201915b505050505081526020016002820160009054906101000a900467ffffffffffffffff1667ffffffffffffffff1667ffffffffffffffff1681526020016002820160089054906101000a900467ffffffffffffffff1667ffffffffffffffff1667ffffffffffffffff1681526020016002820160109054906101000a900467ffffffffffffffff1667ffffffffffffffff1667ffffffffffffffff1681526020016002820160189054906101000a900467ffffffffffffffff1667ffffffffffffffff1667ffffffffffffffff16815260200160038201805461180a906138f8565b80601f0160208091040260200160405190810160405280929190818152602001828054611836906138f8565b80156118835780601f1061185857610100808354040283529160200191611883565b820191906000526020600020905b81548152906001019060200180831161186657829003601f168201915b5050505050815260200160048201805461189c906138f8565b80601f01602080910402602001604051908101604052809291908181526020018280546118c8906138f8565b80156119155780601f106118ea57610100808354040283529160200191611915565b820191906000526020600020905b8154815290600101906020018083116118f857829003601f168201915b5050505050815260200160058201805461192e906138f8565b80601f016020809104026020016040519081016040528092919081815260200182805461195a906138f8565b80156119a75780601f1061197c576101008083540402835291602001916119a7565b820191906000526020600020905b81548152906001019060200180831161198a57829003601f168201915b505050505081526020016006820160009054906101000a900473ffffffffffffffffffffffffffffffffffffffff1673ffffffffffffffffffffffffffffffffffffffff1673ffffffffffffffffffffffffffffffffffffffff168152602001600782018054611a16906138f8565b80601f0160208091040260200160405190810160405280929190818152602001828054611a42906138f8565b8015611a8f5780601f10611a6457610100808354040283529160200191611a8f565b820191906000526020600020905b815481529060010190602001808311611a7257829003601f168201915b505050505081526020016008820160009054906101000a900467ffffffffffffffff1667ffffffffffffffff1667ffffffffffffffff1681525050838381518110611add57611adc61389a565b5b60200260200101819052508180611af390613959565b9250505b8080611b0290613959565b9150506115f5565b50819350505050919050565b60606000805b600380549050811015611bd3573373ffffffffffffffffffffffffffffffffffffffff166001600060038481548110611b5857611b5761389a565b5b9060005260206000200154815260200190815260200160002060060160009054906101000a900473ffffffffffffffffffffffffffffffffffffffff1673ffffffffffffffffffffffffffffffffffffffff161415611bc0578180611bbc90613959565b9250505b8080611bcb90613959565b915050611b1c565b5060008167ffffffffffffffff811115611bf057611bef613186565b5b604051908082528060200260200182016040528015611c2957816020015b611c166129d0565b815260200190600190039081611c0e5790505b5090506000805b600380549050811015612176573373ffffffffffffffffffffffffffffffffffffffff166001600060038481548110611c6c57611c6b61389a565b5b9060005260206000200154815260200190815260200160002060060160009054906101000a900473ffffffffffffffffffffffffffffffffffffffff1673ffffffffffffffffffffffffffffffffffffffff161415612163576001600060038381548110611cdd57611cdc61389a565b5b906000526020600020015481526020019081526020016000206040518061018001604052908160008201548152602001600182018054611d1c906138f8565b80601f0160208091040260200160405190810160405280929190818152602001828054611d48906138f8565b8015611d955780601f10611d6a57610100808354040283529160200191611d95565b820191906000526020600020905b815481529060010190602001808311611d7857829003601f168201915b505050505081526020016002820160009054906101000a900467ffffffffffffffff1667ffffffffffffffff1667ffffffffffffffff1681526020016002820160089054906101000a900467ffffffffffffffff1667ffffffffffffffff1667ffffffffffffffff1681526020016002820160109054906101000a900467ffffffffffffffff1667ffffffffffffffff1667ffffffffffffffff1681526020016002820160189054906101000a900467ffffffffffffffff1667ffffffffffffffff1667ffffffffffffffff168152602001600382018054611e76906138f8565b80601f0160208091040260200160405190810160405280929190818152602001828054611ea2906138f8565b8015611eef5780601f10611ec457610100808354040283529160200191611eef565b820191906000526020600020905b815481529060010190602001808311611ed257829003601f168201915b50505050508152602001600482018054611f08906138f8565b80601f0160208091040260200160405190810160405280929190818152602001828054611f34906138f8565b8015611f815780601f10611f5657610100808354040283529160200191611f81565b820191906000526020600020905b815481529060010190602001808311611f6457829003601f168201915b50505050508152602001600582018054611f9a906138f8565b80601f0160208091040260200160405190810160405280929190818152602001828054611fc6906138f8565b80156120135780601f10611fe857610100808354040283529160200191612013565b820191906000526020600020905b815481529060010190602001808311611ff657829003601f168201915b505050505081526020016006820160009054906101000a900473ffffffffffffffffffffffffffffffffffffffff1673ffffffffffffffffffffffffffffffffffffffff1673ffffffffffffffffffffffffffffffffffffffff168152602001600782018054612082906138f8565b80601f01602080910402602001604051908101604052809291908181526020018280546120ae906138f8565b80156120fb5780601f106120d0576101008083540402835291602001916120fb565b820191906000526020600020905b8154815290600101906020018083116120de57829003601f168201915b505050505081526020016008820160009054906101000a900467ffffffffffffffff1667ffffffffffffffff1667ffffffffffffffff16815250508383815181106121495761214861389a565b5b6020026020010181905250818061215f90613959565b9250505b808061216e90613959565b915050611c30565b5081935050505090565b60016020528060005260406000206000915090508060000154908060010180546121a9906138f8565b80601f01602080910402602001604051908101604052809291908181526020018280546121d5906138f8565b80156122225780601f106121f757610100808354040283529160200191612222565b820191906000526020600020905b81548152906001019060200180831161220557829003601f168201915b5050505050908060020160009054906101000a900467ffffffffffffffff16908060020160089054906101000a900467ffffffffffffffff16908060020160109054906101000a900467ffffffffffffffff16908060020160189054906101000a900467ffffffffffffffff169080600301805461229f906138f8565b80601f01602080910402602001604051908101604052809291908181526020018280546122cb906138f8565b80156123185780601f106122ed57610100808354040283529160200191612318565b820191906000526020600020905b8154815290600101906020018083116122fb57829003601f168201915b50505050509080600401805461232d906138f8565b80601f0160208091040260200160405190810160405280929190818152602001828054612359906138f8565b80156123a65780601f1061237b576101008083540402835291602001916123a6565b820191906000526020600020905b81548152906001019060200180831161238957829003601f168201915b5050505050908060050180546123bb906138f8565b80601f01602080910402602001604051908101604052809291908181526020018280546123e7906138f8565b80156124345780601f1061240957610100808354040283529160200191612434565b820191906000526020600020905b81548152906001019060200180831161241757829003601f168201915b5050505050908060060160009054906101000a900473ffffffffffffffffffffffffffffffffffffffff169080600701805461246f906138f8565b80601f016020809104026020016040519081016040528092919081815260200182805461249b906138f8565b80156124e85780601f106124bd576101008083540402835291602001916124e8565b820191906000526020600020905b8154815290600101906020018083116124cb57829003601f168201915b5050505050908060080160009054906101000a900467ffffffffffffffff1690508c565b6125146129d0565b816002600082815260200190815260200160002060009054906101000a900460ff16612575576040517f08c379a000000000000000000000000000000000000000000000000000000000815260040161256c906137bf565b60405180910390fd5b6001600084815260200190815260200160002060405180610180016040529081600082015481526020016001820180546125ae906138f8565b80601f01602080910402602001604051908101604052809291908181526020018280546125da906138f8565b80156126275780601f106125fc57610100808354040283529160200191612627565b820191906000526020600020905b81548152906001019060200180831161260a57829003601f168201915b505050505081526020016002820160009054906101000a900467ffffffffffffffff1667ffffffffffffffff1667ffffffffffffffff1681526020016002820160089054906101000a900467ffffffffffffffff1667ffffffffffffffff1667ffffffffffffffff1681526020016002820160109054906101000a900467ffffffffffffffff1667ffffffffffffffff1667ffffffffffffffff1681526020016002820160189054906101000a900467ffffffffffffffff1667ffffffffffffffff1667ffffffffffffffff168152602001600382018054612708906138f8565b80601f0160208091040260200160405190810160405280929190818152602001828054612734906138f8565b80156127815780601f1061275657610100808354040283529160200191612781565b820191906000526020600020905b81548152906001019060200180831161276457829003601f168201915b5050505050815260200160048201805461279a906138f8565b80601f01602080910402602001604051908101604052809291908181526020018280546127c6906138f8565b80156128135780601f106127e857610100808354040283529160200191612813565b820191906000526020600020905b8154815290600101906020018083116127f657829003601f168201915b5050505050815260200160058201805461282c906138f8565b80601f0160208091040260200160405190810160405280929190818152602001828054612858906138f8565b80156128a55780601f1061287a576101008083540402835291602001916128a5565b820191906000526020600020905b81548152906001019060200180831161288857829003601f168201915b505050505081526020016006820160009054906101000a900473ffffffffffffffffffffffffffffffffffffffff1673ffffffffffffffffffffffffffffffffffffffff1673ffffffffffffffffffffffffffffffffffffffff168152602001600782018054612914906138f8565b80601f0160208091040260200160405190810160405280929190818152602001828054612940906138f8565b801561298d5780601f106129625761010080835404028352916020019161298d565b820191906000526020600020905b81548152906001019060200180831161297057829003601f168201915b505050505081526020016008820160009054906101000a900467ffffffffffffffff1667ffffffffffffffff1667ffffffffffffffff1681525050915050919050565b6040518061018001604052806000801916815260200160608152602001600067ffffffffffffffff168152602001600067ffffffffffffffff168152602001600067ffffffffffffffff168152602001600067ffffffffffffffff168152602001606081526020016060815260200160608152602001600073ffffffffffffffffffffffffffffffffffffffff16815260200160608152602001600067ffffffffffffffff1681525090565b828054612a88906138f8565b90600052602060002090601f016020900481019282612aaa5760008555612af1565b82601f10612ac357805160ff1916838001178555612af1565b82800160010185558215612af1579182015b82811115612af0578251825591602001919060010190612ad5565b5b509050612afe9190612b42565b5090565b508054612b0e906138f8565b6000825580601f10612b205750612b3f565b601f016020900490600052602060002090810190612b3e9190612b42565b5b50565b5b80821115612b5b576000816000905550600101612b43565b5090565b6000604051905090565b600080fd5b600080fd5b6000819050919050565b612b8681612b73565b8114612b9157600080fd5b50565b600081359050612ba381612b7d565b92915050565b600060208284031215612bbf57612bbe612b69565b5b6000612bcd84828501612b94565b91505092915050565b60008115159050919050565b612beb81612bd6565b82525050565b6000602082019050612c066000830184612be2565b92915050565b600067ffffffffffffffff82169050919050565b612c2981612c0c565b8114612c3457600080fd5b50565b600081359050612c4681612c20565b92915050565b60008060408385031215612c6357612c62612b69565b5b6000612c7185828601612b94565b9250506020612c8285828601612c37565b9150509250929050565b600081519050919050565b600082825260208201905092915050565b6000819050602082019050919050565b612cc181612b73565b82525050565b6000612cd38383612cb8565b60208301905092915050565b6000602082019050919050565b6000612cf782612c8c565b612d018185612c97565b9350612d0c83612ca8565b8060005b83811015612d3d578151612d248882612cc7565b9750612d2f83612cdf565b925050600181019050612d10565b5085935050505092915050565b60006020820190508181036000830152612d648184612cec565b905092915050565b600081519050919050565b600082825260208201905092915050565b6000819050602082019050919050565b600081519050919050565b600082825260208201905092915050565b60005b83811015612dd2578082015181840152602081019050612db7565b83811115612de1576000848401525b50505050565b6000601f19601f8301169050919050565b6000612e0382612d98565b612e0d8185612da3565b9350612e1d818560208601612db4565b612e2681612de7565b840191505092915050565b612e3a81612c0c565b82525050565b600073ffffffffffffffffffffffffffffffffffffffff82169050919050565b6000612e6b82612e40565b9050919050565b612e7b81612e60565b82525050565b600061018083016000830151612e9a6000860182612cb8565b5060208301518482036020860152612eb28282612df8565b9150506040830151612ec76040860182612e31565b506060830151612eda6060860182612e31565b506080830151612eed6080860182612e31565b5060a0830151612f0060a0860182612e31565b5060c083015184820360c0860152612f188282612df8565b91505060e083015184820360e0860152612f328282612df8565b915050610100830151848203610100860152612f4e8282612df8565b915050610120830151612f65610120860182612e72565b50610140830151848203610140860152612f7f8282612df8565b915050610160830151612f96610160860182612e31565b508091505092915050565b6000612fad8383612e81565b905092915050565b6000602082019050919050565b6000612fcd82612d6c565b612fd78185612d77565b935083602082028501612fe985612d88565b8060005b8581101561302557848403895281516130068582612fa1565b945061301183612fb5565b925060208a01995050600181019050612fed565b50829750879550505050505092915050565b600060208201905081810360008301526130518184612fc2565b905092915050565b61306281612e60565b811461306d57600080fd5b50565b60008135905061307f81613059565b92915050565b6000806040838503121561309c5761309b612b69565b5b60006130aa85828601612b94565b92505060206130bb85828601613070565b9150509250929050565b6130ce81612b73565b82525050565b60006020820190506130e960008301846130c5565b92915050565b6130f881612e60565b82525050565b600060208201905061311360008301846130ef565b92915050565b6000819050919050565b61312c81613119565b811461313757600080fd5b50565b60008135905061314981613123565b92915050565b60006020828403121561316557613164612b69565b5b60006131738482850161313a565b91505092915050565b600080fd5b600080fd5b7f4e487b7100000000000000000000000000000000000000000000000000000000600052604160045260246000fd5b6131be82612de7565b810181811067ffffffffffffffff821117156131dd576131dc613186565b5b80604052505050565b60006131f0612b5f565b90506131fc82826131b5565b919050565b600067ffffffffffffffff82111561321c5761321b613186565b5b61322582612de7565b9050602081019050919050565b82818337600083830152505050565b600061325461324f84613201565b6131e6565b9050828152602081018484840111156132705761326f613181565b5b61327b848285613232565b509392505050565b600082601f8301126132985761329761317c565b5b81356132a8848260208601613241565b91505092915050565b600080600080600080600080610100898b0312156132d2576132d1612b69565b5b600089013567ffffffffffffffff8111156132f0576132ef612b6e565b5b6132fc8b828c01613283565b985050602061330d8b828c01612c37565b975050604061331e8b828c01612c37565b965050606061332f8b828c01612c37565b955050608089013567ffffffffffffffff8111156133505761334f612b6e565b5b61335c8b828c01613283565b94505060a089013567ffffffffffffffff81111561337d5761337c612b6e565b5b6133898b828c01613283565b93505060c089013567ffffffffffffffff8111156133aa576133a9612b6e565b5b6133b68b828c01613283565b92505060e089013567ffffffffffffffff8111156133d7576133d6612b6e565b5b6133e38b828c01613283565b9150509295985092959890939650565b60006020828403121561340957613408612b69565b5b600061341784828501613070565b91505092915050565b60006020828403121561343657613435612b69565b5b600082013567ffffffffffffffff81111561345457613453612b6e565b5b61346084828501613283565b91505092915050565b600082825260208201905092915050565b600061348582612d98565b61348f8185613469565b935061349f818560208601612db4565b6134a881612de7565b840191505092915050565b6134bc81612c0c565b82525050565b6000610180820190506134d8600083018f6130c5565b81810360208301526134ea818e61347a565b90506134f9604083018d6134b3565b613506606083018c6134b3565b613513608083018b6134b3565b61352060a083018a6134b3565b81810360c0830152613532818961347a565b905081810360e0830152613546818861347a565b905081810361010083015261355b818761347a565b905061356b6101208301866130ef565b81810361014083015261357e818561347a565b905061358e6101608301846134b3565b9d9c50505050505050505050505050565b6000610180830160008301516135b86000860182612cb8565b50602083015184820360208601526135d08282612df8565b91505060408301516135e56040860182612e31565b5060608301516135f86060860182612e31565b50608083015161360b6080860182612e31565b5060a083015161361e60a0860182612e31565b5060c083015184820360c08601526136368282612df8565b91505060e083015184820360e08601526136508282612df8565b91505061010083015184820361010086015261366c8282612df8565b915050610120830151613683610120860182612e72565b5061014083015184820361014086015261369d8282612df8565b9150506101608301516136b4610160860182612e31565b508091505092915050565b600060208201905081810360008301526136d9818461359f565b905092915050565b7f4f6e6c7920746865206576656e74206f776e65722063616e20706572666f726d60008201527f207468697320616374696f6e0000000000000000000000000000000000000000602082015250565b600061373d602c83613469565b9150613748826136e1565b604082019050919050565b6000602082019050818103600083015261376c81613730565b9050919050565b7f4576656e7420646f6573206e6f74206578697374000000000000000000000000600082015250565b60006137a9601483613469565b91506137b482613773565b602082019050919050565b600060208201905081810360008301526137d88161379c565b9050919050565b7f4e6577207469636b6574207072696365206d757374206265206772656174657260008201527f207468616e207a65726f2e000000000000000000000000000000000000000000602082015250565b600061383b602b83613469565b9150613846826137df565b604082019050919050565b6000602082019050818103600083015261386a8161382e565b9050919050565b600060408201905061388660008301856130c5565b61389360208301846134b3565b9392505050565b7f4e487b7100000000000000000000000000000000000000000000000000000000600052603260045260246000fd5b7f4e487b7100000000000000000000000000000000000000000000000000000000600052602260045260246000fd5b6000600282049050600182168061391057607f821691505b60208210811415613924576139236138c9565b5b50919050565b7f4e487b7100000000000000000000000000000000000000000000000000000000600052601160045260246000fd5b600061396482613119565b91507fffffffffffffffffffffffffffffffffffffffffffffffffffffffffffffffff8214156139975761399661392a565b5b600182019050919050565b6000819050919050565b60006139c76139c26139bd84612c0c565b6139a2565b613119565b9050919050565b6139d7816139ac565b82525050565b60006060820190506139f260008301866130c5565b6139ff60208301856139ce565b613a0c60408301846130ef565b949350505050565b600081519050613a2381612b7d565b92915050565b600060208284031215613a3f57613a3e612b69565b5b6000613a4d84828501613a14565b91505092915050565b6000613a6182612c0c565b9150613a6c83612c0c565b925082821015613a7f57613a7e61392a565b5b828203905092915050565b6000613a9582612c0c565b9150613aa083612c0c565b92508267ffffffffffffffff03821115613abd57613abc61392a565b5b828201905092915050565b6000604082019050613add60008301856130c5565b613aea60208301846130c5565b9392505050565b600081905092915050565b6000613b0782612d98565b613b118185613af1565b9350613b21818560208601612db4565b80840191505092915050565b6000819050919050565b613b48613b4382613119565b613b2d565b82525050565b6000613b5a8285613afc565b9150613b668284613b37565b6020820191508190509392505050565b7f4576656e742077697468207468697320494420616c726561647920657869737460008201527f7300000000000000000000000000000000000000000000000000000000000000602082015250565b6000613bd2602183613469565b9150613bdd82613b76565b604082019050919050565b60006020820190508181036000830152613c0181613bc5565b9050919050565b7f43616e6e6f742063616e63656c206576656e742061667465722069742068617360008201527f2073746172746564000000000000000000000000000000000000000000000000602082015250565b6000613c64602883613469565b9150613c6f82613c08565b604082019050919050565b60006020820190508181036000830152613c9381613c57565b9050919050565b6000613ca582613119565b9150613cb083613119565b925082821015613cc357613cc261392a565b5b828203905092915050565b7f4e487b7100000000000000000000000000000000000000000000000000000000600052603160045260246000fd5b600081905092915050565b60008190508160005260206000209050919050565b60008154613d2a816138f8565b613d348186613cfd565b94506001821660008114613d4f5760018114613d6057613d93565b60ff19831686528186019350613d93565b613d6985613d08565b60005b83811015613d8b57815481890152600182019150602081019050613d6c565b838801955050505b50505092915050565b6000613da88284613d1d565b91508190509291505056fea26469706673582212208cac1dd68f3949b96308215dacaba6f6c977edfaf454f1d9be9f21c3e4c398e264736f6c634300080a0033",
  "immutableReferences": {},
  "source": "// SPDX-License-Identifier: MIT\npragma solidity ^0.8.10;\nimport './ITicketContract.sol';\n\ncontract ContractEvent {\n  ITicketContract ticketContract;\n\n  function setTicketContractAddress(address _ticketAddress) external {\n    ticketContract = ITicketContract(_ticketAddress);\n  }\n\n  mapping(bytes32 => Event) public allEvents;\n  mapping(bytes32 => bool) public eventExists;\n\n  bytes32[] public eventIdsList;\n\n  address public ticketAddress;\n\n  // All attributes for the Events (Maybe i need to add number of sell tickets?)\n  struct Event {\n    bytes32 eventID;\n    string eventName;\n    uint64 dateOfEvent;\n    uint64 numberOfTickets;\n    uint64 ticketPrice;\n    uint64 ticketsLeft;\n    string placeName;\n    string eventDescription;\n    string eventCategory;\n    address eventOwner;\n    string eventImage;\n    uint64 soldTickets;\n  }\n\n  event EventCreated(bytes32 eventID);\n  event EventCancelled(bytes32 eventID);\n\n  event TicketPriceUpdated(bytes32 eventID, uint64 newTicketPrice);\n  event TicketBought(bytes32 eventID, bytes32 ticketID);\n\n  modifier isEnoughTickets(bytes32 _eventID) {\n    require(allEvents[_eventID].ticketsLeft > 0, 'There is no remaining tickets!');\n    _;\n  }\n\n  modifier onlyEventOwner(bytes32 _eventID) {\n    require(\n      allEvents[_eventID].eventOwner == msg.sender,\n      'Only the event owner can perform this action'\n    );\n    _;\n  }\n  modifier eventExistsModifier(bytes32 _eventID) {\n    require(eventExists[_eventID], 'Event does not exist');\n    _;\n  }\n  //function to create an event\n  function createEvent(\n    string memory _eventName,\n    uint64 _dateOfEvent,\n    uint64 _numberOfTickets,\n    uint64 _ticketPrice,\n    string memory _placeName,\n    string memory _eventDescription,\n    string memory _eventCategory,\n    string memory _eventImage\n  ) external {\n    bytes32 _eventID = keccak256(abi.encodePacked(_eventName, block.timestamp));\n    require(!eventExists[_eventID], 'Event with this ID already exists');\n\n    allEvents[_eventID] = Event({\n      eventID: _eventID,\n      eventName: _eventName,\n      dateOfEvent: _dateOfEvent,\n      numberOfTickets: _numberOfTickets,\n      ticketPrice: _ticketPrice,\n      ticketsLeft: _numberOfTickets,\n      placeName: _placeName,\n      eventDescription: _eventDescription,\n      eventCategory: _eventCategory,\n      eventOwner: msg.sender,\n      eventImage: _eventImage,\n      soldTickets: 0\n    });\n\n    eventIdsList.push(_eventID);\n    eventExists[_eventID] = true;\n\n    emit EventCreated(_eventID);\n  }\n\n  function updateTicketPrice(\n    bytes32 _eventID,\n    uint64 _newTicketPrice\n  ) external onlyEventOwner(_eventID) eventExistsModifier(_eventID) {\n    require(_newTicketPrice > 0, 'New ticket price must be greater than zero.');\n\n    allEvents[_eventID].ticketPrice = _newTicketPrice;\n    emit TicketPriceUpdated(_eventID, _newTicketPrice);\n  }\n\n  function getEventIDs() external view returns (bytes32[] memory eventList) {\n    return eventIdsList;\n  }\n\n  //function to get all events\n  function getEvents() external view returns (Event[] memory eventList) {\n    eventList = new Event[](eventIdsList.length);\n    for (uint i = 0; i < eventIdsList.length; i++) {\n      eventList[i] = allEvents[eventIdsList[i]];\n    }\n    return eventList;\n  }\n  //function to get info about event with given ID\n  function getEventInfo(\n    bytes32 _eventID\n  ) external view eventExistsModifier(_eventID) returns (Event memory) {\n    return allEvents[_eventID];\n  }\n  //function to get events by selected category\n  function getEventsByCategory(string memory _category) external view returns (Event[] memory) {\n    uint256 count = 0;\n    for (uint256 i = 0; i < eventIdsList.length; i++) {\n      if (\n        keccak256(bytes(allEvents[eventIdsList[i]].eventCategory)) == keccak256(bytes(_category))\n      ) {\n        count++;\n      }\n    }\n    Event[] memory categoryEvents = new Event[](count);\n    uint256 index = 0;\n\n    for (uint256 j = 0; j < eventIdsList.length; j++) {\n      if (\n        keccak256(bytes(allEvents[eventIdsList[j]].eventCategory)) == keccak256(bytes(_category))\n      ) {\n        categoryEvents[index] = allEvents[eventIdsList[j]];\n        index++;\n      }\n    }\n    return categoryEvents;\n  }\n  // Function to get events owned by the caller\n  function getEventsForOwner() external view returns (Event[] memory) {\n    uint256 count = 0;\n    for (uint256 i = 0; i < eventIdsList.length; i++) {\n      if (allEvents[eventIdsList[i]].eventOwner == msg.sender) {\n        count++;\n      }\n    }\n\n    Event[] memory ownerEvents = new Event[](count);\n    uint256 index = 0;\n\n    for (uint256 j = 0; j < eventIdsList.length; j++) {\n      if (allEvents[eventIdsList[j]].eventOwner == msg.sender) {\n        ownerEvents[index] = allEvents[eventIdsList[j]];\n        index++;\n      }\n    }\n    return ownerEvents;\n  }\n  //function to cancel event\n  function cancelEvent(\n    bytes32 _eventID\n  ) external onlyEventOwner(_eventID) eventExistsModifier(_eventID) returns (bytes32) {\n    Event storage _event = allEvents[_eventID];\n    require(_event.dateOfEvent > block.timestamp, 'Cannot cancel event after it has started');\n\n    //ticketContract.cancelAllTickets(_eventID);\n    delete allEvents[_eventID];\n\n    for (uint i = 0; i < eventIdsList.length; i++) {\n      if (eventIdsList[i] == _eventID) {\n        eventIdsList[i] = eventIdsList[eventIdsList.length - 1];\n        eventIdsList.pop();\n        break;\n      }\n    }\n\n    emit EventCancelled(_eventID);\n    return _eventID;\n  }\n  // function to buyticket\n  function buyTicket(\n    bytes32 _eventID,\n    address userAddress // Pidme adresu uivatele jako parametr\n  ) external onlyEventOwner(_eventID) eventExistsModifier(_eventID) returns (bytes32) {\n    Event storage _event = allEvents[_eventID];\n\n    // Pedme adresu uivatele msto `msg.sender`\n    bytes32 ticketID = ticketContract.createNewTicket(_eventID, _event.ticketPrice, userAddress);\n    _event.ticketsLeft -= 1;\n    _event.soldTickets += 1;\n\n    emit TicketBought(_eventID, ticketID);\n\n    return ticketID;\n  }\n}\n",
  "sourcePath": "/Users/janmrakava/Documents/GitHub/blockticket_blockchain/client/contracts/Event.sol",
  "compiler": {
    "name": "solc",
    "version": "0.8.10+commit.fc410830.Emscripten.clang"
  },
  "schemaVersion": "3.4.16",
  "updatedAt": "2024-04-29T12:55:42.043Z",
  "networkType": "ethereum",
  "devdoc": {
    "kind": "dev",
    "methods": {},
    "version": 1
  },
  "userdoc": {
    "kind": "user",
    "methods": {},
    "version": 1
  }
}