{
  "contractName": "EventContract",
  "abi": [
    {
      "anonymous": false,
      "inputs": [
        {
          "indexed": false,
          "internalType": "bytes32",
          "name": "eventId",
          "type": "bytes32"
        }
      ],
      "name": "CreatedEvent",
      "type": "event"
    },
    {
      "inputs": [
        {
          "internalType": "bytes32",
          "name": "",
          "type": "bytes32"
        }
      ],
      "name": "allEvents",
      "outputs": [
        {
          "internalType": "address",
          "name": "ownerOfEvent",
          "type": "address"
        },
        {
          "internalType": "bytes32",
          "name": "eventID",
          "type": "bytes32"
        },
        {
          "internalType": "string",
          "name": "eventName",
          "type": "string"
        },
        {
          "internalType": "string",
          "name": "addressID",
          "type": "string"
        },
        {
          "internalType": "uint256",
          "name": "numberOfTickets",
          "type": "uint256"
        },
        {
          "internalType": "uint256",
          "name": "ticketPrice",
          "type": "uint256"
        }
      ],
      "stateMutability": "view",
      "type": "function"
    },
    {
      "inputs": [
        {
          "internalType": "uint256",
          "name": "",
          "type": "uint256"
        }
      ],
      "name": "events_id_list",
      "outputs": [
        {
          "internalType": "bytes32",
          "name": "",
          "type": "bytes32"
        }
      ],
      "stateMutability": "view",
      "type": "function"
    },
    {
      "inputs": [
        {
          "internalType": "bytes32",
          "name": "_eventID",
          "type": "bytes32"
        },
        {
          "internalType": "string",
          "name": "_eventName",
          "type": "string"
        },
        {
          "internalType": "string",
          "name": "_addressID",
          "type": "string"
        },
        {
          "internalType": "uint256",
          "name": "_numberOfTickets",
          "type": "uint256"
        },
        {
          "internalType": "uint256",
          "name": "_ticketPrice",
          "type": "uint256"
        }
      ],
      "name": "createEvent",
      "outputs": [],
      "stateMutability": "nonpayable",
      "type": "function"
    },
    {
      "inputs": [],
      "name": "getEvents",
      "outputs": [
        {
          "internalType": "bytes32[]",
          "name": "events_list",
          "type": "bytes32[]"
        }
      ],
      "stateMutability": "view",
      "type": "function"
    },
    {
      "inputs": [
        {
          "internalType": "bytes32",
          "name": "_eventID",
          "type": "bytes32"
        }
      ],
      "name": "getEventInfo",
      "outputs": [
        {
          "internalType": "address",
          "name": "ownerOfEvent",
          "type": "address"
        },
        {
          "internalType": "bytes32",
          "name": "eventID",
          "type": "bytes32"
        },
        {
          "internalType": "string",
          "name": "eventName",
          "type": "string"
        },
        {
          "internalType": "string",
          "name": "addressID",
          "type": "string"
        },
        {
          "internalType": "uint256",
          "name": "numberOfTickets",
          "type": "uint256"
        },
        {
          "internalType": "uint256",
          "name": "ticketPrice",
          "type": "uint256"
        }
      ],
      "stateMutability": "view",
      "type": "function"
    }
  ],
  "bytecode": "0x608060405234801561000f575f80fd5b50610df28061001d5f395ff3fe608060405234801561000f575f80fd5b5060043610610055575f3560e01c8063404aa8f9146100595780635727d7cd14610077578063dfb60285146100a7578063f07f6d76146100dc578063f765b6b1146100f8575b5f80fd5b61006161012d565b60405161006e91906106c7565b60405180910390f35b610091600480360381019061008c919061072b565b610183565b60405161009e9190610765565b60405180910390f35b6100c160048036038101906100bc91906107a8565b6101a3565b6040516100d3969594939291906108ab565b60405180910390f35b6100f660048036038101906100f19190610a44565b610305565b005b610112600480360381019061010d91906107a8565b610443565b604051610124969594939291906108ab565b60405180910390f35b6060600180548060200260200160405190810160405280929190818152602001828054801561017957602002820191905f5260205f20905b815481526020019060010190808311610165575b5050505050905090565b60018181548110610192575f80fd5b905f5260205f20015f915090505481565b5f602052805f5260405f205f91509050805f015f9054906101000a900473ffffffffffffffffffffffffffffffffffffffff16908060010154908060020180546101ec90610b20565b80601f016020809104026020016040519081016040528092919081815260200182805461021890610b20565b80156102635780601f1061023a57610100808354040283529160200191610263565b820191905f5260205f20905b81548152906001019060200180831161024657829003601f168201915b50505050509080600301805461027890610b20565b80601f01602080910402602001604051908101604052809291908181526020018280546102a490610b20565b80156102ef5780601f106102c6576101008083540402835291602001916102ef565b820191905f5260205f20905b8154815290600101906020018083116102d257829003601f168201915b5050505050908060040154908060050154905086565b845f808781526020019081526020015f2060010181905550335f808781526020019081526020015f205f015f6101000a81548173ffffffffffffffffffffffffffffffffffffffff021916908373ffffffffffffffffffffffffffffffffffffffff160217905550835f808781526020019081526020015f20600201908161038d9190610ced565b50825f808781526020019081526020015f2060030190816103ae9190610ced565b50815f808781526020019081526020015f2060040181905550805f808781526020019081526020015f2060050181905550600185908060018154018082558091505060019003905f5260205f20015f90919091909150557f470debc7ae03b13933e4a0f906e48ea27355b7869909cbf0e4cffa76a27ef227856040516104349190610765565b60405180910390a15050505050565b5f806060805f805f808881526020019081526020015f205f015f9054906101000a900473ffffffffffffffffffffffffffffffffffffffff165f808981526020019081526020015f20600101545f808a81526020019081526020015f206002015f808b81526020019081526020015f206003015f808c81526020019081526020015f20600401545f808d81526020019081526020015f20600501548380546104ea90610b20565b80601f016020809104026020016040519081016040528092919081815260200182805461051690610b20565b80156105615780601f1061053857610100808354040283529160200191610561565b820191905f5260205f20905b81548152906001019060200180831161054457829003601f168201915b5050505050935082805461057490610b20565b80601f01602080910402602001604051908101604052809291908181526020018280546105a090610b20565b80156105eb5780601f106105c2576101008083540402835291602001916105eb565b820191905f5260205f20905b8154815290600101906020018083116105ce57829003601f168201915b5050505050925095509550955095509550955091939550919395565b5f81519050919050565b5f82825260208201905092915050565b5f819050602082019050919050565b5f819050919050565b61064281610630565b82525050565b5f6106538383610639565b60208301905092915050565b5f602082019050919050565b5f61067582610607565b61067f8185610611565b935061068a83610621565b805f5b838110156106ba5781516106a18882610648565b97506106ac8361065f565b92505060018101905061068d565b5085935050505092915050565b5f6020820190508181035f8301526106df818461066b565b905092915050565b5f604051905090565b5f80fd5b5f80fd5b5f819050919050565b61070a816106f8565b8114610714575f80fd5b50565b5f8135905061072581610701565b92915050565b5f602082840312156107405761073f6106f0565b5b5f61074d84828501610717565b91505092915050565b61075f81610630565b82525050565b5f6020820190506107785f830184610756565b92915050565b61078781610630565b8114610791575f80fd5b50565b5f813590506107a28161077e565b92915050565b5f602082840312156107bd576107bc6106f0565b5b5f6107ca84828501610794565b91505092915050565b5f73ffffffffffffffffffffffffffffffffffffffff82169050919050565b5f6107fc826107d3565b9050919050565b61080c816107f2565b82525050565b5f81519050919050565b5f82825260208201905092915050565b5f5b8381101561084957808201518184015260208101905061082e565b5f8484015250505050565b5f601f19601f8301169050919050565b5f61086e82610812565b610878818561081c565b935061088881856020860161082c565b61089181610854565b840191505092915050565b6108a5816106f8565b82525050565b5f60c0820190506108be5f830189610803565b6108cb6020830188610756565b81810360408301526108dd8187610864565b905081810360608301526108f18186610864565b9050610900608083018561089c565b61090d60a083018461089c565b979650505050505050565b5f80fd5b5f80fd5b7f4e487b71000000000000000000000000000000000000000000000000000000005f52604160045260245ffd5b61095682610854565b810181811067ffffffffffffffff8211171561097557610974610920565b5b80604052505050565b5f6109876106e7565b9050610993828261094d565b919050565b5f67ffffffffffffffff8211156109b2576109b1610920565b5b6109bb82610854565b9050602081019050919050565b828183375f83830152505050565b5f6109e86109e384610998565b61097e565b905082815260208101848484011115610a0457610a0361091c565b5b610a0f8482856109c8565b509392505050565b5f82601f830112610a2b57610a2a610918565b5b8135610a3b8482602086016109d6565b91505092915050565b5f805f805f60a08688031215610a5d57610a5c6106f0565b5b5f610a6a88828901610794565b955050602086013567ffffffffffffffff811115610a8b57610a8a6106f4565b5b610a9788828901610a17565b945050604086013567ffffffffffffffff811115610ab857610ab76106f4565b5b610ac488828901610a17565b9350506060610ad588828901610717565b9250506080610ae688828901610717565b9150509295509295909350565b7f4e487b71000000000000000000000000000000000000000000000000000000005f52602260045260245ffd5b5f6002820490506001821680610b3757607f821691505b602082108103610b4a57610b49610af3565b5b50919050565b5f819050815f5260205f209050919050565b5f6020601f8301049050919050565b5f82821b905092915050565b5f60088302610bac7fffffffffffffffffffffffffffffffffffffffffffffffffffffffffffffffff82610b71565b610bb68683610b71565b95508019841693508086168417925050509392505050565b5f819050919050565b5f610bf1610bec610be7846106f8565b610bce565b6106f8565b9050919050565b5f819050919050565b610c0a83610bd7565b610c1e610c1682610bf8565b848454610b7d565b825550505050565b5f90565b610c32610c26565b610c3d818484610c01565b505050565b5b81811015610c6057610c555f82610c2a565b600181019050610c43565b5050565b601f821115610ca557610c7681610b50565b610c7f84610b62565b81016020851015610c8e578190505b610ca2610c9a85610b62565b830182610c42565b50505b505050565b5f82821c905092915050565b5f610cc55f1984600802610caa565b1980831691505092915050565b5f610cdd8383610cb6565b9150826002028217905092915050565b610cf682610812565b67ffffffffffffffff811115610d0f57610d0e610920565b5b610d198254610b20565b610d24828285610c64565b5f60209050601f831160018114610d55575f8415610d43578287015190505b610d4d8582610cd2565b865550610db4565b601f198416610d6386610b50565b5f5b82811015610d8a57848901518255600182019150602085019450602081019050610d65565b86831015610da75784890151610da3601f891682610cb6565b8355505b6001600288020188555050505b50505050505056fea2646970667358221220fc4e3eb95af12d4c26f3ead0ae466ff06c4dc337a70a8499cdef9a53b3e0385564736f6c63430008150033",
  "immutableReferences": {},
  "source": "// SPDX-License-Identifier: MIT\npragma solidity 0.8.21;\n\ncontract EventContract {\n  mapping(bytes32 => EventData) public allEvents;\n  bytes32[] public events_id_list;\n\n  struct EventData {\n    address ownerOfEvent;\n    bytes32 eventID;\n    string eventName;\n    string addressID;\n    uint numberOfTickets;\n    uint ticketPrice;\n  }\n  event CreatedEvent(bytes32 eventId);\n\n  //Create event function\n  function createEvent(\n    bytes32 _eventID,\n    string memory _eventName,\n    string memory _addressID,\n    uint _numberOfTickets,\n    uint _ticketPrice\n  ) external {\n    allEvents[_eventID].eventID = _eventID;\n    allEvents[_eventID].ownerOfEvent = msg.sender;\n    allEvents[_eventID].eventName = _eventName;\n    allEvents[_eventID].addressID = _addressID;\n    allEvents[_eventID].numberOfTickets = _numberOfTickets;\n    allEvents[_eventID].ticketPrice = _ticketPrice;\n    events_id_list.push(_eventID);\n    emit CreatedEvent(_eventID);\n  }\n  //get events id function\n  function getEvents() external view returns (bytes32[] memory events_list) {\n    return events_id_list;\n  }\n  //function to return event info\n  function getEventInfo(\n    bytes32 _eventID\n  )\n    external\n    view\n    returns (\n      address ownerOfEvent,\n      bytes32 eventID,\n      string memory eventName,\n      string memory addressID,\n      uint numberOfTickets,\n      uint ticketPrice\n    )\n  {\n    return (\n      allEvents[_eventID].ownerOfEvent,\n      allEvents[_eventID].eventID,\n      allEvents[_eventID].eventName,\n      allEvents[_eventID].addressID,\n      allEvents[_eventID].numberOfTickets,\n      allEvents[_eventID].ticketPrice\n    );\n  }\n}\n",
  "sourcePath": "/Users/janmrakava/Documents/GitHub/blockticket_blockchain/client/contracts/Event.sol",
  "compiler": {
    "name": "solc",
    "version": "0.8.21+commit.d9974bed.Emscripten.clang"
  },
  "schemaVersion": "3.4.16",
  "updatedAt": "2024-04-04T19:12:16.485Z",
  "devdoc": {
    "kind": "dev",
    "methods": {},
    "version": 1
  },
  "userdoc": {
    "kind": "user",
    "methods": {},
    "version": 1
  }
}