{
  "contractName": "TicketContract",
  "abi": [
    {
      "inputs": [
        {
          "internalType": "address",
          "name": "_eventContractAddress",
          "type": "address"
        }
      ],
      "stateMutability": "nonpayable",
      "type": "constructor"
    },
    {
      "anonymous": false,
      "inputs": [
        {
          "indexed": false,
          "internalType": "bytes32",
          "name": "eventID",
          "type": "bytes32"
        }
      ],
      "name": "EventCancelled",
      "type": "event"
    },
    {
      "anonymous": false,
      "inputs": [
        {
          "indexed": false,
          "internalType": "bytes32",
          "name": "ticketID",
          "type": "bytes32"
        },
        {
          "indexed": false,
          "internalType": "bytes32",
          "name": "eventID",
          "type": "bytes32"
        },
        {
          "indexed": false,
          "internalType": "uint64",
          "name": "purchasedDate",
          "type": "uint64"
        },
        {
          "indexed": false,
          "internalType": "address",
          "name": "buyer",
          "type": "address"
        },
        {
          "indexed": false,
          "internalType": "uint256",
          "name": "price",
          "type": "uint256"
        }
      ],
      "name": "TicketCreated",
      "type": "event"
    },
    {
      "anonymous": false,
      "inputs": [
        {
          "indexed": false,
          "internalType": "bytes32",
          "name": "ticketID",
          "type": "bytes32"
        }
      ],
      "name": "TicketDeleted",
      "type": "event"
    },
    {
      "anonymous": false,
      "inputs": [
        {
          "indexed": false,
          "internalType": "bytes32",
          "name": "ticketID",
          "type": "bytes32"
        },
        {
          "indexed": false,
          "internalType": "address",
          "name": "oldOwner",
          "type": "address"
        },
        {
          "indexed": false,
          "internalType": "address",
          "name": "newOwner",
          "type": "address"
        },
        {
          "indexed": false,
          "internalType": "uint256",
          "name": "price",
          "type": "uint256"
        }
      ],
      "name": "TicketPurchasedFromMarket",
      "type": "event"
    },
    {
      "anonymous": false,
      "inputs": [
        {
          "indexed": false,
          "internalType": "bytes32",
          "name": "ticketID",
          "type": "bytes32"
        },
        {
          "indexed": false,
          "internalType": "address",
          "name": "redeemer",
          "type": "address"
        }
      ],
      "name": "TicketRedeemed",
      "type": "event"
    },
    {
      "anonymous": false,
      "inputs": [
        {
          "indexed": false,
          "internalType": "bytes32",
          "name": "ticketID",
          "type": "bytes32"
        },
        {
          "indexed": false,
          "internalType": "address",
          "name": "ticketOwner",
          "type": "address"
        },
        {
          "indexed": false,
          "internalType": "uint256",
          "name": "refundAmount",
          "type": "uint256"
        }
      ],
      "name": "TicketRefunded",
      "type": "event"
    },
    {
      "anonymous": false,
      "inputs": [
        {
          "indexed": false,
          "internalType": "bytes32",
          "name": "ticketID",
          "type": "bytes32"
        },
        {
          "indexed": false,
          "internalType": "address",
          "name": "sender",
          "type": "address"
        },
        {
          "indexed": false,
          "internalType": "uint256",
          "name": "refundAmount",
          "type": "uint256"
        }
      ],
      "name": "TicketReturned",
      "type": "event"
    },
    {
      "anonymous": false,
      "inputs": [
        {
          "indexed": false,
          "internalType": "bytes32",
          "name": "ticketID",
          "type": "bytes32"
        }
      ],
      "name": "TicketSaleCancelled",
      "type": "event"
    },
    {
      "anonymous": false,
      "inputs": [
        {
          "indexed": false,
          "internalType": "bytes32",
          "name": "ticketID",
          "type": "bytes32"
        }
      ],
      "name": "TicketSetForSale",
      "type": "event"
    },
    {
      "anonymous": false,
      "inputs": [
        {
          "indexed": false,
          "internalType": "bytes32",
          "name": "ticketID",
          "type": "bytes32"
        },
        {
          "indexed": false,
          "internalType": "address",
          "name": "from",
          "type": "address"
        },
        {
          "indexed": false,
          "internalType": "address",
          "name": "to",
          "type": "address"
        },
        {
          "indexed": false,
          "internalType": "uint256",
          "name": "newPrice",
          "type": "uint256"
        }
      ],
      "name": "TicketTransferred",
      "type": "event"
    },
    {
      "inputs": [
        {
          "internalType": "uint256",
          "name": "",
          "type": "uint256"
        }
      ],
      "name": "allTicketIDs",
      "outputs": [
        {
          "internalType": "bytes32",
          "name": "",
          "type": "bytes32"
        }
      ],
      "stateMutability": "view",
      "type": "function",
      "constant": true
    },
    {
      "inputs": [
        {
          "internalType": "bytes32",
          "name": "",
          "type": "bytes32"
        }
      ],
      "name": "allTickets",
      "outputs": [
        {
          "internalType": "bytes32",
          "name": "ticketID",
          "type": "bytes32"
        },
        {
          "internalType": "bytes32",
          "name": "eventID",
          "type": "bytes32"
        },
        {
          "internalType": "address",
          "name": "ticketOwner",
          "type": "address"
        },
        {
          "internalType": "uint64",
          "name": "purchasedDate",
          "type": "uint64"
        },
        {
          "internalType": "bool",
          "name": "isRedeemed",
          "type": "bool"
        },
        {
          "internalType": "bool",
          "name": "isValid",
          "type": "bool"
        },
        {
          "internalType": "uint256",
          "name": "ticketPrice",
          "type": "uint256"
        },
        {
          "internalType": "uint256",
          "name": "originalPrice",
          "type": "uint256"
        },
        {
          "internalType": "bool",
          "name": "forSale",
          "type": "bool"
        },
        {
          "internalType": "uint256",
          "name": "salePrice",
          "type": "uint256"
        }
      ],
      "stateMutability": "view",
      "type": "function",
      "constant": true
    },
    {
      "inputs": [],
      "name": "eventContractAddress",
      "outputs": [
        {
          "internalType": "address",
          "name": "",
          "type": "address"
        }
      ],
      "stateMutability": "view",
      "type": "function",
      "constant": true
    },
    {
      "inputs": [
        {
          "internalType": "bytes32",
          "name": "",
          "type": "bytes32"
        },
        {
          "internalType": "uint256",
          "name": "",
          "type": "uint256"
        }
      ],
      "name": "ticketsByEvent",
      "outputs": [
        {
          "internalType": "bytes32",
          "name": "",
          "type": "bytes32"
        }
      ],
      "stateMutability": "view",
      "type": "function",
      "constant": true
    },
    {
      "inputs": [],
      "name": "totalTickets",
      "outputs": [
        {
          "internalType": "uint256",
          "name": "",
          "type": "uint256"
        }
      ],
      "stateMutability": "view",
      "type": "function",
      "constant": true
    },
    {
      "inputs": [
        {
          "internalType": "address",
          "name": "_eventContractAddress",
          "type": "address"
        }
      ],
      "name": "setEventContractAddress",
      "outputs": [],
      "stateMutability": "nonpayable",
      "type": "function"
    },
    {
      "inputs": [
        {
          "internalType": "bytes32",
          "name": "_eventID",
          "type": "bytes32"
        },
        {
          "internalType": "address",
          "name": "_buyer",
          "type": "address"
        },
        {
          "internalType": "uint256",
          "name": "_ticketPrice",
          "type": "uint256"
        }
      ],
      "name": "createNewTicket",
      "outputs": [
        {
          "internalType": "bytes32",
          "name": "",
          "type": "bytes32"
        }
      ],
      "stateMutability": "nonpayable",
      "type": "function"
    },
    {
      "inputs": [
        {
          "internalType": "bytes32",
          "name": "_ticketID",
          "type": "bytes32"
        }
      ],
      "name": "transferTicket",
      "outputs": [],
      "stateMutability": "payable",
      "type": "function",
      "payable": true
    },
    {
      "inputs": [
        {
          "internalType": "bytes32",
          "name": "_ticketID",
          "type": "bytes32"
        }
      ],
      "name": "getTicketInfo",
      "outputs": [
        {
          "components": [
            {
              "internalType": "bytes32",
              "name": "ticketID",
              "type": "bytes32"
            },
            {
              "internalType": "bytes32",
              "name": "eventID",
              "type": "bytes32"
            },
            {
              "internalType": "address",
              "name": "ticketOwner",
              "type": "address"
            },
            {
              "internalType": "uint64",
              "name": "purchasedDate",
              "type": "uint64"
            },
            {
              "internalType": "bool",
              "name": "isRedeemed",
              "type": "bool"
            },
            {
              "internalType": "bool",
              "name": "isValid",
              "type": "bool"
            },
            {
              "internalType": "uint256",
              "name": "ticketPrice",
              "type": "uint256"
            },
            {
              "internalType": "uint256",
              "name": "originalPrice",
              "type": "uint256"
            },
            {
              "internalType": "bool",
              "name": "forSale",
              "type": "bool"
            },
            {
              "internalType": "uint256",
              "name": "salePrice",
              "type": "uint256"
            }
          ],
          "internalType": "struct TicketContract.Ticket",
          "name": "",
          "type": "tuple"
        }
      ],
      "stateMutability": "view",
      "type": "function",
      "constant": true
    },
    {
      "inputs": [
        {
          "internalType": "bytes32",
          "name": "_eventID",
          "type": "bytes32"
        }
      ],
      "name": "getTicketsForEvent",
      "outputs": [
        {
          "internalType": "bytes32[]",
          "name": "",
          "type": "bytes32[]"
        }
      ],
      "stateMutability": "view",
      "type": "function",
      "constant": true
    },
    {
      "inputs": [],
      "name": "getMyTickets",
      "outputs": [
        {
          "components": [
            {
              "internalType": "bytes32",
              "name": "ticketID",
              "type": "bytes32"
            },
            {
              "internalType": "bytes32",
              "name": "eventID",
              "type": "bytes32"
            },
            {
              "internalType": "address",
              "name": "ticketOwner",
              "type": "address"
            },
            {
              "internalType": "uint64",
              "name": "purchasedDate",
              "type": "uint64"
            },
            {
              "internalType": "bool",
              "name": "isRedeemed",
              "type": "bool"
            },
            {
              "internalType": "bool",
              "name": "isValid",
              "type": "bool"
            },
            {
              "internalType": "uint256",
              "name": "ticketPrice",
              "type": "uint256"
            },
            {
              "internalType": "uint256",
              "name": "originalPrice",
              "type": "uint256"
            },
            {
              "internalType": "bool",
              "name": "forSale",
              "type": "bool"
            },
            {
              "internalType": "uint256",
              "name": "salePrice",
              "type": "uint256"
            }
          ],
          "internalType": "struct TicketContract.Ticket[]",
          "name": "",
          "type": "tuple[]"
        }
      ],
      "stateMutability": "view",
      "type": "function",
      "constant": true
    },
    {
      "inputs": [
        {
          "internalType": "bytes32",
          "name": "_ticketID",
          "type": "bytes32"
        }
      ],
      "name": "redeemTicket",
      "outputs": [],
      "stateMutability": "nonpayable",
      "type": "function"
    },
    {
      "inputs": [
        {
          "internalType": "bytes32",
          "name": "_ticketID",
          "type": "bytes32"
        },
        {
          "internalType": "bytes32",
          "name": "_eventID",
          "type": "bytes32"
        }
      ],
      "name": "verifyTicket",
      "outputs": [
        {
          "internalType": "bool",
          "name": "",
          "type": "bool"
        }
      ],
      "stateMutability": "view",
      "type": "function",
      "constant": true
    },
    {
      "inputs": [
        {
          "internalType": "bytes32",
          "name": "_ticketID",
          "type": "bytes32"
        }
      ],
      "name": "deleteTicket",
      "outputs": [],
      "stateMutability": "nonpayable",
      "type": "function"
    },
    {
      "inputs": [
        {
          "internalType": "bytes32",
          "name": "_ticketID",
          "type": "bytes32"
        }
      ],
      "name": "returnTicket",
      "outputs": [],
      "stateMutability": "nonpayable",
      "type": "function"
    },
    {
      "inputs": [
        {
          "internalType": "bytes32",
          "name": "eventId",
          "type": "bytes32"
        }
      ],
      "name": "cancelAllTickets",
      "outputs": [],
      "stateMutability": "nonpayable",
      "type": "function"
    },
    {
      "inputs": [
        {
          "internalType": "bytes32",
          "name": "_ticketID",
          "type": "bytes32"
        },
        {
          "internalType": "uint256",
          "name": "_price",
          "type": "uint256"
        }
      ],
      "name": "setTicketForSale",
      "outputs": [],
      "stateMutability": "nonpayable",
      "type": "function"
    },
    {
      "inputs": [
        {
          "internalType": "bytes32",
          "name": "_ticketID",
          "type": "bytes32"
        }
      ],
      "name": "cancelTicketForSale",
      "outputs": [],
      "stateMutability": "nonpayable",
      "type": "function"
    },
    {
      "inputs": [
        {
          "internalType": "bytes32",
          "name": "_ticketID",
          "type": "bytes32"
        }
      ],
      "name": "buyTicketFromMarket",
      "outputs": [],
      "stateMutability": "payable",
      "type": "function",
      "payable": true
    }
  ],
  "bytecode": "0x60806040523480156200001157600080fd5b5060405162003b9738038062003b978339818101604052810190620000379190620000e9565b80600360006101000a81548173ffffffffffffffffffffffffffffffffffffffff021916908373ffffffffffffffffffffffffffffffffffffffff160217905550506200011b565b600080fd5b600073ffffffffffffffffffffffffffffffffffffffff82169050919050565b6000620000b18262000084565b9050919050565b620000c381620000a4565b8114620000cf57600080fd5b50565b600081519050620000e381620000b8565b92915050565b6000602082840312156200010257620001016200007f565b5b60006200011284828501620000d2565b91505092915050565b613a6c806200012b6000396000f3fe6080604052600436106101145760003560e01c8063924b5a07116100a0578063d5a114e711610064578063d5a114e7146103c0578063d7776248146103fd578063dd11247e14610426578063e1d10d8514610451578063edd8741d1461047c57610114565b8063924b5a07146102ec578063adcb8bdb14610315578063afcd24521461033e578063bf3f733e1461035a578063cfe632ef1461038357610114565b806338d986c2116100e757806338d986c214610202578063422375ec1461022b578063790f770e1461026857806384d4f1a71461028457806387e9a744146102af57610114565b8063090a855614610119578063181fcc891461015f5780632a0d88071461019c578063368d804d146101c5575b600080fd5b34801561012557600080fd5b50610140600480360381019061013b91906125ea565b6104a5565b6040516101569a999897969594939291906126be565b60405180910390f35b34801561016b57600080fd5b50610186600480360381019061018191906125ea565b610554565b6040516101939190612818565b60405180910390f35b3480156101a857600080fd5b506101c360048036038101906101be91906125ea565b6105bf565b005b3480156101d157600080fd5b506101ec60048036038101906101e7919061283a565b6108e3565b6040516101f9919061287a565b60405180910390f35b34801561020e57600080fd5b50610229600480360381019061022491906128c1565b610949565b005b34801561023757600080fd5b50610252600480360381019061024d91906128c1565b610af6565b60405161025f9190612901565b60405180910390f35b610282600480360381019061027d91906125ea565b610b27565b005b34801561029057600080fd5b50610299610dbd565b6040516102a6919061291c565b60405180910390f35b3480156102bb57600080fd5b506102d660048036038101906102d191906125ea565b610de3565b6040516102e39190612a3f565b60405180910390f35b3480156102f857600080fd5b50610313600480360381019061030e91906125ea565b610f1b565b005b34801561032157600080fd5b5061033c600480360381019061033791906125ea565b6111dc565b005b610358600480360381019061035391906125ea565b611337565b005b34801561036657600080fd5b50610381600480360381019061037c91906125ea565b6115d7565b005b34801561038f57600080fd5b506103aa60048036038101906103a59190612a87565b611a41565b6040516103b79190612901565b60405180910390f35b3480156103cc57600080fd5b506103e760048036038101906103e29190612ada565b611d95565b6040516103f49190612901565b60405180910390f35b34801561040957600080fd5b50610424600480360381019061041f9190612b07565b611db9565b005b34801561043257600080fd5b5061043b611dfd565b6040516104489190612b34565b60405180910390f35b34801561045d57600080fd5b50610466611e03565b6040516104739190612ccb565b60405180910390f35b34801561048857600080fd5b506104a3600480360381019061049e91906125ea565b612141565b005b60006020528060005260406000206000915090508060000154908060010154908060020160009054906101000a900473ffffffffffffffffffffffffffffffffffffffff16908060020160149054906101000a900467ffffffffffffffff169080600201601c9054906101000a900460ff169080600201601d9054906101000a900460ff16908060030154908060040154908060050160009054906101000a900460ff1690806006015490508a565b6060600160008381526020019081526020016000208054806020026020016040519081016040528092919081815260200182805480156105b357602002820191906000526020600020905b81548152602001906001019080831161059f575b50505050509050919050565b60008082815260200190815260200160002060020160009054906101000a900473ffffffffffffffffffffffffffffffffffffffff1673ffffffffffffffffffffffffffffffffffffffff163373ffffffffffffffffffffffffffffffffffffffff16148061067b5750600360009054906101000a900473ffffffffffffffffffffffffffffffffffffffff1673ffffffffffffffffffffffffffffffffffffffff163373ffffffffffffffffffffffffffffffffffffffff16145b6106ba576040517f08c379a00000000000000000000000000000000000000000000000000000000081526004016106b190612d70565b60405180910390fd5b600080600083815260200190815260200160002060010154905060006006600084815260200190815260200160002054905060006001806000858152602001908152602001600020805490506107109190612dbf565b905080821461079b5760006001600085815260200190815260200160002082815481106107405761073f612df3565b5b906000526020600020015490508060016000868152602001908152602001600020848154811061077357610772612df3565b5b9060005260206000200181905550826006600083815260200190815260200160002081905550505b600160008481526020019081526020016000208054806107be576107bd612e22565b5b60019003818190600052602060002001600090559055600660008581526020019081526020016000206000905560008085815260200190815260200160002060008082016000905560018201600090556002820160006101000a81549073ffffffffffffffffffffffffffffffffffffffff02191690556002820160146101000a81549067ffffffffffffffff021916905560028201601c6101000a81549060ff021916905560028201601d6101000a81549060ff0219169055600382016000905560048201600090556005820160006101000a81549060ff0219169055600682016000905550507fd9a771705fc066b34f0996a0abae6a891c652869ac6b6e3b1e00e4e6d4638ea8846040516108d59190612901565b60405180910390a150505050565b60008060008085815260200190815260200160002090506000801b8160000154141580156109145750828160010154145b801561092e575080600201601d9054906101000a900460ff165b1561093d576001915050610943565b60009150505b92915050565b600080600084815260200190815260200160002090508060020160009054906101000a900473ffffffffffffffffffffffffffffffffffffffff1673ffffffffffffffffffffffffffffffffffffffff163373ffffffffffffffffffffffffffffffffffffffff16146109f1576040517f08c379a00000000000000000000000000000000000000000000000000000000081526004016109e890612ec3565b60405180910390fd5b80600201601c9054906101000a900460ff1615610a43576040517f08c379a0000000000000000000000000000000000000000000000000000000008152600401610a3a90612f2f565b60405180910390fd5b80600201601d9054906101000a900460ff16610a94576040517f08c379a0000000000000000000000000000000000000000000000000000000008152600401610a8b90612f9b565b60405180910390fd5b60018160050160006101000a81548160ff0219169083151502179055508181600601819055507f1c35376aa8f00acbd4bde96b765adb6cf6e0d5e6c991a3dbf994c0e59df2321283604051610ae99190612901565b60405180910390a1505050565b60016020528160005260406000208181548110610b1257600080fd5b90600052602060002001600091509150505481565b600560009054906101000a900460ff1615610b77576040517f08c379a0000000000000000000000000000000000000000000000000000000008152600401610b6e90613007565b60405180910390fd5b6001600560006101000a81548160ff02191690831515021790555080600080828152602001908152602001600020600201601c9054906101000a900460ff1615610bf6576040517f08c379a0000000000000000000000000000000000000000000000000000000008152600401610bed90613099565b60405180910390fd5b6000806000848152602001908152602001600020905080600301543414610c52576040517f08c379a0000000000000000000000000000000000000000000000000000000008152600401610c499061312b565b60405180910390fd5b80600201601d9054906101000a900460ff16610ca3576040517f08c379a0000000000000000000000000000000000000000000000000000000008152600401610c9a90613197565b60405180910390fd5b60008160020160009054906101000a900473ffffffffffffffffffffffffffffffffffffffff169050338260020160006101000a81548173ffffffffffffffffffffffffffffffffffffffff021916908373ffffffffffffffffffffffffffffffffffffffff1602179055503482600301819055508073ffffffffffffffffffffffffffffffffffffffff166108fc349081150290604051600060405180830381858888f19350505050158015610d5e573d6000803e3d6000fd5b507ffd8856e33cf0872c85c89d373a010f59eac73bef929cb9e91f2a9b4391cfbc6e84823334604051610d9494939291906131b7565b60405180910390a15050506000600560006101000a81548160ff02191690831515021790555050565b600360009054906101000a900473ffffffffffffffffffffffffffffffffffffffff1681565b610deb6124f2565b6000808381526020019081526020016000206040518061014001604052908160008201548152602001600182015481526020016002820160009054906101000a900473ffffffffffffffffffffffffffffffffffffffff1673ffffffffffffffffffffffffffffffffffffffff1673ffffffffffffffffffffffffffffffffffffffff1681526020016002820160149054906101000a900467ffffffffffffffff1667ffffffffffffffff1667ffffffffffffffff16815260200160028201601c9054906101000a900460ff1615151515815260200160028201601d9054906101000a900460ff1615151515815260200160038201548152602001600482015481526020016005820160009054906101000a900460ff161515151581526020016006820154815250509050919050565b600080600083815260200190815260200160002090503373ffffffffffffffffffffffffffffffffffffffff168160020160009054906101000a900473ffffffffffffffffffffffffffffffffffffffff1673ffffffffffffffffffffffffffffffffffffffff1614610fc3576040517f08c379a0000000000000000000000000000000000000000000000000000000008152600401610fba9061326e565b60405180910390fd5b80600201601c9054906101000a900460ff1615611015576040517f08c379a000000000000000000000000000000000000000000000000000000000815260040161100c90613099565b60405180910390fd5b80600201601d9054906101000a900460ff16611066576040517f08c379a000000000000000000000000000000000000000000000000000000000815260040161105d90613197565b60405180910390fd5b60008160040154905060003390508073ffffffffffffffffffffffffffffffffffffffff166108fc839081150290604051600060405180830381858888f193505050501580156110ba573d6000803e3d6000fd5b506110c9836001015485612313565b60008085815260200190815260200160002060008082016000905560018201600090556002820160006101000a81549073ffffffffffffffffffffffffffffffffffffffff02191690556002820160146101000a81549067ffffffffffffffff021916905560028201601c6101000a81549060ff021916905560028201601d6101000a81549060ff0219169055600382016000905560048201600090556005820160006101000a81549060ff02191690556006820160009055505060066000858152602001908152602001600020600090557f264639f18b561b2178c34aef36b59305f75022f12fcecc6ed2f1e7b9662542de8433846040516111ce9392919061328e565b60405180910390a150505050565b600080600083815260200190815260200160002090508060020160009054906101000a900473ffffffffffffffffffffffffffffffffffffffff1673ffffffffffffffffffffffffffffffffffffffff163373ffffffffffffffffffffffffffffffffffffffff1614611284576040517f08c379a000000000000000000000000000000000000000000000000000000000815260040161127b90613337565b60405180910390fd5b8060050160009054906101000a900460ff166112d5576040517f08c379a00000000000000000000000000000000000000000000000000000000081526004016112cc906133a3565b60405180910390fd5b60008160050160006101000a81548160ff021916908315150217905550600081600601819055507f994d9be7adae57b16087faeafa892c98ec1428cf788e482656add12969413c878260405161132b9190612901565b60405180910390a15050565b600560009054906101000a900460ff1615611387576040517f08c379a000000000000000000000000000000000000000000000000000000000815260040161137e90613007565b60405180910390fd5b6001600560006101000a81548160ff021916908315150217905550600080600083815260200190815260200160002090508060050160009054906101000a900460ff16611409576040517f08c379a00000000000000000000000000000000000000000000000000000000081526004016114009061340f565b60405180910390fd5b8060060154341461144f576040517f08c379a0000000000000000000000000000000000000000000000000000000008152600401611446906134c7565b60405180910390fd5b80600201601d9054906101000a900460ff166114a0576040517f08c379a000000000000000000000000000000000000000000000000000000000815260040161149790613533565b60405180910390fd5b60008160020160009054906101000a900473ffffffffffffffffffffffffffffffffffffffff169050338260020160006101000a81548173ffffffffffffffffffffffffffffffffffffffff021916908373ffffffffffffffffffffffffffffffffffffffff16021790555060008260050160006101000a81548160ff021916908315150217905550600082600601819055508073ffffffffffffffffffffffffffffffffffffffff166108fc349081150290604051600060405180830381858888f19350505050158015611579573d6000803e3d6000fd5b507fdad241cbe6e066caf7dfc11828c6b2df6b430a639390ba0675040ed5d2bff243838233346040516115af94939291906131b7565b60405180910390a150506000600560006101000a81548160ff02191690831515021790555050565b600360009054906101000a900473ffffffffffffffffffffffffffffffffffffffff1673ffffffffffffffffffffffffffffffffffffffff163373ffffffffffffffffffffffffffffffffffffffff1614611667576040517f08c379a000000000000000000000000000000000000000000000000000000000815260040161165e906135c5565b60405180910390fd5b60006001600083815260200190815260200160002090506000818054905014156116e7577fc0919dcb7e0b464ce8146ec897e4a566e6a1af62233364998f3da696e08b500b826040516116ba9190612901565b60405180910390a16001600083815260200190815260200160002060006116e19190612571565b50611a3e565b60005b81805490508110156119e557600082828154811061170b5761170a612df3565b5b906000526020600020015490506000806000838152602001908152602001600020905080600201601d9054906101000a900460ff16801561175b575080600201601c9054906101000a900460ff16155b156118fe5760008160040154905060008260020160009054906101000a900473ffffffffffffffffffffffffffffffffffffffff169050600083600201601d6101000a81548160ff021916908315150217905550814710156117f2576040517f08c379a00000000000000000000000000000000000000000000000000000000081526004016117e990613657565b60405180910390fd5b60008173ffffffffffffffffffffffffffffffffffffffff1683604051611818906136a8565b60006040518083038185875af1925050503d8060008114611855576040519150601f19603f3d011682016040523d82523d6000602084013e61185a565b606091505b505090508061189e576040517f08c379a000000000000000000000000000000000000000000000000000000000815260040161189590613709565b60405180910390fd5b7f79e3f523ecb0c96b50463daf491f9057d96b06408458e92d8b734c367092a1918583856040516118d193929190613788565b60405180910390a16118e285612419565b600460008154809291906118f5906137bf565b91905055505050505b60008083815260200190815260200160002060008082016000905560018201600090556002820160006101000a81549073ffffffffffffffffffffffffffffffffffffffff02191690556002820160146101000a81549067ffffffffffffffff021916905560028201601c6101000a81549060ff021916905560028201601d6101000a81549060ff0219169055600382016000905560048201600090556005820160006101000a81549060ff0219169055600682016000905550506006600083815260200190815260200160002060009055505080806119dd906137e9565b9150506116ea565b50600160008381526020019081526020016000206000611a059190612571565b7fc0919dcb7e0b464ce8146ec897e4a566e6a1af62233364998f3da696e08b500b82604051611a349190612901565b60405180910390a1505b50565b6000600360009054906101000a900473ffffffffffffffffffffffffffffffffffffffff1673ffffffffffffffffffffffffffffffffffffffff163373ffffffffffffffffffffffffffffffffffffffff1614611ad3576040517f08c379a0000000000000000000000000000000000000000000000000000000008152600401611aca906135c5565b60405180910390fd5b6000848442604051602001611aea939291906138bc565b60405160208183030381529060405280519060200120905060004290506040518061014001604052808381526020018781526020018673ffffffffffffffffffffffffffffffffffffffff1681526020018267ffffffffffffffff1681526020016000151581526020016001151581526020018581526020018581526020016000151581526020016000815250600080848152602001908152602001600020600082015181600001556020820151816001015560408201518160020160006101000a81548173ffffffffffffffffffffffffffffffffffffffff021916908373ffffffffffffffffffffffffffffffffffffffff16021790555060608201518160020160146101000a81548167ffffffffffffffff021916908367ffffffffffffffff160217905550608082015181600201601c6101000a81548160ff02191690831515021790555060a082015181600201601d6101000a81548160ff02191690831515021790555060c0820151816003015560e082015181600401556101008201518160050160006101000a81548160ff021916908315150217905550610120820151816006015590505060016000878152602001908152602001600020829080600181540180825580915050600190039060005260206000200160009091909190915055600282908060018154018082558091505060019003906000526020600020016000909190919091505560046000815480929190611d0c906137e9565b9190505550600180600088815260200190815260200160002080549050611d339190612dbf565b60066000848152602001908152602001600020819055507f59f9f03903d250b9088863ea41c64b2abc591d823643e4c51599100592df9f2e8287838888604051611d819594939291906138f9565b60405180910390a181925050509392505050565b60028181548110611da557600080fd5b906000526020600020016000915090505481565b80600360006101000a81548173ffffffffffffffffffffffffffffffffffffffff021916908373ffffffffffffffffffffffffffffffffffffffff16021790555050565b60045481565b60606000805b600280549050811015611ebf573373ffffffffffffffffffffffffffffffffffffffff1660008060028481548110611e4457611e43612df3565b5b9060005260206000200154815260200190815260200160002060020160009054906101000a900473ffffffffffffffffffffffffffffffffffffffff1673ffffffffffffffffffffffffffffffffffffffff161415611eac578180611ea8906137e9565b9250505b8080611eb7906137e9565b915050611e09565b5060008167ffffffffffffffff811115611edc57611edb61394c565b5b604051908082528060200260200182016040528015611f1557816020015b611f026124f2565b815260200190600190039081611efa5790505b5090506000805b600280549050811015612137573373ffffffffffffffffffffffffffffffffffffffff1660008060028481548110611f5757611f56612df3565b5b9060005260206000200154815260200190815260200160002060020160009054906101000a900473ffffffffffffffffffffffffffffffffffffffff1673ffffffffffffffffffffffffffffffffffffffff1614156121245760008060028381548110611fc757611fc6612df3565b5b906000526020600020015481526020019081526020016000206040518061014001604052908160008201548152602001600182015481526020016002820160009054906101000a900473ffffffffffffffffffffffffffffffffffffffff1673ffffffffffffffffffffffffffffffffffffffff1673ffffffffffffffffffffffffffffffffffffffff1681526020016002820160149054906101000a900467ffffffffffffffff1667ffffffffffffffff1667ffffffffffffffff16815260200160028201601c9054906101000a900460ff1615151515815260200160028201601d9054906101000a900460ff1615151515815260200160038201548152602001600482015481526020016005820160009054906101000a900460ff1615151515815260200160068201548152505083838151811061210a57612109612df3565b5b60200260200101819052508180612120906137e9565b9250505b808061212f906137e9565b915050611f1c565b5081935050505090565b3373ffffffffffffffffffffffffffffffffffffffff1660008083815260200190815260200160002060020160009054906101000a900473ffffffffffffffffffffffffffffffffffffffff1673ffffffffffffffffffffffffffffffffffffffff16146121e4576040517f08c379a00000000000000000000000000000000000000000000000000000000081526004016121db906139ed565b60405180910390fd5b600080828152602001908152602001600020600201601c9054906101000a900460ff1615612247576040517f08c379a000000000000000000000000000000000000000000000000000000000815260040161223e90613099565b60405180910390fd5b600080828152602001908152602001600020600201601d9054906101000a900460ff166122a9576040517f08c379a00000000000000000000000000000000000000000000000000000000081526004016122a090613197565b60405180910390fd5b6001600080838152602001908152602001600020600201601c6101000a81548160ff0219169083151502179055507f5e887a439fa796c056dfd595ead77c343c193a22734ed54140ce3a54370850628133604051612308929190613a0d565b60405180910390a150565b600060066000838152602001908152602001600020549050600060018060008681526020019081526020016000208054905061234f9190612dbf565b90508082146123da57600060016000868152602001908152602001600020828154811061237f5761237e612df3565b5b90600052602060002001549050806001600087815260200190815260200160002084815481106123b2576123b1612df3565b5b9060005260206000200181905550826006600083815260200190815260200160002081905550505b600160008581526020019081526020016000208054806123fd576123fc612e22565b5b6001900381819060005260206000200160009055905550505050565b600060066000838152602001908152602001600020549050600060016002805490506124459190612dbf565b90508082146124ae5760006002828154811061246457612463612df3565b5b90600052602060002001549050806002848154811061248657612485612df3565b5b9060005260206000200181905550826006600083815260200190815260200160002081905550505b60028054806124c0576124bf612e22565b5b600190038181906000526020600020016000905590556006600084815260200190815260200160002060009055505050565b6040518061014001604052806000801916815260200160008019168152602001600073ffffffffffffffffffffffffffffffffffffffff168152602001600067ffffffffffffffff1681526020016000151581526020016000151581526020016000815260200160008152602001600015158152602001600081525090565b508054600082559060005260206000209081019061258f9190612592565b50565b5b808211156125ab576000816000905550600101612593565b5090565b600080fd5b6000819050919050565b6125c7816125b4565b81146125d257600080fd5b50565b6000813590506125e4816125be565b92915050565b600060208284031215612600576125ff6125af565b5b600061260e848285016125d5565b91505092915050565b612620816125b4565b82525050565b600073ffffffffffffffffffffffffffffffffffffffff82169050919050565b600061265182612626565b9050919050565b61266181612646565b82525050565b600067ffffffffffffffff82169050919050565b61268481612667565b82525050565b60008115159050919050565b61269f8161268a565b82525050565b6000819050919050565b6126b8816126a5565b82525050565b6000610140820190506126d4600083018d612617565b6126e1602083018c612617565b6126ee604083018b612658565b6126fb606083018a61267b565b6127086080830189612696565b61271560a0830188612696565b61272260c08301876126af565b61272f60e08301866126af565b61273d610100830185612696565b61274b6101208301846126af565b9b9a5050505050505050505050565b600081519050919050565b600082825260208201905092915050565b6000819050602082019050919050565b61278f816125b4565b82525050565b60006127a18383612786565b60208301905092915050565b6000602082019050919050565b60006127c58261275a565b6127cf8185612765565b93506127da83612776565b8060005b8381101561280b5781516127f28882612795565b97506127fd836127ad565b9250506001810190506127de565b5085935050505092915050565b6000602082019050818103600083015261283281846127ba565b905092915050565b60008060408385031215612851576128506125af565b5b600061285f858286016125d5565b9250506020612870858286016125d5565b9150509250929050565b600060208201905061288f6000830184612696565b92915050565b61289e816126a5565b81146128a957600080fd5b50565b6000813590506128bb81612895565b92915050565b600080604083850312156128d8576128d76125af565b5b60006128e6858286016125d5565b92505060206128f7858286016128ac565b9150509250929050565b60006020820190506129166000830184612617565b92915050565b60006020820190506129316000830184612658565b92915050565b61294081612646565b82525050565b61294f81612667565b82525050565b61295e8161268a565b82525050565b61296d816126a5565b82525050565b6101408201600082015161298a6000850182612786565b50602082015161299d6020850182612786565b5060408201516129b06040850182612937565b5060608201516129c36060850182612946565b5060808201516129d66080850182612955565b5060a08201516129e960a0850182612955565b5060c08201516129fc60c0850182612964565b5060e0820151612a0f60e0850182612964565b50610100820151612a24610100850182612955565b50610120820151612a39610120850182612964565b50505050565b600061014082019050612a556000830184612973565b92915050565b612a6481612646565b8114612a6f57600080fd5b50565b600081359050612a8181612a5b565b92915050565b600080600060608486031215612aa057612a9f6125af565b5b6000612aae868287016125d5565b9350506020612abf86828701612a72565b9250506040612ad0868287016128ac565b9150509250925092565b600060208284031215612af057612aef6125af565b5b6000612afe848285016128ac565b91505092915050565b600060208284031215612b1d57612b1c6125af565b5b6000612b2b84828501612a72565b91505092915050565b6000602082019050612b4960008301846126af565b92915050565b600081519050919050565b600082825260208201905092915050565b6000819050602082019050919050565b61014082016000820151612b926000850182612786565b506020820151612ba56020850182612786565b506040820151612bb86040850182612937565b506060820151612bcb6060850182612946565b506080820151612bde6080850182612955565b5060a0820151612bf160a0850182612955565b5060c0820151612c0460c0850182612964565b5060e0820151612c1760e0850182612964565b50610100820151612c2c610100850182612955565b50610120820151612c41610120850182612964565b50505050565b6000612c538383612b7b565b6101408301905092915050565b6000602082019050919050565b6000612c7882612b4f565b612c828185612b5a565b9350612c8d83612b6b565b8060005b83811015612cbe578151612ca58882612c47565b9750612cb083612c60565b925050600181019050612c91565b5085935050505092915050565b60006020820190508181036000830152612ce58184612c6d565b905092915050565b600082825260208201905092915050565b7f556e617574686f72697a65643a2063616c6c6572206973206e6f74207468652060008201527f7469636b6574206f776e6572206f72206576656e7420636f6e74726163740000602082015250565b6000612d5a603e83612ced565b9150612d6582612cfe565b604082019050919050565b60006020820190508181036000830152612d8981612d4d565b9050919050565b7f4e487b7100000000000000000000000000000000000000000000000000000000600052601160045260246000fd5b6000612dca826126a5565b9150612dd5836126a5565b925082821015612de857612de7612d90565b5b828203905092915050565b7f4e487b7100000000000000000000000000000000000000000000000000000000600052603260045260246000fd5b7f4e487b7100000000000000000000000000000000000000000000000000000000600052603160045260246000fd5b7f4f6e6c7920746865207469636b6574206f776e65722063616e2073657420697460008201527f20666f722073616c652e00000000000000000000000000000000000000000000602082015250565b6000612ead602a83612ced565b9150612eb882612e51565b604082019050919050565b60006020820190508181036000830152612edc81612ea0565b9050919050565b7f43616e6e6f742073656c6c20612072656465656d6564207469636b65742e0000600082015250565b6000612f19601e83612ced565b9150612f2482612ee3565b602082019050919050565b60006020820190508181036000830152612f4881612f0c565b9050919050565b7f43616e6e6f742073656c6c20616e20696e76616c6964207469636b65742e0000600082015250565b6000612f85601e83612ced565b9150612f9082612f4f565b602082019050919050565b60006020820190508181036000830152612fb481612f78565b9050919050565b7f5265656e7472616e6379206973206e6f7420616c6c6f77656400000000000000600082015250565b6000612ff1601983612ced565b9150612ffc82612fbb565b602082019050919050565b6000602082019050818103600083015261302081612fe4565b9050919050565b7f5469636b65742068617320616c7265616479206265656e2072656465656d656460008201527f2e00000000000000000000000000000000000000000000000000000000000000602082015250565b6000613083602183612ced565b915061308e82613027565b604082019050919050565b600060208201905081810360008301526130b281613076565b9050919050565b7f5472616e7366657220616d6f756e74206d757374206d6174636820746865207460008201527f69636b65742070726963652e0000000000000000000000000000000000000000602082015250565b6000613115602c83612ced565b9150613120826130b9565b604082019050919050565b6000602082019050818103600083015261314481613108565b9050919050565b7f5469636b6574206973206e6f742076616c69642e000000000000000000000000600082015250565b6000613181601483612ced565b915061318c8261314b565b602082019050919050565b600060208201905081810360008301526131b081613174565b9050919050565b60006080820190506131cc6000830187612617565b6131d96020830186612658565b6131e66040830185612658565b6131f360608301846126af565b95945050505050565b7f4f6e6c7920746865207469636b6574206f776e65722063616e2072657475726e60008201527f20746865207469636b65742e0000000000000000000000000000000000000000602082015250565b6000613258602c83612ced565b9150613263826131fc565b604082019050919050565b600060208201905081810360008301526132878161324b565b9050919050565b60006060820190506132a36000830186612617565b6132b06020830185612658565b6132bd60408301846126af565b949350505050565b7f4f6e6c7920746865207469636b6574206f776e65722063616e2063616e63656c60008201527f207468652073616c652e00000000000000000000000000000000000000000000602082015250565b6000613321602a83612ced565b915061332c826132c5565b604082019050919050565b6000602082019050818103600083015261335081613314565b9050919050565b7f5469636b6574206973206e6f7420666f722073616c652e000000000000000000600082015250565b600061338d601783612ced565b915061339882613357565b602082019050919050565b600060208201905081810360008301526133bc81613380565b9050919050565b7f54686973207469636b6574206973206e6f7420666f722073616c652e00000000600082015250565b60006133f9601c83612ced565b9150613404826133c3565b602082019050919050565b60006020820190508181036000830152613428816133ec565b9050919050565b7f506c65617365207375626d6974207468652061736b696e67207072696365206960008201527f6e206f7264657220746f20636f6d706c6574652074686520707572636861736560208201527f2e00000000000000000000000000000000000000000000000000000000000000604082015250565b60006134b1604183612ced565b91506134bc8261342f565b606082019050919050565b600060208201905081810360008301526134e0816134a4565b9050919050565b7f43616e6e6f742062757920616e20696e76616c6964207469636b65742e000000600082015250565b600061351d601d83612ced565b9150613528826134e7565b602082019050919050565b6000602082019050818103600083015261354c81613510565b9050919050565b7f556e617574686f72697a65643a2063616c6c6572206973206e6f74207468652060008201527f6576656e7420636f6e7472616374000000000000000000000000000000000000602082015250565b60006135af602e83612ced565b91506135ba82613553565b604082019050919050565b600060208201905081810360008301526135de816135a2565b9050919050565b7f496e73756666696369656e742062616c616e636520746f206d616b652072656660008201527f756e647300000000000000000000000000000000000000000000000000000000602082015250565b6000613641602483612ced565b915061364c826135e5565b604082019050919050565b6000602082019050818103600083015261367081613634565b9050919050565b600081905092915050565b50565b6000613692600083613677565b915061369d82613682565b600082019050919050565b60006136b382613685565b9150819050919050565b7f4661696c656420746f2073656e64204574686572000000000000000000000000600082015250565b60006136f3601483612ced565b91506136fe826136bd565b602082019050919050565b60006020820190508181036000830152613722816136e6565b9050919050565b6000819050919050565b600061374e61374961374484612626565b613729565b612626565b9050919050565b600061376082613733565b9050919050565b600061377282613755565b9050919050565b61378281613767565b82525050565b600060608201905061379d6000830186612617565b6137aa6020830185613779565b6137b760408301846126af565b949350505050565b60006137ca826126a5565b915060008214156137de576137dd612d90565b5b600182039050919050565b60006137f4826126a5565b91507fffffffffffffffffffffffffffffffffffffffffffffffffffffffffffffffff82141561382757613826612d90565b5b600182019050919050565b6000819050919050565b61384d613848826125b4565b613832565b82525050565b60008160601b9050919050565b600061386b82613853565b9050919050565b600061387d82613860565b9050919050565b61389561389082612646565b613872565b82525050565b6000819050919050565b6138b66138b1826126a5565b61389b565b82525050565b60006138c8828661383c565b6020820191506138d88285613884565b6014820191506138e882846138a5565b602082019150819050949350505050565b600060a08201905061390e6000830188612617565b61391b6020830187612617565b613928604083018661267b565b6139356060830185612658565b61394260808301846126af565b9695505050505050565b7f4e487b7100000000000000000000000000000000000000000000000000000000600052604160045260246000fd5b7f4f6e6c7920746865207469636b6574206f776e65722063616e2072656465656d60008201527f2069742e00000000000000000000000000000000000000000000000000000000602082015250565b60006139d7602483612ced565b91506139e28261397b565b604082019050919050565b60006020820190508181036000830152613a06816139ca565b9050919050565b6000604082019050613a226000830185612617565b613a2f6020830184612658565b939250505056fea26469706673582212207a57c2ec28b2147d91ef1f293f8953f7d33e87af2aae47a4264d93dacbd2406464736f6c634300080a0033",
  "immutableReferences": {},
  "source": "// SPDX-License-Identifier: MIT\npragma solidity ^0.8.10;\n\ncontract TicketContract {\n  struct Ticket {\n    bytes32 ticketID;\n    bytes32 eventID;\n    address ticketOwner;\n    uint64 purchasedDate;\n    bool isRedeemed;\n    bool isValid;\n    uint256 ticketPrice;\n    uint256 originalPrice;\n    bool forSale;\n    uint256 salePrice;\n  }\n  //mapping for allTickets for the TicketContract\n  mapping(bytes32 => Ticket) public allTickets;\n  // mapping for allEvents but by eventID\n  mapping(bytes32 => bytes32[]) public ticketsByEvent;\n  // array to keep all IDs for tickets\n  bytes32[] public allTicketIDs;\n  // address of EventContract, only this address can create new tickets\n  address public eventContractAddress;\n  // number of all tickets\n  uint256 public totalTickets;\n  // variable for this -> The reentrancy guard is a mechanism that prevents reentry to certain functions during\n  // their execution. This is particularly important for functions that involve the transfer of funds.\n  bool private locked;\n  // mapping for better and more optimalize indexing\n  mapping(bytes32 => uint256) private ticketIndexInEvent;\n\n  function setEventContractAddress(address _eventContractAddress) external {\n    eventContractAddress = _eventContractAddress;\n  }\n\n  // event emitters\n  event TicketTransferred(bytes32 ticketID, address from, address to, uint256 newPrice);\n  event TicketCreated(\n    bytes32 ticketID,\n    bytes32 eventID,\n    uint64 purchasedDate,\n    address buyer,\n    uint256 price\n  );\n  event TicketRedeemed(bytes32 ticketID, address redeemer);\n  event TicketDeleted(bytes32 ticketID);\n  event TicketReturned(bytes32 ticketID, address sender, uint256 refundAmount);\n  event TicketRefunded(bytes32 ticketID, address ticketOwner, uint256 refundAmount);\n  event EventCancelled(bytes32 eventID);\n\n  event TicketSetForSale(bytes32 ticketID);\n  event TicketSaleCancelled(bytes32 ticketID);\n  event TicketPurchasedFromMarket(\n    bytes32 ticketID,\n    address oldOwner,\n    address newOwner,\n    uint256 price\n  );\n\n  // constructor for create new instance of TicketContract\n  constructor(address _eventContractAddress) {\n    eventContractAddress = _eventContractAddress;\n  }\n  // modifier - check if request send EventContract\n  modifier onlyEventContract() {\n    require(msg.sender == eventContractAddress, 'Unauthorized: caller is not the event contract');\n    _;\n  }\n  // modifier - check if ticket is not redeemed yet. If yes user cant sell tickets to others\n  modifier isNotRedeemed(bytes32 _ticketID) {\n    require(!allTickets[_ticketID].isRedeemed, 'Ticket has already been redeemed.');\n    _;\n  }\n  // modifier - The reentrancy guard is a mechanism that prevents reentry to certain functions during\n  // their execution. This is particularly important for functions that involve the transfer of funds.\n  modifier noReentrancy() {\n    require(!locked, 'Reentrancy is not allowed');\n    locked = true;\n    _;\n    locked = false;\n  }\n  // Function to create new ticket for eventID\n  // @param _eventID is ID of event, for which is ticket\n  // @param _buyer is address of user, which ticket buy\n  // @param _tickerPrice is price of the ticket\n  // @ return - ID of new ticket\n  function createNewTicket(\n    bytes32 _eventID,\n    address _buyer,\n    uint256 _ticketPrice\n  ) external onlyEventContract returns (bytes32) {\n    bytes32 ticketID = keccak256(abi.encodePacked(_eventID, _buyer, block.timestamp));\n    uint64 _purchasedDate = uint64(block.timestamp);\n    allTickets[ticketID] = Ticket({\n      ticketID: ticketID,\n      eventID: _eventID,\n      ticketOwner: _buyer,\n      purchasedDate: _purchasedDate,\n      isRedeemed: false,\n      isValid: true,\n      ticketPrice: _ticketPrice,\n      originalPrice: _ticketPrice,\n      forSale: false,\n      salePrice: 0\n    });\n    ticketsByEvent[_eventID].push(ticketID);\n    allTicketIDs.push(ticketID);\n    totalTickets++;\n\n    ticketIndexInEvent[ticketID] = ticketsByEvent[_eventID].length - 1;\n\n    emit TicketCreated(ticketID, _eventID, _purchasedDate, _buyer, _ticketPrice);\n\n    return ticketID;\n  }\n  // function to change ownership of the ticket, its for selling tickets between users\n  // @param _eventID is ID of event, for which is ticket\n  // @param _buyer is address of user, which ticket buy\n  // @return - bool value for FE handling\n  function transferTicket(\n    bytes32 _ticketID\n  ) external payable noReentrancy isNotRedeemed(_ticketID) {\n    Ticket storage ticket = allTickets[_ticketID];\n    require(msg.value == ticket.ticketPrice, 'Transfer amount must match the ticket price.');\n    require(ticket.isValid, 'Ticket is not valid.');\n\n    address oldOwner = ticket.ticketOwner;\n    ticket.ticketOwner = msg.sender;\n    ticket.ticketPrice = msg.value;\n\n    payable(oldOwner).transfer(msg.value);\n    emit TicketTransferred(_ticketID, oldOwner, msg.sender, msg.value);\n  }\n  // function return info about ticket with _ticketID\n  function getTicketInfo(bytes32 _ticketID) external view returns (Ticket memory) {\n    return allTickets[_ticketID];\n  }\n  // function to return array of tickets for one specific event\n  function getTicketsForEvent(bytes32 _eventID) external view returns (bytes32[] memory) {\n    return ticketsByEvent[_eventID];\n  }\n  // function to return tickets for one specific user\n  function getMyTickets() external view returns (Ticket[] memory) {\n    uint totalTicketsCount = 0;\n\n    for (uint256 i = 0; i < allTicketIDs.length; i++) {\n      if (allTickets[allTicketIDs[i]].ticketOwner == msg.sender) {\n        totalTicketsCount++;\n      }\n    }\n\n    Ticket[] memory ownedTickets = new Ticket[](totalTicketsCount);\n    uint256 index = 0;\n    for (uint256 i = 0; i < allTicketIDs.length; i++) {\n      if (allTickets[allTicketIDs[i]].ticketOwner == msg.sender) {\n        ownedTickets[index] = allTickets[allTicketIDs[i]];\n        index++;\n      }\n    }\n\n    return ownedTickets;\n  }\n  // function to flag ticket as reedeemed, which means user arrive on the event, so\n  // any other function cant run\n  function redeemTicket(bytes32 _ticketID) external {\n    require(\n      allTickets[_ticketID].ticketOwner == msg.sender,\n      'Only the ticket owner can redeem it.'\n    );\n    require(!allTickets[_ticketID].isRedeemed, 'Ticket has already been redeemed.');\n    require(allTickets[_ticketID].isValid, 'Ticket is not valid.');\n\n    allTickets[_ticketID].isRedeemed = true;\n\n    emit TicketRedeemed(_ticketID, msg.sender);\n  }\n  // function to verify ticket\n  function verifyTicket(bytes32 _ticketID, bytes32 _eventID) external view returns (bool) {\n    Ticket storage _ticket = allTickets[_ticketID];\n    if (_ticket.ticketID != 0 && _ticket.eventID == _eventID && _ticket.isValid) {\n      return true;\n    } else {\n      return false;\n    }\n  }\n  // function to delete one specific ticket with id\n  function deleteTicket(bytes32 _ticketID) external {\n    require(\n      msg.sender == allTickets[_ticketID].ticketOwner || msg.sender == eventContractAddress,\n      'Unauthorized: caller is not the ticket owner or event contract'\n    );\n\n    bytes32 eventId = allTickets[_ticketID].eventID;\n    uint index = ticketIndexInEvent[_ticketID];\n    uint lastIndex = ticketsByEvent[eventId].length - 1;\n\n    if (index != lastIndex) {\n      bytes32 lastTicketID = ticketsByEvent[eventId][lastIndex];\n      ticketsByEvent[eventId][index] = lastTicketID;\n      ticketIndexInEvent[lastTicketID] = index;\n    }\n    ticketsByEvent[eventId].pop();\n    delete ticketIndexInEvent[_ticketID];\n    delete allTickets[_ticketID];\n\n    emit TicketDeleted(_ticketID);\n  }\n  // Function to return a ticket and refund the purchase price\n  function returnTicket(bytes32 _ticketID) external {\n    Ticket storage ticket = allTickets[_ticketID];\n    require(ticket.ticketOwner == msg.sender, 'Only the ticket owner can return the ticket.');\n    require(!ticket.isRedeemed, 'Ticket has already been redeemed.');\n    require(ticket.isValid, 'Ticket is not valid.');\n\n    uint256 refundAmount = ticket.originalPrice;\n    address payable ownerPayable = payable(msg.sender);\n\n    ownerPayable.transfer(refundAmount);\n\n    removeTicketFromEventList(ticket.eventID, _ticketID);\n    delete allTickets[_ticketID];\n    delete ticketIndexInEvent[_ticketID];\n\n    emit TicketReturned(_ticketID, msg.sender, refundAmount);\n  }\n  // Function to remove a ticket from the ticketsByEvent mapping\n  function removeTicketFromEventList(bytes32 _eventId, bytes32 _ticketID) private {\n    uint index = ticketIndexInEvent[_ticketID];\n    uint lastIndex = ticketsByEvent[_eventId].length - 1;\n    if (index != lastIndex) {\n      bytes32 lastTicketID = ticketsByEvent[_eventId][lastIndex];\n      ticketsByEvent[_eventId][index] = lastTicketID;\n      ticketIndexInEvent[lastTicketID] = index;\n    }\n    ticketsByEvent[_eventId].pop();\n  }\n  // function to delete tickets, return all eth for ticketOwners atc. when event is cancelled\n  function cancelAllTickets(bytes32 eventId) external onlyEventContract {\n    bytes32[] storage tickets = ticketsByEvent[eventId];\n\n    if (tickets.length == 0) {\n      emit EventCancelled(eventId);\n      delete ticketsByEvent[eventId];\n      return;\n    }\n\n    for (uint i = 0; i < tickets.length; i++) {\n      bytes32 ticketId = tickets[i];\n      Ticket storage ticket = allTickets[ticketId];\n\n      if (ticket.isValid && !ticket.isRedeemed) {\n        uint256 refundAmount = ticket.originalPrice;\n        address payable ticketOwner = payable(ticket.ticketOwner);\n\n        ticket.isValid = false;\n\n        require(address(this).balance >= refundAmount, 'Insufficient balance to make refunds');\n        (bool sent, ) = ticketOwner.call{value: refundAmount}('');\n        require(sent, 'Failed to send Ether');\n\n        emit TicketRefunded(ticketId, ticketOwner, refundAmount);\n        removeTicketFromAllTickets(ticketId);\n        totalTickets--;\n      }\n\n      delete allTickets[ticketId];\n      delete ticketIndexInEvent[ticketId];\n    }\n\n    delete ticketsByEvent[eventId];\n    emit EventCancelled(eventId);\n  }\n\n  function removeTicketFromAllTickets(bytes32 ticketId) private {\n    uint index = ticketIndexInEvent[ticketId];\n    uint lastIndex = allTicketIDs.length - 1;\n\n    if (index != lastIndex) {\n      bytes32 lastTicketId = allTicketIDs[lastIndex];\n      allTicketIDs[index] = lastTicketId;\n      ticketIndexInEvent[lastTicketId] = index;\n    }\n    allTicketIDs.pop();\n    delete ticketIndexInEvent[ticketId];\n  }\n  // function to set ticket for sale\n  function setTicketForSale(bytes32 _ticketID, uint256 _price) external {\n    Ticket storage _ticket = allTickets[_ticketID];\n    require(msg.sender == _ticket.ticketOwner, 'Only the ticket owner can set it for sale.');\n    require(!_ticket.isRedeemed, 'Cannot sell a redeemed ticket.');\n    require(_ticket.isValid, 'Cannot sell an invalid ticket.');\n\n    _ticket.forSale = true;\n    _ticket.salePrice = _price;\n\n    emit TicketSetForSale(_ticketID);\n  }\n  // function to set ticket not for sale\n  function cancelTicketForSale(bytes32 _ticketID) external {\n    Ticket storage _ticket = allTickets[_ticketID];\n    require(msg.sender == _ticket.ticketOwner, 'Only the ticket owner can cancel the sale.');\n    require(_ticket.forSale, 'Ticket is not for sale.');\n\n    _ticket.forSale = false;\n    _ticket.salePrice = 0;\n\n    emit TicketSaleCancelled(_ticketID);\n  }\n\n  // function to buy ticket from market\n  function buyTicketFromMarket(bytes32 _ticketID) external payable noReentrancy {\n    Ticket storage _ticket = allTickets[_ticketID];\n    require(_ticket.forSale, 'This ticket is not for sale.');\n    require(\n      msg.value == _ticket.salePrice,\n      'Please submit the asking price in order to complete the purchase.'\n    );\n    require(_ticket.isValid, 'Cannot buy an invalid ticket.');\n\n    address oldOwner = _ticket.ticketOwner;\n    _ticket.ticketOwner = msg.sender;\n    _ticket.forSale = false;\n    _ticket.salePrice = 0;\n\n    payable(oldOwner).transfer(msg.value);\n\n    emit TicketPurchasedFromMarket(_ticketID, oldOwner, msg.sender, msg.value);\n  }\n}\n",
  "sourcePath": "/Users/janmrakava/Documents/GitHub/blockticket_blockchain/client/contracts/Ticket.sol",
  "compiler": {
    "name": "solc",
    "version": "0.8.10+commit.fc410830.Emscripten.clang"
  },
  "schemaVersion": "3.4.16",
  "updatedAt": "2024-04-26T19:32:31.319Z",
  "networkType": "ethereum",
  "devdoc": {
    "kind": "dev",
    "methods": {},
    "version": 1
  },
  "userdoc": {
    "kind": "user",
    "methods": {},
    "version": 1
  }
}