{
  "contractName": "TicketContract",
  "abi": [
    {
      "inputs": [
        {
          "internalType": "address",
          "name": "_eventContractAddress",
          "type": "address"
        }
      ],
      "stateMutability": "nonpayable",
      "type": "constructor"
    },
    {
      "anonymous": false,
      "inputs": [
        {
          "indexed": true,
          "internalType": "bytes32",
          "name": "message",
          "type": "bytes32"
        },
        {
          "indexed": false,
          "internalType": "bytes32",
          "name": "data",
          "type": "bytes32"
        }
      ],
      "name": "Debug",
      "type": "event"
    },
    {
      "anonymous": false,
      "inputs": [
        {
          "indexed": false,
          "internalType": "string",
          "name": "message",
          "type": "string"
        },
        {
          "indexed": false,
          "internalType": "uint256",
          "name": "data",
          "type": "uint256"
        }
      ],
      "name": "DebugUint",
      "type": "event"
    },
    {
      "anonymous": false,
      "inputs": [
        {
          "indexed": false,
          "internalType": "bytes32",
          "name": "eventID",
          "type": "bytes32"
        }
      ],
      "name": "EventCancelled",
      "type": "event"
    },
    {
      "anonymous": false,
      "inputs": [
        {
          "indexed": false,
          "internalType": "bytes32",
          "name": "ticketID",
          "type": "bytes32"
        },
        {
          "indexed": false,
          "internalType": "bytes32",
          "name": "eventID",
          "type": "bytes32"
        },
        {
          "indexed": false,
          "internalType": "uint64",
          "name": "purchasedDate",
          "type": "uint64"
        },
        {
          "indexed": false,
          "internalType": "address",
          "name": "buyer",
          "type": "address"
        },
        {
          "indexed": false,
          "internalType": "uint256",
          "name": "price",
          "type": "uint256"
        }
      ],
      "name": "TicketCreated",
      "type": "event"
    },
    {
      "anonymous": false,
      "inputs": [
        {
          "indexed": false,
          "internalType": "bytes32",
          "name": "ticketID",
          "type": "bytes32"
        }
      ],
      "name": "TicketDeleted",
      "type": "event"
    },
    {
      "anonymous": false,
      "inputs": [
        {
          "indexed": false,
          "internalType": "bytes32",
          "name": "ticketID",
          "type": "bytes32"
        },
        {
          "indexed": false,
          "internalType": "address",
          "name": "oldOwner",
          "type": "address"
        },
        {
          "indexed": false,
          "internalType": "address",
          "name": "newOwner",
          "type": "address"
        },
        {
          "indexed": false,
          "internalType": "uint256",
          "name": "price",
          "type": "uint256"
        }
      ],
      "name": "TicketPurchasedFromMarket",
      "type": "event"
    },
    {
      "anonymous": false,
      "inputs": [
        {
          "indexed": false,
          "internalType": "bytes32",
          "name": "ticketID",
          "type": "bytes32"
        },
        {
          "indexed": false,
          "internalType": "address",
          "name": "redeemer",
          "type": "address"
        }
      ],
      "name": "TicketRedeemed",
      "type": "event"
    },
    {
      "anonymous": false,
      "inputs": [
        {
          "indexed": false,
          "internalType": "bytes32",
          "name": "ticketID",
          "type": "bytes32"
        },
        {
          "indexed": false,
          "internalType": "address",
          "name": "ticketOwner",
          "type": "address"
        },
        {
          "indexed": false,
          "internalType": "uint256",
          "name": "refundAmount",
          "type": "uint256"
        }
      ],
      "name": "TicketRefunded",
      "type": "event"
    },
    {
      "anonymous": false,
      "inputs": [
        {
          "indexed": false,
          "internalType": "bytes32",
          "name": "ticketID",
          "type": "bytes32"
        },
        {
          "indexed": false,
          "internalType": "address",
          "name": "sender",
          "type": "address"
        },
        {
          "indexed": false,
          "internalType": "uint256",
          "name": "refundAmount",
          "type": "uint256"
        }
      ],
      "name": "TicketReturned",
      "type": "event"
    },
    {
      "anonymous": false,
      "inputs": [
        {
          "indexed": false,
          "internalType": "bytes32",
          "name": "ticketID",
          "type": "bytes32"
        }
      ],
      "name": "TicketSaleCancelled",
      "type": "event"
    },
    {
      "anonymous": false,
      "inputs": [
        {
          "indexed": false,
          "internalType": "bytes32",
          "name": "ticketID",
          "type": "bytes32"
        }
      ],
      "name": "TicketSetForSale",
      "type": "event"
    },
    {
      "anonymous": false,
      "inputs": [
        {
          "indexed": false,
          "internalType": "bytes32",
          "name": "ticketID",
          "type": "bytes32"
        },
        {
          "indexed": false,
          "internalType": "address",
          "name": "from",
          "type": "address"
        },
        {
          "indexed": false,
          "internalType": "address",
          "name": "to",
          "type": "address"
        },
        {
          "indexed": false,
          "internalType": "uint256",
          "name": "newPrice",
          "type": "uint256"
        }
      ],
      "name": "TicketTransferred",
      "type": "event"
    },
    {
      "inputs": [
        {
          "internalType": "uint256",
          "name": "",
          "type": "uint256"
        }
      ],
      "name": "allTicketIDs",
      "outputs": [
        {
          "internalType": "bytes32",
          "name": "",
          "type": "bytes32"
        }
      ],
      "stateMutability": "view",
      "type": "function",
      "constant": true
    },
    {
      "inputs": [
        {
          "internalType": "bytes32",
          "name": "",
          "type": "bytes32"
        }
      ],
      "name": "allTickets",
      "outputs": [
        {
          "internalType": "bytes32",
          "name": "ticketID",
          "type": "bytes32"
        },
        {
          "internalType": "bytes32",
          "name": "eventID",
          "type": "bytes32"
        },
        {
          "internalType": "address",
          "name": "ticketOwner",
          "type": "address"
        },
        {
          "internalType": "uint64",
          "name": "purchasedDate",
          "type": "uint64"
        },
        {
          "internalType": "bool",
          "name": "isRedeemed",
          "type": "bool"
        },
        {
          "internalType": "bool",
          "name": "isValid",
          "type": "bool"
        },
        {
          "internalType": "uint256",
          "name": "ticketPrice",
          "type": "uint256"
        },
        {
          "internalType": "uint256",
          "name": "originalPrice",
          "type": "uint256"
        },
        {
          "internalType": "bool",
          "name": "forSale",
          "type": "bool"
        },
        {
          "internalType": "uint256",
          "name": "salePrice",
          "type": "uint256"
        }
      ],
      "stateMutability": "view",
      "type": "function",
      "constant": true
    },
    {
      "inputs": [],
      "name": "eventContractAddress",
      "outputs": [
        {
          "internalType": "address",
          "name": "",
          "type": "address"
        }
      ],
      "stateMutability": "view",
      "type": "function",
      "constant": true
    },
    {
      "inputs": [
        {
          "internalType": "bytes32",
          "name": "",
          "type": "bytes32"
        },
        {
          "internalType": "uint256",
          "name": "",
          "type": "uint256"
        }
      ],
      "name": "ticketsByEvent",
      "outputs": [
        {
          "internalType": "bytes32",
          "name": "",
          "type": "bytes32"
        }
      ],
      "stateMutability": "view",
      "type": "function",
      "constant": true
    },
    {
      "inputs": [],
      "name": "totalTickets",
      "outputs": [
        {
          "internalType": "uint256",
          "name": "",
          "type": "uint256"
        }
      ],
      "stateMutability": "view",
      "type": "function",
      "constant": true
    },
    {
      "inputs": [
        {
          "internalType": "address",
          "name": "_eventContractAddress",
          "type": "address"
        }
      ],
      "name": "setEventContractAddress",
      "outputs": [],
      "stateMutability": "nonpayable",
      "type": "function"
    },
    {
      "inputs": [
        {
          "internalType": "bytes32",
          "name": "_eventID",
          "type": "bytes32"
        },
        {
          "internalType": "uint256",
          "name": "_ticketPrice",
          "type": "uint256"
        }
      ],
      "name": "createNewTicket",
      "outputs": [
        {
          "internalType": "bytes32",
          "name": "",
          "type": "bytes32"
        }
      ],
      "stateMutability": "payable",
      "type": "function",
      "payable": true
    },
    {
      "inputs": [
        {
          "internalType": "bytes32",
          "name": "_ticketID",
          "type": "bytes32"
        }
      ],
      "name": "transferTicket",
      "outputs": [],
      "stateMutability": "payable",
      "type": "function",
      "payable": true
    },
    {
      "inputs": [
        {
          "internalType": "bytes32",
          "name": "_ticketID",
          "type": "bytes32"
        }
      ],
      "name": "getTicketInfo",
      "outputs": [
        {
          "components": [
            {
              "internalType": "bytes32",
              "name": "ticketID",
              "type": "bytes32"
            },
            {
              "internalType": "bytes32",
              "name": "eventID",
              "type": "bytes32"
            },
            {
              "internalType": "address",
              "name": "ticketOwner",
              "type": "address"
            },
            {
              "internalType": "uint64",
              "name": "purchasedDate",
              "type": "uint64"
            },
            {
              "internalType": "bool",
              "name": "isRedeemed",
              "type": "bool"
            },
            {
              "internalType": "bool",
              "name": "isValid",
              "type": "bool"
            },
            {
              "internalType": "uint256",
              "name": "ticketPrice",
              "type": "uint256"
            },
            {
              "internalType": "uint256",
              "name": "originalPrice",
              "type": "uint256"
            },
            {
              "internalType": "bool",
              "name": "forSale",
              "type": "bool"
            },
            {
              "internalType": "uint256",
              "name": "salePrice",
              "type": "uint256"
            }
          ],
          "internalType": "struct TicketContract.Ticket",
          "name": "",
          "type": "tuple"
        }
      ],
      "stateMutability": "view",
      "type": "function",
      "constant": true
    },
    {
      "inputs": [
        {
          "internalType": "bytes32",
          "name": "_eventID",
          "type": "bytes32"
        }
      ],
      "name": "getTicketsForEvent",
      "outputs": [
        {
          "internalType": "bytes32[]",
          "name": "",
          "type": "bytes32[]"
        }
      ],
      "stateMutability": "view",
      "type": "function",
      "constant": true
    },
    {
      "inputs": [],
      "name": "getMyTickets",
      "outputs": [
        {
          "components": [
            {
              "internalType": "bytes32",
              "name": "ticketID",
              "type": "bytes32"
            },
            {
              "internalType": "bytes32",
              "name": "eventID",
              "type": "bytes32"
            },
            {
              "internalType": "address",
              "name": "ticketOwner",
              "type": "address"
            },
            {
              "internalType": "uint64",
              "name": "purchasedDate",
              "type": "uint64"
            },
            {
              "internalType": "bool",
              "name": "isRedeemed",
              "type": "bool"
            },
            {
              "internalType": "bool",
              "name": "isValid",
              "type": "bool"
            },
            {
              "internalType": "uint256",
              "name": "ticketPrice",
              "type": "uint256"
            },
            {
              "internalType": "uint256",
              "name": "originalPrice",
              "type": "uint256"
            },
            {
              "internalType": "bool",
              "name": "forSale",
              "type": "bool"
            },
            {
              "internalType": "uint256",
              "name": "salePrice",
              "type": "uint256"
            }
          ],
          "internalType": "struct TicketContract.Ticket[]",
          "name": "",
          "type": "tuple[]"
        }
      ],
      "stateMutability": "view",
      "type": "function",
      "constant": true
    },
    {
      "inputs": [
        {
          "internalType": "bytes32",
          "name": "_ticketID",
          "type": "bytes32"
        }
      ],
      "name": "redeemTicket",
      "outputs": [],
      "stateMutability": "nonpayable",
      "type": "function"
    },
    {
      "inputs": [
        {
          "internalType": "bytes32",
          "name": "_ticketID",
          "type": "bytes32"
        },
        {
          "internalType": "bytes32",
          "name": "_eventID",
          "type": "bytes32"
        }
      ],
      "name": "verifyTicket",
      "outputs": [
        {
          "internalType": "bool",
          "name": "",
          "type": "bool"
        }
      ],
      "stateMutability": "view",
      "type": "function",
      "constant": true
    },
    {
      "inputs": [
        {
          "internalType": "bytes32",
          "name": "_ticketID",
          "type": "bytes32"
        }
      ],
      "name": "deleteTicket",
      "outputs": [],
      "stateMutability": "nonpayable",
      "type": "function"
    },
    {
      "inputs": [
        {
          "internalType": "bytes32",
          "name": "_ticketID",
          "type": "bytes32"
        }
      ],
      "name": "returnTicket",
      "outputs": [],
      "stateMutability": "nonpayable",
      "type": "function"
    },
    {
      "inputs": [
        {
          "internalType": "bytes32",
          "name": "eventId",
          "type": "bytes32"
        }
      ],
      "name": "cancelAllTickets",
      "outputs": [],
      "stateMutability": "nonpayable",
      "type": "function"
    },
    {
      "inputs": [
        {
          "internalType": "bytes32",
          "name": "_ticketID",
          "type": "bytes32"
        },
        {
          "internalType": "uint256",
          "name": "_price",
          "type": "uint256"
        }
      ],
      "name": "setTicketForSale",
      "outputs": [],
      "stateMutability": "nonpayable",
      "type": "function"
    },
    {
      "inputs": [
        {
          "internalType": "bytes32",
          "name": "_ticketID",
          "type": "bytes32"
        }
      ],
      "name": "cancelTicketForSale",
      "outputs": [],
      "stateMutability": "nonpayable",
      "type": "function"
    },
    {
      "inputs": [
        {
          "internalType": "bytes32",
          "name": "_ticketID",
          "type": "bytes32"
        }
      ],
      "name": "buyTicketFromMarket",
      "outputs": [],
      "stateMutability": "payable",
      "type": "function",
      "payable": true
    }
  ],
  "bytecode": "0x60806040523480156200001157600080fd5b5060405162003b3638038062003b368339818101604052810190620000379190620000e9565b80600360006101000a81548173ffffffffffffffffffffffffffffffffffffffff021916908373ffffffffffffffffffffffffffffffffffffffff160217905550506200011b565b600080fd5b600073ffffffffffffffffffffffffffffffffffffffff82169050919050565b6000620000b18262000084565b9050919050565b620000c381620000a4565b8114620000cf57600080fd5b50565b600081519050620000e381620000b8565b92915050565b6000602082840312156200010257620001016200007f565b5b60006200011284828501620000d2565b91505092915050565b613a0b806200012b6000396000f3fe6080604052600436106101145760003560e01c806387e9a744116100a0578063d5a114e711610064578063d5a114e7146103b3578063d7776248146103f0578063dd11247e14610419578063e1d10d8514610444578063edd8741d1461046f57610114565b806387e9a744146102df578063924b5a071461031c578063adcb8bdb14610345578063afcd24521461036e578063bf3f733e1461038a57610114565b806338d986c2116100e757806338d986c214610202578063422375ec1461022b578063526a98ac14610268578063790f770e1461029857806384d4f1a7146102b457610114565b8063090a855614610119578063181fcc891461015f5780632a0d88071461019c578063368d804d146101c5575b600080fd5b34801561012557600080fd5b50610140600480360381019061013b91906125dc565b610498565b6040516101569a999897969594939291906126b0565b60405180910390f35b34801561016b57600080fd5b50610186600480360381019061018191906125dc565b610547565b604051610193919061280a565b60405180910390f35b3480156101a857600080fd5b506101c360048036038101906101be91906125dc565b6105b2565b005b3480156101d157600080fd5b506101ec60048036038101906101e7919061282c565b6108d6565b6040516101f9919061286c565b60405180910390f35b34801561020e57600080fd5b50610229600480360381019061022491906128b3565b61093c565b005b34801561023757600080fd5b50610252600480360381019061024d91906128b3565b610ae9565b60405161025f91906128f3565b60405180910390f35b610282600480360381019061027d91906128b3565b610b1a565b60405161028f91906128f3565b60405180910390f35b6102b260048036038101906102ad91906125dc565b610e6d565b005b3480156102c057600080fd5b506102c9611103565b6040516102d6919061290e565b60405180910390f35b3480156102eb57600080fd5b50610306600480360381019061030191906125dc565b611129565b6040516103139190612a31565b60405180910390f35b34801561032857600080fd5b50610343600480360381019061033e91906125dc565b611261565b005b34801561035157600080fd5b5061036c600480360381019061036791906125dc565b611522565b005b610388600480360381019061038391906125dc565b61167d565b005b34801561039657600080fd5b506103b160048036038101906103ac91906125dc565b61191d565b005b3480156103bf57600080fd5b506103da60048036038101906103d59190612a4d565b611d87565b6040516103e791906128f3565b60405180910390f35b3480156103fc57600080fd5b5061041760048036038101906104129190612aa6565b611dab565b005b34801561042557600080fd5b5061042e611def565b60405161043b9190612ad3565b60405180910390f35b34801561045057600080fd5b50610459611df5565b6040516104669190612c6a565b60405180910390f35b34801561047b57600080fd5b50610496600480360381019061049191906125dc565b612133565b005b60006020528060005260406000206000915090508060000154908060010154908060020160009054906101000a900473ffffffffffffffffffffffffffffffffffffffff16908060020160149054906101000a900467ffffffffffffffff169080600201601c9054906101000a900460ff169080600201601d9054906101000a900460ff16908060030154908060040154908060050160009054906101000a900460ff1690806006015490508a565b6060600160008381526020019081526020016000208054806020026020016040519081016040528092919081815260200182805480156105a657602002820191906000526020600020905b815481526020019060010190808311610592575b50505050509050919050565b60008082815260200190815260200160002060020160009054906101000a900473ffffffffffffffffffffffffffffffffffffffff1673ffffffffffffffffffffffffffffffffffffffff163373ffffffffffffffffffffffffffffffffffffffff16148061066e5750600360009054906101000a900473ffffffffffffffffffffffffffffffffffffffff1673ffffffffffffffffffffffffffffffffffffffff163373ffffffffffffffffffffffffffffffffffffffff16145b6106ad576040517f08c379a00000000000000000000000000000000000000000000000000000000081526004016106a490612d0f565b60405180910390fd5b600080600083815260200190815260200160002060010154905060006006600084815260200190815260200160002054905060006001806000858152602001908152602001600020805490506107039190612d5e565b905080821461078e57600060016000858152602001908152602001600020828154811061073357610732612d92565b5b906000526020600020015490508060016000868152602001908152602001600020848154811061076657610765612d92565b5b9060005260206000200181905550826006600083815260200190815260200160002081905550505b600160008481526020019081526020016000208054806107b1576107b0612dc1565b5b60019003818190600052602060002001600090559055600660008581526020019081526020016000206000905560008085815260200190815260200160002060008082016000905560018201600090556002820160006101000a81549073ffffffffffffffffffffffffffffffffffffffff02191690556002820160146101000a81549067ffffffffffffffff021916905560028201601c6101000a81549060ff021916905560028201601d6101000a81549060ff0219169055600382016000905560048201600090556005820160006101000a81549060ff0219169055600682016000905550507fd9a771705fc066b34f0996a0abae6a891c652869ac6b6e3b1e00e4e6d4638ea8846040516108c891906128f3565b60405180910390a150505050565b60008060008085815260200190815260200160002090506000801b8160000154141580156109075750828160010154145b8015610921575080600201601d9054906101000a900460ff165b15610930576001915050610936565b60009150505b92915050565b600080600084815260200190815260200160002090508060020160009054906101000a900473ffffffffffffffffffffffffffffffffffffffff1673ffffffffffffffffffffffffffffffffffffffff163373ffffffffffffffffffffffffffffffffffffffff16146109e4576040517f08c379a00000000000000000000000000000000000000000000000000000000081526004016109db90612e62565b60405180910390fd5b80600201601c9054906101000a900460ff1615610a36576040517f08c379a0000000000000000000000000000000000000000000000000000000008152600401610a2d90612ece565b60405180910390fd5b80600201601d9054906101000a900460ff16610a87576040517f08c379a0000000000000000000000000000000000000000000000000000000008152600401610a7e90612f3a565b60405180910390fd5b60018160050160006101000a81548160ff0219169083151502179055508181600601819055507f1c35376aa8f00acbd4bde96b765adb6cf6e0d5e6c991a3dbf994c0e59df2321283604051610adc91906128f3565b60405180910390a1505050565b60016020528160005260406000208181548110610b0557600080fd5b90600052602060002001600091509150505481565b6000600360009054906101000a900473ffffffffffffffffffffffffffffffffffffffff1673ffffffffffffffffffffffffffffffffffffffff163373ffffffffffffffffffffffffffffffffffffffff1614610bac576040517f08c379a0000000000000000000000000000000000000000000000000000000008152600401610ba390612fcc565b60405180910390fd5b6000833342604051602001610bc393929190613076565b60405160208183030381529060405280519060200120905060004290506040518061014001604052808381526020018681526020013373ffffffffffffffffffffffffffffffffffffffff1681526020018267ffffffffffffffff1681526020016000151581526020016001151581526020018581526020018581526020016000151581526020016000815250600080848152602001908152602001600020600082015181600001556020820151816001015560408201518160020160006101000a81548173ffffffffffffffffffffffffffffffffffffffff021916908373ffffffffffffffffffffffffffffffffffffffff16021790555060608201518160020160146101000a81548167ffffffffffffffff021916908367ffffffffffffffff160217905550608082015181600201601c6101000a81548160ff02191690831515021790555060a082015181600201601d6101000a81548160ff02191690831515021790555060c0820151816003015560e082015181600401556101008201518160050160006101000a81548160ff021916908315150217905550610120820151816006015590505060016000868152602001908152602001600020829080600181540180825580915050600190039060005260206000200160009091909190915055600282908060018154018082558091505060019003906000526020600020016000909190919091505560046000815480929190610de5906130b3565b9190505550600180600087815260200190815260200160002080549050610e0c9190612d5e565b60066000848152602001908152602001600020819055507f59f9f03903d250b9088863ea41c64b2abc591d823643e4c51599100592df9f2e8286833388604051610e5a9594939291906130fc565b60405180910390a1819250505092915050565b600560009054906101000a900460ff1615610ebd576040517f08c379a0000000000000000000000000000000000000000000000000000000008152600401610eb49061319b565b60405180910390fd5b6001600560006101000a81548160ff02191690831515021790555080600080828152602001908152602001600020600201601c9054906101000a900460ff1615610f3c576040517f08c379a0000000000000000000000000000000000000000000000000000000008152600401610f339061322d565b60405180910390fd5b6000806000848152602001908152602001600020905080600301543414610f98576040517f08c379a0000000000000000000000000000000000000000000000000000000008152600401610f8f906132bf565b60405180910390fd5b80600201601d9054906101000a900460ff16610fe9576040517f08c379a0000000000000000000000000000000000000000000000000000000008152600401610fe09061332b565b60405180910390fd5b60008160020160009054906101000a900473ffffffffffffffffffffffffffffffffffffffff169050338260020160006101000a81548173ffffffffffffffffffffffffffffffffffffffff021916908373ffffffffffffffffffffffffffffffffffffffff1602179055503482600301819055508073ffffffffffffffffffffffffffffffffffffffff166108fc349081150290604051600060405180830381858888f193505050501580156110a4573d6000803e3d6000fd5b507ffd8856e33cf0872c85c89d373a010f59eac73bef929cb9e91f2a9b4391cfbc6e848233346040516110da949392919061334b565b60405180910390a15050506000600560006101000a81548160ff02191690831515021790555050565b600360009054906101000a900473ffffffffffffffffffffffffffffffffffffffff1681565b6111316124e4565b6000808381526020019081526020016000206040518061014001604052908160008201548152602001600182015481526020016002820160009054906101000a900473ffffffffffffffffffffffffffffffffffffffff1673ffffffffffffffffffffffffffffffffffffffff1673ffffffffffffffffffffffffffffffffffffffff1681526020016002820160149054906101000a900467ffffffffffffffff1667ffffffffffffffff1667ffffffffffffffff16815260200160028201601c9054906101000a900460ff1615151515815260200160028201601d9054906101000a900460ff1615151515815260200160038201548152602001600482015481526020016005820160009054906101000a900460ff161515151581526020016006820154815250509050919050565b600080600083815260200190815260200160002090503373ffffffffffffffffffffffffffffffffffffffff168160020160009054906101000a900473ffffffffffffffffffffffffffffffffffffffff1673ffffffffffffffffffffffffffffffffffffffff1614611309576040517f08c379a000000000000000000000000000000000000000000000000000000000815260040161130090613402565b60405180910390fd5b80600201601c9054906101000a900460ff161561135b576040517f08c379a00000000000000000000000000000000000000000000000000000000081526004016113529061322d565b60405180910390fd5b80600201601d9054906101000a900460ff166113ac576040517f08c379a00000000000000000000000000000000000000000000000000000000081526004016113a39061332b565b60405180910390fd5b60008160040154905060003390508073ffffffffffffffffffffffffffffffffffffffff166108fc839081150290604051600060405180830381858888f19350505050158015611400573d6000803e3d6000fd5b5061140f836001015485612305565b60008085815260200190815260200160002060008082016000905560018201600090556002820160006101000a81549073ffffffffffffffffffffffffffffffffffffffff02191690556002820160146101000a81549067ffffffffffffffff021916905560028201601c6101000a81549060ff021916905560028201601d6101000a81549060ff0219169055600382016000905560048201600090556005820160006101000a81549060ff02191690556006820160009055505060066000858152602001908152602001600020600090557f264639f18b561b2178c34aef36b59305f75022f12fcecc6ed2f1e7b9662542de84338460405161151493929190613422565b60405180910390a150505050565b600080600083815260200190815260200160002090508060020160009054906101000a900473ffffffffffffffffffffffffffffffffffffffff1673ffffffffffffffffffffffffffffffffffffffff163373ffffffffffffffffffffffffffffffffffffffff16146115ca576040517f08c379a00000000000000000000000000000000000000000000000000000000081526004016115c1906134cb565b60405180910390fd5b8060050160009054906101000a900460ff1661161b576040517f08c379a000000000000000000000000000000000000000000000000000000000815260040161161290613537565b60405180910390fd5b60008160050160006101000a81548160ff021916908315150217905550600081600601819055507f994d9be7adae57b16087faeafa892c98ec1428cf788e482656add12969413c878260405161167191906128f3565b60405180910390a15050565b600560009054906101000a900460ff16156116cd576040517f08c379a00000000000000000000000000000000000000000000000000000000081526004016116c49061319b565b60405180910390fd5b6001600560006101000a81548160ff021916908315150217905550600080600083815260200190815260200160002090508060050160009054906101000a900460ff1661174f576040517f08c379a0000000000000000000000000000000000000000000000000000000008152600401611746906135a3565b60405180910390fd5b80600601543414611795576040517f08c379a000000000000000000000000000000000000000000000000000000000815260040161178c9061365b565b60405180910390fd5b80600201601d9054906101000a900460ff166117e6576040517f08c379a00000000000000000000000000000000000000000000000000000000081526004016117dd906136c7565b60405180910390fd5b60008160020160009054906101000a900473ffffffffffffffffffffffffffffffffffffffff169050338260020160006101000a81548173ffffffffffffffffffffffffffffffffffffffff021916908373ffffffffffffffffffffffffffffffffffffffff16021790555060008260050160006101000a81548160ff021916908315150217905550600082600601819055508073ffffffffffffffffffffffffffffffffffffffff166108fc349081150290604051600060405180830381858888f193505050501580156118bf573d6000803e3d6000fd5b507fdad241cbe6e066caf7dfc11828c6b2df6b430a639390ba0675040ed5d2bff243838233346040516118f5949392919061334b565b60405180910390a150506000600560006101000a81548160ff02191690831515021790555050565b600360009054906101000a900473ffffffffffffffffffffffffffffffffffffffff1673ffffffffffffffffffffffffffffffffffffffff163373ffffffffffffffffffffffffffffffffffffffff16146119ad576040517f08c379a00000000000000000000000000000000000000000000000000000000081526004016119a490612fcc565b60405180910390fd5b6000600160008381526020019081526020016000209050600081805490501415611a2d577fc0919dcb7e0b464ce8146ec897e4a566e6a1af62233364998f3da696e08b500b82604051611a0091906128f3565b60405180910390a1600160008381526020019081526020016000206000611a279190612563565b50611d84565b60005b8180549050811015611d2b576000828281548110611a5157611a50612d92565b5b906000526020600020015490506000806000838152602001908152602001600020905080600201601d9054906101000a900460ff168015611aa1575080600201601c9054906101000a900460ff16155b15611c445760008160040154905060008260020160009054906101000a900473ffffffffffffffffffffffffffffffffffffffff169050600083600201601d6101000a81548160ff02191690831515021790555081471015611b38576040517f08c379a0000000000000000000000000000000000000000000000000000000008152600401611b2f90613759565b60405180910390fd5b60008173ffffffffffffffffffffffffffffffffffffffff1683604051611b5e906137aa565b60006040518083038185875af1925050503d8060008114611b9b576040519150601f19603f3d011682016040523d82523d6000602084013e611ba0565b606091505b5050905080611be4576040517f08c379a0000000000000000000000000000000000000000000000000000000008152600401611bdb9061380b565b60405180910390fd5b7f79e3f523ecb0c96b50463daf491f9057d96b06408458e92d8b734c367092a191858385604051611c179392919061388a565b60405180910390a1611c288561240b565b60046000815480929190611c3b906138c1565b91905055505050505b60008083815260200190815260200160002060008082016000905560018201600090556002820160006101000a81549073ffffffffffffffffffffffffffffffffffffffff02191690556002820160146101000a81549067ffffffffffffffff021916905560028201601c6101000a81549060ff021916905560028201601d6101000a81549060ff0219169055600382016000905560048201600090556005820160006101000a81549060ff021916905560068201600090555050600660008381526020019081526020016000206000905550508080611d23906130b3565b915050611a30565b50600160008381526020019081526020016000206000611d4b9190612563565b7fc0919dcb7e0b464ce8146ec897e4a566e6a1af62233364998f3da696e08b500b82604051611d7a91906128f3565b60405180910390a1505b50565b60028181548110611d9757600080fd5b906000526020600020016000915090505481565b80600360006101000a81548173ffffffffffffffffffffffffffffffffffffffff021916908373ffffffffffffffffffffffffffffffffffffffff16021790555050565b60045481565b60606000805b600280549050811015611eb1573373ffffffffffffffffffffffffffffffffffffffff1660008060028481548110611e3657611e35612d92565b5b9060005260206000200154815260200190815260200160002060020160009054906101000a900473ffffffffffffffffffffffffffffffffffffffff1673ffffffffffffffffffffffffffffffffffffffff161415611e9e578180611e9a906130b3565b9250505b8080611ea9906130b3565b915050611dfb565b5060008167ffffffffffffffff811115611ece57611ecd6138eb565b5b604051908082528060200260200182016040528015611f0757816020015b611ef46124e4565b815260200190600190039081611eec5790505b5090506000805b600280549050811015612129573373ffffffffffffffffffffffffffffffffffffffff1660008060028481548110611f4957611f48612d92565b5b9060005260206000200154815260200190815260200160002060020160009054906101000a900473ffffffffffffffffffffffffffffffffffffffff1673ffffffffffffffffffffffffffffffffffffffff1614156121165760008060028381548110611fb957611fb8612d92565b5b906000526020600020015481526020019081526020016000206040518061014001604052908160008201548152602001600182015481526020016002820160009054906101000a900473ffffffffffffffffffffffffffffffffffffffff1673ffffffffffffffffffffffffffffffffffffffff1673ffffffffffffffffffffffffffffffffffffffff1681526020016002820160149054906101000a900467ffffffffffffffff1667ffffffffffffffff1667ffffffffffffffff16815260200160028201601c9054906101000a900460ff1615151515815260200160028201601d9054906101000a900460ff1615151515815260200160038201548152602001600482015481526020016005820160009054906101000a900460ff161515151581526020016006820154815250508383815181106120fc576120fb612d92565b5b60200260200101819052508180612112906130b3565b9250505b8080612121906130b3565b915050611f0e565b5081935050505090565b3373ffffffffffffffffffffffffffffffffffffffff1660008083815260200190815260200160002060020160009054906101000a900473ffffffffffffffffffffffffffffffffffffffff1673ffffffffffffffffffffffffffffffffffffffff16146121d6576040517f08c379a00000000000000000000000000000000000000000000000000000000081526004016121cd9061398c565b60405180910390fd5b600080828152602001908152602001600020600201601c9054906101000a900460ff1615612239576040517f08c379a00000000000000000000000000000000000000000000000000000000081526004016122309061322d565b60405180910390fd5b600080828152602001908152602001600020600201601d9054906101000a900460ff1661229b576040517f08c379a00000000000000000000000000000000000000000000000000000000081526004016122929061332b565b60405180910390fd5b6001600080838152602001908152602001600020600201601c6101000a81548160ff0219169083151502179055507f5e887a439fa796c056dfd595ead77c343c193a22734ed54140ce3a543708506281336040516122fa9291906139ac565b60405180910390a150565b60006006600083815260200190815260200160002054905060006001806000868152602001908152602001600020805490506123419190612d5e565b90508082146123cc57600060016000868152602001908152602001600020828154811061237157612370612d92565b5b90600052602060002001549050806001600087815260200190815260200160002084815481106123a4576123a3612d92565b5b9060005260206000200181905550826006600083815260200190815260200160002081905550505b600160008581526020019081526020016000208054806123ef576123ee612dc1565b5b6001900381819060005260206000200160009055905550505050565b600060066000838152602001908152602001600020549050600060016002805490506124379190612d5e565b90508082146124a05760006002828154811061245657612455612d92565b5b90600052602060002001549050806002848154811061247857612477612d92565b5b9060005260206000200181905550826006600083815260200190815260200160002081905550505b60028054806124b2576124b1612dc1565b5b600190038181906000526020600020016000905590556006600084815260200190815260200160002060009055505050565b6040518061014001604052806000801916815260200160008019168152602001600073ffffffffffffffffffffffffffffffffffffffff168152602001600067ffffffffffffffff1681526020016000151581526020016000151581526020016000815260200160008152602001600015158152602001600081525090565b50805460008255906000526020600020908101906125819190612584565b50565b5b8082111561259d576000816000905550600101612585565b5090565b600080fd5b6000819050919050565b6125b9816125a6565b81146125c457600080fd5b50565b6000813590506125d6816125b0565b92915050565b6000602082840312156125f2576125f16125a1565b5b6000612600848285016125c7565b91505092915050565b612612816125a6565b82525050565b600073ffffffffffffffffffffffffffffffffffffffff82169050919050565b600061264382612618565b9050919050565b61265381612638565b82525050565b600067ffffffffffffffff82169050919050565b61267681612659565b82525050565b60008115159050919050565b6126918161267c565b82525050565b6000819050919050565b6126aa81612697565b82525050565b6000610140820190506126c6600083018d612609565b6126d3602083018c612609565b6126e0604083018b61264a565b6126ed606083018a61266d565b6126fa6080830189612688565b61270760a0830188612688565b61271460c08301876126a1565b61272160e08301866126a1565b61272f610100830185612688565b61273d6101208301846126a1565b9b9a5050505050505050505050565b600081519050919050565b600082825260208201905092915050565b6000819050602082019050919050565b612781816125a6565b82525050565b60006127938383612778565b60208301905092915050565b6000602082019050919050565b60006127b78261274c565b6127c18185612757565b93506127cc83612768565b8060005b838110156127fd5781516127e48882612787565b97506127ef8361279f565b9250506001810190506127d0565b5085935050505092915050565b6000602082019050818103600083015261282481846127ac565b905092915050565b60008060408385031215612843576128426125a1565b5b6000612851858286016125c7565b9250506020612862858286016125c7565b9150509250929050565b60006020820190506128816000830184612688565b92915050565b61289081612697565b811461289b57600080fd5b50565b6000813590506128ad81612887565b92915050565b600080604083850312156128ca576128c96125a1565b5b60006128d8858286016125c7565b92505060206128e98582860161289e565b9150509250929050565b60006020820190506129086000830184612609565b92915050565b6000602082019050612923600083018461264a565b92915050565b61293281612638565b82525050565b61294181612659565b82525050565b6129508161267c565b82525050565b61295f81612697565b82525050565b6101408201600082015161297c6000850182612778565b50602082015161298f6020850182612778565b5060408201516129a26040850182612929565b5060608201516129b56060850182612938565b5060808201516129c86080850182612947565b5060a08201516129db60a0850182612947565b5060c08201516129ee60c0850182612956565b5060e0820151612a0160e0850182612956565b50610100820151612a16610100850182612947565b50610120820151612a2b610120850182612956565b50505050565b600061014082019050612a476000830184612965565b92915050565b600060208284031215612a6357612a626125a1565b5b6000612a718482850161289e565b91505092915050565b612a8381612638565b8114612a8e57600080fd5b50565b600081359050612aa081612a7a565b92915050565b600060208284031215612abc57612abb6125a1565b5b6000612aca84828501612a91565b91505092915050565b6000602082019050612ae860008301846126a1565b92915050565b600081519050919050565b600082825260208201905092915050565b6000819050602082019050919050565b61014082016000820151612b316000850182612778565b506020820151612b446020850182612778565b506040820151612b576040850182612929565b506060820151612b6a6060850182612938565b506080820151612b7d6080850182612947565b5060a0820151612b9060a0850182612947565b5060c0820151612ba360c0850182612956565b5060e0820151612bb660e0850182612956565b50610100820151612bcb610100850182612947565b50610120820151612be0610120850182612956565b50505050565b6000612bf28383612b1a565b6101408301905092915050565b6000602082019050919050565b6000612c1782612aee565b612c218185612af9565b9350612c2c83612b0a565b8060005b83811015612c5d578151612c448882612be6565b9750612c4f83612bff565b925050600181019050612c30565b5085935050505092915050565b60006020820190508181036000830152612c848184612c0c565b905092915050565b600082825260208201905092915050565b7f556e617574686f72697a65643a2063616c6c6572206973206e6f74207468652060008201527f7469636b6574206f776e6572206f72206576656e7420636f6e74726163740000602082015250565b6000612cf9603e83612c8c565b9150612d0482612c9d565b604082019050919050565b60006020820190508181036000830152612d2881612cec565b9050919050565b7f4e487b7100000000000000000000000000000000000000000000000000000000600052601160045260246000fd5b6000612d6982612697565b9150612d7483612697565b925082821015612d8757612d86612d2f565b5b828203905092915050565b7f4e487b7100000000000000000000000000000000000000000000000000000000600052603260045260246000fd5b7f4e487b7100000000000000000000000000000000000000000000000000000000600052603160045260246000fd5b7f4f6e6c7920746865207469636b6574206f776e65722063616e2073657420697460008201527f20666f722073616c652e00000000000000000000000000000000000000000000602082015250565b6000612e4c602a83612c8c565b9150612e5782612df0565b604082019050919050565b60006020820190508181036000830152612e7b81612e3f565b9050919050565b7f43616e6e6f742073656c6c20612072656465656d6564207469636b65742e0000600082015250565b6000612eb8601e83612c8c565b9150612ec382612e82565b602082019050919050565b60006020820190508181036000830152612ee781612eab565b9050919050565b7f43616e6e6f742073656c6c20616e20696e76616c6964207469636b65742e0000600082015250565b6000612f24601e83612c8c565b9150612f2f82612eee565b602082019050919050565b60006020820190508181036000830152612f5381612f17565b9050919050565b7f556e617574686f72697a65643a2063616c6c6572206973206e6f74207468652060008201527f6576656e7420636f6e7472616374000000000000000000000000000000000000602082015250565b6000612fb6602e83612c8c565b9150612fc182612f5a565b604082019050919050565b60006020820190508181036000830152612fe581612fa9565b9050919050565b6000819050919050565b613007613002826125a6565b612fec565b82525050565b60008160601b9050919050565b60006130258261300d565b9050919050565b60006130378261301a565b9050919050565b61304f61304a82612638565b61302c565b82525050565b6000819050919050565b61307061306b82612697565b613055565b82525050565b60006130828286612ff6565b602082019150613092828561303e565b6014820191506130a2828461305f565b602082019150819050949350505050565b60006130be82612697565b91507fffffffffffffffffffffffffffffffffffffffffffffffffffffffffffffffff8214156130f1576130f0612d2f565b5b600182019050919050565b600060a0820190506131116000830188612609565b61311e6020830187612609565b61312b604083018661266d565b613138606083018561264a565b61314560808301846126a1565b9695505050505050565b7f5265656e7472616e6379206973206e6f7420616c6c6f77656400000000000000600082015250565b6000613185601983612c8c565b91506131908261314f565b602082019050919050565b600060208201905081810360008301526131b481613178565b9050919050565b7f5469636b65742068617320616c7265616479206265656e2072656465656d656460008201527f2e00000000000000000000000000000000000000000000000000000000000000602082015250565b6000613217602183612c8c565b9150613222826131bb565b604082019050919050565b600060208201905081810360008301526132468161320a565b9050919050565b7f5472616e7366657220616d6f756e74206d757374206d6174636820746865207460008201527f69636b65742070726963652e0000000000000000000000000000000000000000602082015250565b60006132a9602c83612c8c565b91506132b48261324d565b604082019050919050565b600060208201905081810360008301526132d88161329c565b9050919050565b7f5469636b6574206973206e6f742076616c69642e000000000000000000000000600082015250565b6000613315601483612c8c565b9150613320826132df565b602082019050919050565b6000602082019050818103600083015261334481613308565b9050919050565b60006080820190506133606000830187612609565b61336d602083018661264a565b61337a604083018561264a565b61338760608301846126a1565b95945050505050565b7f4f6e6c7920746865207469636b6574206f776e65722063616e2072657475726e60008201527f20746865207469636b65742e0000000000000000000000000000000000000000602082015250565b60006133ec602c83612c8c565b91506133f782613390565b604082019050919050565b6000602082019050818103600083015261341b816133df565b9050919050565b60006060820190506134376000830186612609565b613444602083018561264a565b61345160408301846126a1565b949350505050565b7f4f6e6c7920746865207469636b6574206f776e65722063616e2063616e63656c60008201527f207468652073616c652e00000000000000000000000000000000000000000000602082015250565b60006134b5602a83612c8c565b91506134c082613459565b604082019050919050565b600060208201905081810360008301526134e4816134a8565b9050919050565b7f5469636b6574206973206e6f7420666f722073616c652e000000000000000000600082015250565b6000613521601783612c8c565b915061352c826134eb565b602082019050919050565b6000602082019050818103600083015261355081613514565b9050919050565b7f54686973207469636b6574206973206e6f7420666f722073616c652e00000000600082015250565b600061358d601c83612c8c565b915061359882613557565b602082019050919050565b600060208201905081810360008301526135bc81613580565b9050919050565b7f506c65617365207375626d6974207468652061736b696e67207072696365206960008201527f6e206f7264657220746f20636f6d706c6574652074686520707572636861736560208201527f2e00000000000000000000000000000000000000000000000000000000000000604082015250565b6000613645604183612c8c565b9150613650826135c3565b606082019050919050565b6000602082019050818103600083015261367481613638565b9050919050565b7f43616e6e6f742062757920616e20696e76616c6964207469636b65742e000000600082015250565b60006136b1601d83612c8c565b91506136bc8261367b565b602082019050919050565b600060208201905081810360008301526136e0816136a4565b9050919050565b7f496e73756666696369656e742062616c616e636520746f206d616b652072656660008201527f756e647300000000000000000000000000000000000000000000000000000000602082015250565b6000613743602483612c8c565b915061374e826136e7565b604082019050919050565b6000602082019050818103600083015261377281613736565b9050919050565b600081905092915050565b50565b6000613794600083613779565b915061379f82613784565b600082019050919050565b60006137b582613787565b9150819050919050565b7f4661696c656420746f2073656e64204574686572000000000000000000000000600082015250565b60006137f5601483612c8c565b9150613800826137bf565b602082019050919050565b60006020820190508181036000830152613824816137e8565b9050919050565b6000819050919050565b600061385061384b61384684612618565b61382b565b612618565b9050919050565b600061386282613835565b9050919050565b600061387482613857565b9050919050565b61388481613869565b82525050565b600060608201905061389f6000830186612609565b6138ac602083018561387b565b6138b960408301846126a1565b949350505050565b60006138cc82612697565b915060008214156138e0576138df612d2f565b5b600182039050919050565b7f4e487b7100000000000000000000000000000000000000000000000000000000600052604160045260246000fd5b7f4f6e6c7920746865207469636b6574206f776e65722063616e2072656465656d60008201527f2069742e00000000000000000000000000000000000000000000000000000000602082015250565b6000613976602483612c8c565b91506139818261391a565b604082019050919050565b600060208201905081810360008301526139a581613969565b9050919050565b60006040820190506139c16000830185612609565b6139ce602083018461264a565b939250505056fea2646970667358221220d056f1715bcea5ebad569ea6d46be1ecb7405bc39448dcf5ed52c7ebcf3c4a5864736f6c634300080a0033",
  "immutableReferences": {},
  "source": "// SPDX-License-Identifier: MIT\npragma solidity ^0.8.10;\n\ncontract TicketContract {\n  struct Ticket {\n    bytes32 ticketID;\n    bytes32 eventID;\n    address ticketOwner;\n    uint64 purchasedDate;\n    bool isRedeemed;\n    bool isValid;\n    uint256 ticketPrice;\n    uint256 originalPrice;\n    bool forSale;\n    uint256 salePrice;\n  }\n  //mapping for allTickets for the TicketContract\n  mapping(bytes32 => Ticket) public allTickets;\n  // mapping for allEvents but by eventID\n  mapping(bytes32 => bytes32[]) public ticketsByEvent;\n  // array to keep all IDs for tickets\n  bytes32[] public allTicketIDs;\n  // address of EventContract, only this address can create new tickets\n  address public eventContractAddress;\n  // number of all tickets\n  uint256 public totalTickets;\n  // variable for this -> The reentrancy guard is a mechanism that prevents reentry to certain functions during\n  // their execution. This is particularly important for functions that involve the transfer of funds.\n  bool private locked;\n  // mapping for better and more optimalize indexing\n  mapping(bytes32 => uint256) private ticketIndexInEvent;\n\n  function setEventContractAddress(address _eventContractAddress) external {\n    eventContractAddress = _eventContractAddress;\n  }\n\n  // event emitters\n  event TicketTransferred(bytes32 ticketID, address from, address to, uint256 newPrice);\n  event TicketCreated(\n    bytes32 ticketID,\n    bytes32 eventID,\n    uint64 purchasedDate,\n    address buyer,\n    uint256 price\n  );\n  event TicketRedeemed(bytes32 ticketID, address redeemer);\n  event TicketDeleted(bytes32 ticketID);\n  event TicketReturned(bytes32 ticketID, address sender, uint256 refundAmount);\n  event TicketRefunded(bytes32 ticketID, address ticketOwner, uint256 refundAmount);\n  event EventCancelled(bytes32 eventID);\n\n  event TicketSetForSale(bytes32 ticketID);\n  event TicketSaleCancelled(bytes32 ticketID);\n  event TicketPurchasedFromMarket(\n    bytes32 ticketID,\n    address oldOwner,\n    address newOwner,\n    uint256 price\n  );\n\n  // constructor for create new instance of TicketContract\n  constructor(address _eventContractAddress) {\n    eventContractAddress = _eventContractAddress;\n  }\n  // modifier - check if request send EventContract\n  modifier onlyEventContract() {\n    require(msg.sender == eventContractAddress, 'Unauthorized: caller is not the event contract');\n    _;\n  }\n  // modifier - check if ticket is not redeemed yet. If yes user cant sell tickets to others\n  modifier isNotRedeemed(bytes32 _ticketID) {\n    require(!allTickets[_ticketID].isRedeemed, 'Ticket has already been redeemed.');\n    _;\n  }\n  // modifier - The reentrancy guard is a mechanism that prevents reentry to certain functions during\n  // their execution. This is particularly important for functions that involve the transfer of funds.\n  modifier noReentrancy() {\n    require(!locked, 'Reentrancy is not allowed');\n    locked = true;\n    _;\n    locked = false;\n  }\n  // Function to create new ticket for eventID\n  // @param _eventID is ID of event, for which is ticket\n  // @param _buyer is address of user, which ticket buy\n  // @param _tickerPrice is price of the ticket\n  // @ return - ID of new ticket\n  // Definice Solidity event pro debugging\n  event Debug(bytes32 indexed message, bytes32 data);\n  event DebugUint(string message, uint256 data);\n\n  function createNewTicket(\n    bytes32 _eventID,\n    uint256 _ticketPrice\n  ) external payable onlyEventContract returns (bytes32) {\n    bytes32 ticketID = keccak256(abi.encodePacked(_eventID, msg.sender, block.timestamp));\n    uint64 _purchasedDate = uint64(block.timestamp);\n    allTickets[ticketID] = Ticket({\n      ticketID: ticketID,\n      eventID: _eventID,\n      ticketOwner: msg.sender,\n      purchasedDate: _purchasedDate,\n      isRedeemed: false,\n      isValid: true,\n      ticketPrice: _ticketPrice,\n      originalPrice: _ticketPrice,\n      forSale: false,\n      salePrice: 0\n    });\n    ticketsByEvent[_eventID].push(ticketID);\n    allTicketIDs.push(ticketID);\n    totalTickets++;\n\n    ticketIndexInEvent[ticketID] = ticketsByEvent[_eventID].length - 1;\n\n    emit TicketCreated(ticketID, _eventID, _purchasedDate, msg.sender, _ticketPrice);\n\n    return ticketID;\n  }\n  // function to change ownership of the ticket, its for selling tickets between users\n  // @param _eventID is ID of event, for which is ticket\n  // @param _buyer is address of user, which ticket buy\n  // @return - bool value for FE handling\n  function transferTicket(\n    bytes32 _ticketID\n  ) external payable noReentrancy isNotRedeemed(_ticketID) {\n    Ticket storage ticket = allTickets[_ticketID];\n    require(msg.value == ticket.ticketPrice, 'Transfer amount must match the ticket price.');\n    require(ticket.isValid, 'Ticket is not valid.');\n\n    address oldOwner = ticket.ticketOwner;\n    ticket.ticketOwner = msg.sender;\n    ticket.ticketPrice = msg.value;\n\n    payable(oldOwner).transfer(msg.value);\n    emit TicketTransferred(_ticketID, oldOwner, msg.sender, msg.value);\n  }\n  // function return info about ticket with _ticketID\n  function getTicketInfo(bytes32 _ticketID) external view returns (Ticket memory) {\n    return allTickets[_ticketID];\n  }\n  // function to return array of tickets for one specific event\n  function getTicketsForEvent(bytes32 _eventID) external view returns (bytes32[] memory) {\n    return ticketsByEvent[_eventID];\n  }\n  // function to return tickets for one specific user\n  function getMyTickets() external view returns (Ticket[] memory) {\n    uint totalTicketsCount = 0;\n\n    for (uint256 i = 0; i < allTicketIDs.length; i++) {\n      if (allTickets[allTicketIDs[i]].ticketOwner == msg.sender) {\n        totalTicketsCount++;\n      }\n    }\n\n    Ticket[] memory ownedTickets = new Ticket[](totalTicketsCount);\n    uint256 index = 0;\n    for (uint256 i = 0; i < allTicketIDs.length; i++) {\n      if (allTickets[allTicketIDs[i]].ticketOwner == msg.sender) {\n        ownedTickets[index] = allTickets[allTicketIDs[i]];\n        index++;\n      }\n    }\n\n    return ownedTickets;\n  }\n  // function to flag ticket as reedeemed, which means user arrive on the event, so\n  // any other function cant run\n  function redeemTicket(bytes32 _ticketID) external {\n    require(\n      allTickets[_ticketID].ticketOwner == msg.sender,\n      'Only the ticket owner can redeem it.'\n    );\n    require(!allTickets[_ticketID].isRedeemed, 'Ticket has already been redeemed.');\n    require(allTickets[_ticketID].isValid, 'Ticket is not valid.');\n\n    allTickets[_ticketID].isRedeemed = true;\n\n    emit TicketRedeemed(_ticketID, msg.sender);\n  }\n  // function to verify ticket\n  function verifyTicket(bytes32 _ticketID, bytes32 _eventID) external view returns (bool) {\n    Ticket storage _ticket = allTickets[_ticketID];\n    if (_ticket.ticketID != 0 && _ticket.eventID == _eventID && _ticket.isValid) {\n      return true;\n    } else {\n      return false;\n    }\n  }\n  // function to delete one specific ticket with id\n  function deleteTicket(bytes32 _ticketID) external {\n    require(\n      msg.sender == allTickets[_ticketID].ticketOwner || msg.sender == eventContractAddress,\n      'Unauthorized: caller is not the ticket owner or event contract'\n    );\n\n    bytes32 eventId = allTickets[_ticketID].eventID;\n    uint index = ticketIndexInEvent[_ticketID];\n    uint lastIndex = ticketsByEvent[eventId].length - 1;\n\n    if (index != lastIndex) {\n      bytes32 lastTicketID = ticketsByEvent[eventId][lastIndex];\n      ticketsByEvent[eventId][index] = lastTicketID;\n      ticketIndexInEvent[lastTicketID] = index;\n    }\n    ticketsByEvent[eventId].pop();\n    delete ticketIndexInEvent[_ticketID];\n    delete allTickets[_ticketID];\n\n    emit TicketDeleted(_ticketID);\n  }\n  // Function to return a ticket and refund the purchase price\n  function returnTicket(bytes32 _ticketID) external {\n    Ticket storage ticket = allTickets[_ticketID];\n    require(ticket.ticketOwner == msg.sender, 'Only the ticket owner can return the ticket.');\n    require(!ticket.isRedeemed, 'Ticket has already been redeemed.');\n    require(ticket.isValid, 'Ticket is not valid.');\n\n    uint256 refundAmount = ticket.originalPrice;\n    address payable ownerPayable = payable(msg.sender);\n\n    ownerPayable.transfer(refundAmount);\n\n    removeTicketFromEventList(ticket.eventID, _ticketID);\n    delete allTickets[_ticketID];\n    delete ticketIndexInEvent[_ticketID];\n\n    emit TicketReturned(_ticketID, msg.sender, refundAmount);\n  }\n  // Function to remove a ticket from the ticketsByEvent mapping\n  function removeTicketFromEventList(bytes32 _eventId, bytes32 _ticketID) private {\n    uint index = ticketIndexInEvent[_ticketID];\n    uint lastIndex = ticketsByEvent[_eventId].length - 1;\n    if (index != lastIndex) {\n      bytes32 lastTicketID = ticketsByEvent[_eventId][lastIndex];\n      ticketsByEvent[_eventId][index] = lastTicketID;\n      ticketIndexInEvent[lastTicketID] = index;\n    }\n    ticketsByEvent[_eventId].pop();\n  }\n  // function to delete tickets, return all eth for ticketOwners atc. when event is cancelled\n  function cancelAllTickets(bytes32 eventId) external onlyEventContract {\n    bytes32[] storage tickets = ticketsByEvent[eventId];\n\n    if (tickets.length == 0) {\n      emit EventCancelled(eventId);\n      delete ticketsByEvent[eventId];\n      return;\n    }\n\n    for (uint i = 0; i < tickets.length; i++) {\n      bytes32 ticketId = tickets[i];\n      Ticket storage ticket = allTickets[ticketId];\n\n      if (ticket.isValid && !ticket.isRedeemed) {\n        uint256 refundAmount = ticket.originalPrice;\n        address payable ticketOwner = payable(ticket.ticketOwner);\n\n        ticket.isValid = false;\n\n        require(address(this).balance >= refundAmount, 'Insufficient balance to make refunds');\n        (bool sent, ) = ticketOwner.call{value: refundAmount}('');\n        require(sent, 'Failed to send Ether');\n\n        emit TicketRefunded(ticketId, ticketOwner, refundAmount);\n        removeTicketFromAllTickets(ticketId);\n        totalTickets--;\n      }\n\n      delete allTickets[ticketId];\n      delete ticketIndexInEvent[ticketId];\n    }\n\n    delete ticketsByEvent[eventId];\n    emit EventCancelled(eventId);\n  }\n\n  function removeTicketFromAllTickets(bytes32 ticketId) private {\n    uint index = ticketIndexInEvent[ticketId];\n    uint lastIndex = allTicketIDs.length - 1;\n\n    if (index != lastIndex) {\n      bytes32 lastTicketId = allTicketIDs[lastIndex];\n      allTicketIDs[index] = lastTicketId;\n      ticketIndexInEvent[lastTicketId] = index;\n    }\n    allTicketIDs.pop();\n    delete ticketIndexInEvent[ticketId];\n  }\n  // function to set ticket for sale\n  function setTicketForSale(bytes32 _ticketID, uint256 _price) external {\n    Ticket storage _ticket = allTickets[_ticketID];\n    require(msg.sender == _ticket.ticketOwner, 'Only the ticket owner can set it for sale.');\n    require(!_ticket.isRedeemed, 'Cannot sell a redeemed ticket.');\n    require(_ticket.isValid, 'Cannot sell an invalid ticket.');\n\n    _ticket.forSale = true;\n    _ticket.salePrice = _price;\n\n    emit TicketSetForSale(_ticketID);\n  }\n  // function to set ticket not for sale\n  function cancelTicketForSale(bytes32 _ticketID) external {\n    Ticket storage _ticket = allTickets[_ticketID];\n    require(msg.sender == _ticket.ticketOwner, 'Only the ticket owner can cancel the sale.');\n    require(_ticket.forSale, 'Ticket is not for sale.');\n\n    _ticket.forSale = false;\n    _ticket.salePrice = 0;\n\n    emit TicketSaleCancelled(_ticketID);\n  }\n\n  // function to buy ticket from market\n  function buyTicketFromMarket(bytes32 _ticketID) external payable noReentrancy {\n    Ticket storage _ticket = allTickets[_ticketID];\n    require(_ticket.forSale, 'This ticket is not for sale.');\n    require(\n      msg.value == _ticket.salePrice,\n      'Please submit the asking price in order to complete the purchase.'\n    );\n    require(_ticket.isValid, 'Cannot buy an invalid ticket.');\n\n    address oldOwner = _ticket.ticketOwner;\n    _ticket.ticketOwner = msg.sender;\n    _ticket.forSale = false;\n    _ticket.salePrice = 0;\n\n    payable(oldOwner).transfer(msg.value);\n\n    emit TicketPurchasedFromMarket(_ticketID, oldOwner, msg.sender, msg.value);\n  }\n}\n",
  "sourcePath": "/Users/janmrakava/Documents/GitHub/blockticket_blockchain/client/contracts/Ticket.sol",
  "compiler": {
    "name": "solc",
    "version": "0.8.10+commit.fc410830.Emscripten.clang"
  },
  "schemaVersion": "3.4.16",
  "updatedAt": "2024-04-28T12:01:18.394Z",
  "networkType": "ethereum",
  "devdoc": {
    "kind": "dev",
    "methods": {},
    "version": 1
  },
  "userdoc": {
    "kind": "user",
    "methods": {},
    "version": 1
  }
}