{
  "contractName": "TicketContract",
  "abi": [
    {
      "inputs": [
        {
          "internalType": "address",
          "name": "_eventContractAddress",
          "type": "address"
        }
      ],
      "stateMutability": "nonpayable",
      "type": "constructor"
    },
    {
      "anonymous": false,
      "inputs": [
        {
          "indexed": false,
          "internalType": "bytes32",
          "name": "eventID",
          "type": "bytes32"
        }
      ],
      "name": "EventCancelled",
      "type": "event"
    },
    {
      "anonymous": false,
      "inputs": [
        {
          "indexed": false,
          "internalType": "bytes32",
          "name": "ticketID",
          "type": "bytes32"
        },
        {
          "indexed": false,
          "internalType": "bytes32",
          "name": "eventID",
          "type": "bytes32"
        },
        {
          "indexed": false,
          "internalType": "uint64",
          "name": "purchasedDate",
          "type": "uint64"
        },
        {
          "indexed": false,
          "internalType": "address",
          "name": "buyer",
          "type": "address"
        },
        {
          "indexed": false,
          "internalType": "uint256",
          "name": "price",
          "type": "uint256"
        }
      ],
      "name": "TicketCreated",
      "type": "event"
    },
    {
      "anonymous": false,
      "inputs": [
        {
          "indexed": false,
          "internalType": "bytes32",
          "name": "ticketID",
          "type": "bytes32"
        }
      ],
      "name": "TicketDeleted",
      "type": "event"
    },
    {
      "anonymous": false,
      "inputs": [
        {
          "indexed": false,
          "internalType": "bytes32",
          "name": "ticketID",
          "type": "bytes32"
        },
        {
          "indexed": false,
          "internalType": "address",
          "name": "oldOwner",
          "type": "address"
        },
        {
          "indexed": false,
          "internalType": "address",
          "name": "newOwner",
          "type": "address"
        },
        {
          "indexed": false,
          "internalType": "uint256",
          "name": "price",
          "type": "uint256"
        }
      ],
      "name": "TicketPurchasedFromMarket",
      "type": "event"
    },
    {
      "anonymous": false,
      "inputs": [
        {
          "indexed": false,
          "internalType": "bytes32",
          "name": "ticketID",
          "type": "bytes32"
        },
        {
          "indexed": false,
          "internalType": "address",
          "name": "redeemer",
          "type": "address"
        }
      ],
      "name": "TicketRedeemed",
      "type": "event"
    },
    {
      "anonymous": false,
      "inputs": [
        {
          "indexed": false,
          "internalType": "bytes32",
          "name": "ticketID",
          "type": "bytes32"
        },
        {
          "indexed": false,
          "internalType": "address",
          "name": "ticketOwner",
          "type": "address"
        },
        {
          "indexed": false,
          "internalType": "uint256",
          "name": "refundAmount",
          "type": "uint256"
        }
      ],
      "name": "TicketRefunded",
      "type": "event"
    },
    {
      "anonymous": false,
      "inputs": [
        {
          "indexed": false,
          "internalType": "bytes32",
          "name": "ticketID",
          "type": "bytes32"
        },
        {
          "indexed": false,
          "internalType": "address",
          "name": "sender",
          "type": "address"
        },
        {
          "indexed": false,
          "internalType": "uint256",
          "name": "refundAmount",
          "type": "uint256"
        }
      ],
      "name": "TicketReturned",
      "type": "event"
    },
    {
      "anonymous": false,
      "inputs": [
        {
          "indexed": false,
          "internalType": "bytes32",
          "name": "ticketID",
          "type": "bytes32"
        }
      ],
      "name": "TicketSaleCancelled",
      "type": "event"
    },
    {
      "anonymous": false,
      "inputs": [
        {
          "indexed": false,
          "internalType": "bytes32",
          "name": "ticketID",
          "type": "bytes32"
        }
      ],
      "name": "TicketSetForSale",
      "type": "event"
    },
    {
      "anonymous": false,
      "inputs": [
        {
          "indexed": false,
          "internalType": "bytes32",
          "name": "ticketID",
          "type": "bytes32"
        },
        {
          "indexed": false,
          "internalType": "address",
          "name": "from",
          "type": "address"
        },
        {
          "indexed": false,
          "internalType": "address",
          "name": "to",
          "type": "address"
        },
        {
          "indexed": false,
          "internalType": "uint256",
          "name": "newPrice",
          "type": "uint256"
        }
      ],
      "name": "TicketTransferred",
      "type": "event"
    },
    {
      "inputs": [
        {
          "internalType": "uint256",
          "name": "",
          "type": "uint256"
        }
      ],
      "name": "allTicketIDs",
      "outputs": [
        {
          "internalType": "bytes32",
          "name": "",
          "type": "bytes32"
        }
      ],
      "stateMutability": "view",
      "type": "function",
      "constant": true
    },
    {
      "inputs": [
        {
          "internalType": "bytes32",
          "name": "",
          "type": "bytes32"
        }
      ],
      "name": "allTickets",
      "outputs": [
        {
          "internalType": "bytes32",
          "name": "ticketID",
          "type": "bytes32"
        },
        {
          "internalType": "bytes32",
          "name": "eventID",
          "type": "bytes32"
        },
        {
          "internalType": "address",
          "name": "ticketOwner",
          "type": "address"
        },
        {
          "internalType": "uint64",
          "name": "purchasedDate",
          "type": "uint64"
        },
        {
          "internalType": "bool",
          "name": "isRedeemed",
          "type": "bool"
        },
        {
          "internalType": "bool",
          "name": "isValid",
          "type": "bool"
        },
        {
          "internalType": "uint256",
          "name": "ticketPrice",
          "type": "uint256"
        },
        {
          "internalType": "uint256",
          "name": "originalPrice",
          "type": "uint256"
        },
        {
          "internalType": "bool",
          "name": "forSale",
          "type": "bool"
        },
        {
          "internalType": "uint256",
          "name": "salePrice",
          "type": "uint256"
        }
      ],
      "stateMutability": "view",
      "type": "function",
      "constant": true
    },
    {
      "inputs": [],
      "name": "eventContractAddress",
      "outputs": [
        {
          "internalType": "address",
          "name": "",
          "type": "address"
        }
      ],
      "stateMutability": "view",
      "type": "function",
      "constant": true
    },
    {
      "inputs": [
        {
          "internalType": "bytes32",
          "name": "",
          "type": "bytes32"
        },
        {
          "internalType": "uint256",
          "name": "",
          "type": "uint256"
        }
      ],
      "name": "ticketsByEvent",
      "outputs": [
        {
          "internalType": "bytes32",
          "name": "",
          "type": "bytes32"
        }
      ],
      "stateMutability": "view",
      "type": "function",
      "constant": true
    },
    {
      "inputs": [],
      "name": "totalTickets",
      "outputs": [
        {
          "internalType": "uint256",
          "name": "",
          "type": "uint256"
        }
      ],
      "stateMutability": "view",
      "type": "function",
      "constant": true
    },
    {
      "inputs": [
        {
          "internalType": "address",
          "name": "_eventContractAddress",
          "type": "address"
        }
      ],
      "name": "setEventContractAddress",
      "outputs": [],
      "stateMutability": "nonpayable",
      "type": "function"
    },
    {
      "inputs": [
        {
          "internalType": "bytes32",
          "name": "_eventID",
          "type": "bytes32"
        },
        {
          "internalType": "address",
          "name": "_buyer",
          "type": "address"
        },
        {
          "internalType": "uint256",
          "name": "_ticketPrice",
          "type": "uint256"
        }
      ],
      "name": "createNewTicket",
      "outputs": [
        {
          "internalType": "bytes32",
          "name": "",
          "type": "bytes32"
        }
      ],
      "stateMutability": "nonpayable",
      "type": "function"
    },
    {
      "inputs": [
        {
          "internalType": "bytes32",
          "name": "_ticketID",
          "type": "bytes32"
        }
      ],
      "name": "transferTicket",
      "outputs": [],
      "stateMutability": "payable",
      "type": "function",
      "payable": true
    },
    {
      "inputs": [
        {
          "internalType": "bytes32",
          "name": "_ticketID",
          "type": "bytes32"
        }
      ],
      "name": "getTicketInfo",
      "outputs": [
        {
          "components": [
            {
              "internalType": "bytes32",
              "name": "ticketID",
              "type": "bytes32"
            },
            {
              "internalType": "bytes32",
              "name": "eventID",
              "type": "bytes32"
            },
            {
              "internalType": "address",
              "name": "ticketOwner",
              "type": "address"
            },
            {
              "internalType": "uint64",
              "name": "purchasedDate",
              "type": "uint64"
            },
            {
              "internalType": "bool",
              "name": "isRedeemed",
              "type": "bool"
            },
            {
              "internalType": "bool",
              "name": "isValid",
              "type": "bool"
            },
            {
              "internalType": "uint256",
              "name": "ticketPrice",
              "type": "uint256"
            },
            {
              "internalType": "uint256",
              "name": "originalPrice",
              "type": "uint256"
            },
            {
              "internalType": "bool",
              "name": "forSale",
              "type": "bool"
            },
            {
              "internalType": "uint256",
              "name": "salePrice",
              "type": "uint256"
            }
          ],
          "internalType": "struct TicketContract.Ticket",
          "name": "",
          "type": "tuple"
        }
      ],
      "stateMutability": "view",
      "type": "function",
      "constant": true
    },
    {
      "inputs": [
        {
          "internalType": "bytes32",
          "name": "_eventID",
          "type": "bytes32"
        }
      ],
      "name": "getTicketsForEvent",
      "outputs": [
        {
          "internalType": "bytes32[]",
          "name": "",
          "type": "bytes32[]"
        }
      ],
      "stateMutability": "view",
      "type": "function",
      "constant": true
    },
    {
      "inputs": [],
      "name": "getMyTickets",
      "outputs": [
        {
          "components": [
            {
              "internalType": "bytes32",
              "name": "ticketID",
              "type": "bytes32"
            },
            {
              "internalType": "bytes32",
              "name": "eventID",
              "type": "bytes32"
            },
            {
              "internalType": "address",
              "name": "ticketOwner",
              "type": "address"
            },
            {
              "internalType": "uint64",
              "name": "purchasedDate",
              "type": "uint64"
            },
            {
              "internalType": "bool",
              "name": "isRedeemed",
              "type": "bool"
            },
            {
              "internalType": "bool",
              "name": "isValid",
              "type": "bool"
            },
            {
              "internalType": "uint256",
              "name": "ticketPrice",
              "type": "uint256"
            },
            {
              "internalType": "uint256",
              "name": "originalPrice",
              "type": "uint256"
            },
            {
              "internalType": "bool",
              "name": "forSale",
              "type": "bool"
            },
            {
              "internalType": "uint256",
              "name": "salePrice",
              "type": "uint256"
            }
          ],
          "internalType": "struct TicketContract.Ticket[]",
          "name": "",
          "type": "tuple[]"
        }
      ],
      "stateMutability": "view",
      "type": "function",
      "constant": true
    },
    {
      "inputs": [
        {
          "internalType": "bytes32",
          "name": "_ticketID",
          "type": "bytes32"
        }
      ],
      "name": "redeemTicket",
      "outputs": [],
      "stateMutability": "nonpayable",
      "type": "function"
    },
    {
      "inputs": [
        {
          "internalType": "bytes32",
          "name": "_ticketID",
          "type": "bytes32"
        },
        {
          "internalType": "bytes32",
          "name": "_eventID",
          "type": "bytes32"
        }
      ],
      "name": "verifyTicket",
      "outputs": [
        {
          "internalType": "bool",
          "name": "",
          "type": "bool"
        }
      ],
      "stateMutability": "view",
      "type": "function",
      "constant": true
    },
    {
      "inputs": [
        {
          "internalType": "bytes32",
          "name": "_ticketID",
          "type": "bytes32"
        }
      ],
      "name": "deleteTicket",
      "outputs": [],
      "stateMutability": "nonpayable",
      "type": "function"
    },
    {
      "inputs": [
        {
          "internalType": "bytes32",
          "name": "_ticketID",
          "type": "bytes32"
        }
      ],
      "name": "returnTicket",
      "outputs": [],
      "stateMutability": "nonpayable",
      "type": "function"
    },
    {
      "inputs": [
        {
          "internalType": "bytes32",
          "name": "eventId",
          "type": "bytes32"
        }
      ],
      "name": "cancelAllTickets",
      "outputs": [],
      "stateMutability": "nonpayable",
      "type": "function"
    },
    {
      "inputs": [
        {
          "internalType": "bytes32",
          "name": "_ticketID",
          "type": "bytes32"
        },
        {
          "internalType": "uint256",
          "name": "_price",
          "type": "uint256"
        }
      ],
      "name": "setTicketForSale",
      "outputs": [],
      "stateMutability": "nonpayable",
      "type": "function"
    },
    {
      "inputs": [
        {
          "internalType": "bytes32",
          "name": "_ticketID",
          "type": "bytes32"
        }
      ],
      "name": "cancelTicketForSale",
      "outputs": [],
      "stateMutability": "nonpayable",
      "type": "function"
    },
    {
      "inputs": [
        {
          "internalType": "bytes32",
          "name": "_ticketID",
          "type": "bytes32"
        }
      ],
      "name": "buyTicketFromMarket",
      "outputs": [],
      "stateMutability": "payable",
      "type": "function",
      "payable": true
    }
  ],
  "bytecode": "0x60806040523480156200001157600080fd5b50604051620039c8380380620039c88339818101604052810190620000379190620000e9565b80600360006101000a81548173ffffffffffffffffffffffffffffffffffffffff021916908373ffffffffffffffffffffffffffffffffffffffff160217905550506200011b565b600080fd5b600073ffffffffffffffffffffffffffffffffffffffff82169050919050565b6000620000b18262000084565b9050919050565b620000c381620000a4565b8114620000cf57600080fd5b50565b600081519050620000e381620000b8565b92915050565b6000602082840312156200010257620001016200007f565b5b60006200011284828501620000d2565b91505092915050565b61389d806200012b6000396000f3fe6080604052600436106101145760003560e01c8063924b5a07116100a0578063d5a114e711610064578063d5a114e7146103c0578063d7776248146103fd578063dd11247e14610426578063e1d10d8514610451578063edd8741d1461047c57610114565b8063924b5a07146102ec578063adcb8bdb14610315578063afcd24521461033e578063bf3f733e1461035a578063cfe632ef1461038357610114565b806338d986c2116100e757806338d986c214610202578063422375ec1461022b578063790f770e1461026857806384d4f1a71461028457806387e9a744146102af57610114565b8063090a855614610119578063181fcc891461015f5780632a0d88071461019c578063368d804d146101c5575b600080fd5b34801561012557600080fd5b50610140600480360381019061013b91906124ad565b6104a5565b6040516101569a99989796959493929190612581565b60405180910390f35b34801561016b57600080fd5b50610186600480360381019061018191906124ad565b610554565b60405161019391906126db565b60405180910390f35b3480156101a857600080fd5b506101c360048036038101906101be91906124ad565b6105bf565b005b3480156101d157600080fd5b506101ec60048036038101906101e791906126fd565b6108e3565b6040516101f9919061273d565b60405180910390f35b34801561020e57600080fd5b5061022960048036038101906102249190612784565b610949565b005b34801561023757600080fd5b50610252600480360381019061024d9190612784565b610af6565b60405161025f91906127c4565b60405180910390f35b610282600480360381019061027d91906124ad565b610b27565b005b34801561029057600080fd5b50610299610dbd565b6040516102a691906127df565b60405180910390f35b3480156102bb57600080fd5b506102d660048036038101906102d191906124ad565b610de3565b6040516102e39190612902565b60405180910390f35b3480156102f857600080fd5b50610313600480360381019061030e91906124ad565b610f1b565b005b34801561032157600080fd5b5061033c600480360381019061033791906124ad565b6111dc565b005b610358600480360381019061035391906124ad565b611337565b005b34801561036657600080fd5b50610381600480360381019061037c91906124ad565b6115d7565b005b34801561038f57600080fd5b506103aa60048036038101906103a5919061294a565b611904565b6040516103b791906127c4565b60405180910390f35b3480156103cc57600080fd5b506103e760048036038101906103e2919061299d565b611c58565b6040516103f491906127c4565b60405180910390f35b34801561040957600080fd5b50610424600480360381019061041f91906129ca565b611c7c565b005b34801561043257600080fd5b5061043b611cc0565b60405161044891906129f7565b60405180910390f35b34801561045d57600080fd5b50610466611cc6565b6040516104739190612b8e565b60405180910390f35b34801561048857600080fd5b506104a3600480360381019061049e91906124ad565b612004565b005b60006020528060005260406000206000915090508060000154908060010154908060020160009054906101000a900473ffffffffffffffffffffffffffffffffffffffff16908060020160149054906101000a900467ffffffffffffffff169080600201601c9054906101000a900460ff169080600201601d9054906101000a900460ff16908060030154908060040154908060050160009054906101000a900460ff1690806006015490508a565b6060600160008381526020019081526020016000208054806020026020016040519081016040528092919081815260200182805480156105b357602002820191906000526020600020905b81548152602001906001019080831161059f575b50505050509050919050565b60008082815260200190815260200160002060020160009054906101000a900473ffffffffffffffffffffffffffffffffffffffff1673ffffffffffffffffffffffffffffffffffffffff163373ffffffffffffffffffffffffffffffffffffffff16148061067b5750600360009054906101000a900473ffffffffffffffffffffffffffffffffffffffff1673ffffffffffffffffffffffffffffffffffffffff163373ffffffffffffffffffffffffffffffffffffffff16145b6106ba576040517f08c379a00000000000000000000000000000000000000000000000000000000081526004016106b190612c33565b60405180910390fd5b600080600083815260200190815260200160002060010154905060006006600084815260200190815260200160002054905060006001806000858152602001908152602001600020805490506107109190612c82565b905080821461079b5760006001600085815260200190815260200160002082815481106107405761073f612cb6565b5b906000526020600020015490508060016000868152602001908152602001600020848154811061077357610772612cb6565b5b9060005260206000200181905550826006600083815260200190815260200160002081905550505b600160008481526020019081526020016000208054806107be576107bd612ce5565b5b60019003818190600052602060002001600090559055600660008581526020019081526020016000206000905560008085815260200190815260200160002060008082016000905560018201600090556002820160006101000a81549073ffffffffffffffffffffffffffffffffffffffff02191690556002820160146101000a81549067ffffffffffffffff021916905560028201601c6101000a81549060ff021916905560028201601d6101000a81549060ff0219169055600382016000905560048201600090556005820160006101000a81549060ff0219169055600682016000905550507fd9a771705fc066b34f0996a0abae6a891c652869ac6b6e3b1e00e4e6d4638ea8846040516108d591906127c4565b60405180910390a150505050565b60008060008085815260200190815260200160002090506000801b8160000154141580156109145750828160010154145b801561092e575080600201601d9054906101000a900460ff165b1561093d576001915050610943565b60009150505b92915050565b600080600084815260200190815260200160002090508060020160009054906101000a900473ffffffffffffffffffffffffffffffffffffffff1673ffffffffffffffffffffffffffffffffffffffff163373ffffffffffffffffffffffffffffffffffffffff16146109f1576040517f08c379a00000000000000000000000000000000000000000000000000000000081526004016109e890612d86565b60405180910390fd5b80600201601c9054906101000a900460ff1615610a43576040517f08c379a0000000000000000000000000000000000000000000000000000000008152600401610a3a90612df2565b60405180910390fd5b80600201601d9054906101000a900460ff16610a94576040517f08c379a0000000000000000000000000000000000000000000000000000000008152600401610a8b90612e5e565b60405180910390fd5b60018160050160006101000a81548160ff0219169083151502179055508181600601819055507f1c35376aa8f00acbd4bde96b765adb6cf6e0d5e6c991a3dbf994c0e59df2321283604051610ae991906127c4565b60405180910390a1505050565b60016020528160005260406000208181548110610b1257600080fd5b90600052602060002001600091509150505481565b600560009054906101000a900460ff1615610b77576040517f08c379a0000000000000000000000000000000000000000000000000000000008152600401610b6e90612eca565b60405180910390fd5b6001600560006101000a81548160ff02191690831515021790555080600080828152602001908152602001600020600201601c9054906101000a900460ff1615610bf6576040517f08c379a0000000000000000000000000000000000000000000000000000000008152600401610bed90612f5c565b60405180910390fd5b6000806000848152602001908152602001600020905080600301543414610c52576040517f08c379a0000000000000000000000000000000000000000000000000000000008152600401610c4990612fee565b60405180910390fd5b80600201601d9054906101000a900460ff16610ca3576040517f08c379a0000000000000000000000000000000000000000000000000000000008152600401610c9a9061305a565b60405180910390fd5b60008160020160009054906101000a900473ffffffffffffffffffffffffffffffffffffffff169050338260020160006101000a81548173ffffffffffffffffffffffffffffffffffffffff021916908373ffffffffffffffffffffffffffffffffffffffff1602179055503482600301819055508073ffffffffffffffffffffffffffffffffffffffff166108fc349081150290604051600060405180830381858888f19350505050158015610d5e573d6000803e3d6000fd5b507ffd8856e33cf0872c85c89d373a010f59eac73bef929cb9e91f2a9b4391cfbc6e84823334604051610d94949392919061307a565b60405180910390a15050506000600560006101000a81548160ff02191690831515021790555050565b600360009054906101000a900473ffffffffffffffffffffffffffffffffffffffff1681565b610deb6123b5565b6000808381526020019081526020016000206040518061014001604052908160008201548152602001600182015481526020016002820160009054906101000a900473ffffffffffffffffffffffffffffffffffffffff1673ffffffffffffffffffffffffffffffffffffffff1673ffffffffffffffffffffffffffffffffffffffff1681526020016002820160149054906101000a900467ffffffffffffffff1667ffffffffffffffff1667ffffffffffffffff16815260200160028201601c9054906101000a900460ff1615151515815260200160028201601d9054906101000a900460ff1615151515815260200160038201548152602001600482015481526020016005820160009054906101000a900460ff161515151581526020016006820154815250509050919050565b600080600083815260200190815260200160002090503373ffffffffffffffffffffffffffffffffffffffff168160020160009054906101000a900473ffffffffffffffffffffffffffffffffffffffff1673ffffffffffffffffffffffffffffffffffffffff1614610fc3576040517f08c379a0000000000000000000000000000000000000000000000000000000008152600401610fba90613131565b60405180910390fd5b80600201601c9054906101000a900460ff1615611015576040517f08c379a000000000000000000000000000000000000000000000000000000000815260040161100c90612f5c565b60405180910390fd5b80600201601d9054906101000a900460ff16611066576040517f08c379a000000000000000000000000000000000000000000000000000000000815260040161105d9061305a565b60405180910390fd5b60008160040154905060003390508073ffffffffffffffffffffffffffffffffffffffff166108fc839081150290604051600060405180830381858888f193505050501580156110ba573d6000803e3d6000fd5b506110c98360010154856121d6565b60008085815260200190815260200160002060008082016000905560018201600090556002820160006101000a81549073ffffffffffffffffffffffffffffffffffffffff02191690556002820160146101000a81549067ffffffffffffffff021916905560028201601c6101000a81549060ff021916905560028201601d6101000a81549060ff0219169055600382016000905560048201600090556005820160006101000a81549060ff02191690556006820160009055505060066000858152602001908152602001600020600090557f264639f18b561b2178c34aef36b59305f75022f12fcecc6ed2f1e7b9662542de8433846040516111ce93929190613151565b60405180910390a150505050565b600080600083815260200190815260200160002090508060020160009054906101000a900473ffffffffffffffffffffffffffffffffffffffff1673ffffffffffffffffffffffffffffffffffffffff163373ffffffffffffffffffffffffffffffffffffffff1614611284576040517f08c379a000000000000000000000000000000000000000000000000000000000815260040161127b906131fa565b60405180910390fd5b8060050160009054906101000a900460ff166112d5576040517f08c379a00000000000000000000000000000000000000000000000000000000081526004016112cc90613266565b60405180910390fd5b60008160050160006101000a81548160ff021916908315150217905550600081600601819055507f994d9be7adae57b16087faeafa892c98ec1428cf788e482656add12969413c878260405161132b91906127c4565b60405180910390a15050565b600560009054906101000a900460ff1615611387576040517f08c379a000000000000000000000000000000000000000000000000000000000815260040161137e90612eca565b60405180910390fd5b6001600560006101000a81548160ff021916908315150217905550600080600083815260200190815260200160002090508060050160009054906101000a900460ff16611409576040517f08c379a0000000000000000000000000000000000000000000000000000000008152600401611400906132d2565b60405180910390fd5b8060060154341461144f576040517f08c379a00000000000000000000000000000000000000000000000000000000081526004016114469061338a565b60405180910390fd5b80600201601d9054906101000a900460ff166114a0576040517f08c379a0000000000000000000000000000000000000000000000000000000008152600401611497906133f6565b60405180910390fd5b60008160020160009054906101000a900473ffffffffffffffffffffffffffffffffffffffff169050338260020160006101000a81548173ffffffffffffffffffffffffffffffffffffffff021916908373ffffffffffffffffffffffffffffffffffffffff16021790555060008260050160006101000a81548160ff021916908315150217905550600082600601819055508073ffffffffffffffffffffffffffffffffffffffff166108fc349081150290604051600060405180830381858888f19350505050158015611579573d6000803e3d6000fd5b507fdad241cbe6e066caf7dfc11828c6b2df6b430a639390ba0675040ed5d2bff243838233346040516115af949392919061307a565b60405180910390a150506000600560006101000a81548160ff02191690831515021790555050565b600060016000838152602001908152602001600020905060005b81805490508110156118a957600082828154811061161257611611612cb6565b5b906000526020600020015490506000806000838152602001908152602001600020905080600201601d9054906101000a900460ff168015611662575080600201601c9054906101000a900460ff16155b156117c25760008160040154905060008260020160009054906101000a900473ffffffffffffffffffffffffffffffffffffffff169050600083600201601d6101000a81548160ff02191690831515021790555060008173ffffffffffffffffffffffffffffffffffffffff16836040516116dc90613447565b60006040518083038185875af1925050503d8060008114611719576040519150601f19603f3d011682016040523d82523d6000602084013e61171e565b606091505b5050905080611762576040517f08c379a0000000000000000000000000000000000000000000000000000000008152600401611759906134a8565b60405180910390fd5b7f79e3f523ecb0c96b50463daf491f9057d96b06408458e92d8b734c367092a19185838560405161179593929190613527565b60405180910390a16117a6856122dc565b600460008154809291906117b99061355e565b91905055505050505b60008083815260200190815260200160002060008082016000905560018201600090556002820160006101000a81549073ffffffffffffffffffffffffffffffffffffffff02191690556002820160146101000a81549067ffffffffffffffff021916905560028201601c6101000a81549060ff021916905560028201601d6101000a81549060ff0219169055600382016000905560048201600090556005820160006101000a81549060ff0219169055600682016000905550506006600083815260200190815260200160002060009055505080806118a190613588565b9150506115f1565b506001600083815260200190815260200160002060006118c99190612434565b7fc0919dcb7e0b464ce8146ec897e4a566e6a1af62233364998f3da696e08b500b826040516118f891906127c4565b60405180910390a15050565b6000600360009054906101000a900473ffffffffffffffffffffffffffffffffffffffff1673ffffffffffffffffffffffffffffffffffffffff163373ffffffffffffffffffffffffffffffffffffffff1614611996576040517f08c379a000000000000000000000000000000000000000000000000000000000815260040161198d90613643565b60405180910390fd5b60008484426040516020016119ad939291906136ed565b60405160208183030381529060405280519060200120905060004290506040518061014001604052808381526020018781526020018673ffffffffffffffffffffffffffffffffffffffff1681526020018267ffffffffffffffff1681526020016000151581526020016001151581526020018581526020018581526020016000151581526020016000815250600080848152602001908152602001600020600082015181600001556020820151816001015560408201518160020160006101000a81548173ffffffffffffffffffffffffffffffffffffffff021916908373ffffffffffffffffffffffffffffffffffffffff16021790555060608201518160020160146101000a81548167ffffffffffffffff021916908367ffffffffffffffff160217905550608082015181600201601c6101000a81548160ff02191690831515021790555060a082015181600201601d6101000a81548160ff02191690831515021790555060c0820151816003015560e082015181600401556101008201518160050160006101000a81548160ff021916908315150217905550610120820151816006015590505060016000878152602001908152602001600020829080600181540180825580915050600190039060005260206000200160009091909190915055600282908060018154018082558091505060019003906000526020600020016000909190919091505560046000815480929190611bcf90613588565b9190505550600180600088815260200190815260200160002080549050611bf69190612c82565b60066000848152602001908152602001600020819055507f59f9f03903d250b9088863ea41c64b2abc591d823643e4c51599100592df9f2e8287838888604051611c4495949392919061372a565b60405180910390a181925050509392505050565b60028181548110611c6857600080fd5b906000526020600020016000915090505481565b80600360006101000a81548173ffffffffffffffffffffffffffffffffffffffff021916908373ffffffffffffffffffffffffffffffffffffffff16021790555050565b60045481565b60606000805b600280549050811015611d82573373ffffffffffffffffffffffffffffffffffffffff1660008060028481548110611d0757611d06612cb6565b5b9060005260206000200154815260200190815260200160002060020160009054906101000a900473ffffffffffffffffffffffffffffffffffffffff1673ffffffffffffffffffffffffffffffffffffffff161415611d6f578180611d6b90613588565b9250505b8080611d7a90613588565b915050611ccc565b5060008167ffffffffffffffff811115611d9f57611d9e61377d565b5b604051908082528060200260200182016040528015611dd857816020015b611dc56123b5565b815260200190600190039081611dbd5790505b5090506000805b600280549050811015611ffa573373ffffffffffffffffffffffffffffffffffffffff1660008060028481548110611e1a57611e19612cb6565b5b9060005260206000200154815260200190815260200160002060020160009054906101000a900473ffffffffffffffffffffffffffffffffffffffff1673ffffffffffffffffffffffffffffffffffffffff161415611fe75760008060028381548110611e8a57611e89612cb6565b5b906000526020600020015481526020019081526020016000206040518061014001604052908160008201548152602001600182015481526020016002820160009054906101000a900473ffffffffffffffffffffffffffffffffffffffff1673ffffffffffffffffffffffffffffffffffffffff1673ffffffffffffffffffffffffffffffffffffffff1681526020016002820160149054906101000a900467ffffffffffffffff1667ffffffffffffffff1667ffffffffffffffff16815260200160028201601c9054906101000a900460ff1615151515815260200160028201601d9054906101000a900460ff1615151515815260200160038201548152602001600482015481526020016005820160009054906101000a900460ff16151515158152602001600682015481525050838381518110611fcd57611fcc612cb6565b5b60200260200101819052508180611fe390613588565b9250505b8080611ff290613588565b915050611ddf565b5081935050505090565b3373ffffffffffffffffffffffffffffffffffffffff1660008083815260200190815260200160002060020160009054906101000a900473ffffffffffffffffffffffffffffffffffffffff1673ffffffffffffffffffffffffffffffffffffffff16146120a7576040517f08c379a000000000000000000000000000000000000000000000000000000000815260040161209e9061381e565b60405180910390fd5b600080828152602001908152602001600020600201601c9054906101000a900460ff161561210a576040517f08c379a000000000000000000000000000000000000000000000000000000000815260040161210190612f5c565b60405180910390fd5b600080828152602001908152602001600020600201601d9054906101000a900460ff1661216c576040517f08c379a00000000000000000000000000000000000000000000000000000000081526004016121639061305a565b60405180910390fd5b6001600080838152602001908152602001600020600201601c6101000a81548160ff0219169083151502179055507f5e887a439fa796c056dfd595ead77c343c193a22734ed54140ce3a543708506281336040516121cb92919061383e565b60405180910390a150565b60006006600083815260200190815260200160002054905060006001806000868152602001908152602001600020805490506122129190612c82565b905080821461229d57600060016000868152602001908152602001600020828154811061224257612241612cb6565b5b906000526020600020015490508060016000878152602001908152602001600020848154811061227557612274612cb6565b5b9060005260206000200181905550826006600083815260200190815260200160002081905550505b600160008581526020019081526020016000208054806122c0576122bf612ce5565b5b6001900381819060005260206000200160009055905550505050565b600060066000838152602001908152602001600020549050600060016002805490506123089190612c82565b90508082146123715760006002828154811061232757612326612cb6565b5b90600052602060002001549050806002848154811061234957612348612cb6565b5b9060005260206000200181905550826006600083815260200190815260200160002081905550505b600280548061238357612382612ce5565b5b600190038181906000526020600020016000905590556006600084815260200190815260200160002060009055505050565b6040518061014001604052806000801916815260200160008019168152602001600073ffffffffffffffffffffffffffffffffffffffff168152602001600067ffffffffffffffff1681526020016000151581526020016000151581526020016000815260200160008152602001600015158152602001600081525090565b50805460008255906000526020600020908101906124529190612455565b50565b5b8082111561246e576000816000905550600101612456565b5090565b600080fd5b6000819050919050565b61248a81612477565b811461249557600080fd5b50565b6000813590506124a781612481565b92915050565b6000602082840312156124c3576124c2612472565b5b60006124d184828501612498565b91505092915050565b6124e381612477565b82525050565b600073ffffffffffffffffffffffffffffffffffffffff82169050919050565b6000612514826124e9565b9050919050565b61252481612509565b82525050565b600067ffffffffffffffff82169050919050565b6125478161252a565b82525050565b60008115159050919050565b6125628161254d565b82525050565b6000819050919050565b61257b81612568565b82525050565b600061014082019050612597600083018d6124da565b6125a4602083018c6124da565b6125b1604083018b61251b565b6125be606083018a61253e565b6125cb6080830189612559565b6125d860a0830188612559565b6125e560c0830187612572565b6125f260e0830186612572565b612600610100830185612559565b61260e610120830184612572565b9b9a5050505050505050505050565b600081519050919050565b600082825260208201905092915050565b6000819050602082019050919050565b61265281612477565b82525050565b60006126648383612649565b60208301905092915050565b6000602082019050919050565b60006126888261261d565b6126928185612628565b935061269d83612639565b8060005b838110156126ce5781516126b58882612658565b97506126c083612670565b9250506001810190506126a1565b5085935050505092915050565b600060208201905081810360008301526126f5818461267d565b905092915050565b6000806040838503121561271457612713612472565b5b600061272285828601612498565b925050602061273385828601612498565b9150509250929050565b60006020820190506127526000830184612559565b92915050565b61276181612568565b811461276c57600080fd5b50565b60008135905061277e81612758565b92915050565b6000806040838503121561279b5761279a612472565b5b60006127a985828601612498565b92505060206127ba8582860161276f565b9150509250929050565b60006020820190506127d960008301846124da565b92915050565b60006020820190506127f4600083018461251b565b92915050565b61280381612509565b82525050565b6128128161252a565b82525050565b6128218161254d565b82525050565b61283081612568565b82525050565b6101408201600082015161284d6000850182612649565b5060208201516128606020850182612649565b50604082015161287360408501826127fa565b5060608201516128866060850182612809565b5060808201516128996080850182612818565b5060a08201516128ac60a0850182612818565b5060c08201516128bf60c0850182612827565b5060e08201516128d260e0850182612827565b506101008201516128e7610100850182612818565b506101208201516128fc610120850182612827565b50505050565b6000610140820190506129186000830184612836565b92915050565b61292781612509565b811461293257600080fd5b50565b6000813590506129448161291e565b92915050565b60008060006060848603121561296357612962612472565b5b600061297186828701612498565b935050602061298286828701612935565b92505060406129938682870161276f565b9150509250925092565b6000602082840312156129b3576129b2612472565b5b60006129c18482850161276f565b91505092915050565b6000602082840312156129e0576129df612472565b5b60006129ee84828501612935565b91505092915050565b6000602082019050612a0c6000830184612572565b92915050565b600081519050919050565b600082825260208201905092915050565b6000819050602082019050919050565b61014082016000820151612a556000850182612649565b506020820151612a686020850182612649565b506040820151612a7b60408501826127fa565b506060820151612a8e6060850182612809565b506080820151612aa16080850182612818565b5060a0820151612ab460a0850182612818565b5060c0820151612ac760c0850182612827565b5060e0820151612ada60e0850182612827565b50610100820151612aef610100850182612818565b50610120820151612b04610120850182612827565b50505050565b6000612b168383612a3e565b6101408301905092915050565b6000602082019050919050565b6000612b3b82612a12565b612b458185612a1d565b9350612b5083612a2e565b8060005b83811015612b81578151612b688882612b0a565b9750612b7383612b23565b925050600181019050612b54565b5085935050505092915050565b60006020820190508181036000830152612ba88184612b30565b905092915050565b600082825260208201905092915050565b7f556e617574686f72697a65643a2063616c6c6572206973206e6f74207468652060008201527f7469636b6574206f776e6572206f72206576656e7420636f6e74726163740000602082015250565b6000612c1d603e83612bb0565b9150612c2882612bc1565b604082019050919050565b60006020820190508181036000830152612c4c81612c10565b9050919050565b7f4e487b7100000000000000000000000000000000000000000000000000000000600052601160045260246000fd5b6000612c8d82612568565b9150612c9883612568565b925082821015612cab57612caa612c53565b5b828203905092915050565b7f4e487b7100000000000000000000000000000000000000000000000000000000600052603260045260246000fd5b7f4e487b7100000000000000000000000000000000000000000000000000000000600052603160045260246000fd5b7f4f6e6c7920746865207469636b6574206f776e65722063616e2073657420697460008201527f20666f722073616c652e00000000000000000000000000000000000000000000602082015250565b6000612d70602a83612bb0565b9150612d7b82612d14565b604082019050919050565b60006020820190508181036000830152612d9f81612d63565b9050919050565b7f43616e6e6f742073656c6c20612072656465656d6564207469636b65742e0000600082015250565b6000612ddc601e83612bb0565b9150612de782612da6565b602082019050919050565b60006020820190508181036000830152612e0b81612dcf565b9050919050565b7f43616e6e6f742073656c6c20616e20696e76616c6964207469636b65742e0000600082015250565b6000612e48601e83612bb0565b9150612e5382612e12565b602082019050919050565b60006020820190508181036000830152612e7781612e3b565b9050919050565b7f5265656e7472616e6379206973206e6f7420616c6c6f77656400000000000000600082015250565b6000612eb4601983612bb0565b9150612ebf82612e7e565b602082019050919050565b60006020820190508181036000830152612ee381612ea7565b9050919050565b7f5469636b65742068617320616c7265616479206265656e2072656465656d656460008201527f2e00000000000000000000000000000000000000000000000000000000000000602082015250565b6000612f46602183612bb0565b9150612f5182612eea565b604082019050919050565b60006020820190508181036000830152612f7581612f39565b9050919050565b7f5472616e7366657220616d6f756e74206d757374206d6174636820746865207460008201527f69636b65742070726963652e0000000000000000000000000000000000000000602082015250565b6000612fd8602c83612bb0565b9150612fe382612f7c565b604082019050919050565b6000602082019050818103600083015261300781612fcb565b9050919050565b7f5469636b6574206973206e6f742076616c69642e000000000000000000000000600082015250565b6000613044601483612bb0565b915061304f8261300e565b602082019050919050565b6000602082019050818103600083015261307381613037565b9050919050565b600060808201905061308f60008301876124da565b61309c602083018661251b565b6130a9604083018561251b565b6130b66060830184612572565b95945050505050565b7f4f6e6c7920746865207469636b6574206f776e65722063616e2072657475726e60008201527f20746865207469636b65742e0000000000000000000000000000000000000000602082015250565b600061311b602c83612bb0565b9150613126826130bf565b604082019050919050565b6000602082019050818103600083015261314a8161310e565b9050919050565b600060608201905061316660008301866124da565b613173602083018561251b565b6131806040830184612572565b949350505050565b7f4f6e6c7920746865207469636b6574206f776e65722063616e2063616e63656c60008201527f207468652073616c652e00000000000000000000000000000000000000000000602082015250565b60006131e4602a83612bb0565b91506131ef82613188565b604082019050919050565b60006020820190508181036000830152613213816131d7565b9050919050565b7f5469636b6574206973206e6f7420666f722073616c652e000000000000000000600082015250565b6000613250601783612bb0565b915061325b8261321a565b602082019050919050565b6000602082019050818103600083015261327f81613243565b9050919050565b7f54686973207469636b6574206973206e6f7420666f722073616c652e00000000600082015250565b60006132bc601c83612bb0565b91506132c782613286565b602082019050919050565b600060208201905081810360008301526132eb816132af565b9050919050565b7f506c65617365207375626d6974207468652061736b696e67207072696365206960008201527f6e206f7264657220746f20636f6d706c6574652074686520707572636861736560208201527f2e00000000000000000000000000000000000000000000000000000000000000604082015250565b6000613374604183612bb0565b915061337f826132f2565b606082019050919050565b600060208201905081810360008301526133a381613367565b9050919050565b7f43616e6e6f742062757920616e20696e76616c6964207469636b65742e000000600082015250565b60006133e0601d83612bb0565b91506133eb826133aa565b602082019050919050565b6000602082019050818103600083015261340f816133d3565b9050919050565b600081905092915050565b50565b6000613431600083613416565b915061343c82613421565b600082019050919050565b600061345282613424565b9150819050919050565b7f4661696c656420746f2073656e64204574686572000000000000000000000000600082015250565b6000613492601483612bb0565b915061349d8261345c565b602082019050919050565b600060208201905081810360008301526134c181613485565b9050919050565b6000819050919050565b60006134ed6134e86134e3846124e9565b6134c8565b6124e9565b9050919050565b60006134ff826134d2565b9050919050565b6000613511826134f4565b9050919050565b61352181613506565b82525050565b600060608201905061353c60008301866124da565b6135496020830185613518565b6135566040830184612572565b949350505050565b600061356982612568565b9150600082141561357d5761357c612c53565b5b600182039050919050565b600061359382612568565b91507fffffffffffffffffffffffffffffffffffffffffffffffffffffffffffffffff8214156135c6576135c5612c53565b5b600182019050919050565b7f556e617574686f72697a65643a2063616c6c6572206973206e6f74207468652060008201527f6576656e7420636f6e7472616374000000000000000000000000000000000000602082015250565b600061362d602e83612bb0565b9150613638826135d1565b604082019050919050565b6000602082019050818103600083015261365c81613620565b9050919050565b6000819050919050565b61367e61367982612477565b613663565b82525050565b60008160601b9050919050565b600061369c82613684565b9050919050565b60006136ae82613691565b9050919050565b6136c66136c182612509565b6136a3565b82525050565b6000819050919050565b6136e76136e282612568565b6136cc565b82525050565b60006136f9828661366d565b60208201915061370982856136b5565b60148201915061371982846136d6565b602082019150819050949350505050565b600060a08201905061373f60008301886124da565b61374c60208301876124da565b613759604083018661253e565b613766606083018561251b565b6137736080830184612572565b9695505050505050565b7f4e487b7100000000000000000000000000000000000000000000000000000000600052604160045260246000fd5b7f4f6e6c7920746865207469636b6574206f776e65722063616e2072656465656d60008201527f2069742e00000000000000000000000000000000000000000000000000000000602082015250565b6000613808602483612bb0565b9150613813826137ac565b604082019050919050565b60006020820190508181036000830152613837816137fb565b9050919050565b600060408201905061385360008301856124da565b613860602083018461251b565b939250505056fea264697066735822122015ec2c3b25d1e24cf3c6edec65da0afa9045c392ff06ec4d0bf7a88ec195205264736f6c634300080a0033",
  "immutableReferences": {},
  "source": "// SPDX-License-Identifier: MIT\npragma solidity ^0.8.10;\n\ncontract TicketContract {\n  struct Ticket {\n    bytes32 ticketID;\n    bytes32 eventID;\n    address ticketOwner;\n    uint64 purchasedDate;\n    bool isRedeemed;\n    bool isValid;\n    uint256 ticketPrice;\n    uint256 originalPrice;\n    bool forSale;\n    uint256 salePrice;\n  }\n  //mapping for allTickets for the TicketContract\n  mapping(bytes32 => Ticket) public allTickets;\n  // mapping for allEvents but by eventID\n  mapping(bytes32 => bytes32[]) public ticketsByEvent;\n  // array to keep all IDs for tickets\n  bytes32[] public allTicketIDs;\n  // address of EventContract, only this address can create new tickets\n  address public eventContractAddress;\n  // number of all tickets\n  uint256 public totalTickets;\n  // variable for this -> The reentrancy guard is a mechanism that prevents reentry to certain functions during\n  // their execution. This is particularly important for functions that involve the transfer of funds.\n  bool private locked;\n  // mapping for better and more optimalize indexing\n  mapping(bytes32 => uint256) private ticketIndexInEvent;\n\n  function setEventContractAddress(address _eventContractAddress) external {\n    eventContractAddress = _eventContractAddress;\n  }\n\n  // event emitters\n  event TicketTransferred(bytes32 ticketID, address from, address to, uint256 newPrice);\n  event TicketCreated(\n    bytes32 ticketID,\n    bytes32 eventID,\n    uint64 purchasedDate,\n    address buyer,\n    uint256 price\n  );\n  event TicketRedeemed(bytes32 ticketID, address redeemer);\n  event TicketDeleted(bytes32 ticketID);\n  event TicketReturned(bytes32 ticketID, address sender, uint256 refundAmount);\n  event TicketRefunded(bytes32 ticketID, address ticketOwner, uint256 refundAmount);\n  event EventCancelled(bytes32 eventID);\n\n  event TicketSetForSale(bytes32 ticketID);\n  event TicketSaleCancelled(bytes32 ticketID);\n  event TicketPurchasedFromMarket(\n    bytes32 ticketID,\n    address oldOwner,\n    address newOwner,\n    uint256 price\n  );\n\n  // constructor for create new instance of TicketContract\n  constructor(address _eventContractAddress) {\n    eventContractAddress = _eventContractAddress;\n  }\n  // modifier - check if request send EventContract\n  modifier onlyEventContract() {\n    require(msg.sender == eventContractAddress, 'Unauthorized: caller is not the event contract');\n    _;\n  }\n  // modifier - check if ticket is not redeemed yet. If yes user cant sell tickets to others\n  modifier isNotRedeemed(bytes32 _ticketID) {\n    require(!allTickets[_ticketID].isRedeemed, 'Ticket has already been redeemed.');\n    _;\n  }\n  // modifier - The reentrancy guard is a mechanism that prevents reentry to certain functions during\n  // their execution. This is particularly important for functions that involve the transfer of funds.\n  modifier noReentrancy() {\n    require(!locked, 'Reentrancy is not allowed');\n    locked = true;\n    _;\n    locked = false;\n  }\n  // Function to create new ticket for eventID\n  // @param _eventID is ID of event, for which is ticket\n  // @param _buyer is address of user, which ticket buy\n  // @param _tickerPrice is price of the ticket\n  // @ return - ID of new ticket\n  function createNewTicket(\n    bytes32 _eventID,\n    address _buyer,\n    uint256 _ticketPrice\n  ) external onlyEventContract returns (bytes32) {\n    bytes32 ticketID = keccak256(abi.encodePacked(_eventID, _buyer, block.timestamp));\n    uint64 _purchasedDate = uint64(block.timestamp);\n    allTickets[ticketID] = Ticket({\n      ticketID: ticketID,\n      eventID: _eventID,\n      ticketOwner: _buyer,\n      purchasedDate: _purchasedDate,\n      isRedeemed: false,\n      isValid: true,\n      ticketPrice: _ticketPrice,\n      originalPrice: _ticketPrice,\n      forSale: false,\n      salePrice: 0\n    });\n    ticketsByEvent[_eventID].push(ticketID);\n    allTicketIDs.push(ticketID);\n    totalTickets++;\n\n    ticketIndexInEvent[ticketID] = ticketsByEvent[_eventID].length - 1;\n\n    emit TicketCreated(ticketID, _eventID, _purchasedDate, _buyer, _ticketPrice);\n\n    return ticketID;\n  }\n  // function to change ownership of the ticket, its for selling tickets between users\n  // @param _eventID is ID of event, for which is ticket\n  // @param _buyer is address of user, which ticket buy\n  // @return - bool value for FE handling\n  function transferTicket(\n    bytes32 _ticketID\n  ) external payable noReentrancy isNotRedeemed(_ticketID) {\n    Ticket storage ticket = allTickets[_ticketID];\n    require(msg.value == ticket.ticketPrice, 'Transfer amount must match the ticket price.');\n    require(ticket.isValid, 'Ticket is not valid.');\n\n    address oldOwner = ticket.ticketOwner;\n    ticket.ticketOwner = msg.sender;\n    ticket.ticketPrice = msg.value;\n\n    payable(oldOwner).transfer(msg.value);\n    emit TicketTransferred(_ticketID, oldOwner, msg.sender, msg.value);\n  }\n  // function return info about ticket with _ticketID\n  function getTicketInfo(bytes32 _ticketID) external view returns (Ticket memory) {\n    return allTickets[_ticketID];\n  }\n  // function to return array of tickets for one specific event\n  function getTicketsForEvent(bytes32 _eventID) external view returns (bytes32[] memory) {\n    return ticketsByEvent[_eventID];\n  }\n  // function to return tickets for one specific user\n  function getMyTickets() external view returns (Ticket[] memory) {\n    uint totalTicketsCount = 0;\n\n    for (uint256 i = 0; i < allTicketIDs.length; i++) {\n      if (allTickets[allTicketIDs[i]].ticketOwner == msg.sender) {\n        totalTicketsCount++;\n      }\n    }\n\n    Ticket[] memory ownedTickets = new Ticket[](totalTicketsCount);\n    uint256 index = 0;\n    for (uint256 i = 0; i < allTicketIDs.length; i++) {\n      if (allTickets[allTicketIDs[i]].ticketOwner == msg.sender) {\n        ownedTickets[index] = allTickets[allTicketIDs[i]];\n        index++;\n      }\n    }\n\n    return ownedTickets;\n  }\n  // function to flag ticket as reedeemed, which means user arrive on the event, so\n  // any other function cant run\n  function redeemTicket(bytes32 _ticketID) external {\n    require(\n      allTickets[_ticketID].ticketOwner == msg.sender,\n      'Only the ticket owner can redeem it.'\n    );\n    require(!allTickets[_ticketID].isRedeemed, 'Ticket has already been redeemed.');\n    require(allTickets[_ticketID].isValid, 'Ticket is not valid.');\n\n    allTickets[_ticketID].isRedeemed = true;\n\n    emit TicketRedeemed(_ticketID, msg.sender);\n  }\n  // function to verify ticket\n  function verifyTicket(bytes32 _ticketID, bytes32 _eventID) external view returns (bool) {\n    Ticket storage _ticket = allTickets[_ticketID];\n    if (_ticket.ticketID != 0 && _ticket.eventID == _eventID && _ticket.isValid) {\n      return true;\n    } else {\n      return false;\n    }\n  }\n  // function to delete one specific ticket with id\n  function deleteTicket(bytes32 _ticketID) external {\n    require(\n      msg.sender == allTickets[_ticketID].ticketOwner || msg.sender == eventContractAddress,\n      'Unauthorized: caller is not the ticket owner or event contract'\n    );\n\n    bytes32 eventId = allTickets[_ticketID].eventID;\n    uint index = ticketIndexInEvent[_ticketID];\n    uint lastIndex = ticketsByEvent[eventId].length - 1;\n\n    if (index != lastIndex) {\n      bytes32 lastTicketID = ticketsByEvent[eventId][lastIndex];\n      ticketsByEvent[eventId][index] = lastTicketID;\n      ticketIndexInEvent[lastTicketID] = index;\n    }\n    ticketsByEvent[eventId].pop();\n    delete ticketIndexInEvent[_ticketID];\n    delete allTickets[_ticketID];\n\n    emit TicketDeleted(_ticketID);\n  }\n  // Function to return a ticket and refund the purchase price\n  function returnTicket(bytes32 _ticketID) external {\n    Ticket storage ticket = allTickets[_ticketID];\n    require(ticket.ticketOwner == msg.sender, 'Only the ticket owner can return the ticket.');\n    require(!ticket.isRedeemed, 'Ticket has already been redeemed.');\n    require(ticket.isValid, 'Ticket is not valid.');\n\n    uint256 refundAmount = ticket.originalPrice;\n    address payable ownerPayable = payable(msg.sender);\n\n    ownerPayable.transfer(refundAmount);\n\n    removeTicketFromEventList(ticket.eventID, _ticketID);\n    delete allTickets[_ticketID];\n    delete ticketIndexInEvent[_ticketID];\n\n    emit TicketReturned(_ticketID, msg.sender, refundAmount);\n  }\n  // Function to remove a ticket from the ticketsByEvent mapping\n  function removeTicketFromEventList(bytes32 _eventId, bytes32 _ticketID) private {\n    uint index = ticketIndexInEvent[_ticketID];\n    uint lastIndex = ticketsByEvent[_eventId].length - 1;\n    if (index != lastIndex) {\n      bytes32 lastTicketID = ticketsByEvent[_eventId][lastIndex];\n      ticketsByEvent[_eventId][index] = lastTicketID;\n      ticketIndexInEvent[lastTicketID] = index;\n    }\n    ticketsByEvent[_eventId].pop();\n  }\n  // function to delete tickets, return all eth for ticketOwners atc. when event is cancelled\n  function cancelAllTickets(bytes32 eventId) external {\n    bytes32[] storage tickets = ticketsByEvent[eventId];\n    for (uint i = 0; i < tickets.length; i++) {\n      bytes32 ticketId = tickets[i];\n      Ticket storage ticket = allTickets[ticketId];\n      if (ticket.isValid && !ticket.isRedeemed) {\n        uint256 refundAmount = ticket.originalPrice;\n        address payable ticketOwner = payable(ticket.ticketOwner);\n\n        ticket.isValid = false;\n\n        (bool sent, ) = ticketOwner.call{value: refundAmount}('');\n        require(sent, 'Failed to send Ether');\n\n        emit TicketRefunded(ticketId, ticketOwner, refundAmount);\n        removeTicketFromAllTickets(ticketId);\n        totalTickets--;\n      }\n      delete allTickets[ticketId];\n      delete ticketIndexInEvent[ticketId];\n    }\n    delete ticketsByEvent[eventId];\n\n    emit EventCancelled(eventId);\n  }\n  function removeTicketFromAllTickets(bytes32 ticketId) private {\n    uint index = ticketIndexInEvent[ticketId];\n    uint lastIndex = allTicketIDs.length - 1;\n\n    if (index != lastIndex) {\n      bytes32 lastTicketId = allTicketIDs[lastIndex];\n      allTicketIDs[index] = lastTicketId;\n      ticketIndexInEvent[lastTicketId] = index;\n    }\n    allTicketIDs.pop();\n    delete ticketIndexInEvent[ticketId];\n  }\n  // function to set ticket for sale\n  function setTicketForSale(bytes32 _ticketID, uint256 _price) external {\n    Ticket storage _ticket = allTickets[_ticketID];\n    require(msg.sender == _ticket.ticketOwner, 'Only the ticket owner can set it for sale.');\n    require(!_ticket.isRedeemed, 'Cannot sell a redeemed ticket.');\n    require(_ticket.isValid, 'Cannot sell an invalid ticket.');\n\n    _ticket.forSale = true;\n    _ticket.salePrice = _price;\n\n    emit TicketSetForSale(_ticketID);\n  }\n  // function to set ticket not for sale\n  function cancelTicketForSale(bytes32 _ticketID) external {\n    Ticket storage _ticket = allTickets[_ticketID];\n    require(msg.sender == _ticket.ticketOwner, 'Only the ticket owner can cancel the sale.');\n    require(_ticket.forSale, 'Ticket is not for sale.');\n\n    _ticket.forSale = false;\n    _ticket.salePrice = 0;\n\n    emit TicketSaleCancelled(_ticketID);\n  }\n\n  // function to buy ticket from market\n  function buyTicketFromMarket(bytes32 _ticketID) external payable noReentrancy {\n    Ticket storage _ticket = allTickets[_ticketID];\n    require(_ticket.forSale, 'This ticket is not for sale.');\n    require(\n      msg.value == _ticket.salePrice,\n      'Please submit the asking price in order to complete the purchase.'\n    );\n    require(_ticket.isValid, 'Cannot buy an invalid ticket.');\n\n    address oldOwner = _ticket.ticketOwner;\n    _ticket.ticketOwner = msg.sender;\n    _ticket.forSale = false;\n    _ticket.salePrice = 0;\n\n    payable(oldOwner).transfer(msg.value);\n\n    emit TicketPurchasedFromMarket(_ticketID, oldOwner, msg.sender, msg.value);\n  }\n}\n",
  "sourcePath": "/Users/janmrakava/Documents/GitHub/blockticket_blockchain/client/contracts/Ticket.sol",
  "compiler": {
    "name": "solc",
    "version": "0.8.10+commit.fc410830.Emscripten.clang"
  },
  "schemaVersion": "3.4.16",
  "updatedAt": "2024-04-21T19:40:22.561Z",
  "networkType": "ethereum",
  "devdoc": {
    "kind": "dev",
    "methods": {},
    "version": 1
  },
  "userdoc": {
    "kind": "user",
    "methods": {},
    "version": 1
  }
}