{
  "contractName": "TicketContract",
  "abi": [
    {
      "inputs": [
        {
          "internalType": "address",
          "name": "_eventContractAddress",
          "type": "address"
        }
      ],
      "stateMutability": "nonpayable",
      "type": "constructor"
    },
    {
      "anonymous": false,
      "inputs": [
        {
          "indexed": true,
          "internalType": "bytes32",
          "name": "message",
          "type": "bytes32"
        },
        {
          "indexed": false,
          "internalType": "bytes32",
          "name": "data",
          "type": "bytes32"
        }
      ],
      "name": "Debug",
      "type": "event"
    },
    {
      "anonymous": false,
      "inputs": [
        {
          "indexed": false,
          "internalType": "string",
          "name": "message",
          "type": "string"
        },
        {
          "indexed": false,
          "internalType": "uint256",
          "name": "data",
          "type": "uint256"
        }
      ],
      "name": "DebugUint",
      "type": "event"
    },
    {
      "anonymous": false,
      "inputs": [
        {
          "indexed": false,
          "internalType": "bytes32",
          "name": "eventID",
          "type": "bytes32"
        }
      ],
      "name": "EventCancelled",
      "type": "event"
    },
    {
      "anonymous": false,
      "inputs": [
        {
          "indexed": false,
          "internalType": "bytes32",
          "name": "ticketID",
          "type": "bytes32"
        },
        {
          "indexed": false,
          "internalType": "bytes32",
          "name": "eventID",
          "type": "bytes32"
        },
        {
          "indexed": false,
          "internalType": "uint64",
          "name": "purchasedDate",
          "type": "uint64"
        },
        {
          "indexed": false,
          "internalType": "address",
          "name": "buyer",
          "type": "address"
        },
        {
          "indexed": false,
          "internalType": "uint256",
          "name": "price",
          "type": "uint256"
        }
      ],
      "name": "TicketCreated",
      "type": "event"
    },
    {
      "anonymous": false,
      "inputs": [
        {
          "indexed": false,
          "internalType": "bytes32",
          "name": "ticketID",
          "type": "bytes32"
        }
      ],
      "name": "TicketDeleted",
      "type": "event"
    },
    {
      "anonymous": false,
      "inputs": [
        {
          "indexed": false,
          "internalType": "bytes32",
          "name": "ticketID",
          "type": "bytes32"
        },
        {
          "indexed": false,
          "internalType": "address",
          "name": "oldOwner",
          "type": "address"
        },
        {
          "indexed": false,
          "internalType": "address",
          "name": "newOwner",
          "type": "address"
        },
        {
          "indexed": false,
          "internalType": "uint256",
          "name": "price",
          "type": "uint256"
        }
      ],
      "name": "TicketPurchasedFromMarket",
      "type": "event"
    },
    {
      "anonymous": false,
      "inputs": [
        {
          "indexed": false,
          "internalType": "bytes32",
          "name": "ticketID",
          "type": "bytes32"
        },
        {
          "indexed": false,
          "internalType": "address",
          "name": "redeemer",
          "type": "address"
        }
      ],
      "name": "TicketRedeemed",
      "type": "event"
    },
    {
      "anonymous": false,
      "inputs": [
        {
          "indexed": false,
          "internalType": "bytes32",
          "name": "ticketID",
          "type": "bytes32"
        },
        {
          "indexed": false,
          "internalType": "address",
          "name": "ticketOwner",
          "type": "address"
        },
        {
          "indexed": false,
          "internalType": "uint256",
          "name": "refundAmount",
          "type": "uint256"
        }
      ],
      "name": "TicketRefunded",
      "type": "event"
    },
    {
      "anonymous": false,
      "inputs": [
        {
          "indexed": false,
          "internalType": "bytes32",
          "name": "ticketID",
          "type": "bytes32"
        },
        {
          "indexed": false,
          "internalType": "address",
          "name": "sender",
          "type": "address"
        },
        {
          "indexed": false,
          "internalType": "uint256",
          "name": "refundAmount",
          "type": "uint256"
        }
      ],
      "name": "TicketReturned",
      "type": "event"
    },
    {
      "anonymous": false,
      "inputs": [
        {
          "indexed": false,
          "internalType": "bytes32",
          "name": "ticketID",
          "type": "bytes32"
        }
      ],
      "name": "TicketSaleCancelled",
      "type": "event"
    },
    {
      "anonymous": false,
      "inputs": [
        {
          "indexed": false,
          "internalType": "bytes32",
          "name": "ticketID",
          "type": "bytes32"
        }
      ],
      "name": "TicketSetForSale",
      "type": "event"
    },
    {
      "anonymous": false,
      "inputs": [
        {
          "indexed": false,
          "internalType": "bytes32",
          "name": "ticketID",
          "type": "bytes32"
        },
        {
          "indexed": false,
          "internalType": "address",
          "name": "from",
          "type": "address"
        },
        {
          "indexed": false,
          "internalType": "address",
          "name": "to",
          "type": "address"
        },
        {
          "indexed": false,
          "internalType": "uint256",
          "name": "newPrice",
          "type": "uint256"
        }
      ],
      "name": "TicketTransferred",
      "type": "event"
    },
    {
      "inputs": [
        {
          "internalType": "uint256",
          "name": "",
          "type": "uint256"
        }
      ],
      "name": "allTicketIDs",
      "outputs": [
        {
          "internalType": "bytes32",
          "name": "",
          "type": "bytes32"
        }
      ],
      "stateMutability": "view",
      "type": "function",
      "constant": true
    },
    {
      "inputs": [
        {
          "internalType": "bytes32",
          "name": "",
          "type": "bytes32"
        }
      ],
      "name": "allTickets",
      "outputs": [
        {
          "internalType": "bytes32",
          "name": "ticketID",
          "type": "bytes32"
        },
        {
          "internalType": "bytes32",
          "name": "eventID",
          "type": "bytes32"
        },
        {
          "internalType": "address",
          "name": "ticketOwner",
          "type": "address"
        },
        {
          "internalType": "uint64",
          "name": "purchasedDate",
          "type": "uint64"
        },
        {
          "internalType": "bool",
          "name": "isRedeemed",
          "type": "bool"
        },
        {
          "internalType": "bool",
          "name": "isValid",
          "type": "bool"
        },
        {
          "internalType": "uint256",
          "name": "ticketPrice",
          "type": "uint256"
        },
        {
          "internalType": "uint256",
          "name": "originalPrice",
          "type": "uint256"
        },
        {
          "internalType": "bool",
          "name": "forSale",
          "type": "bool"
        },
        {
          "internalType": "uint256",
          "name": "salePrice",
          "type": "uint256"
        }
      ],
      "stateMutability": "view",
      "type": "function",
      "constant": true
    },
    {
      "inputs": [],
      "name": "eventContractAddress",
      "outputs": [
        {
          "internalType": "address",
          "name": "",
          "type": "address"
        }
      ],
      "stateMutability": "view",
      "type": "function",
      "constant": true
    },
    {
      "inputs": [
        {
          "internalType": "bytes32",
          "name": "",
          "type": "bytes32"
        },
        {
          "internalType": "uint256",
          "name": "",
          "type": "uint256"
        }
      ],
      "name": "ticketsByEvent",
      "outputs": [
        {
          "internalType": "bytes32",
          "name": "",
          "type": "bytes32"
        }
      ],
      "stateMutability": "view",
      "type": "function",
      "constant": true
    },
    {
      "inputs": [],
      "name": "totalTickets",
      "outputs": [
        {
          "internalType": "uint256",
          "name": "",
          "type": "uint256"
        }
      ],
      "stateMutability": "view",
      "type": "function",
      "constant": true
    },
    {
      "inputs": [
        {
          "internalType": "address",
          "name": "_eventContractAddress",
          "type": "address"
        }
      ],
      "name": "setEventContractAddress",
      "outputs": [],
      "stateMutability": "nonpayable",
      "type": "function"
    },
    {
      "inputs": [
        {
          "internalType": "bytes32",
          "name": "_eventID",
          "type": "bytes32"
        },
        {
          "internalType": "uint256",
          "name": "_ticketPrice",
          "type": "uint256"
        },
        {
          "internalType": "address",
          "name": "userAddress",
          "type": "address"
        }
      ],
      "name": "createNewTicket",
      "outputs": [
        {
          "internalType": "bytes32",
          "name": "",
          "type": "bytes32"
        }
      ],
      "stateMutability": "payable",
      "type": "function",
      "payable": true
    },
    {
      "inputs": [
        {
          "internalType": "bytes32",
          "name": "_ticketID",
          "type": "bytes32"
        }
      ],
      "name": "transferTicket",
      "outputs": [],
      "stateMutability": "payable",
      "type": "function",
      "payable": true
    },
    {
      "inputs": [
        {
          "internalType": "bytes32",
          "name": "_ticketID",
          "type": "bytes32"
        }
      ],
      "name": "getTicketInfo",
      "outputs": [
        {
          "components": [
            {
              "internalType": "bytes32",
              "name": "ticketID",
              "type": "bytes32"
            },
            {
              "internalType": "bytes32",
              "name": "eventID",
              "type": "bytes32"
            },
            {
              "internalType": "address",
              "name": "ticketOwner",
              "type": "address"
            },
            {
              "internalType": "uint64",
              "name": "purchasedDate",
              "type": "uint64"
            },
            {
              "internalType": "bool",
              "name": "isRedeemed",
              "type": "bool"
            },
            {
              "internalType": "bool",
              "name": "isValid",
              "type": "bool"
            },
            {
              "internalType": "uint256",
              "name": "ticketPrice",
              "type": "uint256"
            },
            {
              "internalType": "uint256",
              "name": "originalPrice",
              "type": "uint256"
            },
            {
              "internalType": "bool",
              "name": "forSale",
              "type": "bool"
            },
            {
              "internalType": "uint256",
              "name": "salePrice",
              "type": "uint256"
            }
          ],
          "internalType": "struct TicketContract.Ticket",
          "name": "",
          "type": "tuple"
        }
      ],
      "stateMutability": "view",
      "type": "function",
      "constant": true
    },
    {
      "inputs": [
        {
          "internalType": "bytes32",
          "name": "_eventID",
          "type": "bytes32"
        }
      ],
      "name": "getTicketsForEvent",
      "outputs": [
        {
          "internalType": "bytes32[]",
          "name": "",
          "type": "bytes32[]"
        }
      ],
      "stateMutability": "view",
      "type": "function",
      "constant": true
    },
    {
      "inputs": [],
      "name": "getMyTickets",
      "outputs": [
        {
          "components": [
            {
              "internalType": "bytes32",
              "name": "ticketID",
              "type": "bytes32"
            },
            {
              "internalType": "bytes32",
              "name": "eventID",
              "type": "bytes32"
            },
            {
              "internalType": "address",
              "name": "ticketOwner",
              "type": "address"
            },
            {
              "internalType": "uint64",
              "name": "purchasedDate",
              "type": "uint64"
            },
            {
              "internalType": "bool",
              "name": "isRedeemed",
              "type": "bool"
            },
            {
              "internalType": "bool",
              "name": "isValid",
              "type": "bool"
            },
            {
              "internalType": "uint256",
              "name": "ticketPrice",
              "type": "uint256"
            },
            {
              "internalType": "uint256",
              "name": "originalPrice",
              "type": "uint256"
            },
            {
              "internalType": "bool",
              "name": "forSale",
              "type": "bool"
            },
            {
              "internalType": "uint256",
              "name": "salePrice",
              "type": "uint256"
            }
          ],
          "internalType": "struct TicketContract.Ticket[]",
          "name": "",
          "type": "tuple[]"
        }
      ],
      "stateMutability": "view",
      "type": "function",
      "constant": true
    },
    {
      "inputs": [],
      "name": "getTicketsForSale",
      "outputs": [
        {
          "components": [
            {
              "internalType": "bytes32",
              "name": "ticketID",
              "type": "bytes32"
            },
            {
              "internalType": "bytes32",
              "name": "eventID",
              "type": "bytes32"
            },
            {
              "internalType": "address",
              "name": "ticketOwner",
              "type": "address"
            },
            {
              "internalType": "uint64",
              "name": "purchasedDate",
              "type": "uint64"
            },
            {
              "internalType": "bool",
              "name": "isRedeemed",
              "type": "bool"
            },
            {
              "internalType": "bool",
              "name": "isValid",
              "type": "bool"
            },
            {
              "internalType": "uint256",
              "name": "ticketPrice",
              "type": "uint256"
            },
            {
              "internalType": "uint256",
              "name": "originalPrice",
              "type": "uint256"
            },
            {
              "internalType": "bool",
              "name": "forSale",
              "type": "bool"
            },
            {
              "internalType": "uint256",
              "name": "salePrice",
              "type": "uint256"
            }
          ],
          "internalType": "struct TicketContract.Ticket[]",
          "name": "",
          "type": "tuple[]"
        }
      ],
      "stateMutability": "view",
      "type": "function",
      "constant": true
    },
    {
      "inputs": [
        {
          "internalType": "bytes32",
          "name": "_ticketID",
          "type": "bytes32"
        }
      ],
      "name": "redeemTicket",
      "outputs": [],
      "stateMutability": "nonpayable",
      "type": "function"
    },
    {
      "inputs": [
        {
          "internalType": "bytes32",
          "name": "_ticketID",
          "type": "bytes32"
        }
      ],
      "name": "verifyTicket",
      "outputs": [
        {
          "internalType": "bool",
          "name": "",
          "type": "bool"
        }
      ],
      "stateMutability": "view",
      "type": "function",
      "constant": true
    },
    {
      "inputs": [
        {
          "internalType": "bytes32",
          "name": "_ticketID",
          "type": "bytes32"
        }
      ],
      "name": "deleteTicket",
      "outputs": [],
      "stateMutability": "nonpayable",
      "type": "function"
    },
    {
      "inputs": [
        {
          "internalType": "bytes32",
          "name": "_ticketID",
          "type": "bytes32"
        }
      ],
      "name": "returnTicket",
      "outputs": [],
      "stateMutability": "nonpayable",
      "type": "function"
    },
    {
      "inputs": [
        {
          "internalType": "bytes32",
          "name": "eventId",
          "type": "bytes32"
        }
      ],
      "name": "cancelAllTickets",
      "outputs": [],
      "stateMutability": "nonpayable",
      "type": "function"
    },
    {
      "inputs": [
        {
          "internalType": "bytes32",
          "name": "_ticketID",
          "type": "bytes32"
        },
        {
          "internalType": "uint256",
          "name": "_price",
          "type": "uint256"
        }
      ],
      "name": "setTicketForSale",
      "outputs": [],
      "stateMutability": "nonpayable",
      "type": "function"
    },
    {
      "inputs": [
        {
          "internalType": "bytes32",
          "name": "_ticketID",
          "type": "bytes32"
        }
      ],
      "name": "cancelTicketForSale",
      "outputs": [],
      "stateMutability": "nonpayable",
      "type": "function"
    },
    {
      "inputs": [
        {
          "internalType": "bytes32",
          "name": "_ticketID",
          "type": "bytes32"
        }
      ],
      "name": "buyTicketFromMarket",
      "outputs": [],
      "stateMutability": "payable",
      "type": "function",
      "payable": true
    }
  ],
  "bytecode": "0x60806040523480156200001157600080fd5b5060405162003a6338038062003a638339818101604052810190620000379190620000e9565b80600360006101000a81548173ffffffffffffffffffffffffffffffffffffffff021916908373ffffffffffffffffffffffffffffffffffffffff160217905550506200011b565b600080fd5b600073ffffffffffffffffffffffffffffffffffffffff82169050919050565b6000620000b18262000084565b9050919050565b620000c381620000a4565b8114620000cf57600080fd5b50565b600081519050620000e381620000b8565b92915050565b6000602082840312156200010257620001016200007f565b5b60006200011284828501620000d2565b91505092915050565b613938806200012b6000396000f3fe60806040526004361061011f5760003560e01c806387e9a744116100a0578063d5a114e711610064578063d5a114e7146103e9578063d777624814610426578063dd11247e1461044f578063e1d10d851461047a578063edd8741d146104a55761011f565b806387e9a74414610315578063924b5a0714610352578063adcb8bdb1461037b578063afcd2452146103a4578063bf3f733e146103c05761011f565b806335fe12d8116100e757806335fe12d81461023d57806338d986c214610268578063422375ec14610291578063790f770e146102ce57806384d4f1a7146102ea5761011f565b8063090a8556146101245780630e5f14eb1461016a57806313db90e6146101a7578063181fcc89146101d75780632a0d880714610214575b600080fd5b34801561013057600080fd5b5061014b600480360381019061014691906126d0565b6104ce565b6040516101619a999897969594939291906127a4565b60405180910390f35b34801561017657600080fd5b50610191600480360381019061018c91906126d0565b61057d565b60405161019e9190612840565b60405180910390f35b6101c160048036038101906101bc91906128b3565b6105d3565b6040516101ce9190612906565b60405180910390f35b3480156101e357600080fd5b506101fe60048036038101906101f991906126d0565b610927565b60405161020b91906129df565b60405180910390f35b34801561022057600080fd5b5061023b600480360381019061023691906126d0565b610992565b005b34801561024957600080fd5b50610252610cb6565b60405161025f9190612bb9565b60405180910390f35b34801561027457600080fd5b5061028f600480360381019061028a9190612bdb565b610f72565b005b34801561029d57600080fd5b506102b860048036038101906102b39190612bdb565b61111f565b6040516102c59190612906565b60405180910390f35b6102e860048036038101906102e391906126d0565b611150565b005b3480156102f657600080fd5b506102ff6113e6565b60405161030c9190612c1b565b60405180910390f35b34801561032157600080fd5b5061033c600480360381019061033791906126d0565b61140c565b6040516103499190612d02565b60405180910390f35b34801561035e57600080fd5b50610379600480360381019061037491906126d0565b611544565b005b34801561038757600080fd5b506103a2600480360381019061039d91906126d0565b611805565b005b6103be60048036038101906103b991906126d0565b611960565b005b3480156103cc57600080fd5b506103e760048036038101906103e291906126d0565b611c00565b005b3480156103f557600080fd5b50610410600480360381019061040b9190612d1e565b611e7b565b60405161041d9190612906565b60405180910390f35b34801561043257600080fd5b5061044d60048036038101906104489190612d4b565b611e9f565b005b34801561045b57600080fd5b50610464611ee3565b6040516104719190612d78565b60405180910390f35b34801561048657600080fd5b5061048f611ee9565b60405161049c9190612bb9565b60405180910390f35b3480156104b157600080fd5b506104cc60048036038101906104c791906126d0565b612227565b005b60006020528060005260406000206000915090508060000154908060010154908060020160009054906101000a900473ffffffffffffffffffffffffffffffffffffffff16908060020160149054906101000a900467ffffffffffffffff169080600201601c9054906101000a900460ff169080600201601d9054906101000a900460ff16908060030154908060040154908060050160009054906101000a900460ff1690806006015490508a565b60008060008084815260200190815260200160002090506000801b8160000154141580156105b9575080600201601d9054906101000a900460ff165b156105c85760019150506105ce565b60009150505b919050565b6000600360009054906101000a900473ffffffffffffffffffffffffffffffffffffffff1673ffffffffffffffffffffffffffffffffffffffff163373ffffffffffffffffffffffffffffffffffffffff1614610665576040517f08c379a000000000000000000000000000000000000000000000000000000000815260040161065c90612e16565b60405180910390fd5b600084834260405160200161067c93929190612ec0565b60405160208183030381529060405280519060200120905060004290506040518061014001604052808381526020018781526020018573ffffffffffffffffffffffffffffffffffffffff1681526020018267ffffffffffffffff1681526020016000151581526020016001151581526020018681526020018681526020016000151581526020016000815250600080848152602001908152602001600020600082015181600001556020820151816001015560408201518160020160006101000a81548173ffffffffffffffffffffffffffffffffffffffff021916908373ffffffffffffffffffffffffffffffffffffffff16021790555060608201518160020160146101000a81548167ffffffffffffffff021916908367ffffffffffffffff160217905550608082015181600201601c6101000a81548160ff02191690831515021790555060a082015181600201601d6101000a81548160ff02191690831515021790555060c0820151816003015560e082015181600401556101008201518160050160006101000a81548160ff02191690831515021790555061012082015181600601559050506001600087815260200190815260200160002082908060018154018082558091505060019003906000526020600020016000909190919091505560028290806001815401808255809150506001900390600052602060002001600090919091909150556004600081548092919061089e90612f2c565b91905055506001806000888152602001908152602001600020805490506108c59190612f75565b60066000848152602001908152602001600020819055507f59f9f03903d250b9088863ea41c64b2abc591d823643e4c51599100592df9f2e8287838789604051610913959493929190612fa9565b60405180910390a181925050509392505050565b60606001600083815260200190815260200160002080548060200260200160405190810160405280929190818152602001828054801561098657602002820191906000526020600020905b815481526020019060010190808311610972575b50505050509050919050565b60008082815260200190815260200160002060020160009054906101000a900473ffffffffffffffffffffffffffffffffffffffff1673ffffffffffffffffffffffffffffffffffffffff163373ffffffffffffffffffffffffffffffffffffffff161480610a4e5750600360009054906101000a900473ffffffffffffffffffffffffffffffffffffffff1673ffffffffffffffffffffffffffffffffffffffff163373ffffffffffffffffffffffffffffffffffffffff16145b610a8d576040517f08c379a0000000000000000000000000000000000000000000000000000000008152600401610a849061306e565b60405180910390fd5b60008060008381526020019081526020016000206001015490506000600660008481526020019081526020016000205490506000600180600085815260200190815260200160002080549050610ae39190612f75565b9050808214610b6e576000600160008581526020019081526020016000208281548110610b1357610b1261308e565b5b9060005260206000200154905080600160008681526020019081526020016000208481548110610b4657610b4561308e565b5b9060005260206000200181905550826006600083815260200190815260200160002081905550505b60016000848152602001908152602001600020805480610b9157610b906130bd565b5b60019003818190600052602060002001600090559055600660008581526020019081526020016000206000905560008085815260200190815260200160002060008082016000905560018201600090556002820160006101000a81549073ffffffffffffffffffffffffffffffffffffffff02191690556002820160146101000a81549067ffffffffffffffff021916905560028201601c6101000a81549060ff021916905560028201601d6101000a81549060ff0219169055600382016000905560048201600090556005820160006101000a81549060ff0219169055600682016000905550507fd9a771705fc066b34f0996a0abae6a891c652869ac6b6e3b1e00e4e6d4638ea884604051610ca89190612906565b60405180910390a150505050565b60606000805b600280549050811015610d315760008060028381548110610ce057610cdf61308e565b5b9060005260206000200154815260200190815260200160002060050160009054906101000a900460ff1615610d1e578180610d1a90612f2c565b9250505b8080610d2990612f2c565b915050610cbc565b5060008167ffffffffffffffff811115610d4e57610d4d6130ec565b5b604051908082528060200260200182016040528015610d8757816020015b610d746125d8565b815260200190600190039081610d6c5790505b5090506000805b600280549050811015610f685760008060028381548110610db257610db161308e565b5b9060005260206000200154815260200190815260200160002060050160009054906101000a900460ff1615610f555760008060028381548110610df857610df761308e565b5b906000526020600020015481526020019081526020016000206040518061014001604052908160008201548152602001600182015481526020016002820160009054906101000a900473ffffffffffffffffffffffffffffffffffffffff1673ffffffffffffffffffffffffffffffffffffffff1673ffffffffffffffffffffffffffffffffffffffff1681526020016002820160149054906101000a900467ffffffffffffffff1667ffffffffffffffff1667ffffffffffffffff16815260200160028201601c9054906101000a900460ff1615151515815260200160028201601d9054906101000a900460ff1615151515815260200160038201548152602001600482015481526020016005820160009054906101000a900460ff16151515158152602001600682015481525050838381518110610f3b57610f3a61308e565b5b60200260200101819052508180610f5190612f2c565b9250505b8080610f6090612f2c565b915050610d8e565b5081935050505090565b600080600084815260200190815260200160002090508060020160009054906101000a900473ffffffffffffffffffffffffffffffffffffffff1673ffffffffffffffffffffffffffffffffffffffff163373ffffffffffffffffffffffffffffffffffffffff161461101a576040517f08c379a00000000000000000000000000000000000000000000000000000000081526004016110119061318d565b60405180910390fd5b80600201601c9054906101000a900460ff161561106c576040517f08c379a0000000000000000000000000000000000000000000000000000000008152600401611063906131f9565b60405180910390fd5b80600201601d9054906101000a900460ff166110bd576040517f08c379a00000000000000000000000000000000000000000000000000000000081526004016110b490613265565b60405180910390fd5b60018160050160006101000a81548160ff0219169083151502179055508181600601819055507f1c35376aa8f00acbd4bde96b765adb6cf6e0d5e6c991a3dbf994c0e59df23212836040516111129190612906565b60405180910390a1505050565b6001602052816000526040600020818154811061113b57600080fd5b90600052602060002001600091509150505481565b600560009054906101000a900460ff16156111a0576040517f08c379a0000000000000000000000000000000000000000000000000000000008152600401611197906132d1565b60405180910390fd5b6001600560006101000a81548160ff02191690831515021790555080600080828152602001908152602001600020600201601c9054906101000a900460ff161561121f576040517f08c379a000000000000000000000000000000000000000000000000000000000815260040161121690613363565b60405180910390fd5b600080600084815260200190815260200160002090508060030154341461127b576040517f08c379a0000000000000000000000000000000000000000000000000000000008152600401611272906133f5565b60405180910390fd5b80600201601d9054906101000a900460ff166112cc576040517f08c379a00000000000000000000000000000000000000000000000000000000081526004016112c390613461565b60405180910390fd5b60008160020160009054906101000a900473ffffffffffffffffffffffffffffffffffffffff169050338260020160006101000a81548173ffffffffffffffffffffffffffffffffffffffff021916908373ffffffffffffffffffffffffffffffffffffffff1602179055503482600301819055508073ffffffffffffffffffffffffffffffffffffffff166108fc349081150290604051600060405180830381858888f19350505050158015611387573d6000803e3d6000fd5b507ffd8856e33cf0872c85c89d373a010f59eac73bef929cb9e91f2a9b4391cfbc6e848233346040516113bd9493929190613481565b60405180910390a15050506000600560006101000a81548160ff02191690831515021790555050565b600360009054906101000a900473ffffffffffffffffffffffffffffffffffffffff1681565b6114146125d8565b6000808381526020019081526020016000206040518061014001604052908160008201548152602001600182015481526020016002820160009054906101000a900473ffffffffffffffffffffffffffffffffffffffff1673ffffffffffffffffffffffffffffffffffffffff1673ffffffffffffffffffffffffffffffffffffffff1681526020016002820160149054906101000a900467ffffffffffffffff1667ffffffffffffffff1667ffffffffffffffff16815260200160028201601c9054906101000a900460ff1615151515815260200160028201601d9054906101000a900460ff1615151515815260200160038201548152602001600482015481526020016005820160009054906101000a900460ff161515151581526020016006820154815250509050919050565b600080600083815260200190815260200160002090503373ffffffffffffffffffffffffffffffffffffffff168160020160009054906101000a900473ffffffffffffffffffffffffffffffffffffffff1673ffffffffffffffffffffffffffffffffffffffff16146115ec576040517f08c379a00000000000000000000000000000000000000000000000000000000081526004016115e390613538565b60405180910390fd5b80600201601c9054906101000a900460ff161561163e576040517f08c379a000000000000000000000000000000000000000000000000000000000815260040161163590613363565b60405180910390fd5b80600201601d9054906101000a900460ff1661168f576040517f08c379a000000000000000000000000000000000000000000000000000000000815260040161168690613461565b60405180910390fd5b60008160040154905060003390508073ffffffffffffffffffffffffffffffffffffffff166108fc839081150290604051600060405180830381858888f193505050501580156116e3573d6000803e3d6000fd5b506116f28360010154856123f9565b60008085815260200190815260200160002060008082016000905560018201600090556002820160006101000a81549073ffffffffffffffffffffffffffffffffffffffff02191690556002820160146101000a81549067ffffffffffffffff021916905560028201601c6101000a81549060ff021916905560028201601d6101000a81549060ff0219169055600382016000905560048201600090556005820160006101000a81549060ff02191690556006820160009055505060066000858152602001908152602001600020600090557f264639f18b561b2178c34aef36b59305f75022f12fcecc6ed2f1e7b9662542de8433846040516117f793929190613558565b60405180910390a150505050565b600080600083815260200190815260200160002090508060020160009054906101000a900473ffffffffffffffffffffffffffffffffffffffff1673ffffffffffffffffffffffffffffffffffffffff163373ffffffffffffffffffffffffffffffffffffffff16146118ad576040517f08c379a00000000000000000000000000000000000000000000000000000000081526004016118a490613601565b60405180910390fd5b8060050160009054906101000a900460ff166118fe576040517f08c379a00000000000000000000000000000000000000000000000000000000081526004016118f59061366d565b60405180910390fd5b60008160050160006101000a81548160ff021916908315150217905550600081600601819055507f994d9be7adae57b16087faeafa892c98ec1428cf788e482656add12969413c87826040516119549190612906565b60405180910390a15050565b600560009054906101000a900460ff16156119b0576040517f08c379a00000000000000000000000000000000000000000000000000000000081526004016119a7906132d1565b60405180910390fd5b6001600560006101000a81548160ff021916908315150217905550600080600083815260200190815260200160002090508060050160009054906101000a900460ff16611a32576040517f08c379a0000000000000000000000000000000000000000000000000000000008152600401611a29906136d9565b60405180910390fd5b80600601543414611a78576040517f08c379a0000000000000000000000000000000000000000000000000000000008152600401611a6f90613791565b60405180910390fd5b80600201601d9054906101000a900460ff16611ac9576040517f08c379a0000000000000000000000000000000000000000000000000000000008152600401611ac0906137fd565b60405180910390fd5b60008160020160009054906101000a900473ffffffffffffffffffffffffffffffffffffffff169050338260020160006101000a81548173ffffffffffffffffffffffffffffffffffffffff021916908373ffffffffffffffffffffffffffffffffffffffff16021790555060008260050160006101000a81548160ff021916908315150217905550600082600601819055508073ffffffffffffffffffffffffffffffffffffffff166108fc349081150290604051600060405180830381858888f19350505050158015611ba2573d6000803e3d6000fd5b507fdad241cbe6e066caf7dfc11828c6b2df6b430a639390ba0675040ed5d2bff24383823334604051611bd89493929190613481565b60405180910390a150506000600560006101000a81548160ff02191690831515021790555050565b6000600160008381526020019081526020016000209050600081805490501415611c80577fc0919dcb7e0b464ce8146ec897e4a566e6a1af62233364998f3da696e08b500b82604051611c539190612906565b60405180910390a1600160008381526020019081526020016000206000611c7a9190612657565b50611e78565b60005b8180549050811015611e1f576000828281548110611ca457611ca361308e565b5b906000526020600020015490506000806000838152602001908152602001600020905080600201601d9054906101000a900460ff168015611cf4575080600201601c9054906101000a900460ff16155b15611d3857600081600201601d6101000a81548160ff021916908315150217905550611d1f826124ff565b60046000815480929190611d329061381d565b91905055505b60008083815260200190815260200160002060008082016000905560018201600090556002820160006101000a81549073ffffffffffffffffffffffffffffffffffffffff02191690556002820160146101000a81549067ffffffffffffffff021916905560028201601c6101000a81549060ff021916905560028201601d6101000a81549060ff0219169055600382016000905560048201600090556005820160006101000a81549060ff021916905560068201600090555050600660008381526020019081526020016000206000905550508080611e1790612f2c565b915050611c83565b50600160008381526020019081526020016000206000611e3f9190612657565b7fc0919dcb7e0b464ce8146ec897e4a566e6a1af62233364998f3da696e08b500b82604051611e6e9190612906565b60405180910390a1505b50565b60028181548110611e8b57600080fd5b906000526020600020016000915090505481565b80600360006101000a81548173ffffffffffffffffffffffffffffffffffffffff021916908373ffffffffffffffffffffffffffffffffffffffff16021790555050565b60045481565b60606000805b600280549050811015611fa5573373ffffffffffffffffffffffffffffffffffffffff1660008060028481548110611f2a57611f2961308e565b5b9060005260206000200154815260200190815260200160002060020160009054906101000a900473ffffffffffffffffffffffffffffffffffffffff1673ffffffffffffffffffffffffffffffffffffffff161415611f92578180611f8e90612f2c565b9250505b8080611f9d90612f2c565b915050611eef565b5060008167ffffffffffffffff811115611fc257611fc16130ec565b5b604051908082528060200260200182016040528015611ffb57816020015b611fe86125d8565b815260200190600190039081611fe05790505b5090506000805b60028054905081101561221d573373ffffffffffffffffffffffffffffffffffffffff166000806002848154811061203d5761203c61308e565b5b9060005260206000200154815260200190815260200160002060020160009054906101000a900473ffffffffffffffffffffffffffffffffffffffff1673ffffffffffffffffffffffffffffffffffffffff16141561220a57600080600283815481106120ad576120ac61308e565b5b906000526020600020015481526020019081526020016000206040518061014001604052908160008201548152602001600182015481526020016002820160009054906101000a900473ffffffffffffffffffffffffffffffffffffffff1673ffffffffffffffffffffffffffffffffffffffff1673ffffffffffffffffffffffffffffffffffffffff1681526020016002820160149054906101000a900467ffffffffffffffff1667ffffffffffffffff1667ffffffffffffffff16815260200160028201601c9054906101000a900460ff1615151515815260200160028201601d9054906101000a900460ff1615151515815260200160038201548152602001600482015481526020016005820160009054906101000a900460ff161515151581526020016006820154815250508383815181106121f0576121ef61308e565b5b6020026020010181905250818061220690612f2c565b9250505b808061221590612f2c565b915050612002565b5081935050505090565b3373ffffffffffffffffffffffffffffffffffffffff1660008083815260200190815260200160002060020160009054906101000a900473ffffffffffffffffffffffffffffffffffffffff1673ffffffffffffffffffffffffffffffffffffffff16146122ca576040517f08c379a00000000000000000000000000000000000000000000000000000000081526004016122c1906138b9565b60405180910390fd5b600080828152602001908152602001600020600201601c9054906101000a900460ff161561232d576040517f08c379a000000000000000000000000000000000000000000000000000000000815260040161232490613363565b60405180910390fd5b600080828152602001908152602001600020600201601d9054906101000a900460ff1661238f576040517f08c379a000000000000000000000000000000000000000000000000000000000815260040161238690613461565b60405180910390fd5b6001600080838152602001908152602001600020600201601c6101000a81548160ff0219169083151502179055507f5e887a439fa796c056dfd595ead77c343c193a22734ed54140ce3a543708506281336040516123ee9291906138d9565b60405180910390a150565b60006006600083815260200190815260200160002054905060006001806000868152602001908152602001600020805490506124359190612f75565b90508082146124c05760006001600086815260200190815260200160002082815481106124655761246461308e565b5b90600052602060002001549050806001600087815260200190815260200160002084815481106124985761249761308e565b5b9060005260206000200181905550826006600083815260200190815260200160002081905550505b600160008581526020019081526020016000208054806124e3576124e26130bd565b5b6001900381819060005260206000200160009055905550505050565b6000600660008381526020019081526020016000205490506000600160028054905061252b9190612f75565b90508082146125945760006002828154811061254a5761254961308e565b5b90600052602060002001549050806002848154811061256c5761256b61308e565b5b9060005260206000200181905550826006600083815260200190815260200160002081905550505b60028054806125a6576125a56130bd565b5b600190038181906000526020600020016000905590556006600084815260200190815260200160002060009055505050565b6040518061014001604052806000801916815260200160008019168152602001600073ffffffffffffffffffffffffffffffffffffffff168152602001600067ffffffffffffffff1681526020016000151581526020016000151581526020016000815260200160008152602001600015158152602001600081525090565b50805460008255906000526020600020908101906126759190612678565b50565b5b80821115612691576000816000905550600101612679565b5090565b600080fd5b6000819050919050565b6126ad8161269a565b81146126b857600080fd5b50565b6000813590506126ca816126a4565b92915050565b6000602082840312156126e6576126e5612695565b5b60006126f4848285016126bb565b91505092915050565b6127068161269a565b82525050565b600073ffffffffffffffffffffffffffffffffffffffff82169050919050565b60006127378261270c565b9050919050565b6127478161272c565b82525050565b600067ffffffffffffffff82169050919050565b61276a8161274d565b82525050565b60008115159050919050565b61278581612770565b82525050565b6000819050919050565b61279e8161278b565b82525050565b6000610140820190506127ba600083018d6126fd565b6127c7602083018c6126fd565b6127d4604083018b61273e565b6127e1606083018a612761565b6127ee608083018961277c565b6127fb60a083018861277c565b61280860c0830187612795565b61281560e0830186612795565b61282361010083018561277c565b612831610120830184612795565b9b9a5050505050505050505050565b6000602082019050612855600083018461277c565b92915050565b6128648161278b565b811461286f57600080fd5b50565b6000813590506128818161285b565b92915050565b6128908161272c565b811461289b57600080fd5b50565b6000813590506128ad81612887565b92915050565b6000806000606084860312156128cc576128cb612695565b5b60006128da868287016126bb565b93505060206128eb86828701612872565b92505060406128fc8682870161289e565b9150509250925092565b600060208201905061291b60008301846126fd565b92915050565b600081519050919050565b600082825260208201905092915050565b6000819050602082019050919050565b6129568161269a565b82525050565b6000612968838361294d565b60208301905092915050565b6000602082019050919050565b600061298c82612921565b612996818561292c565b93506129a18361293d565b8060005b838110156129d25781516129b9888261295c565b97506129c483612974565b9250506001810190506129a5565b5085935050505092915050565b600060208201905081810360008301526129f98184612981565b905092915050565b600081519050919050565b600082825260208201905092915050565b6000819050602082019050919050565b612a368161272c565b82525050565b612a458161274d565b82525050565b612a5481612770565b82525050565b612a638161278b565b82525050565b61014082016000820151612a80600085018261294d565b506020820151612a93602085018261294d565b506040820151612aa66040850182612a2d565b506060820151612ab96060850182612a3c565b506080820151612acc6080850182612a4b565b5060a0820151612adf60a0850182612a4b565b5060c0820151612af260c0850182612a5a565b5060e0820151612b0560e0850182612a5a565b50610100820151612b1a610100850182612a4b565b50610120820151612b2f610120850182612a5a565b50505050565b6000612b418383612a69565b6101408301905092915050565b6000602082019050919050565b6000612b6682612a01565b612b708185612a0c565b9350612b7b83612a1d565b8060005b83811015612bac578151612b938882612b35565b9750612b9e83612b4e565b925050600181019050612b7f565b5085935050505092915050565b60006020820190508181036000830152612bd38184612b5b565b905092915050565b60008060408385031215612bf257612bf1612695565b5b6000612c00858286016126bb565b9250506020612c1185828601612872565b9150509250929050565b6000602082019050612c30600083018461273e565b92915050565b61014082016000820151612c4d600085018261294d565b506020820151612c60602085018261294d565b506040820151612c736040850182612a2d565b506060820151612c866060850182612a3c565b506080820151612c996080850182612a4b565b5060a0820151612cac60a0850182612a4b565b5060c0820151612cbf60c0850182612a5a565b5060e0820151612cd260e0850182612a5a565b50610100820151612ce7610100850182612a4b565b50610120820151612cfc610120850182612a5a565b50505050565b600061014082019050612d186000830184612c36565b92915050565b600060208284031215612d3457612d33612695565b5b6000612d4284828501612872565b91505092915050565b600060208284031215612d6157612d60612695565b5b6000612d6f8482850161289e565b91505092915050565b6000602082019050612d8d6000830184612795565b92915050565b600082825260208201905092915050565b7f556e617574686f72697a65643a2063616c6c6572206973206e6f74207468652060008201527f6576656e7420636f6e7472616374000000000000000000000000000000000000602082015250565b6000612e00602e83612d93565b9150612e0b82612da4565b604082019050919050565b60006020820190508181036000830152612e2f81612df3565b9050919050565b6000819050919050565b612e51612e4c8261269a565b612e36565b82525050565b60008160601b9050919050565b6000612e6f82612e57565b9050919050565b6000612e8182612e64565b9050919050565b612e99612e948261272c565b612e76565b82525050565b6000819050919050565b612eba612eb58261278b565b612e9f565b82525050565b6000612ecc8286612e40565b602082019150612edc8285612e88565b601482019150612eec8284612ea9565b602082019150819050949350505050565b7f4e487b7100000000000000000000000000000000000000000000000000000000600052601160045260246000fd5b6000612f378261278b565b91507fffffffffffffffffffffffffffffffffffffffffffffffffffffffffffffffff821415612f6a57612f69612efd565b5b600182019050919050565b6000612f808261278b565b9150612f8b8361278b565b925082821015612f9e57612f9d612efd565b5b828203905092915050565b600060a082019050612fbe60008301886126fd565b612fcb60208301876126fd565b612fd86040830186612761565b612fe5606083018561273e565b612ff26080830184612795565b9695505050505050565b7f556e617574686f72697a65643a2063616c6c6572206973206e6f74207468652060008201527f7469636b6574206f776e6572206f72206576656e7420636f6e74726163740000602082015250565b6000613058603e83612d93565b915061306382612ffc565b604082019050919050565b600060208201905081810360008301526130878161304b565b9050919050565b7f4e487b7100000000000000000000000000000000000000000000000000000000600052603260045260246000fd5b7f4e487b7100000000000000000000000000000000000000000000000000000000600052603160045260246000fd5b7f4e487b7100000000000000000000000000000000000000000000000000000000600052604160045260246000fd5b7f4f6e6c7920746865207469636b6574206f776e65722063616e2073657420697460008201527f20666f722073616c652e00000000000000000000000000000000000000000000602082015250565b6000613177602a83612d93565b91506131828261311b565b604082019050919050565b600060208201905081810360008301526131a68161316a565b9050919050565b7f43616e6e6f742073656c6c20612072656465656d6564207469636b65742e0000600082015250565b60006131e3601e83612d93565b91506131ee826131ad565b602082019050919050565b60006020820190508181036000830152613212816131d6565b9050919050565b7f43616e6e6f742073656c6c20616e20696e76616c6964207469636b65742e0000600082015250565b600061324f601e83612d93565b915061325a82613219565b602082019050919050565b6000602082019050818103600083015261327e81613242565b9050919050565b7f5265656e7472616e6379206973206e6f7420616c6c6f77656400000000000000600082015250565b60006132bb601983612d93565b91506132c682613285565b602082019050919050565b600060208201905081810360008301526132ea816132ae565b9050919050565b7f5469636b65742068617320616c7265616479206265656e2072656465656d656460008201527f2e00000000000000000000000000000000000000000000000000000000000000602082015250565b600061334d602183612d93565b9150613358826132f1565b604082019050919050565b6000602082019050818103600083015261337c81613340565b9050919050565b7f5472616e7366657220616d6f756e74206d757374206d6174636820746865207460008201527f69636b65742070726963652e0000000000000000000000000000000000000000602082015250565b60006133df602c83612d93565b91506133ea82613383565b604082019050919050565b6000602082019050818103600083015261340e816133d2565b9050919050565b7f5469636b6574206973206e6f742076616c69642e000000000000000000000000600082015250565b600061344b601483612d93565b915061345682613415565b602082019050919050565b6000602082019050818103600083015261347a8161343e565b9050919050565b600060808201905061349660008301876126fd565b6134a3602083018661273e565b6134b0604083018561273e565b6134bd6060830184612795565b95945050505050565b7f4f6e6c7920746865207469636b6574206f776e65722063616e2072657475726e60008201527f20746865207469636b65742e0000000000000000000000000000000000000000602082015250565b6000613522602c83612d93565b915061352d826134c6565b604082019050919050565b6000602082019050818103600083015261355181613515565b9050919050565b600060608201905061356d60008301866126fd565b61357a602083018561273e565b6135876040830184612795565b949350505050565b7f4f6e6c7920746865207469636b6574206f776e65722063616e2063616e63656c60008201527f207468652073616c652e00000000000000000000000000000000000000000000602082015250565b60006135eb602a83612d93565b91506135f68261358f565b604082019050919050565b6000602082019050818103600083015261361a816135de565b9050919050565b7f5469636b6574206973206e6f7420666f722073616c652e000000000000000000600082015250565b6000613657601783612d93565b915061366282613621565b602082019050919050565b600060208201905081810360008301526136868161364a565b9050919050565b7f54686973207469636b6574206973206e6f7420666f722073616c652e00000000600082015250565b60006136c3601c83612d93565b91506136ce8261368d565b602082019050919050565b600060208201905081810360008301526136f2816136b6565b9050919050565b7f506c65617365207375626d6974207468652061736b696e67207072696365206960008201527f6e206f7264657220746f20636f6d706c6574652074686520707572636861736560208201527f2e00000000000000000000000000000000000000000000000000000000000000604082015250565b600061377b604183612d93565b9150613786826136f9565b606082019050919050565b600060208201905081810360008301526137aa8161376e565b9050919050565b7f43616e6e6f742062757920616e20696e76616c6964207469636b65742e000000600082015250565b60006137e7601d83612d93565b91506137f2826137b1565b602082019050919050565b60006020820190508181036000830152613816816137da565b9050919050565b60006138288261278b565b9150600082141561383c5761383b612efd565b5b600182039050919050565b7f4f6e6c7920746865207469636b6574206f776e65722063616e2072656465656d60008201527f2069742e00000000000000000000000000000000000000000000000000000000602082015250565b60006138a3602483612d93565b91506138ae82613847565b604082019050919050565b600060208201905081810360008301526138d281613896565b9050919050565b60006040820190506138ee60008301856126fd565b6138fb602083018461273e565b939250505056fea2646970667358221220d6cc659298a3f02d1cf2539e229ca47169f0b651411d15e66368fa531369bed864736f6c634300080a0033",
  "immutableReferences": {},
  "source": "// SPDX-License-Identifier: MIT\npragma solidity ^0.8.10;\n\ncontract TicketContract {\n  struct Ticket {\n    bytes32 ticketID;\n    bytes32 eventID;\n    address ticketOwner;\n    uint64 purchasedDate;\n    bool isRedeemed;\n    bool isValid;\n    uint256 ticketPrice;\n    uint256 originalPrice;\n    bool forSale;\n    uint256 salePrice;\n  }\n  //mapping for allTickets for the TicketContract\n  mapping(bytes32 => Ticket) public allTickets;\n  // mapping for allEvents but by eventID\n  mapping(bytes32 => bytes32[]) public ticketsByEvent;\n  // array to keep all IDs for tickets\n  bytes32[] public allTicketIDs;\n  // address of EventContract, only this address can create new tickets\n  address public eventContractAddress;\n  // number of all tickets\n  uint256 public totalTickets;\n  // variable for this -> The reentrancy guard is a mechanism that prevents reentry to certain functions during\n  // their execution. This is particularly important for functions that involve the transfer of funds.\n  bool private locked;\n  // mapping for better and more optimalize indexing\n  mapping(bytes32 => uint256) private ticketIndexInEvent;\n\n  function setEventContractAddress(address _eventContractAddress) external {\n    eventContractAddress = _eventContractAddress;\n  }\n\n  // event emitters\n  event TicketTransferred(bytes32 ticketID, address from, address to, uint256 newPrice);\n  event TicketCreated(\n    bytes32 ticketID,\n    bytes32 eventID,\n    uint64 purchasedDate,\n    address buyer,\n    uint256 price\n  );\n  event TicketRedeemed(bytes32 ticketID, address redeemer);\n  event TicketDeleted(bytes32 ticketID);\n  event TicketReturned(bytes32 ticketID, address sender, uint256 refundAmount);\n  event TicketRefunded(bytes32 ticketID, address ticketOwner, uint256 refundAmount);\n  event EventCancelled(bytes32 eventID);\n\n  event TicketSetForSale(bytes32 ticketID);\n  event TicketSaleCancelled(bytes32 ticketID);\n  event TicketPurchasedFromMarket(\n    bytes32 ticketID,\n    address oldOwner,\n    address newOwner,\n    uint256 price\n  );\n\n  // constructor for create new instance of TicketContract\n  constructor(address _eventContractAddress) {\n    eventContractAddress = _eventContractAddress;\n  }\n  // modifier - check if request send EventContract\n  modifier onlyEventContract() {\n    require(msg.sender == eventContractAddress, 'Unauthorized: caller is not the event contract');\n    _;\n  }\n  // modifier - check if ticket is not redeemed yet. If yes user cant sell tickets to others\n  modifier isNotRedeemed(bytes32 _ticketID) {\n    require(!allTickets[_ticketID].isRedeemed, 'Ticket has already been redeemed.');\n    _;\n  }\n  // modifier - The reentrancy guard is a mechanism that prevents reentry to certain functions during\n  // their execution. This is particularly important for functions that involve the transfer of funds.\n  modifier noReentrancy() {\n    require(!locked, 'Reentrancy is not allowed');\n    locked = true;\n    _;\n    locked = false;\n  }\n  // Function to create new ticket for eventID\n  // @param _eventID is ID of event, for which is ticket\n  // @param _buyer is address of user, which ticket buy\n  // @param _tickerPrice is price of the ticket\n  // @ return - ID of new ticket\n  // Definice Solidity event pro debugging\n  event Debug(bytes32 indexed message, bytes32 data);\n  event DebugUint(string message, uint256 data);\n\n  function createNewTicket(\n    bytes32 _eventID,\n    uint256 _ticketPrice,\n    address userAddress\n  ) external payable onlyEventContract returns (bytes32) {\n    bytes32 ticketID = keccak256(abi.encodePacked(_eventID, userAddress, block.timestamp));\n    uint64 _purchasedDate = uint64(block.timestamp);\n    allTickets[ticketID] = Ticket({\n      ticketID: ticketID,\n      eventID: _eventID,\n      ticketOwner: userAddress,\n      purchasedDate: _purchasedDate,\n      isRedeemed: false,\n      isValid: true,\n      ticketPrice: _ticketPrice,\n      originalPrice: _ticketPrice,\n      forSale: false,\n      salePrice: 0\n    });\n    ticketsByEvent[_eventID].push(ticketID);\n    allTicketIDs.push(ticketID);\n    totalTickets++;\n\n    ticketIndexInEvent[ticketID] = ticketsByEvent[_eventID].length - 1;\n\n    emit TicketCreated(ticketID, _eventID, _purchasedDate, userAddress, _ticketPrice);\n\n    return ticketID;\n  }\n\n  // function to change ownership of the ticket, its for selling tickets between users\n  // @param _eventID is ID of event, for which is ticket\n  // @param _buyer is address of user, which ticket buy\n  // @return - bool value for FE handling\n  function transferTicket(\n    bytes32 _ticketID\n  ) external payable noReentrancy isNotRedeemed(_ticketID) {\n    Ticket storage ticket = allTickets[_ticketID];\n    require(msg.value == ticket.ticketPrice, 'Transfer amount must match the ticket price.');\n    require(ticket.isValid, 'Ticket is not valid.');\n\n    address oldOwner = ticket.ticketOwner;\n    ticket.ticketOwner = msg.sender;\n    ticket.ticketPrice = msg.value;\n\n    payable(oldOwner).transfer(msg.value);\n    emit TicketTransferred(_ticketID, oldOwner, msg.sender, msg.value);\n  }\n  // function return info about ticket with _ticketID\n  function getTicketInfo(bytes32 _ticketID) external view returns (Ticket memory) {\n    return allTickets[_ticketID];\n  }\n  // function to return array of tickets for one specific event\n  function getTicketsForEvent(bytes32 _eventID) external view returns (bytes32[] memory) {\n    return ticketsByEvent[_eventID];\n  }\n  // function to return tickets for one specific user\n  function getMyTickets() external view returns (Ticket[] memory) {\n    uint totalTicketsCount = 0;\n\n    for (uint256 i = 0; i < allTicketIDs.length; i++) {\n      if (allTickets[allTicketIDs[i]].ticketOwner == msg.sender) {\n        totalTicketsCount++;\n      }\n    }\n\n    Ticket[] memory ownedTickets = new Ticket[](totalTicketsCount);\n    uint256 index = 0;\n    for (uint256 i = 0; i < allTicketIDs.length; i++) {\n      if (allTickets[allTicketIDs[i]].ticketOwner == msg.sender) {\n        ownedTickets[index] = allTickets[allTicketIDs[i]];\n        index++;\n      }\n    }\n\n    return ownedTickets;\n  }\n  function getTicketsForSale() external view returns (Ticket[] memory) {\n    uint totalForSale = 0;\n\n    for (uint i = 0; i < allTicketIDs.length; i++) {\n      if (allTickets[allTicketIDs[i]].forSale) {\n        totalForSale++;\n      }\n    }\n\n    Ticket[] memory ticketsForSale = new Ticket[](totalForSale);\n    uint index = 0;\n\n    for (uint i = 0; i < allTicketIDs.length; i++) {\n      if (allTickets[allTicketIDs[i]].forSale) {\n        ticketsForSale[index] = allTickets[allTicketIDs[i]];\n        index++;\n      }\n    }\n\n    return ticketsForSale;\n  }\n  // function to flag ticket as reedeemed, which means user arrive on the event, so\n  // any other function cant run\n  function redeemTicket(bytes32 _ticketID) external {\n    require(\n      allTickets[_ticketID].ticketOwner == msg.sender,\n      'Only the ticket owner can redeem it.'\n    );\n    require(!allTickets[_ticketID].isRedeemed, 'Ticket has already been redeemed.');\n    require(allTickets[_ticketID].isValid, 'Ticket is not valid.');\n\n    allTickets[_ticketID].isRedeemed = true;\n\n    emit TicketRedeemed(_ticketID, msg.sender);\n  }\n  // function to verify ticket\n  function verifyTicket(bytes32 _ticketID) external view returns (bool) {\n    Ticket storage _ticket = allTickets[_ticketID];\n    if (_ticket.ticketID != 0 && _ticket.isValid) {\n      return true;\n    } else {\n      return false;\n    }\n  }\n  // function to delete one specific ticket with id\n  function deleteTicket(bytes32 _ticketID) external {\n    require(\n      msg.sender == allTickets[_ticketID].ticketOwner || msg.sender == eventContractAddress,\n      'Unauthorized: caller is not the ticket owner or event contract'\n    );\n\n    bytes32 eventId = allTickets[_ticketID].eventID;\n    uint index = ticketIndexInEvent[_ticketID];\n    uint lastIndex = ticketsByEvent[eventId].length - 1;\n\n    if (index != lastIndex) {\n      bytes32 lastTicketID = ticketsByEvent[eventId][lastIndex];\n      ticketsByEvent[eventId][index] = lastTicketID;\n      ticketIndexInEvent[lastTicketID] = index;\n    }\n    ticketsByEvent[eventId].pop();\n    delete ticketIndexInEvent[_ticketID];\n    delete allTickets[_ticketID];\n\n    emit TicketDeleted(_ticketID);\n  }\n  // Function to return a ticket and refund the purchase price\n  function returnTicket(bytes32 _ticketID) external {\n    Ticket storage ticket = allTickets[_ticketID];\n    require(ticket.ticketOwner == msg.sender, 'Only the ticket owner can return the ticket.');\n    require(!ticket.isRedeemed, 'Ticket has already been redeemed.');\n    require(ticket.isValid, 'Ticket is not valid.');\n\n    uint256 refundAmount = ticket.originalPrice;\n    address payable ownerPayable = payable(msg.sender);\n\n    ownerPayable.transfer(refundAmount);\n\n    removeTicketFromEventList(ticket.eventID, _ticketID);\n    delete allTickets[_ticketID];\n    delete ticketIndexInEvent[_ticketID];\n\n    emit TicketReturned(_ticketID, msg.sender, refundAmount);\n  }\n  // Function to remove a ticket from the ticketsByEvent mapping\n  function removeTicketFromEventList(bytes32 _eventId, bytes32 _ticketID) private {\n    uint index = ticketIndexInEvent[_ticketID];\n    uint lastIndex = ticketsByEvent[_eventId].length - 1;\n    if (index != lastIndex) {\n      bytes32 lastTicketID = ticketsByEvent[_eventId][lastIndex];\n      ticketsByEvent[_eventId][index] = lastTicketID;\n      ticketIndexInEvent[lastTicketID] = index;\n    }\n    ticketsByEvent[_eventId].pop();\n  }\n  // function to delete tickets, return all eth for ticketOwners atc. when event is cancelled\n  function cancelAllTickets(bytes32 eventId) external {\n    bytes32[] storage tickets = ticketsByEvent[eventId];\n\n    if (tickets.length == 0) {\n      emit EventCancelled(eventId);\n      delete ticketsByEvent[eventId];\n      return;\n    }\n\n    for (uint i = 0; i < tickets.length; i++) {\n      bytes32 ticketId = tickets[i];\n      Ticket storage ticket = allTickets[ticketId];\n\n      if (ticket.isValid && !ticket.isRedeemed) {\n        ticket.isValid = false;\n\n        removeTicketFromAllTickets(ticketId);\n        totalTickets--;\n      }\n\n      delete allTickets[ticketId];\n      delete ticketIndexInEvent[ticketId];\n    }\n\n    delete ticketsByEvent[eventId];\n    emit EventCancelled(eventId);\n  }\n\n  function removeTicketFromAllTickets(bytes32 ticketId) private {\n    uint index = ticketIndexInEvent[ticketId];\n    uint lastIndex = allTicketIDs.length - 1;\n\n    if (index != lastIndex) {\n      bytes32 lastTicketId = allTicketIDs[lastIndex];\n      allTicketIDs[index] = lastTicketId;\n      ticketIndexInEvent[lastTicketId] = index;\n    }\n    allTicketIDs.pop();\n    delete ticketIndexInEvent[ticketId];\n  }\n  // function to set ticket for sale\n  function setTicketForSale(bytes32 _ticketID, uint256 _price) external {\n    Ticket storage _ticket = allTickets[_ticketID];\n    require(msg.sender == _ticket.ticketOwner, 'Only the ticket owner can set it for sale.');\n    require(!_ticket.isRedeemed, 'Cannot sell a redeemed ticket.');\n    require(_ticket.isValid, 'Cannot sell an invalid ticket.');\n\n    _ticket.forSale = true;\n    _ticket.salePrice = _price;\n\n    emit TicketSetForSale(_ticketID);\n  }\n  // function to set ticket not for sale\n  function cancelTicketForSale(bytes32 _ticketID) external {\n    Ticket storage _ticket = allTickets[_ticketID];\n    require(msg.sender == _ticket.ticketOwner, 'Only the ticket owner can cancel the sale.');\n    require(_ticket.forSale, 'Ticket is not for sale.');\n\n    _ticket.forSale = false;\n    _ticket.salePrice = 0;\n\n    emit TicketSaleCancelled(_ticketID);\n  }\n\n  // function to buy ticket from market\n  function buyTicketFromMarket(bytes32 _ticketID) external payable noReentrancy {\n    Ticket storage _ticket = allTickets[_ticketID];\n    require(_ticket.forSale, 'This ticket is not for sale.');\n    require(\n      msg.value == _ticket.salePrice,\n      'Please submit the asking price in order to complete the purchase.'\n    );\n    require(_ticket.isValid, 'Cannot buy an invalid ticket.');\n\n    address oldOwner = _ticket.ticketOwner;\n    _ticket.ticketOwner = msg.sender;\n    _ticket.forSale = false;\n    _ticket.salePrice = 0;\n\n    payable(oldOwner).transfer(msg.value);\n\n    emit TicketPurchasedFromMarket(_ticketID, oldOwner, msg.sender, msg.value);\n  }\n}\n",
  "sourcePath": "/Users/janmrakava/Documents/GitHub/blockticket_blockchain/client/contracts/Ticket.sol",
  "compiler": {
    "name": "solc",
    "version": "0.8.10+commit.fc410830.Emscripten.clang"
  },
  "schemaVersion": "3.4.16",
  "updatedAt": "2024-05-01T13:47:52.361Z",
  "networkType": "ethereum",
  "devdoc": {
    "kind": "dev",
    "methods": {},
    "version": 1
  },
  "userdoc": {
    "kind": "user",
    "methods": {},
    "version": 1
  }
}