{
  "contractName": "TicketContract",
  "abi": [
    {
      "inputs": [
        {
          "internalType": "address",
          "name": "_eventContractAddress",
          "type": "address"
        }
      ],
      "stateMutability": "nonpayable",
      "type": "constructor"
    },
    {
      "anonymous": false,
      "inputs": [
        {
          "indexed": false,
          "internalType": "bytes32",
          "name": "eventID",
          "type": "bytes32"
        }
      ],
      "name": "EventCancelled",
      "type": "event"
    },
    {
      "anonymous": false,
      "inputs": [
        {
          "indexed": false,
          "internalType": "bytes32",
          "name": "ticketID",
          "type": "bytes32"
        },
        {
          "indexed": false,
          "internalType": "bytes32",
          "name": "eventID",
          "type": "bytes32"
        },
        {
          "indexed": false,
          "internalType": "uint64",
          "name": "purchasedDate",
          "type": "uint64"
        },
        {
          "indexed": false,
          "internalType": "address",
          "name": "buyer",
          "type": "address"
        },
        {
          "indexed": false,
          "internalType": "uint256",
          "name": "price",
          "type": "uint256"
        }
      ],
      "name": "TicketCreated",
      "type": "event"
    },
    {
      "anonymous": false,
      "inputs": [
        {
          "indexed": false,
          "internalType": "bytes32",
          "name": "ticketID",
          "type": "bytes32"
        }
      ],
      "name": "TicketDeleted",
      "type": "event"
    },
    {
      "anonymous": false,
      "inputs": [
        {
          "indexed": false,
          "internalType": "bytes32",
          "name": "ticketID",
          "type": "bytes32"
        },
        {
          "indexed": false,
          "internalType": "address",
          "name": "redeemer",
          "type": "address"
        }
      ],
      "name": "TicketRedeemed",
      "type": "event"
    },
    {
      "anonymous": false,
      "inputs": [
        {
          "indexed": false,
          "internalType": "bytes32",
          "name": "ticketID",
          "type": "bytes32"
        },
        {
          "indexed": false,
          "internalType": "address",
          "name": "ticketOwner",
          "type": "address"
        },
        {
          "indexed": false,
          "internalType": "uint256",
          "name": "refundAmount",
          "type": "uint256"
        }
      ],
      "name": "TicketRefunded",
      "type": "event"
    },
    {
      "anonymous": false,
      "inputs": [
        {
          "indexed": false,
          "internalType": "bytes32",
          "name": "ticketID",
          "type": "bytes32"
        },
        {
          "indexed": false,
          "internalType": "address",
          "name": "sender",
          "type": "address"
        },
        {
          "indexed": false,
          "internalType": "uint256",
          "name": "refundAmount",
          "type": "uint256"
        }
      ],
      "name": "TicketReturned",
      "type": "event"
    },
    {
      "anonymous": false,
      "inputs": [
        {
          "indexed": false,
          "internalType": "bytes32",
          "name": "ticketID",
          "type": "bytes32"
        },
        {
          "indexed": false,
          "internalType": "address",
          "name": "from",
          "type": "address"
        },
        {
          "indexed": false,
          "internalType": "address",
          "name": "to",
          "type": "address"
        },
        {
          "indexed": false,
          "internalType": "uint256",
          "name": "newPrice",
          "type": "uint256"
        }
      ],
      "name": "TicketTransferred",
      "type": "event"
    },
    {
      "inputs": [
        {
          "internalType": "uint256",
          "name": "",
          "type": "uint256"
        }
      ],
      "name": "allTicketIDs",
      "outputs": [
        {
          "internalType": "bytes32",
          "name": "",
          "type": "bytes32"
        }
      ],
      "stateMutability": "view",
      "type": "function",
      "constant": true
    },
    {
      "inputs": [
        {
          "internalType": "bytes32",
          "name": "",
          "type": "bytes32"
        }
      ],
      "name": "allTickets",
      "outputs": [
        {
          "internalType": "bytes32",
          "name": "ticketID",
          "type": "bytes32"
        },
        {
          "internalType": "bytes32",
          "name": "eventID",
          "type": "bytes32"
        },
        {
          "internalType": "address",
          "name": "ticketOwner",
          "type": "address"
        },
        {
          "internalType": "uint64",
          "name": "purchasedDate",
          "type": "uint64"
        },
        {
          "internalType": "bool",
          "name": "isRedeemed",
          "type": "bool"
        },
        {
          "internalType": "bool",
          "name": "isValid",
          "type": "bool"
        },
        {
          "internalType": "uint256",
          "name": "ticketPrice",
          "type": "uint256"
        },
        {
          "internalType": "uint256",
          "name": "originalPrice",
          "type": "uint256"
        }
      ],
      "stateMutability": "view",
      "type": "function",
      "constant": true
    },
    {
      "inputs": [],
      "name": "eventContractAddress",
      "outputs": [
        {
          "internalType": "address",
          "name": "",
          "type": "address"
        }
      ],
      "stateMutability": "view",
      "type": "function",
      "constant": true
    },
    {
      "inputs": [
        {
          "internalType": "bytes32",
          "name": "",
          "type": "bytes32"
        },
        {
          "internalType": "uint256",
          "name": "",
          "type": "uint256"
        }
      ],
      "name": "ticketsByEvent",
      "outputs": [
        {
          "internalType": "bytes32",
          "name": "",
          "type": "bytes32"
        }
      ],
      "stateMutability": "view",
      "type": "function",
      "constant": true
    },
    {
      "inputs": [],
      "name": "totalTickets",
      "outputs": [
        {
          "internalType": "uint256",
          "name": "",
          "type": "uint256"
        }
      ],
      "stateMutability": "view",
      "type": "function",
      "constant": true
    },
    {
      "inputs": [
        {
          "internalType": "address",
          "name": "_eventContractAddress",
          "type": "address"
        }
      ],
      "name": "setEventContractAddress",
      "outputs": [],
      "stateMutability": "nonpayable",
      "type": "function"
    },
    {
      "inputs": [
        {
          "internalType": "bytes32",
          "name": "_eventID",
          "type": "bytes32"
        },
        {
          "internalType": "address",
          "name": "_buyer",
          "type": "address"
        },
        {
          "internalType": "uint256",
          "name": "_ticketPrice",
          "type": "uint256"
        }
      ],
      "name": "createNewTicket",
      "outputs": [
        {
          "internalType": "bytes32",
          "name": "",
          "type": "bytes32"
        }
      ],
      "stateMutability": "nonpayable",
      "type": "function"
    },
    {
      "inputs": [
        {
          "internalType": "bytes32",
          "name": "_ticketID",
          "type": "bytes32"
        },
        {
          "internalType": "address",
          "name": "_newOwner",
          "type": "address"
        }
      ],
      "name": "transferTicket",
      "outputs": [],
      "stateMutability": "payable",
      "type": "function",
      "payable": true
    },
    {
      "inputs": [
        {
          "internalType": "bytes32",
          "name": "_ticketID",
          "type": "bytes32"
        }
      ],
      "name": "getTicketInfo",
      "outputs": [
        {
          "components": [
            {
              "internalType": "bytes32",
              "name": "ticketID",
              "type": "bytes32"
            },
            {
              "internalType": "bytes32",
              "name": "eventID",
              "type": "bytes32"
            },
            {
              "internalType": "address",
              "name": "ticketOwner",
              "type": "address"
            },
            {
              "internalType": "uint64",
              "name": "purchasedDate",
              "type": "uint64"
            },
            {
              "internalType": "bool",
              "name": "isRedeemed",
              "type": "bool"
            },
            {
              "internalType": "bool",
              "name": "isValid",
              "type": "bool"
            },
            {
              "internalType": "uint256",
              "name": "ticketPrice",
              "type": "uint256"
            },
            {
              "internalType": "uint256",
              "name": "originalPrice",
              "type": "uint256"
            }
          ],
          "internalType": "struct TicketContract.Ticket",
          "name": "",
          "type": "tuple"
        }
      ],
      "stateMutability": "view",
      "type": "function",
      "constant": true
    },
    {
      "inputs": [
        {
          "internalType": "bytes32",
          "name": "_eventID",
          "type": "bytes32"
        }
      ],
      "name": "getTicketsForEvent",
      "outputs": [
        {
          "internalType": "bytes32[]",
          "name": "",
          "type": "bytes32[]"
        }
      ],
      "stateMutability": "view",
      "type": "function",
      "constant": true
    },
    {
      "inputs": [],
      "name": "getMyTickets",
      "outputs": [
        {
          "components": [
            {
              "internalType": "bytes32",
              "name": "ticketID",
              "type": "bytes32"
            },
            {
              "internalType": "bytes32",
              "name": "eventID",
              "type": "bytes32"
            },
            {
              "internalType": "address",
              "name": "ticketOwner",
              "type": "address"
            },
            {
              "internalType": "uint64",
              "name": "purchasedDate",
              "type": "uint64"
            },
            {
              "internalType": "bool",
              "name": "isRedeemed",
              "type": "bool"
            },
            {
              "internalType": "bool",
              "name": "isValid",
              "type": "bool"
            },
            {
              "internalType": "uint256",
              "name": "ticketPrice",
              "type": "uint256"
            },
            {
              "internalType": "uint256",
              "name": "originalPrice",
              "type": "uint256"
            }
          ],
          "internalType": "struct TicketContract.Ticket[]",
          "name": "",
          "type": "tuple[]"
        }
      ],
      "stateMutability": "view",
      "type": "function",
      "constant": true
    },
    {
      "inputs": [
        {
          "internalType": "bytes32",
          "name": "_ticketID",
          "type": "bytes32"
        }
      ],
      "name": "redeemTicket",
      "outputs": [],
      "stateMutability": "nonpayable",
      "type": "function"
    },
    {
      "inputs": [
        {
          "internalType": "bytes32",
          "name": "_ticketID",
          "type": "bytes32"
        },
        {
          "internalType": "bytes32",
          "name": "_eventID",
          "type": "bytes32"
        }
      ],
      "name": "verifyTicket",
      "outputs": [
        {
          "internalType": "bool",
          "name": "",
          "type": "bool"
        }
      ],
      "stateMutability": "view",
      "type": "function",
      "constant": true
    },
    {
      "inputs": [
        {
          "internalType": "bytes32",
          "name": "_ticketID",
          "type": "bytes32"
        }
      ],
      "name": "deleteTicket",
      "outputs": [],
      "stateMutability": "nonpayable",
      "type": "function"
    },
    {
      "inputs": [
        {
          "internalType": "bytes32",
          "name": "_ticketID",
          "type": "bytes32"
        }
      ],
      "name": "returnTicket",
      "outputs": [],
      "stateMutability": "nonpayable",
      "type": "function"
    },
    {
      "inputs": [
        {
          "internalType": "bytes32",
          "name": "eventId",
          "type": "bytes32"
        }
      ],
      "name": "cancelAllTickets",
      "outputs": [],
      "stateMutability": "nonpayable",
      "type": "function"
    }
  ],
  "bytecode": "0x60806040523480156200001157600080fd5b5060405162002f8738038062002f878339818101604052810190620000379190620000e9565b80600360006101000a81548173ffffffffffffffffffffffffffffffffffffffff021916908373ffffffffffffffffffffffffffffffffffffffff160217905550506200011b565b600080fd5b600073ffffffffffffffffffffffffffffffffffffffff82169050919050565b6000620000b18262000084565b9050919050565b620000c381620000a4565b8114620000cf57600080fd5b50565b600081519050620000e381620000b8565b92915050565b6000602082840312156200010257620001016200007f565b5b60006200011284828501620000d2565b91505092915050565b612e5c806200012b6000396000f3fe6080604052600436106100f35760003560e01c8063924b5a071161008a578063d777624811610059578063d77762481461036c578063dd11247e14610395578063e1d10d85146103c0578063edd8741d146103eb576100f3565b8063924b5a07146102a0578063bf3f733e146102c9578063cfe632ef146102f2578063d5a114e71461032f576100f3565b8063422375ec116100c6578063422375ec146101df57806379287dc11461021c57806384d4f1a71461023857806387e9a74414610263576100f3565b8063090a8556146100f8578063181fcc891461013c5780632a0d880714610179578063368d804d146101a2575b600080fd5b34801561010457600080fd5b5061011f600480360381019061011a9190611e04565b610414565b604051610133989796959493929190611ed8565b60405180910390f35b34801561014857600080fd5b50610163600480360381019061015e9190611e04565b6104aa565b6040516101709190612014565b60405180910390f35b34801561018557600080fd5b506101a0600480360381019061019b9190611e04565b610515565b005b3480156101ae57600080fd5b506101c960048036038101906101c49190612036565b61081d565b6040516101d69190612076565b60405180910390f35b3480156101eb57600080fd5b50610206600480360381019061020191906120bd565b610883565b60405161021391906120fd565b60405180910390f35b61023660048036038101906102319190612144565b6108b4565b005b34801561024457600080fd5b5061024d610bdd565b60405161025a9190612184565b60405180910390f35b34801561026f57600080fd5b5061028a60048036038101906102859190611e04565b610c03565b604051610297919061227d565b60405180910390f35b3480156102ac57600080fd5b506102c760048036038101906102c29190611e04565b610d16565b005b3480156102d557600080fd5b506102f060048036038101906102eb9190611e04565b610fbb565b005b3480156102fe57600080fd5b5061031960048036038101906103149190612299565b6112cc565b60405161032691906120fd565b60405180910390f35b34801561033b57600080fd5b50610356600480360381019061035191906122ec565b6115e4565b60405161036391906120fd565b60405180910390f35b34801561037857600080fd5b50610393600480360381019061038e9190612319565b611608565b005b3480156103a157600080fd5b506103aa61164c565b6040516103b79190612346565b60405180910390f35b3480156103cc57600080fd5b506103d5611652565b6040516103e291906124b3565b60405180910390f35b3480156103f757600080fd5b50610412600480360381019061040d9190611e04565b61196b565b005b60006020528060005260406000206000915090508060000154908060010154908060020160009054906101000a900473ffffffffffffffffffffffffffffffffffffffff16908060020160149054906101000a900467ffffffffffffffff169080600201601c9054906101000a900460ff169080600201601d9054906101000a900460ff16908060030154908060040154905088565b60606001600083815260200190815260200160002080548060200260200160405190810160405280929190818152602001828054801561050957602002820191906000526020600020905b8154815260200190600101908083116104f5575b50505050509050919050565b60008082815260200190815260200160002060020160009054906101000a900473ffffffffffffffffffffffffffffffffffffffff1673ffffffffffffffffffffffffffffffffffffffff163373ffffffffffffffffffffffffffffffffffffffff1614806105d15750600360009054906101000a900473ffffffffffffffffffffffffffffffffffffffff1673ffffffffffffffffffffffffffffffffffffffff163373ffffffffffffffffffffffffffffffffffffffff16145b610610576040517f08c379a000000000000000000000000000000000000000000000000000000000815260040161060790612558565b60405180910390fd5b6000806000838152602001908152602001600020600101549050600060066000848152602001908152602001600020549050600060018060008581526020019081526020016000208054905061066691906125a7565b90508082146106f1576000600160008581526020019081526020016000208281548110610696576106956125db565b5b90600052602060002001549050806001600086815260200190815260200160002084815481106106c9576106c86125db565b5b9060005260206000200181905550826006600083815260200190815260200160002081905550505b600160008481526020019081526020016000208054806107145761071361260a565b5b60019003818190600052602060002001600090559055600660008581526020019081526020016000206000905560008085815260200190815260200160002060008082016000905560018201600090556002820160006101000a81549073ffffffffffffffffffffffffffffffffffffffff02191690556002820160146101000a81549067ffffffffffffffff021916905560028201601c6101000a81549060ff021916905560028201601d6101000a81549060ff02191690556003820160009055600482016000905550507fd9a771705fc066b34f0996a0abae6a891c652869ac6b6e3b1e00e4e6d4638ea88460405161080f91906120fd565b60405180910390a150505050565b60008060008085815260200190815260200160002090506000801b81600001541415801561084e5750828160010154145b8015610868575080600201601d9054906101000a900460ff165b1561087757600191505061087d565b60009150505b92915050565b6001602052816000526040600020818154811061089f57600080fd5b90600052602060002001600091509150505481565b600560009054906101000a900460ff1615610904576040517f08c379a00000000000000000000000000000000000000000000000000000000081526004016108fb90612685565b60405180910390fd5b6001600560006101000a81548160ff02191690831515021790555081600080828152602001908152602001600020600201601c9054906101000a900460ff1615610983576040517f08c379a000000000000000000000000000000000000000000000000000000000815260040161097a90612717565b60405180910390fd5b600080600085815260200190815260200160002090503373ffffffffffffffffffffffffffffffffffffffff168160020160009054906101000a900473ffffffffffffffffffffffffffffffffffffffff1673ffffffffffffffffffffffffffffffffffffffff1614610a2b576040517f08c379a0000000000000000000000000000000000000000000000000000000008152600401610a22906127a9565b60405180910390fd5b80600301543414610a71576040517f08c379a0000000000000000000000000000000000000000000000000000000008152600401610a689061283b565b60405180910390fd5b80600201601d9054906101000a900460ff16610ac2576040517f08c379a0000000000000000000000000000000000000000000000000000000008152600401610ab9906128a7565b60405180910390fd5b60008160020160009054906101000a900473ffffffffffffffffffffffffffffffffffffffff169050838260020160006101000a81548173ffffffffffffffffffffffffffffffffffffffff021916908373ffffffffffffffffffffffffffffffffffffffff1602179055503482600301819055508073ffffffffffffffffffffffffffffffffffffffff166108fc349081150290604051600060405180830381858888f19350505050158015610b7d573d6000803e3d6000fd5b507ffd8856e33cf0872c85c89d373a010f59eac73bef929cb9e91f2a9b4391cfbc6e85828634604051610bb394939291906128c7565b60405180910390a15050506000600560006101000a81548160ff0219169083151502179055505050565b600360009054906101000a900473ffffffffffffffffffffffffffffffffffffffff1681565b610c0b611d1c565b6000808381526020019081526020016000206040518061010001604052908160008201548152602001600182015481526020016002820160009054906101000a900473ffffffffffffffffffffffffffffffffffffffff1673ffffffffffffffffffffffffffffffffffffffff1673ffffffffffffffffffffffffffffffffffffffff1681526020016002820160149054906101000a900467ffffffffffffffff1667ffffffffffffffff1667ffffffffffffffff16815260200160028201601c9054906101000a900460ff1615151515815260200160028201601d9054906101000a900460ff16151515158152602001600382015481526020016004820154815250509050919050565b600080600083815260200190815260200160002090503373ffffffffffffffffffffffffffffffffffffffff168160020160009054906101000a900473ffffffffffffffffffffffffffffffffffffffff1673ffffffffffffffffffffffffffffffffffffffff1614610dbe576040517f08c379a0000000000000000000000000000000000000000000000000000000008152600401610db59061297e565b60405180910390fd5b80600201601c9054906101000a900460ff1615610e10576040517f08c379a0000000000000000000000000000000000000000000000000000000008152600401610e0790612717565b60405180910390fd5b80600201601d9054906101000a900460ff16610e61576040517f08c379a0000000000000000000000000000000000000000000000000000000008152600401610e58906128a7565b60405180910390fd5b60008160040154905060003390508073ffffffffffffffffffffffffffffffffffffffff166108fc839081150290604051600060405180830381858888f19350505050158015610eb5573d6000803e3d6000fd5b50610ec4836001015485611b3d565b60008085815260200190815260200160002060008082016000905560018201600090556002820160006101000a81549073ffffffffffffffffffffffffffffffffffffffff02191690556002820160146101000a81549067ffffffffffffffff021916905560028201601c6101000a81549060ff021916905560028201601d6101000a81549060ff021916905560038201600090556004820160009055505060066000858152602001908152602001600020600090557f264639f18b561b2178c34aef36b59305f75022f12fcecc6ed2f1e7b9662542de843384604051610fad9392919061299e565b60405180910390a150505050565b600060016000838152602001908152602001600020905060005b8180549050811015611271576000828281548110610ff657610ff56125db565b5b906000526020600020015490506000806000838152602001908152602001600020905080600201601d9054906101000a900460ff168015611046575080600201601c9054906101000a900460ff16155b156111a65760008160040154905060008260020160009054906101000a900473ffffffffffffffffffffffffffffffffffffffff169050600083600201601d6101000a81548160ff02191690831515021790555060008173ffffffffffffffffffffffffffffffffffffffff16836040516110c090612a06565b60006040518083038185875af1925050503d80600081146110fd576040519150601f19603f3d011682016040523d82523d6000602084013e611102565b606091505b5050905080611146576040517f08c379a000000000000000000000000000000000000000000000000000000000815260040161113d90612a67565b60405180910390fd5b7f79e3f523ecb0c96b50463daf491f9057d96b06408458e92d8b734c367092a19185838560405161117993929190612ae6565b60405180910390a161118a85611c43565b6004600081548092919061119d90612b1d565b91905055505050505b60008083815260200190815260200160002060008082016000905560018201600090556002820160006101000a81549073ffffffffffffffffffffffffffffffffffffffff02191690556002820160146101000a81549067ffffffffffffffff021916905560028201601c6101000a81549060ff021916905560028201601d6101000a81549060ff021916905560038201600090556004820160009055505060066000838152602001908152602001600020600090555050808061126990612b47565b915050610fd5565b506001600083815260200190815260200160002060006112919190611d8b565b7fc0919dcb7e0b464ce8146ec897e4a566e6a1af62233364998f3da696e08b500b826040516112c091906120fd565b60405180910390a15050565b6000600360009054906101000a900473ffffffffffffffffffffffffffffffffffffffff1673ffffffffffffffffffffffffffffffffffffffff163373ffffffffffffffffffffffffffffffffffffffff161461135e576040517f08c379a000000000000000000000000000000000000000000000000000000000815260040161135590612c02565b60405180910390fd5b600084844260405160200161137593929190612cac565b60405160208183030381529060405280519060200120905060004290506040518061010001604052808381526020018781526020018673ffffffffffffffffffffffffffffffffffffffff1681526020018267ffffffffffffffff16815260200160001515815260200160011515815260200185815260200185815250600080848152602001908152602001600020600082015181600001556020820151816001015560408201518160020160006101000a81548173ffffffffffffffffffffffffffffffffffffffff021916908373ffffffffffffffffffffffffffffffffffffffff16021790555060608201518160020160146101000a81548167ffffffffffffffff021916908367ffffffffffffffff160217905550608082015181600201601c6101000a81548160ff02191690831515021790555060a082015181600201601d6101000a81548160ff02191690831515021790555060c0820151816003015560e082015181600401559050506001600087815260200190815260200160002082908060018154018082558091505060019003906000526020600020016000909190919091505560028290806001815401808255809150506001900390600052602060002001600090919091909150556004600081548092919061155b90612b47565b919050555060018060008881526020019081526020016000208054905061158291906125a7565b60066000848152602001908152602001600020819055507f59f9f03903d250b9088863ea41c64b2abc591d823643e4c51599100592df9f2e82878388886040516115d0959493929190612ce9565b60405180910390a181925050509392505050565b600281815481106115f457600080fd5b906000526020600020016000915090505481565b80600360006101000a81548173ffffffffffffffffffffffffffffffffffffffff021916908373ffffffffffffffffffffffffffffffffffffffff16021790555050565b60045481565b60606000805b60028054905081101561170e573373ffffffffffffffffffffffffffffffffffffffff1660008060028481548110611693576116926125db565b5b9060005260206000200154815260200190815260200160002060020160009054906101000a900473ffffffffffffffffffffffffffffffffffffffff1673ffffffffffffffffffffffffffffffffffffffff1614156116fb5781806116f790612b47565b9250505b808061170690612b47565b915050611658565b5060008167ffffffffffffffff81111561172b5761172a612d3c565b5b60405190808252806020026020018201604052801561176457816020015b611751611d1c565b8152602001906001900390816117495790505b5090506000805b600280549050811015611961573373ffffffffffffffffffffffffffffffffffffffff16600080600284815481106117a6576117a56125db565b5b9060005260206000200154815260200190815260200160002060020160009054906101000a900473ffffffffffffffffffffffffffffffffffffffff1673ffffffffffffffffffffffffffffffffffffffff16141561194e5760008060028381548110611816576118156125db565b5b906000526020600020015481526020019081526020016000206040518061010001604052908160008201548152602001600182015481526020016002820160009054906101000a900473ffffffffffffffffffffffffffffffffffffffff1673ffffffffffffffffffffffffffffffffffffffff1673ffffffffffffffffffffffffffffffffffffffff1681526020016002820160149054906101000a900467ffffffffffffffff1667ffffffffffffffff1667ffffffffffffffff16815260200160028201601c9054906101000a900460ff1615151515815260200160028201601d9054906101000a900460ff1615151515815260200160038201548152602001600482015481525050838381518110611934576119336125db565b5b6020026020010181905250818061194a90612b47565b9250505b808061195990612b47565b91505061176b565b5081935050505090565b3373ffffffffffffffffffffffffffffffffffffffff1660008083815260200190815260200160002060020160009054906101000a900473ffffffffffffffffffffffffffffffffffffffff1673ffffffffffffffffffffffffffffffffffffffff1614611a0e576040517f08c379a0000000000000000000000000000000000000000000000000000000008152600401611a0590612ddd565b60405180910390fd5b600080828152602001908152602001600020600201601c9054906101000a900460ff1615611a71576040517f08c379a0000000000000000000000000000000000000000000000000000000008152600401611a6890612717565b60405180910390fd5b600080828152602001908152602001600020600201601d9054906101000a900460ff16611ad3576040517f08c379a0000000000000000000000000000000000000000000000000000000008152600401611aca906128a7565b60405180910390fd5b6001600080838152602001908152602001600020600201601c6101000a81548160ff0219169083151502179055507f5e887a439fa796c056dfd595ead77c343c193a22734ed54140ce3a54370850628133604051611b32929190612dfd565b60405180910390a150565b6000600660008381526020019081526020016000205490506000600180600086815260200190815260200160002080549050611b7991906125a7565b9050808214611c04576000600160008681526020019081526020016000208281548110611ba957611ba86125db565b5b9060005260206000200154905080600160008781526020019081526020016000208481548110611bdc57611bdb6125db565b5b9060005260206000200181905550826006600083815260200190815260200160002081905550505b60016000858152602001908152602001600020805480611c2757611c2661260a565b5b6001900381819060005260206000200160009055905550505050565b60006006600083815260200190815260200160002054905060006001600280549050611c6f91906125a7565b9050808214611cd857600060028281548110611c8e57611c8d6125db565b5b906000526020600020015490508060028481548110611cb057611caf6125db565b5b9060005260206000200181905550826006600083815260200190815260200160002081905550505b6002805480611cea57611ce961260a565b5b600190038181906000526020600020016000905590556006600084815260200190815260200160002060009055505050565b6040518061010001604052806000801916815260200160008019168152602001600073ffffffffffffffffffffffffffffffffffffffff168152602001600067ffffffffffffffff16815260200160001515815260200160001515815260200160008152602001600081525090565b5080546000825590600052602060002090810190611da99190611dac565b50565b5b80821115611dc5576000816000905550600101611dad565b5090565b600080fd5b6000819050919050565b611de181611dce565b8114611dec57600080fd5b50565b600081359050611dfe81611dd8565b92915050565b600060208284031215611e1a57611e19611dc9565b5b6000611e2884828501611def565b91505092915050565b611e3a81611dce565b82525050565b600073ffffffffffffffffffffffffffffffffffffffff82169050919050565b6000611e6b82611e40565b9050919050565b611e7b81611e60565b82525050565b600067ffffffffffffffff82169050919050565b611e9e81611e81565b82525050565b60008115159050919050565b611eb981611ea4565b82525050565b6000819050919050565b611ed281611ebf565b82525050565b600061010082019050611eee600083018b611e31565b611efb602083018a611e31565b611f086040830189611e72565b611f156060830188611e95565b611f226080830187611eb0565b611f2f60a0830186611eb0565b611f3c60c0830185611ec9565b611f4960e0830184611ec9565b9998505050505050505050565b600081519050919050565b600082825260208201905092915050565b6000819050602082019050919050565b611f8b81611dce565b82525050565b6000611f9d8383611f82565b60208301905092915050565b6000602082019050919050565b6000611fc182611f56565b611fcb8185611f61565b9350611fd683611f72565b8060005b83811015612007578151611fee8882611f91565b9750611ff983611fa9565b925050600181019050611fda565b5085935050505092915050565b6000602082019050818103600083015261202e8184611fb6565b905092915050565b6000806040838503121561204d5761204c611dc9565b5b600061205b85828601611def565b925050602061206c85828601611def565b9150509250929050565b600060208201905061208b6000830184611eb0565b92915050565b61209a81611ebf565b81146120a557600080fd5b50565b6000813590506120b781612091565b92915050565b600080604083850312156120d4576120d3611dc9565b5b60006120e285828601611def565b92505060206120f3858286016120a8565b9150509250929050565b60006020820190506121126000830184611e31565b92915050565b61212181611e60565b811461212c57600080fd5b50565b60008135905061213e81612118565b92915050565b6000806040838503121561215b5761215a611dc9565b5b600061216985828601611def565b925050602061217a8582860161212f565b9150509250929050565b60006020820190506121996000830184611e72565b92915050565b6121a881611e60565b82525050565b6121b781611e81565b82525050565b6121c681611ea4565b82525050565b6121d581611ebf565b82525050565b610100820160008201516121f26000850182611f82565b5060208201516122056020850182611f82565b506040820151612218604085018261219f565b50606082015161222b60608501826121ae565b50608082015161223e60808501826121bd565b5060a082015161225160a08501826121bd565b5060c082015161226460c08501826121cc565b5060e082015161227760e08501826121cc565b50505050565b60006101008201905061229360008301846121db565b92915050565b6000806000606084860312156122b2576122b1611dc9565b5b60006122c086828701611def565b93505060206122d18682870161212f565b92505060406122e2868287016120a8565b9150509250925092565b60006020828403121561230257612301611dc9565b5b6000612310848285016120a8565b91505092915050565b60006020828403121561232f5761232e611dc9565b5b600061233d8482850161212f565b91505092915050565b600060208201905061235b6000830184611ec9565b92915050565b600081519050919050565b600082825260208201905092915050565b6000819050602082019050919050565b610100820160008201516123a46000850182611f82565b5060208201516123b76020850182611f82565b5060408201516123ca604085018261219f565b5060608201516123dd60608501826121ae565b5060808201516123f060808501826121bd565b5060a082015161240360a08501826121bd565b5060c082015161241660c08501826121cc565b5060e082015161242960e08501826121cc565b50505050565b600061243b838361238d565b6101008301905092915050565b6000602082019050919050565b600061246082612361565b61246a818561236c565b93506124758361237d565b8060005b838110156124a657815161248d888261242f565b975061249883612448565b925050600181019050612479565b5085935050505092915050565b600060208201905081810360008301526124cd8184612455565b905092915050565b600082825260208201905092915050565b7f556e617574686f72697a65643a2063616c6c6572206973206e6f74207468652060008201527f7469636b6574206f776e6572206f72206576656e7420636f6e74726163740000602082015250565b6000612542603e836124d5565b915061254d826124e6565b604082019050919050565b6000602082019050818103600083015261257181612535565b9050919050565b7f4e487b7100000000000000000000000000000000000000000000000000000000600052601160045260246000fd5b60006125b282611ebf565b91506125bd83611ebf565b9250828210156125d0576125cf612578565b5b828203905092915050565b7f4e487b7100000000000000000000000000000000000000000000000000000000600052603260045260246000fd5b7f4e487b7100000000000000000000000000000000000000000000000000000000600052603160045260246000fd5b7f5265656e7472616e6379206973206e6f7420616c6c6f77656400000000000000600082015250565b600061266f6019836124d5565b915061267a82612639565b602082019050919050565b6000602082019050818103600083015261269e81612662565b9050919050565b7f5469636b65742068617320616c7265616479206265656e2072656465656d656460008201527f2e00000000000000000000000000000000000000000000000000000000000000602082015250565b60006127016021836124d5565b915061270c826126a5565b604082019050919050565b60006020820190508181036000830152612730816126f4565b9050919050565b7f4f6e6c7920746865207469636b6574206f776e65722063616e207472616e736660008201527f65722069742e0000000000000000000000000000000000000000000000000000602082015250565b60006127936026836124d5565b915061279e82612737565b604082019050919050565b600060208201905081810360008301526127c281612786565b9050919050565b7f5472616e7366657220616d6f756e74206d757374206d6174636820746865207460008201527f69636b65742070726963652e0000000000000000000000000000000000000000602082015250565b6000612825602c836124d5565b9150612830826127c9565b604082019050919050565b6000602082019050818103600083015261285481612818565b9050919050565b7f5469636b6574206973206e6f742076616c69642e000000000000000000000000600082015250565b60006128916014836124d5565b915061289c8261285b565b602082019050919050565b600060208201905081810360008301526128c081612884565b9050919050565b60006080820190506128dc6000830187611e31565b6128e96020830186611e72565b6128f66040830185611e72565b6129036060830184611ec9565b95945050505050565b7f4f6e6c7920746865207469636b6574206f776e65722063616e2072657475726e60008201527f20746865207469636b65742e0000000000000000000000000000000000000000602082015250565b6000612968602c836124d5565b91506129738261290c565b604082019050919050565b600060208201905081810360008301526129978161295b565b9050919050565b60006060820190506129b36000830186611e31565b6129c06020830185611e72565b6129cd6040830184611ec9565b949350505050565b600081905092915050565b50565b60006129f06000836129d5565b91506129fb826129e0565b600082019050919050565b6000612a11826129e3565b9150819050919050565b7f4661696c656420746f2073656e64204574686572000000000000000000000000600082015250565b6000612a516014836124d5565b9150612a5c82612a1b565b602082019050919050565b60006020820190508181036000830152612a8081612a44565b9050919050565b6000819050919050565b6000612aac612aa7612aa284611e40565b612a87565b611e40565b9050919050565b6000612abe82612a91565b9050919050565b6000612ad082612ab3565b9050919050565b612ae081612ac5565b82525050565b6000606082019050612afb6000830186611e31565b612b086020830185612ad7565b612b156040830184611ec9565b949350505050565b6000612b2882611ebf565b91506000821415612b3c57612b3b612578565b5b600182039050919050565b6000612b5282611ebf565b91507fffffffffffffffffffffffffffffffffffffffffffffffffffffffffffffffff821415612b8557612b84612578565b5b600182019050919050565b7f556e617574686f72697a65643a2063616c6c6572206973206e6f74207468652060008201527f6576656e7420636f6e7472616374000000000000000000000000000000000000602082015250565b6000612bec602e836124d5565b9150612bf782612b90565b604082019050919050565b60006020820190508181036000830152612c1b81612bdf565b9050919050565b6000819050919050565b612c3d612c3882611dce565b612c22565b82525050565b60008160601b9050919050565b6000612c5b82612c43565b9050919050565b6000612c6d82612c50565b9050919050565b612c85612c8082611e60565b612c62565b82525050565b6000819050919050565b612ca6612ca182611ebf565b612c8b565b82525050565b6000612cb88286612c2c565b602082019150612cc88285612c74565b601482019150612cd88284612c95565b602082019150819050949350505050565b600060a082019050612cfe6000830188611e31565b612d0b6020830187611e31565b612d186040830186611e95565b612d256060830185611e72565b612d326080830184611ec9565b9695505050505050565b7f4e487b7100000000000000000000000000000000000000000000000000000000600052604160045260246000fd5b7f4f6e6c7920746865207469636b6574206f776e65722063616e2072656465656d60008201527f2069742e00000000000000000000000000000000000000000000000000000000602082015250565b6000612dc76024836124d5565b9150612dd282612d6b565b604082019050919050565b60006020820190508181036000830152612df681612dba565b9050919050565b6000604082019050612e126000830185611e31565b612e1f6020830184611e72565b939250505056fea2646970667358221220a91b7cd1695d7c3644b1ad7eb28ea9562849a43dcab222321fba7952df1ea59c64736f6c634300080a0033",
  "immutableReferences": {},
  "source": "// SPDX-License-Identifier: MIT\npragma solidity ^0.8.10;\n\ncontract TicketContract {\n  struct Ticket {\n    bytes32 ticketID;\n    bytes32 eventID;\n    address ticketOwner;\n    uint64 purchasedDate;\n    bool isRedeemed;\n    bool isValid;\n    uint256 ticketPrice;\n    uint256 originalPrice;\n  }\n  //mapping for allTickets for the TicketContract\n  mapping(bytes32 => Ticket) public allTickets;\n  // mapping for allEvents but by eventID\n  mapping(bytes32 => bytes32[]) public ticketsByEvent;\n  // array to keep all IDs for tickets\n  bytes32[] public allTicketIDs;\n  // address of EventContract, only this address can create new tickets\n  address public eventContractAddress;\n  // number of all tickets\n  uint256 public totalTickets;\n  // variable for this -> The reentrancy guard is a mechanism that prevents reentry to certain functions during\n  // their execution. This is particularly important for functions that involve the transfer of funds.\n  bool private locked;\n  // mapping for better and more optimalize indexing\n  mapping(bytes32 => uint256) private ticketIndexInEvent;\n\n  function setEventContractAddress(address _eventContractAddress) external {\n    eventContractAddress = _eventContractAddress;\n  }\n\n  // event emitters\n  event TicketTransferred(bytes32 ticketID, address from, address to, uint256 newPrice);\n  event TicketCreated(\n    bytes32 ticketID,\n    bytes32 eventID,\n    uint64 purchasedDate,\n    address buyer,\n    uint256 price\n  );\n  event TicketRedeemed(bytes32 ticketID, address redeemer);\n  event TicketDeleted(bytes32 ticketID);\n  event TicketReturned(bytes32 ticketID, address sender, uint256 refundAmount);\n  event TicketRefunded(bytes32 ticketID, address ticketOwner, uint256 refundAmount);\n  event EventCancelled(bytes32 eventID);\n\n  // constructor for create new instance of TicketContract\n  constructor(address _eventContractAddress) {\n    eventContractAddress = _eventContractAddress;\n  }\n  // modifier - check if request send EventContract\n  modifier onlyEventContract() {\n    require(msg.sender == eventContractAddress, 'Unauthorized: caller is not the event contract');\n    _;\n  }\n  // modifier - check if ticket is not redeemed yet. If yes user cant sell tickets to others\n  modifier isNotRedeemed(bytes32 _ticketID) {\n    require(!allTickets[_ticketID].isRedeemed, 'Ticket has already been redeemed.');\n    _;\n  }\n  // modifier - The reentrancy guard is a mechanism that prevents reentry to certain functions during\n  // their execution. This is particularly important for functions that involve the transfer of funds.\n  modifier noReentrancy() {\n    require(!locked, 'Reentrancy is not allowed');\n    locked = true;\n    _;\n    locked = false;\n  }\n  // Function to create new ticket for eventID\n  // @param _eventID is ID of event, for which is ticket\n  // @param _buyer is address of user, which ticket buy\n  // @param _tickerPrice is price of the ticket\n  // @ return - ID of new ticket\n  function createNewTicket(\n    bytes32 _eventID,\n    address _buyer,\n    uint256 _ticketPrice\n  ) external onlyEventContract returns (bytes32) {\n    bytes32 ticketID = keccak256(abi.encodePacked(_eventID, _buyer, block.timestamp));\n    uint64 _purchasedDate = uint64(block.timestamp);\n    allTickets[ticketID] = Ticket({\n      ticketID: ticketID,\n      eventID: _eventID,\n      ticketOwner: _buyer,\n      purchasedDate: _purchasedDate,\n      isRedeemed: false,\n      isValid: true,\n      ticketPrice: _ticketPrice,\n      originalPrice: _ticketPrice\n    });\n    ticketsByEvent[_eventID].push(ticketID);\n    allTicketIDs.push(ticketID);\n    totalTickets++;\n\n    ticketIndexInEvent[ticketID] = ticketsByEvent[_eventID].length - 1;\n\n    emit TicketCreated(ticketID, _eventID, _purchasedDate, _buyer, _ticketPrice);\n\n    return ticketID;\n  }\n  // function to change ownership of the ticket, its for selling tickets between users\n  // @param _eventID is ID of event, for which is ticket\n  // @param _buyer is address of user, which ticket buy\n  // @return - bool value for FE handling\n  function transferTicket(\n    bytes32 _ticketID,\n    address _newOwner\n  ) external payable noReentrancy isNotRedeemed(_ticketID) {\n    Ticket storage ticket = allTickets[_ticketID];\n    require(ticket.ticketOwner == msg.sender, 'Only the ticket owner can transfer it.');\n    require(msg.value == ticket.ticketPrice, 'Transfer amount must match the ticket price.');\n    require(ticket.isValid, 'Ticket is not valid.');\n\n    address oldOwner = ticket.ticketOwner;\n    ticket.ticketOwner = _newOwner;\n    ticket.ticketPrice = msg.value;\n\n    payable(oldOwner).transfer(msg.value);\n    emit TicketTransferred(_ticketID, oldOwner, _newOwner, msg.value);\n  }\n  // function return info about ticket with _ticketID\n  function getTicketInfo(bytes32 _ticketID) external view returns (Ticket memory) {\n    return allTickets[_ticketID];\n  }\n  // function to return array of tickets for one specific event\n  function getTicketsForEvent(bytes32 _eventID) external view returns (bytes32[] memory) {\n    return ticketsByEvent[_eventID];\n  }\n  // function to return tickets for one specific user\n  function getMyTickets() external view returns (Ticket[] memory) {\n    uint totalTicketsCount = 0;\n\n    for (uint256 i = 0; i < allTicketIDs.length; i++) {\n      if (allTickets[allTicketIDs[i]].ticketOwner == msg.sender) {\n        totalTicketsCount++;\n      }\n    }\n\n    Ticket[] memory ownedTickets = new Ticket[](totalTicketsCount);\n    uint256 index = 0;\n    for (uint256 i = 0; i < allTicketIDs.length; i++) {\n      if (allTickets[allTicketIDs[i]].ticketOwner == msg.sender) {\n        ownedTickets[index] = allTickets[allTicketIDs[i]];\n        index++;\n      }\n    }\n\n    return ownedTickets;\n  }\n  // function to flag ticket as reedeemed, which means user arrive on the event, so\n  // any other function cant run\n  function redeemTicket(bytes32 _ticketID) external {\n    require(\n      allTickets[_ticketID].ticketOwner == msg.sender,\n      'Only the ticket owner can redeem it.'\n    );\n    require(!allTickets[_ticketID].isRedeemed, 'Ticket has already been redeemed.');\n    require(allTickets[_ticketID].isValid, 'Ticket is not valid.');\n\n    allTickets[_ticketID].isRedeemed = true;\n\n    emit TicketRedeemed(_ticketID, msg.sender);\n  }\n  // function to verify ticket\n  function verifyTicket(bytes32 _ticketID, bytes32 _eventID) external view returns (bool) {\n    Ticket storage _ticket = allTickets[_ticketID];\n    if (_ticket.ticketID != 0 && _ticket.eventID == _eventID && _ticket.isValid) {\n      return true;\n    } else {\n      return false;\n    }\n  }\n  // function to delete one specific ticket with id\n  function deleteTicket(bytes32 _ticketID) external {\n    require(\n      msg.sender == allTickets[_ticketID].ticketOwner || msg.sender == eventContractAddress,\n      'Unauthorized: caller is not the ticket owner or event contract'\n    );\n\n    bytes32 eventId = allTickets[_ticketID].eventID;\n    uint index = ticketIndexInEvent[_ticketID];\n    uint lastIndex = ticketsByEvent[eventId].length - 1;\n\n    if (index != lastIndex) {\n      bytes32 lastTicketID = ticketsByEvent[eventId][lastIndex];\n      ticketsByEvent[eventId][index] = lastTicketID;\n      ticketIndexInEvent[lastTicketID] = index;\n    }\n    ticketsByEvent[eventId].pop();\n    delete ticketIndexInEvent[_ticketID];\n    delete allTickets[_ticketID];\n\n    emit TicketDeleted(_ticketID);\n  }\n  // Function to return a ticket and refund the purchase price\n  function returnTicket(bytes32 _ticketID) external {\n    Ticket storage ticket = allTickets[_ticketID];\n    require(ticket.ticketOwner == msg.sender, 'Only the ticket owner can return the ticket.');\n    require(!ticket.isRedeemed, 'Ticket has already been redeemed.');\n    require(ticket.isValid, 'Ticket is not valid.');\n\n    uint256 refundAmount = ticket.originalPrice;\n    address payable ownerPayable = payable(msg.sender);\n\n    ownerPayable.transfer(refundAmount);\n\n    removeTicketFromEventList(ticket.eventID, _ticketID);\n    delete allTickets[_ticketID];\n    delete ticketIndexInEvent[_ticketID];\n\n    emit TicketReturned(_ticketID, msg.sender, refundAmount);\n  }\n  // Function to remove a ticket from the ticketsByEvent mapping\n  function removeTicketFromEventList(bytes32 _eventId, bytes32 _ticketID) private {\n    uint index = ticketIndexInEvent[_ticketID];\n    uint lastIndex = ticketsByEvent[_eventId].length - 1;\n    if (index != lastIndex) {\n      bytes32 lastTicketID = ticketsByEvent[_eventId][lastIndex];\n      ticketsByEvent[_eventId][index] = lastTicketID;\n      ticketIndexInEvent[lastTicketID] = index;\n    }\n    ticketsByEvent[_eventId].pop();\n  }\n  // function to delete tickets, return all eth for ticketOwners atc. when event is cancelled\n  function cancelAllTickets(bytes32 eventId) external {\n    bytes32[] storage tickets = ticketsByEvent[eventId];\n    for (uint i = 0; i < tickets.length; i++) {\n      bytes32 ticketId = tickets[i];\n      Ticket storage ticket = allTickets[ticketId];\n      if (ticket.isValid && !ticket.isRedeemed) {\n        uint256 refundAmount = ticket.originalPrice;\n        address payable ticketOwner = payable(ticket.ticketOwner);\n\n        ticket.isValid = false;\n\n        (bool sent, ) = ticketOwner.call{value: refundAmount}('');\n        require(sent, 'Failed to send Ether');\n\n        emit TicketRefunded(ticketId, ticketOwner, refundAmount);\n        removeTicketFromAllTickets(ticketId);\n        totalTickets--;\n      }\n      delete allTickets[ticketId];\n      delete ticketIndexInEvent[ticketId];\n    }\n    delete ticketsByEvent[eventId];\n\n    emit EventCancelled(eventId);\n  }\n  function removeTicketFromAllTickets(bytes32 ticketId) private {\n    uint index = ticketIndexInEvent[ticketId];\n    uint lastIndex = allTicketIDs.length - 1;\n\n    if (index != lastIndex) {\n      bytes32 lastTicketId = allTicketIDs[lastIndex];\n      allTicketIDs[index] = lastTicketId;\n      ticketIndexInEvent[lastTicketId] = index;\n    }\n    allTicketIDs.pop();\n    delete ticketIndexInEvent[ticketId];\n  }\n}\n",
  "sourcePath": "/Users/janmrakava/Documents/GitHub/blockticket_blockchain/client/contracts/Ticket.sol",
  "compiler": {
    "name": "solc",
    "version": "0.8.10+commit.fc410830.Emscripten.clang"
  },
  "schemaVersion": "3.4.16",
  "updatedAt": "2024-04-21T13:50:31.979Z",
  "networkType": "ethereum",
  "devdoc": {
    "kind": "dev",
    "methods": {},
    "version": 1
  },
  "userdoc": {
    "kind": "user",
    "methods": {},
    "version": 1
  }
}