{
  "contractName": "TicketContract",
  "abi": [
    {
      "inputs": [
        {
          "internalType": "address",
          "name": "_eventContractAddress",
          "type": "address"
        }
      ],
      "stateMutability": "nonpayable",
      "type": "constructor"
    },
    {
      "anonymous": false,
      "inputs": [
        {
          "indexed": false,
          "internalType": "bytes32",
          "name": "eventID",
          "type": "bytes32"
        }
      ],
      "name": "EventCancelled",
      "type": "event"
    },
    {
      "anonymous": false,
      "inputs": [
        {
          "indexed": false,
          "internalType": "bytes32",
          "name": "ticketID",
          "type": "bytes32"
        },
        {
          "indexed": false,
          "internalType": "bytes32",
          "name": "eventID",
          "type": "bytes32"
        },
        {
          "indexed": false,
          "internalType": "uint64",
          "name": "purchasedDate",
          "type": "uint64"
        },
        {
          "indexed": false,
          "internalType": "address",
          "name": "buyer",
          "type": "address"
        },
        {
          "indexed": false,
          "internalType": "uint256",
          "name": "price",
          "type": "uint256"
        }
      ],
      "name": "TicketCreated",
      "type": "event"
    },
    {
      "anonymous": false,
      "inputs": [
        {
          "indexed": false,
          "internalType": "bytes32",
          "name": "ticketID",
          "type": "bytes32"
        }
      ],
      "name": "TicketDeleted",
      "type": "event"
    },
    {
      "anonymous": false,
      "inputs": [
        {
          "indexed": false,
          "internalType": "bytes32",
          "name": "ticketID",
          "type": "bytes32"
        },
        {
          "indexed": false,
          "internalType": "address",
          "name": "redeemer",
          "type": "address"
        }
      ],
      "name": "TicketRedeemed",
      "type": "event"
    },
    {
      "anonymous": false,
      "inputs": [
        {
          "indexed": false,
          "internalType": "bytes32",
          "name": "ticketID",
          "type": "bytes32"
        },
        {
          "indexed": false,
          "internalType": "address",
          "name": "ticketOwner",
          "type": "address"
        },
        {
          "indexed": false,
          "internalType": "uint256",
          "name": "refundAmount",
          "type": "uint256"
        }
      ],
      "name": "TicketRefunded",
      "type": "event"
    },
    {
      "anonymous": false,
      "inputs": [
        {
          "indexed": false,
          "internalType": "bytes32",
          "name": "ticketID",
          "type": "bytes32"
        },
        {
          "indexed": false,
          "internalType": "address",
          "name": "sender",
          "type": "address"
        },
        {
          "indexed": false,
          "internalType": "uint256",
          "name": "refundAmount",
          "type": "uint256"
        }
      ],
      "name": "TicketReturned",
      "type": "event"
    },
    {
      "anonymous": false,
      "inputs": [
        {
          "indexed": false,
          "internalType": "bytes32",
          "name": "ticketID",
          "type": "bytes32"
        },
        {
          "indexed": false,
          "internalType": "address",
          "name": "from",
          "type": "address"
        },
        {
          "indexed": false,
          "internalType": "address",
          "name": "to",
          "type": "address"
        },
        {
          "indexed": false,
          "internalType": "uint256",
          "name": "newPrice",
          "type": "uint256"
        }
      ],
      "name": "TicketTransferred",
      "type": "event"
    },
    {
      "inputs": [
        {
          "internalType": "uint256",
          "name": "",
          "type": "uint256"
        }
      ],
      "name": "allTicketIDs",
      "outputs": [
        {
          "internalType": "bytes32",
          "name": "",
          "type": "bytes32"
        }
      ],
      "stateMutability": "view",
      "type": "function"
    },
    {
      "inputs": [
        {
          "internalType": "bytes32",
          "name": "",
          "type": "bytes32"
        }
      ],
      "name": "allTickets",
      "outputs": [
        {
          "internalType": "bytes32",
          "name": "ticketID",
          "type": "bytes32"
        },
        {
          "internalType": "bytes32",
          "name": "eventID",
          "type": "bytes32"
        },
        {
          "internalType": "address",
          "name": "ticketOwner",
          "type": "address"
        },
        {
          "internalType": "uint64",
          "name": "purchasedDate",
          "type": "uint64"
        },
        {
          "internalType": "bool",
          "name": "isRedeemed",
          "type": "bool"
        },
        {
          "internalType": "bool",
          "name": "isValid",
          "type": "bool"
        },
        {
          "internalType": "uint256",
          "name": "ticketPrice",
          "type": "uint256"
        },
        {
          "internalType": "uint256",
          "name": "originalPrice",
          "type": "uint256"
        }
      ],
      "stateMutability": "view",
      "type": "function"
    },
    {
      "inputs": [],
      "name": "eventContractAddress",
      "outputs": [
        {
          "internalType": "address",
          "name": "",
          "type": "address"
        }
      ],
      "stateMutability": "view",
      "type": "function"
    },
    {
      "inputs": [
        {
          "internalType": "bytes32",
          "name": "",
          "type": "bytes32"
        },
        {
          "internalType": "uint256",
          "name": "",
          "type": "uint256"
        }
      ],
      "name": "ticketsByEvent",
      "outputs": [
        {
          "internalType": "bytes32",
          "name": "",
          "type": "bytes32"
        }
      ],
      "stateMutability": "view",
      "type": "function"
    },
    {
      "inputs": [],
      "name": "totalTickets",
      "outputs": [
        {
          "internalType": "uint256",
          "name": "",
          "type": "uint256"
        }
      ],
      "stateMutability": "view",
      "type": "function"
    },
    {
      "inputs": [
        {
          "internalType": "bytes32",
          "name": "_eventID",
          "type": "bytes32"
        },
        {
          "internalType": "address",
          "name": "_buyer",
          "type": "address"
        },
        {
          "internalType": "uint256",
          "name": "_ticketPrice",
          "type": "uint256"
        }
      ],
      "name": "createNewTicket",
      "outputs": [
        {
          "internalType": "bytes32",
          "name": "",
          "type": "bytes32"
        }
      ],
      "stateMutability": "nonpayable",
      "type": "function"
    },
    {
      "inputs": [
        {
          "internalType": "bytes32",
          "name": "_ticketID",
          "type": "bytes32"
        },
        {
          "internalType": "address",
          "name": "_newOwner",
          "type": "address"
        }
      ],
      "name": "transferTicket",
      "outputs": [],
      "stateMutability": "payable",
      "type": "function"
    },
    {
      "inputs": [
        {
          "internalType": "bytes32",
          "name": "_ticketID",
          "type": "bytes32"
        }
      ],
      "name": "getTicketInfo",
      "outputs": [
        {
          "components": [
            {
              "internalType": "bytes32",
              "name": "ticketID",
              "type": "bytes32"
            },
            {
              "internalType": "bytes32",
              "name": "eventID",
              "type": "bytes32"
            },
            {
              "internalType": "address",
              "name": "ticketOwner",
              "type": "address"
            },
            {
              "internalType": "uint64",
              "name": "purchasedDate",
              "type": "uint64"
            },
            {
              "internalType": "bool",
              "name": "isRedeemed",
              "type": "bool"
            },
            {
              "internalType": "bool",
              "name": "isValid",
              "type": "bool"
            },
            {
              "internalType": "uint256",
              "name": "ticketPrice",
              "type": "uint256"
            },
            {
              "internalType": "uint256",
              "name": "originalPrice",
              "type": "uint256"
            }
          ],
          "internalType": "struct TicketContract.Ticket",
          "name": "",
          "type": "tuple"
        }
      ],
      "stateMutability": "view",
      "type": "function"
    },
    {
      "inputs": [
        {
          "internalType": "bytes32",
          "name": "_eventID",
          "type": "bytes32"
        }
      ],
      "name": "getTicketsForEvent",
      "outputs": [
        {
          "internalType": "bytes32[]",
          "name": "",
          "type": "bytes32[]"
        }
      ],
      "stateMutability": "view",
      "type": "function"
    },
    {
      "inputs": [],
      "name": "getMyTickets",
      "outputs": [
        {
          "components": [
            {
              "internalType": "bytes32",
              "name": "ticketID",
              "type": "bytes32"
            },
            {
              "internalType": "bytes32",
              "name": "eventID",
              "type": "bytes32"
            },
            {
              "internalType": "address",
              "name": "ticketOwner",
              "type": "address"
            },
            {
              "internalType": "uint64",
              "name": "purchasedDate",
              "type": "uint64"
            },
            {
              "internalType": "bool",
              "name": "isRedeemed",
              "type": "bool"
            },
            {
              "internalType": "bool",
              "name": "isValid",
              "type": "bool"
            },
            {
              "internalType": "uint256",
              "name": "ticketPrice",
              "type": "uint256"
            },
            {
              "internalType": "uint256",
              "name": "originalPrice",
              "type": "uint256"
            }
          ],
          "internalType": "struct TicketContract.Ticket[]",
          "name": "",
          "type": "tuple[]"
        }
      ],
      "stateMutability": "view",
      "type": "function"
    },
    {
      "inputs": [
        {
          "internalType": "bytes32",
          "name": "_ticketID",
          "type": "bytes32"
        }
      ],
      "name": "redeemTicket",
      "outputs": [],
      "stateMutability": "nonpayable",
      "type": "function"
    },
    {
      "inputs": [
        {
          "internalType": "bytes32",
          "name": "_ticketID",
          "type": "bytes32"
        },
        {
          "internalType": "bytes32",
          "name": "_eventID",
          "type": "bytes32"
        }
      ],
      "name": "verifyTicket",
      "outputs": [
        {
          "internalType": "bool",
          "name": "",
          "type": "bool"
        }
      ],
      "stateMutability": "view",
      "type": "function"
    },
    {
      "inputs": [
        {
          "internalType": "bytes32",
          "name": "_ticketID",
          "type": "bytes32"
        }
      ],
      "name": "deleteTicket",
      "outputs": [],
      "stateMutability": "nonpayable",
      "type": "function"
    },
    {
      "inputs": [
        {
          "internalType": "bytes32",
          "name": "_ticketID",
          "type": "bytes32"
        }
      ],
      "name": "returnTicket",
      "outputs": [],
      "stateMutability": "nonpayable",
      "type": "function"
    },
    {
      "inputs": [
        {
          "internalType": "bytes32",
          "name": "eventId",
          "type": "bytes32"
        }
      ],
      "name": "cancelEvent",
      "outputs": [],
      "stateMutability": "nonpayable",
      "type": "function"
    }
  ],
  "bytecode": "0x60806040523480156200001157600080fd5b5060405162002ee238038062002ee28339818101604052810190620000379190620000e9565b80600360006101000a81548173ffffffffffffffffffffffffffffffffffffffff021916908373ffffffffffffffffffffffffffffffffffffffff160217905550506200011b565b600080fd5b600073ffffffffffffffffffffffffffffffffffffffff82169050919050565b6000620000b18262000084565b9050919050565b620000c381620000a4565b8114620000cf57600080fd5b50565b600081519050620000e381620000b8565b92915050565b6000602082840312156200010257620001016200007f565b5b60006200011284828501620000d2565b91505092915050565b612db7806200012b6000396000f3fe6080604052600436106100e85760003560e01c806387e9a7441161008a578063d5a114e711610059578063d5a114e714610324578063dd11247e14610361578063e1d10d851461038c578063edd8741d146103b7576100e8565b806387e9a74414610258578063924b5a0714610295578063aa26176c146102be578063cfe632ef146102e7576100e8565b8063368d804d116100c6578063368d804d14610197578063422375ec146101d457806379287dc11461021157806384d4f1a71461022d576100e8565b8063090a8556146100ed578063181fcc89146101315780632a0d88071461016e575b600080fd5b3480156100f957600080fd5b50610114600480360381019061010f9190611d8c565b6103e0565b604051610128989796959493929190611e60565b60405180910390f35b34801561013d57600080fd5b5061015860048036038101906101539190611d8c565b610476565b6040516101659190611f9c565b60405180910390f35b34801561017a57600080fd5b5061019560048036038101906101909190611d8c565b6104e1565b005b3480156101a357600080fd5b506101be60048036038101906101b99190611fbe565b6107e9565b6040516101cb9190611ffe565b60405180910390f35b3480156101e057600080fd5b506101fb60048036038101906101f69190612045565b61084f565b6040516102089190612085565b60405180910390f35b61022b600480360381019061022691906120cc565b610880565b005b34801561023957600080fd5b50610242610ba9565b60405161024f919061210c565b60405180910390f35b34801561026457600080fd5b5061027f600480360381019061027a9190611d8c565b610bcf565b60405161028c9190612205565b60405180910390f35b3480156102a157600080fd5b506102bc60048036038101906102b79190611d8c565b610ce2565b005b3480156102ca57600080fd5b506102e560048036038101906102e09190611d8c565b610f87565b005b3480156102f357600080fd5b5061030e60048036038101906103099190612221565b611298565b60405161031b9190612085565b60405180910390f35b34801561033057600080fd5b5061034b60048036038101906103469190612274565b6115b0565b6040516103589190612085565b60405180910390f35b34801561036d57600080fd5b506103766115d4565b60405161038391906122a1565b60405180910390f35b34801561039857600080fd5b506103a16115da565b6040516103ae919061240e565b60405180910390f35b3480156103c357600080fd5b506103de60048036038101906103d99190611d8c565b6118f3565b005b60006020528060005260406000206000915090508060000154908060010154908060020160009054906101000a900473ffffffffffffffffffffffffffffffffffffffff16908060020160149054906101000a900467ffffffffffffffff169080600201601c9054906101000a900460ff169080600201601d9054906101000a900460ff16908060030154908060040154905088565b6060600160008381526020019081526020016000208054806020026020016040519081016040528092919081815260200182805480156104d557602002820191906000526020600020905b8154815260200190600101908083116104c1575b50505050509050919050565b60008082815260200190815260200160002060020160009054906101000a900473ffffffffffffffffffffffffffffffffffffffff1673ffffffffffffffffffffffffffffffffffffffff163373ffffffffffffffffffffffffffffffffffffffff16148061059d5750600360009054906101000a900473ffffffffffffffffffffffffffffffffffffffff1673ffffffffffffffffffffffffffffffffffffffff163373ffffffffffffffffffffffffffffffffffffffff16145b6105dc576040517f08c379a00000000000000000000000000000000000000000000000000000000081526004016105d3906124b3565b60405180910390fd5b600080600083815260200190815260200160002060010154905060006006600084815260200190815260200160002054905060006001806000858152602001908152602001600020805490506106329190612502565b90508082146106bd57600060016000858152602001908152602001600020828154811061066257610661612536565b5b906000526020600020015490508060016000868152602001908152602001600020848154811061069557610694612536565b5b9060005260206000200181905550826006600083815260200190815260200160002081905550505b600160008481526020019081526020016000208054806106e0576106df612565565b5b60019003818190600052602060002001600090559055600660008581526020019081526020016000206000905560008085815260200190815260200160002060008082016000905560018201600090556002820160006101000a81549073ffffffffffffffffffffffffffffffffffffffff02191690556002820160146101000a81549067ffffffffffffffff021916905560028201601c6101000a81549060ff021916905560028201601d6101000a81549060ff02191690556003820160009055600482016000905550507fd9a771705fc066b34f0996a0abae6a891c652869ac6b6e3b1e00e4e6d4638ea8846040516107db9190612085565b60405180910390a150505050565b60008060008085815260200190815260200160002090506000801b81600001541415801561081a5750828160010154145b8015610834575080600201601d9054906101000a900460ff165b15610843576001915050610849565b60009150505b92915050565b6001602052816000526040600020818154811061086b57600080fd5b90600052602060002001600091509150505481565b600560009054906101000a900460ff16156108d0576040517f08c379a00000000000000000000000000000000000000000000000000000000081526004016108c7906125e0565b60405180910390fd5b6001600560006101000a81548160ff02191690831515021790555081600080828152602001908152602001600020600201601c9054906101000a900460ff161561094f576040517f08c379a000000000000000000000000000000000000000000000000000000000815260040161094690612672565b60405180910390fd5b600080600085815260200190815260200160002090503373ffffffffffffffffffffffffffffffffffffffff168160020160009054906101000a900473ffffffffffffffffffffffffffffffffffffffff1673ffffffffffffffffffffffffffffffffffffffff16146109f7576040517f08c379a00000000000000000000000000000000000000000000000000000000081526004016109ee90612704565b60405180910390fd5b80600301543414610a3d576040517f08c379a0000000000000000000000000000000000000000000000000000000008152600401610a3490612796565b60405180910390fd5b80600201601d9054906101000a900460ff16610a8e576040517f08c379a0000000000000000000000000000000000000000000000000000000008152600401610a8590612802565b60405180910390fd5b60008160020160009054906101000a900473ffffffffffffffffffffffffffffffffffffffff169050838260020160006101000a81548173ffffffffffffffffffffffffffffffffffffffff021916908373ffffffffffffffffffffffffffffffffffffffff1602179055503482600301819055508073ffffffffffffffffffffffffffffffffffffffff166108fc349081150290604051600060405180830381858888f19350505050158015610b49573d6000803e3d6000fd5b507ffd8856e33cf0872c85c89d373a010f59eac73bef929cb9e91f2a9b4391cfbc6e85828634604051610b7f9493929190612822565b60405180910390a15050506000600560006101000a81548160ff0219169083151502179055505050565b600360009054906101000a900473ffffffffffffffffffffffffffffffffffffffff1681565b610bd7611ca4565b6000808381526020019081526020016000206040518061010001604052908160008201548152602001600182015481526020016002820160009054906101000a900473ffffffffffffffffffffffffffffffffffffffff1673ffffffffffffffffffffffffffffffffffffffff1673ffffffffffffffffffffffffffffffffffffffff1681526020016002820160149054906101000a900467ffffffffffffffff1667ffffffffffffffff1667ffffffffffffffff16815260200160028201601c9054906101000a900460ff1615151515815260200160028201601d9054906101000a900460ff16151515158152602001600382015481526020016004820154815250509050919050565b600080600083815260200190815260200160002090503373ffffffffffffffffffffffffffffffffffffffff168160020160009054906101000a900473ffffffffffffffffffffffffffffffffffffffff1673ffffffffffffffffffffffffffffffffffffffff1614610d8a576040517f08c379a0000000000000000000000000000000000000000000000000000000008152600401610d81906128d9565b60405180910390fd5b80600201601c9054906101000a900460ff1615610ddc576040517f08c379a0000000000000000000000000000000000000000000000000000000008152600401610dd390612672565b60405180910390fd5b80600201601d9054906101000a900460ff16610e2d576040517f08c379a0000000000000000000000000000000000000000000000000000000008152600401610e2490612802565b60405180910390fd5b60008160040154905060003390508073ffffffffffffffffffffffffffffffffffffffff166108fc839081150290604051600060405180830381858888f19350505050158015610e81573d6000803e3d6000fd5b50610e90836001015485611ac5565b60008085815260200190815260200160002060008082016000905560018201600090556002820160006101000a81549073ffffffffffffffffffffffffffffffffffffffff02191690556002820160146101000a81549067ffffffffffffffff021916905560028201601c6101000a81549060ff021916905560028201601d6101000a81549060ff021916905560038201600090556004820160009055505060066000858152602001908152602001600020600090557f264639f18b561b2178c34aef36b59305f75022f12fcecc6ed2f1e7b9662542de843384604051610f79939291906128f9565b60405180910390a150505050565b600060016000838152602001908152602001600020905060005b818054905081101561123d576000828281548110610fc257610fc1612536565b5b906000526020600020015490506000806000838152602001908152602001600020905080600201601d9054906101000a900460ff168015611012575080600201601c9054906101000a900460ff16155b156111725760008160040154905060008260020160009054906101000a900473ffffffffffffffffffffffffffffffffffffffff169050600083600201601d6101000a81548160ff02191690831515021790555060008173ffffffffffffffffffffffffffffffffffffffff168360405161108c90612961565b60006040518083038185875af1925050503d80600081146110c9576040519150601f19603f3d011682016040523d82523d6000602084013e6110ce565b606091505b5050905080611112576040517f08c379a0000000000000000000000000000000000000000000000000000000008152600401611109906129c2565b60405180910390fd5b7f79e3f523ecb0c96b50463daf491f9057d96b06408458e92d8b734c367092a19185838560405161114593929190612a41565b60405180910390a161115685611bcb565b6004600081548092919061116990612a78565b91905055505050505b60008083815260200190815260200160002060008082016000905560018201600090556002820160006101000a81549073ffffffffffffffffffffffffffffffffffffffff02191690556002820160146101000a81549067ffffffffffffffff021916905560028201601c6101000a81549060ff021916905560028201601d6101000a81549060ff021916905560038201600090556004820160009055505060066000838152602001908152602001600020600090555050808061123590612aa2565b915050610fa1565b5060016000838152602001908152602001600020600061125d9190611d13565b7fc0919dcb7e0b464ce8146ec897e4a566e6a1af62233364998f3da696e08b500b8260405161128c9190612085565b60405180910390a15050565b6000600360009054906101000a900473ffffffffffffffffffffffffffffffffffffffff1673ffffffffffffffffffffffffffffffffffffffff163373ffffffffffffffffffffffffffffffffffffffff161461132a576040517f08c379a000000000000000000000000000000000000000000000000000000000815260040161132190612b5d565b60405180910390fd5b600084844260405160200161134193929190612c07565b60405160208183030381529060405280519060200120905060004290506040518061010001604052808381526020018781526020018673ffffffffffffffffffffffffffffffffffffffff1681526020018267ffffffffffffffff16815260200160001515815260200160011515815260200185815260200185815250600080848152602001908152602001600020600082015181600001556020820151816001015560408201518160020160006101000a81548173ffffffffffffffffffffffffffffffffffffffff021916908373ffffffffffffffffffffffffffffffffffffffff16021790555060608201518160020160146101000a81548167ffffffffffffffff021916908367ffffffffffffffff160217905550608082015181600201601c6101000a81548160ff02191690831515021790555060a082015181600201601d6101000a81548160ff02191690831515021790555060c0820151816003015560e082015181600401559050506001600087815260200190815260200160002082908060018154018082558091505060019003906000526020600020016000909190919091505560028290806001815401808255809150506001900390600052602060002001600090919091909150556004600081548092919061152790612aa2565b919050555060018060008881526020019081526020016000208054905061154e9190612502565b60066000848152602001908152602001600020819055507f59f9f03903d250b9088863ea41c64b2abc591d823643e4c51599100592df9f2e828783888860405161159c959493929190612c44565b60405180910390a181925050509392505050565b600281815481106115c057600080fd5b906000526020600020016000915090505481565b60045481565b60606000805b600280549050811015611696573373ffffffffffffffffffffffffffffffffffffffff166000806002848154811061161b5761161a612536565b5b9060005260206000200154815260200190815260200160002060020160009054906101000a900473ffffffffffffffffffffffffffffffffffffffff1673ffffffffffffffffffffffffffffffffffffffff16141561168357818061167f90612aa2565b9250505b808061168e90612aa2565b9150506115e0565b5060008167ffffffffffffffff8111156116b3576116b2612c97565b5b6040519080825280602002602001820160405280156116ec57816020015b6116d9611ca4565b8152602001906001900390816116d15790505b5090506000805b6002805490508110156118e9573373ffffffffffffffffffffffffffffffffffffffff166000806002848154811061172e5761172d612536565b5b9060005260206000200154815260200190815260200160002060020160009054906101000a900473ffffffffffffffffffffffffffffffffffffffff1673ffffffffffffffffffffffffffffffffffffffff1614156118d6576000806002838154811061179e5761179d612536565b5b906000526020600020015481526020019081526020016000206040518061010001604052908160008201548152602001600182015481526020016002820160009054906101000a900473ffffffffffffffffffffffffffffffffffffffff1673ffffffffffffffffffffffffffffffffffffffff1673ffffffffffffffffffffffffffffffffffffffff1681526020016002820160149054906101000a900467ffffffffffffffff1667ffffffffffffffff1667ffffffffffffffff16815260200160028201601c9054906101000a900460ff1615151515815260200160028201601d9054906101000a900460ff16151515158152602001600382015481526020016004820154815250508383815181106118bc576118bb612536565b5b602002602001018190525081806118d290612aa2565b9250505b80806118e190612aa2565b9150506116f3565b5081935050505090565b3373ffffffffffffffffffffffffffffffffffffffff1660008083815260200190815260200160002060020160009054906101000a900473ffffffffffffffffffffffffffffffffffffffff1673ffffffffffffffffffffffffffffffffffffffff1614611996576040517f08c379a000000000000000000000000000000000000000000000000000000000815260040161198d90612d38565b60405180910390fd5b600080828152602001908152602001600020600201601c9054906101000a900460ff16156119f9576040517f08c379a00000000000000000000000000000000000000000000000000000000081526004016119f090612672565b60405180910390fd5b600080828152602001908152602001600020600201601d9054906101000a900460ff16611a5b576040517f08c379a0000000000000000000000000000000000000000000000000000000008152600401611a5290612802565b60405180910390fd5b6001600080838152602001908152602001600020600201601c6101000a81548160ff0219169083151502179055507f5e887a439fa796c056dfd595ead77c343c193a22734ed54140ce3a54370850628133604051611aba929190612d58565b60405180910390a150565b6000600660008381526020019081526020016000205490506000600180600086815260200190815260200160002080549050611b019190612502565b9050808214611b8c576000600160008681526020019081526020016000208281548110611b3157611b30612536565b5b9060005260206000200154905080600160008781526020019081526020016000208481548110611b6457611b63612536565b5b9060005260206000200181905550826006600083815260200190815260200160002081905550505b60016000858152602001908152602001600020805480611baf57611bae612565565b5b6001900381819060005260206000200160009055905550505050565b60006006600083815260200190815260200160002054905060006001600280549050611bf79190612502565b9050808214611c6057600060028281548110611c1657611c15612536565b5b906000526020600020015490508060028481548110611c3857611c37612536565b5b9060005260206000200181905550826006600083815260200190815260200160002081905550505b6002805480611c7257611c71612565565b5b600190038181906000526020600020016000905590556006600084815260200190815260200160002060009055505050565b6040518061010001604052806000801916815260200160008019168152602001600073ffffffffffffffffffffffffffffffffffffffff168152602001600067ffffffffffffffff16815260200160001515815260200160001515815260200160008152602001600081525090565b5080546000825590600052602060002090810190611d319190611d34565b50565b5b80821115611d4d576000816000905550600101611d35565b5090565b600080fd5b6000819050919050565b611d6981611d56565b8114611d7457600080fd5b50565b600081359050611d8681611d60565b92915050565b600060208284031215611da257611da1611d51565b5b6000611db084828501611d77565b91505092915050565b611dc281611d56565b82525050565b600073ffffffffffffffffffffffffffffffffffffffff82169050919050565b6000611df382611dc8565b9050919050565b611e0381611de8565b82525050565b600067ffffffffffffffff82169050919050565b611e2681611e09565b82525050565b60008115159050919050565b611e4181611e2c565b82525050565b6000819050919050565b611e5a81611e47565b82525050565b600061010082019050611e76600083018b611db9565b611e83602083018a611db9565b611e906040830189611dfa565b611e9d6060830188611e1d565b611eaa6080830187611e38565b611eb760a0830186611e38565b611ec460c0830185611e51565b611ed160e0830184611e51565b9998505050505050505050565b600081519050919050565b600082825260208201905092915050565b6000819050602082019050919050565b611f1381611d56565b82525050565b6000611f258383611f0a565b60208301905092915050565b6000602082019050919050565b6000611f4982611ede565b611f538185611ee9565b9350611f5e83611efa565b8060005b83811015611f8f578151611f768882611f19565b9750611f8183611f31565b925050600181019050611f62565b5085935050505092915050565b60006020820190508181036000830152611fb68184611f3e565b905092915050565b60008060408385031215611fd557611fd4611d51565b5b6000611fe385828601611d77565b9250506020611ff485828601611d77565b9150509250929050565b60006020820190506120136000830184611e38565b92915050565b61202281611e47565b811461202d57600080fd5b50565b60008135905061203f81612019565b92915050565b6000806040838503121561205c5761205b611d51565b5b600061206a85828601611d77565b925050602061207b85828601612030565b9150509250929050565b600060208201905061209a6000830184611db9565b92915050565b6120a981611de8565b81146120b457600080fd5b50565b6000813590506120c6816120a0565b92915050565b600080604083850312156120e3576120e2611d51565b5b60006120f185828601611d77565b9250506020612102858286016120b7565b9150509250929050565b60006020820190506121216000830184611dfa565b92915050565b61213081611de8565b82525050565b61213f81611e09565b82525050565b61214e81611e2c565b82525050565b61215d81611e47565b82525050565b6101008201600082015161217a6000850182611f0a565b50602082015161218d6020850182611f0a565b5060408201516121a06040850182612127565b5060608201516121b36060850182612136565b5060808201516121c66080850182612145565b5060a08201516121d960a0850182612145565b5060c08201516121ec60c0850182612154565b5060e08201516121ff60e0850182612154565b50505050565b60006101008201905061221b6000830184612163565b92915050565b60008060006060848603121561223a57612239611d51565b5b600061224886828701611d77565b9350506020612259868287016120b7565b925050604061226a86828701612030565b9150509250925092565b60006020828403121561228a57612289611d51565b5b600061229884828501612030565b91505092915050565b60006020820190506122b66000830184611e51565b92915050565b600081519050919050565b600082825260208201905092915050565b6000819050602082019050919050565b610100820160008201516122ff6000850182611f0a565b5060208201516123126020850182611f0a565b5060408201516123256040850182612127565b5060608201516123386060850182612136565b50608082015161234b6080850182612145565b5060a082015161235e60a0850182612145565b5060c082015161237160c0850182612154565b5060e082015161238460e0850182612154565b50505050565b600061239683836122e8565b6101008301905092915050565b6000602082019050919050565b60006123bb826122bc565b6123c581856122c7565b93506123d0836122d8565b8060005b838110156124015781516123e8888261238a565b97506123f3836123a3565b9250506001810190506123d4565b5085935050505092915050565b6000602082019050818103600083015261242881846123b0565b905092915050565b600082825260208201905092915050565b7f556e617574686f72697a65643a2063616c6c6572206973206e6f74207468652060008201527f7469636b6574206f776e6572206f72206576656e7420636f6e74726163740000602082015250565b600061249d603e83612430565b91506124a882612441565b604082019050919050565b600060208201905081810360008301526124cc81612490565b9050919050565b7f4e487b7100000000000000000000000000000000000000000000000000000000600052601160045260246000fd5b600061250d82611e47565b915061251883611e47565b92508282101561252b5761252a6124d3565b5b828203905092915050565b7f4e487b7100000000000000000000000000000000000000000000000000000000600052603260045260246000fd5b7f4e487b7100000000000000000000000000000000000000000000000000000000600052603160045260246000fd5b7f5265656e7472616e6379206973206e6f7420616c6c6f77656400000000000000600082015250565b60006125ca601983612430565b91506125d582612594565b602082019050919050565b600060208201905081810360008301526125f9816125bd565b9050919050565b7f5469636b65742068617320616c7265616479206265656e2072656465656d656460008201527f2e00000000000000000000000000000000000000000000000000000000000000602082015250565b600061265c602183612430565b915061266782612600565b604082019050919050565b6000602082019050818103600083015261268b8161264f565b9050919050565b7f4f6e6c7920746865207469636b6574206f776e65722063616e207472616e736660008201527f65722069742e0000000000000000000000000000000000000000000000000000602082015250565b60006126ee602683612430565b91506126f982612692565b604082019050919050565b6000602082019050818103600083015261271d816126e1565b9050919050565b7f5472616e7366657220616d6f756e74206d757374206d6174636820746865207460008201527f69636b65742070726963652e0000000000000000000000000000000000000000602082015250565b6000612780602c83612430565b915061278b82612724565b604082019050919050565b600060208201905081810360008301526127af81612773565b9050919050565b7f5469636b6574206973206e6f742076616c69642e000000000000000000000000600082015250565b60006127ec601483612430565b91506127f7826127b6565b602082019050919050565b6000602082019050818103600083015261281b816127df565b9050919050565b60006080820190506128376000830187611db9565b6128446020830186611dfa565b6128516040830185611dfa565b61285e6060830184611e51565b95945050505050565b7f4f6e6c7920746865207469636b6574206f776e65722063616e2072657475726e60008201527f20746865207469636b65742e0000000000000000000000000000000000000000602082015250565b60006128c3602c83612430565b91506128ce82612867565b604082019050919050565b600060208201905081810360008301526128f2816128b6565b9050919050565b600060608201905061290e6000830186611db9565b61291b6020830185611dfa565b6129286040830184611e51565b949350505050565b600081905092915050565b50565b600061294b600083612930565b91506129568261293b565b600082019050919050565b600061296c8261293e565b9150819050919050565b7f4661696c656420746f2073656e64204574686572000000000000000000000000600082015250565b60006129ac601483612430565b91506129b782612976565b602082019050919050565b600060208201905081810360008301526129db8161299f565b9050919050565b6000819050919050565b6000612a07612a026129fd84611dc8565b6129e2565b611dc8565b9050919050565b6000612a19826129ec565b9050919050565b6000612a2b82612a0e565b9050919050565b612a3b81612a20565b82525050565b6000606082019050612a566000830186611db9565b612a636020830185612a32565b612a706040830184611e51565b949350505050565b6000612a8382611e47565b91506000821415612a9757612a966124d3565b5b600182039050919050565b6000612aad82611e47565b91507fffffffffffffffffffffffffffffffffffffffffffffffffffffffffffffffff821415612ae057612adf6124d3565b5b600182019050919050565b7f556e617574686f72697a65643a2063616c6c6572206973206e6f74207468652060008201527f6576656e7420636f6e7472616374000000000000000000000000000000000000602082015250565b6000612b47602e83612430565b9150612b5282612aeb565b604082019050919050565b60006020820190508181036000830152612b7681612b3a565b9050919050565b6000819050919050565b612b98612b9382611d56565b612b7d565b82525050565b60008160601b9050919050565b6000612bb682612b9e565b9050919050565b6000612bc882612bab565b9050919050565b612be0612bdb82611de8565b612bbd565b82525050565b6000819050919050565b612c01612bfc82611e47565b612be6565b82525050565b6000612c138286612b87565b602082019150612c238285612bcf565b601482019150612c338284612bf0565b602082019150819050949350505050565b600060a082019050612c596000830188611db9565b612c666020830187611db9565b612c736040830186611e1d565b612c806060830185611dfa565b612c8d6080830184611e51565b9695505050505050565b7f4e487b7100000000000000000000000000000000000000000000000000000000600052604160045260246000fd5b7f4f6e6c7920746865207469636b6574206f776e65722063616e2072656465656d60008201527f2069742e00000000000000000000000000000000000000000000000000000000602082015250565b6000612d22602483612430565b9150612d2d82612cc6565b604082019050919050565b60006020820190508181036000830152612d5181612d15565b9050919050565b6000604082019050612d6d6000830185611db9565b612d7a6020830184611dfa565b939250505056fea26469706673582212208eb132272d2255b54db469134a297776280acf249481ca67098c358ce1945af464736f6c634300080a0033",
  "immutableReferences": {},
  "source": "// SPDX-License-Identifier: MIT\npragma solidity ^0.8.10;\n\ncontract TicketContract {\n  struct Ticket {\n    bytes32 ticketID;\n    bytes32 eventID;\n    address ticketOwner;\n    uint64 purchasedDate;\n    bool isRedeemed;\n    bool isValid;\n    uint256 ticketPrice;\n    uint256 originalPrice;\n  }\n  //mapping for allTickets for the TicketContract\n  mapping(bytes32 => Ticket) public allTickets;\n  // mapping for allEvents but by eventID\n  mapping(bytes32 => bytes32[]) public ticketsByEvent;\n  // array to keep all IDs for tickets\n  bytes32[] public allTicketIDs;\n  // address of EventContract, only this address can create new tickets\n  address public eventContractAddress;\n  // number of all tickets\n  uint256 public totalTickets;\n  // variable for this -> The reentrancy guard is a mechanism that prevents reentry to certain functions during\n  // their execution. This is particularly important for functions that involve the transfer of funds.\n  bool private locked;\n  // mapping for better and more optimalize indexing\n  mapping(bytes32 => uint256) private ticketIndexInEvent;\n\n  // event emitters\n  event TicketTransferred(bytes32 ticketID, address from, address to, uint256 newPrice);\n  event TicketCreated(\n    bytes32 ticketID,\n    bytes32 eventID,\n    uint64 purchasedDate,\n    address buyer,\n    uint256 price\n  );\n  event TicketRedeemed(bytes32 ticketID, address redeemer);\n  event TicketDeleted(bytes32 ticketID);\n  event TicketReturned(bytes32 ticketID, address sender, uint256 refundAmount);\n  event TicketRefunded(bytes32 ticketID, address ticketOwner, uint256 refundAmount);\n  event EventCancelled(bytes32 eventID);\n\n  // constructor for create new instance of TicketContract\n  constructor(address _eventContractAddress) {\n    eventContractAddress = _eventContractAddress;\n  }\n  // modifier - check if request send EventContract\n  modifier onlyEventContract() {\n    require(msg.sender == eventContractAddress, 'Unauthorized: caller is not the event contract');\n    _;\n  }\n  // modifier - check if ticket is not redeemed yet. If yes user cant sell tickets to others\n  modifier isNotRedeemed(bytes32 _ticketID) {\n    require(!allTickets[_ticketID].isRedeemed, 'Ticket has already been redeemed.');\n    _;\n  }\n  // modifier - The reentrancy guard is a mechanism that prevents reentry to certain functions during\n  // their execution. This is particularly important for functions that involve the transfer of funds.\n  modifier noReentrancy() {\n    require(!locked, 'Reentrancy is not allowed');\n    locked = true;\n    _;\n    locked = false;\n  }\n  // Function to create new ticket for eventID\n  // @param _eventID is ID of event, for which is ticket\n  // @param _buyer is address of user, which ticket buy\n  // @param _tickerPrice is price of the ticket\n  // @ return - ID of new ticket\n  function createNewTicket(\n    bytes32 _eventID,\n    address _buyer,\n    uint256 _ticketPrice\n  ) external onlyEventContract returns (bytes32) {\n    bytes32 ticketID = keccak256(abi.encodePacked(_eventID, _buyer, block.timestamp));\n    uint64 _purchasedDate = uint64(block.timestamp);\n    allTickets[ticketID] = Ticket({\n      ticketID: ticketID,\n      eventID: _eventID,\n      ticketOwner: _buyer,\n      purchasedDate: _purchasedDate,\n      isRedeemed: false,\n      isValid: true,\n      ticketPrice: _ticketPrice,\n      originalPrice: _ticketPrice\n    });\n    ticketsByEvent[_eventID].push(ticketID);\n    allTicketIDs.push(ticketID);\n    totalTickets++;\n\n    ticketIndexInEvent[ticketID] = ticketsByEvent[_eventID].length - 1;\n\n    emit TicketCreated(ticketID, _eventID, _purchasedDate, _buyer, _ticketPrice);\n\n    return ticketID;\n  }\n  // function to change ownership of the ticket, its for selling tickets between users\n  // @param _eventID is ID of event, for which is ticket\n  // @param _buyer is address of user, which ticket buy\n  // @return - bool value for FE handling\n  function transferTicket(\n    bytes32 _ticketID,\n    address _newOwner\n  ) external payable noReentrancy isNotRedeemed(_ticketID) {\n    Ticket storage ticket = allTickets[_ticketID];\n    require(ticket.ticketOwner == msg.sender, 'Only the ticket owner can transfer it.');\n    require(msg.value == ticket.ticketPrice, 'Transfer amount must match the ticket price.');\n    require(ticket.isValid, 'Ticket is not valid.');\n\n    address oldOwner = ticket.ticketOwner;\n    ticket.ticketOwner = _newOwner;\n    ticket.ticketPrice = msg.value;\n\n    payable(oldOwner).transfer(msg.value);\n    emit TicketTransferred(_ticketID, oldOwner, _newOwner, msg.value);\n  }\n  // function return info about ticket with _ticketID\n  function getTicketInfo(bytes32 _ticketID) external view returns (Ticket memory) {\n    return allTickets[_ticketID];\n  }\n  // function to return array of tickets for one specific event\n  function getTicketsForEvent(bytes32 _eventID) external view returns (bytes32[] memory) {\n    return ticketsByEvent[_eventID];\n  }\n  // function to return tickets for one specific user\n  function getMyTickets() external view returns (Ticket[] memory) {\n    uint totalTicketsCount = 0;\n\n    for (uint256 i = 0; i < allTicketIDs.length; i++) {\n      if (allTickets[allTicketIDs[i]].ticketOwner == msg.sender) {\n        totalTicketsCount++;\n      }\n    }\n\n    Ticket[] memory ownedTickets = new Ticket[](totalTicketsCount);\n    uint256 index = 0;\n    for (uint256 i = 0; i < allTicketIDs.length; i++) {\n      if (allTickets[allTicketIDs[i]].ticketOwner == msg.sender) {\n        ownedTickets[index] = allTickets[allTicketIDs[i]];\n        index++;\n      }\n    }\n\n    return ownedTickets;\n  }\n  // function to flag ticket as reedeemed, which means user arrive on the event, so\n  // any other function cant run\n  function redeemTicket(bytes32 _ticketID) external {\n    require(\n      allTickets[_ticketID].ticketOwner == msg.sender,\n      'Only the ticket owner can redeem it.'\n    );\n    require(!allTickets[_ticketID].isRedeemed, 'Ticket has already been redeemed.');\n    require(allTickets[_ticketID].isValid, 'Ticket is not valid.');\n\n    allTickets[_ticketID].isRedeemed = true;\n\n    emit TicketRedeemed(_ticketID, msg.sender);\n  }\n  // function to verify ticket\n  function verifyTicket(bytes32 _ticketID, bytes32 _eventID) external view returns (bool) {\n    Ticket storage _ticket = allTickets[_ticketID];\n    if (_ticket.ticketID != 0 && _ticket.eventID == _eventID && _ticket.isValid) {\n      return true;\n    } else {\n      return false;\n    }\n  }\n  // function to delete one specific ticket with id\n  function deleteTicket(bytes32 _ticketID) external {\n    require(\n      msg.sender == allTickets[_ticketID].ticketOwner || msg.sender == eventContractAddress,\n      'Unauthorized: caller is not the ticket owner or event contract'\n    );\n\n    bytes32 eventId = allTickets[_ticketID].eventID;\n    uint index = ticketIndexInEvent[_ticketID];\n    uint lastIndex = ticketsByEvent[eventId].length - 1;\n\n    if (index != lastIndex) {\n      bytes32 lastTicketID = ticketsByEvent[eventId][lastIndex];\n      ticketsByEvent[eventId][index] = lastTicketID;\n      ticketIndexInEvent[lastTicketID] = index;\n    }\n    ticketsByEvent[eventId].pop();\n    delete ticketIndexInEvent[_ticketID];\n    delete allTickets[_ticketID];\n\n    emit TicketDeleted(_ticketID);\n  }\n  // Function to return a ticket and refund the purchase price\n  function returnTicket(bytes32 _ticketID) external {\n    Ticket storage ticket = allTickets[_ticketID];\n    require(ticket.ticketOwner == msg.sender, 'Only the ticket owner can return the ticket.');\n    require(!ticket.isRedeemed, 'Ticket has already been redeemed.');\n    require(ticket.isValid, 'Ticket is not valid.');\n\n    uint256 refundAmount = ticket.originalPrice;\n    address payable ownerPayable = payable(msg.sender);\n\n    ownerPayable.transfer(refundAmount);\n\n    removeTicketFromEventList(ticket.eventID, _ticketID);\n    delete allTickets[_ticketID];\n    delete ticketIndexInEvent[_ticketID];\n\n    emit TicketReturned(_ticketID, msg.sender, refundAmount);\n  }\n  // Function to remove a ticket from the ticketsByEvent mapping\n  function removeTicketFromEventList(bytes32 _eventId, bytes32 _ticketID) private {\n    uint index = ticketIndexInEvent[_ticketID];\n    uint lastIndex = ticketsByEvent[_eventId].length - 1;\n    if (index != lastIndex) {\n      bytes32 lastTicketID = ticketsByEvent[_eventId][lastIndex];\n      ticketsByEvent[_eventId][index] = lastTicketID;\n      ticketIndexInEvent[lastTicketID] = index;\n    }\n    ticketsByEvent[_eventId].pop();\n  }\n  // function to delete tickets, return all eth for ticketOwners atc. when event is cancelled\n  function cancelEvent(bytes32 eventId) external {\n    bytes32[] storage tickets = ticketsByEvent[eventId];\n    for (uint i = 0; i < tickets.length; i++) {\n      bytes32 ticketId = tickets[i];\n      Ticket storage ticket = allTickets[ticketId];\n      if (ticket.isValid && !ticket.isRedeemed) {\n        uint256 refundAmount = ticket.originalPrice;\n        address payable ticketOwner = payable(ticket.ticketOwner);\n\n        ticket.isValid = false;\n\n        (bool sent, ) = ticketOwner.call{value: refundAmount}('');\n        require(sent, 'Failed to send Ether');\n\n        emit TicketRefunded(ticketId, ticketOwner, refundAmount);\n        removeTicketFromAllTickets(ticketId);\n        totalTickets--;\n      }\n      delete allTickets[ticketId];\n      delete ticketIndexInEvent[ticketId];\n    }\n    delete ticketsByEvent[eventId];\n\n    emit EventCancelled(eventId);\n  }\n  function removeTicketFromAllTickets(bytes32 ticketId) private {\n    uint index = ticketIndexInEvent[ticketId];\n    uint lastIndex = allTicketIDs.length - 1;\n\n    if (index != lastIndex) {\n      bytes32 lastTicketId = allTicketIDs[lastIndex];\n      allTicketIDs[index] = lastTicketId;\n      ticketIndexInEvent[lastTicketId] = index;\n    }\n    allTicketIDs.pop();\n    delete ticketIndexInEvent[ticketId];\n  }\n}\n",
  "sourcePath": "/Users/janmrakava/Documents/GitHub/blockticket_blockchain/client/contracts/Ticket.sol",
  "compiler": {
    "name": "solc",
    "version": "0.8.10+commit.fc410830.Emscripten.clang"
  },
  "schemaVersion": "3.4.16",
  "updatedAt": "2024-04-21T09:41:42.831Z",
  "devdoc": {
    "kind": "dev",
    "methods": {},
    "version": 1
  },
  "userdoc": {
    "kind": "user",
    "methods": {},
    "version": 1
  }
}