{
  "contractName": "TicketContract",
  "abi": [
    {
      "inputs": [
        {
          "internalType": "address",
          "name": "_eventContractAddress",
          "type": "address"
        }
      ],
      "stateMutability": "nonpayable",
      "type": "constructor"
    },
    {
      "anonymous": false,
      "inputs": [
        {
          "indexed": true,
          "internalType": "bytes32",
          "name": "message",
          "type": "bytes32"
        },
        {
          "indexed": false,
          "internalType": "bytes32",
          "name": "data",
          "type": "bytes32"
        }
      ],
      "name": "Debug",
      "type": "event"
    },
    {
      "anonymous": false,
      "inputs": [
        {
          "indexed": false,
          "internalType": "string",
          "name": "message",
          "type": "string"
        },
        {
          "indexed": false,
          "internalType": "uint256",
          "name": "data",
          "type": "uint256"
        }
      ],
      "name": "DebugUint",
      "type": "event"
    },
    {
      "anonymous": false,
      "inputs": [
        {
          "indexed": false,
          "internalType": "bytes32",
          "name": "eventID",
          "type": "bytes32"
        }
      ],
      "name": "EventCancelled",
      "type": "event"
    },
    {
      "anonymous": false,
      "inputs": [
        {
          "indexed": false,
          "internalType": "bytes32",
          "name": "ticketID",
          "type": "bytes32"
        },
        {
          "indexed": false,
          "internalType": "bytes32",
          "name": "eventID",
          "type": "bytes32"
        },
        {
          "indexed": false,
          "internalType": "uint64",
          "name": "purchasedDate",
          "type": "uint64"
        },
        {
          "indexed": false,
          "internalType": "address",
          "name": "buyer",
          "type": "address"
        },
        {
          "indexed": false,
          "internalType": "uint256",
          "name": "price",
          "type": "uint256"
        }
      ],
      "name": "TicketCreated",
      "type": "event"
    },
    {
      "anonymous": false,
      "inputs": [
        {
          "indexed": false,
          "internalType": "bytes32",
          "name": "ticketID",
          "type": "bytes32"
        }
      ],
      "name": "TicketDeleted",
      "type": "event"
    },
    {
      "anonymous": false,
      "inputs": [
        {
          "indexed": false,
          "internalType": "bytes32",
          "name": "ticketID",
          "type": "bytes32"
        },
        {
          "indexed": false,
          "internalType": "address",
          "name": "oldOwner",
          "type": "address"
        },
        {
          "indexed": false,
          "internalType": "address",
          "name": "newOwner",
          "type": "address"
        },
        {
          "indexed": false,
          "internalType": "uint256",
          "name": "price",
          "type": "uint256"
        }
      ],
      "name": "TicketPurchasedFromMarket",
      "type": "event"
    },
    {
      "anonymous": false,
      "inputs": [
        {
          "indexed": false,
          "internalType": "bytes32",
          "name": "ticketID",
          "type": "bytes32"
        },
        {
          "indexed": false,
          "internalType": "address",
          "name": "redeemer",
          "type": "address"
        }
      ],
      "name": "TicketRedeemed",
      "type": "event"
    },
    {
      "anonymous": false,
      "inputs": [
        {
          "indexed": false,
          "internalType": "bytes32",
          "name": "ticketID",
          "type": "bytes32"
        },
        {
          "indexed": false,
          "internalType": "address",
          "name": "ticketOwner",
          "type": "address"
        },
        {
          "indexed": false,
          "internalType": "uint256",
          "name": "refundAmount",
          "type": "uint256"
        }
      ],
      "name": "TicketRefunded",
      "type": "event"
    },
    {
      "anonymous": false,
      "inputs": [
        {
          "indexed": false,
          "internalType": "bytes32",
          "name": "ticketID",
          "type": "bytes32"
        },
        {
          "indexed": false,
          "internalType": "address",
          "name": "sender",
          "type": "address"
        },
        {
          "indexed": false,
          "internalType": "uint256",
          "name": "refundAmount",
          "type": "uint256"
        }
      ],
      "name": "TicketReturned",
      "type": "event"
    },
    {
      "anonymous": false,
      "inputs": [
        {
          "indexed": false,
          "internalType": "bytes32",
          "name": "ticketID",
          "type": "bytes32"
        }
      ],
      "name": "TicketSaleCancelled",
      "type": "event"
    },
    {
      "anonymous": false,
      "inputs": [
        {
          "indexed": false,
          "internalType": "bytes32",
          "name": "ticketID",
          "type": "bytes32"
        }
      ],
      "name": "TicketSetForSale",
      "type": "event"
    },
    {
      "anonymous": false,
      "inputs": [
        {
          "indexed": false,
          "internalType": "bytes32",
          "name": "ticketID",
          "type": "bytes32"
        },
        {
          "indexed": false,
          "internalType": "address",
          "name": "from",
          "type": "address"
        },
        {
          "indexed": false,
          "internalType": "address",
          "name": "to",
          "type": "address"
        },
        {
          "indexed": false,
          "internalType": "uint256",
          "name": "newPrice",
          "type": "uint256"
        }
      ],
      "name": "TicketTransferred",
      "type": "event"
    },
    {
      "inputs": [
        {
          "internalType": "uint256",
          "name": "",
          "type": "uint256"
        }
      ],
      "name": "allTicketIDs",
      "outputs": [
        {
          "internalType": "bytes32",
          "name": "",
          "type": "bytes32"
        }
      ],
      "stateMutability": "view",
      "type": "function",
      "constant": true
    },
    {
      "inputs": [
        {
          "internalType": "bytes32",
          "name": "",
          "type": "bytes32"
        }
      ],
      "name": "allTickets",
      "outputs": [
        {
          "internalType": "bytes32",
          "name": "ticketID",
          "type": "bytes32"
        },
        {
          "internalType": "bytes32",
          "name": "eventID",
          "type": "bytes32"
        },
        {
          "internalType": "address",
          "name": "ticketOwner",
          "type": "address"
        },
        {
          "internalType": "uint64",
          "name": "purchasedDate",
          "type": "uint64"
        },
        {
          "internalType": "bool",
          "name": "isRedeemed",
          "type": "bool"
        },
        {
          "internalType": "bool",
          "name": "isValid",
          "type": "bool"
        },
        {
          "internalType": "uint256",
          "name": "ticketPrice",
          "type": "uint256"
        },
        {
          "internalType": "uint256",
          "name": "originalPrice",
          "type": "uint256"
        },
        {
          "internalType": "bool",
          "name": "forSale",
          "type": "bool"
        },
        {
          "internalType": "uint256",
          "name": "salePrice",
          "type": "uint256"
        }
      ],
      "stateMutability": "view",
      "type": "function",
      "constant": true
    },
    {
      "inputs": [],
      "name": "eventContractAddress",
      "outputs": [
        {
          "internalType": "address",
          "name": "",
          "type": "address"
        }
      ],
      "stateMutability": "view",
      "type": "function",
      "constant": true
    },
    {
      "inputs": [
        {
          "internalType": "bytes32",
          "name": "",
          "type": "bytes32"
        },
        {
          "internalType": "uint256",
          "name": "",
          "type": "uint256"
        }
      ],
      "name": "ticketsByEvent",
      "outputs": [
        {
          "internalType": "bytes32",
          "name": "",
          "type": "bytes32"
        }
      ],
      "stateMutability": "view",
      "type": "function",
      "constant": true
    },
    {
      "inputs": [],
      "name": "totalTickets",
      "outputs": [
        {
          "internalType": "uint256",
          "name": "",
          "type": "uint256"
        }
      ],
      "stateMutability": "view",
      "type": "function",
      "constant": true
    },
    {
      "inputs": [
        {
          "internalType": "address",
          "name": "_eventContractAddress",
          "type": "address"
        }
      ],
      "name": "setEventContractAddress",
      "outputs": [],
      "stateMutability": "nonpayable",
      "type": "function"
    },
    {
      "inputs": [
        {
          "internalType": "bytes32",
          "name": "_eventID",
          "type": "bytes32"
        },
        {
          "internalType": "uint256",
          "name": "_ticketPrice",
          "type": "uint256"
        },
        {
          "internalType": "address",
          "name": "userAddress",
          "type": "address"
        }
      ],
      "name": "createNewTicket",
      "outputs": [
        {
          "internalType": "bytes32",
          "name": "",
          "type": "bytes32"
        }
      ],
      "stateMutability": "payable",
      "type": "function",
      "payable": true
    },
    {
      "inputs": [
        {
          "internalType": "bytes32",
          "name": "_ticketID",
          "type": "bytes32"
        }
      ],
      "name": "transferTicket",
      "outputs": [],
      "stateMutability": "payable",
      "type": "function",
      "payable": true
    },
    {
      "inputs": [
        {
          "internalType": "bytes32",
          "name": "_ticketID",
          "type": "bytes32"
        }
      ],
      "name": "getTicketInfo",
      "outputs": [
        {
          "components": [
            {
              "internalType": "bytes32",
              "name": "ticketID",
              "type": "bytes32"
            },
            {
              "internalType": "bytes32",
              "name": "eventID",
              "type": "bytes32"
            },
            {
              "internalType": "address",
              "name": "ticketOwner",
              "type": "address"
            },
            {
              "internalType": "uint64",
              "name": "purchasedDate",
              "type": "uint64"
            },
            {
              "internalType": "bool",
              "name": "isRedeemed",
              "type": "bool"
            },
            {
              "internalType": "bool",
              "name": "isValid",
              "type": "bool"
            },
            {
              "internalType": "uint256",
              "name": "ticketPrice",
              "type": "uint256"
            },
            {
              "internalType": "uint256",
              "name": "originalPrice",
              "type": "uint256"
            },
            {
              "internalType": "bool",
              "name": "forSale",
              "type": "bool"
            },
            {
              "internalType": "uint256",
              "name": "salePrice",
              "type": "uint256"
            }
          ],
          "internalType": "struct TicketContract.Ticket",
          "name": "",
          "type": "tuple"
        }
      ],
      "stateMutability": "view",
      "type": "function",
      "constant": true
    },
    {
      "inputs": [
        {
          "internalType": "bytes32",
          "name": "_eventID",
          "type": "bytes32"
        }
      ],
      "name": "getTicketsForEvent",
      "outputs": [
        {
          "internalType": "bytes32[]",
          "name": "",
          "type": "bytes32[]"
        }
      ],
      "stateMutability": "view",
      "type": "function",
      "constant": true
    },
    {
      "inputs": [],
      "name": "getMyTickets",
      "outputs": [
        {
          "components": [
            {
              "internalType": "bytes32",
              "name": "ticketID",
              "type": "bytes32"
            },
            {
              "internalType": "bytes32",
              "name": "eventID",
              "type": "bytes32"
            },
            {
              "internalType": "address",
              "name": "ticketOwner",
              "type": "address"
            },
            {
              "internalType": "uint64",
              "name": "purchasedDate",
              "type": "uint64"
            },
            {
              "internalType": "bool",
              "name": "isRedeemed",
              "type": "bool"
            },
            {
              "internalType": "bool",
              "name": "isValid",
              "type": "bool"
            },
            {
              "internalType": "uint256",
              "name": "ticketPrice",
              "type": "uint256"
            },
            {
              "internalType": "uint256",
              "name": "originalPrice",
              "type": "uint256"
            },
            {
              "internalType": "bool",
              "name": "forSale",
              "type": "bool"
            },
            {
              "internalType": "uint256",
              "name": "salePrice",
              "type": "uint256"
            }
          ],
          "internalType": "struct TicketContract.Ticket[]",
          "name": "",
          "type": "tuple[]"
        }
      ],
      "stateMutability": "view",
      "type": "function",
      "constant": true
    },
    {
      "inputs": [],
      "name": "getTicketsForSale",
      "outputs": [
        {
          "components": [
            {
              "internalType": "bytes32",
              "name": "ticketID",
              "type": "bytes32"
            },
            {
              "internalType": "bytes32",
              "name": "eventID",
              "type": "bytes32"
            },
            {
              "internalType": "address",
              "name": "ticketOwner",
              "type": "address"
            },
            {
              "internalType": "uint64",
              "name": "purchasedDate",
              "type": "uint64"
            },
            {
              "internalType": "bool",
              "name": "isRedeemed",
              "type": "bool"
            },
            {
              "internalType": "bool",
              "name": "isValid",
              "type": "bool"
            },
            {
              "internalType": "uint256",
              "name": "ticketPrice",
              "type": "uint256"
            },
            {
              "internalType": "uint256",
              "name": "originalPrice",
              "type": "uint256"
            },
            {
              "internalType": "bool",
              "name": "forSale",
              "type": "bool"
            },
            {
              "internalType": "uint256",
              "name": "salePrice",
              "type": "uint256"
            }
          ],
          "internalType": "struct TicketContract.Ticket[]",
          "name": "",
          "type": "tuple[]"
        }
      ],
      "stateMutability": "view",
      "type": "function",
      "constant": true
    },
    {
      "inputs": [
        {
          "internalType": "bytes32",
          "name": "_ticketID",
          "type": "bytes32"
        }
      ],
      "name": "redeemTicket",
      "outputs": [],
      "stateMutability": "nonpayable",
      "type": "function"
    },
    {
      "inputs": [
        {
          "internalType": "bytes32",
          "name": "_ticketID",
          "type": "bytes32"
        }
      ],
      "name": "verifyTicket",
      "outputs": [
        {
          "internalType": "bool",
          "name": "",
          "type": "bool"
        }
      ],
      "stateMutability": "view",
      "type": "function",
      "constant": true
    },
    {
      "inputs": [
        {
          "internalType": "bytes32",
          "name": "_ticketID",
          "type": "bytes32"
        }
      ],
      "name": "deleteTicket",
      "outputs": [],
      "stateMutability": "nonpayable",
      "type": "function"
    },
    {
      "inputs": [
        {
          "internalType": "bytes32",
          "name": "_ticketID",
          "type": "bytes32"
        }
      ],
      "name": "returnTicket",
      "outputs": [],
      "stateMutability": "nonpayable",
      "type": "function"
    },
    {
      "inputs": [
        {
          "internalType": "bytes32",
          "name": "eventId",
          "type": "bytes32"
        }
      ],
      "name": "cancelAllTickets",
      "outputs": [],
      "stateMutability": "nonpayable",
      "type": "function"
    },
    {
      "inputs": [
        {
          "internalType": "bytes32",
          "name": "_ticketID",
          "type": "bytes32"
        },
        {
          "internalType": "uint256",
          "name": "_price",
          "type": "uint256"
        }
      ],
      "name": "setTicketForSale",
      "outputs": [],
      "stateMutability": "nonpayable",
      "type": "function"
    },
    {
      "inputs": [
        {
          "internalType": "bytes32",
          "name": "_ticketID",
          "type": "bytes32"
        }
      ],
      "name": "cancelTicketForSale",
      "outputs": [],
      "stateMutability": "nonpayable",
      "type": "function"
    },
    {
      "inputs": [
        {
          "internalType": "bytes32",
          "name": "_ticketID",
          "type": "bytes32"
        }
      ],
      "name": "buyTicketFromMarket",
      "outputs": [],
      "stateMutability": "payable",
      "type": "function",
      "payable": true
    }
  ],
  "bytecode": "0x60806040523480156200001157600080fd5b506040516200398b3803806200398b8339818101604052810190620000379190620000e9565b80600360006101000a81548173ffffffffffffffffffffffffffffffffffffffff021916908373ffffffffffffffffffffffffffffffffffffffff160217905550506200011b565b600080fd5b600073ffffffffffffffffffffffffffffffffffffffff82169050919050565b6000620000b18262000084565b9050919050565b620000c381620000a4565b8114620000cf57600080fd5b50565b600081519050620000e381620000b8565b92915050565b6000602082840312156200010257620001016200007f565b5b60006200011284828501620000d2565b91505092915050565b613860806200012b6000396000f3fe60806040526004361061011f5760003560e01c806387e9a744116100a0578063d5a114e711610064578063d5a114e7146103e9578063d777624814610426578063dd11247e1461044f578063e1d10d851461047a578063edd8741d146104a55761011f565b806387e9a74414610315578063924b5a0714610352578063adcb8bdb1461037b578063afcd2452146103a4578063bf3f733e146103c05761011f565b806335fe12d8116100e757806335fe12d81461023d57806338d986c214610268578063422375ec14610291578063790f770e146102ce57806384d4f1a7146102ea5761011f565b8063090a8556146101245780630e5f14eb1461016a57806313db90e6146101a7578063181fcc89146101d75780632a0d880714610214575b600080fd5b34801561013057600080fd5b5061014b6004803603810190610146919061268a565b6104ce565b6040516101619a9998979695949392919061275e565b60405180910390f35b34801561017657600080fd5b50610191600480360381019061018c919061268a565b61057d565b60405161019e91906127fa565b60405180910390f35b6101c160048036038101906101bc919061286d565b6105d3565b6040516101ce91906128c0565b60405180910390f35b3480156101e357600080fd5b506101fe60048036038101906101f9919061268a565b610927565b60405161020b9190612999565b60405180910390f35b34801561022057600080fd5b5061023b6004803603810190610236919061268a565b610992565b005b34801561024957600080fd5b50610252610cb6565b60405161025f9190612b73565b60405180910390f35b34801561027457600080fd5b5061028f600480360381019061028a9190612b95565b610f72565b005b34801561029d57600080fd5b506102b860048036038101906102b39190612b95565b61111f565b6040516102c591906128c0565b60405180910390f35b6102e860048036038101906102e3919061268a565b611150565b005b3480156102f657600080fd5b506102ff6113a0565b60405161030c9190612bd5565b60405180910390f35b34801561032157600080fd5b5061033c6004803603810190610337919061268a565b6113c6565b6040516103499190612cbc565b60405180910390f35b34801561035e57600080fd5b506103796004803603810190610374919061268a565b6114fe565b005b34801561038757600080fd5b506103a2600480360381019061039d919061268a565b6117bf565b005b6103be60048036038101906103b9919061268a565b61191a565b005b3480156103cc57600080fd5b506103e760048036038101906103e2919061268a565b611bba565b005b3480156103f557600080fd5b50610410600480360381019061040b9190612cd8565b611e35565b60405161041d91906128c0565b60405180910390f35b34801561043257600080fd5b5061044d60048036038101906104489190612d05565b611e59565b005b34801561045b57600080fd5b50610464611e9d565b6040516104719190612d32565b60405180910390f35b34801561048657600080fd5b5061048f611ea3565b60405161049c9190612b73565b60405180910390f35b3480156104b157600080fd5b506104cc60048036038101906104c7919061268a565b6121e1565b005b60006020528060005260406000206000915090508060000154908060010154908060020160009054906101000a900473ffffffffffffffffffffffffffffffffffffffff16908060020160149054906101000a900467ffffffffffffffff169080600201601c9054906101000a900460ff169080600201601d9054906101000a900460ff16908060030154908060040154908060050160009054906101000a900460ff1690806006015490508a565b60008060008084815260200190815260200160002090506000801b8160000154141580156105b9575080600201601d9054906101000a900460ff165b156105c85760019150506105ce565b60009150505b919050565b6000600360009054906101000a900473ffffffffffffffffffffffffffffffffffffffff1673ffffffffffffffffffffffffffffffffffffffff163373ffffffffffffffffffffffffffffffffffffffff1614610665576040517f08c379a000000000000000000000000000000000000000000000000000000000815260040161065c90612dd0565b60405180910390fd5b600084834260405160200161067c93929190612e7a565b60405160208183030381529060405280519060200120905060004290506040518061014001604052808381526020018781526020018573ffffffffffffffffffffffffffffffffffffffff1681526020018267ffffffffffffffff1681526020016000151581526020016001151581526020018681526020018681526020016000151581526020016000815250600080848152602001908152602001600020600082015181600001556020820151816001015560408201518160020160006101000a81548173ffffffffffffffffffffffffffffffffffffffff021916908373ffffffffffffffffffffffffffffffffffffffff16021790555060608201518160020160146101000a81548167ffffffffffffffff021916908367ffffffffffffffff160217905550608082015181600201601c6101000a81548160ff02191690831515021790555060a082015181600201601d6101000a81548160ff02191690831515021790555060c0820151816003015560e082015181600401556101008201518160050160006101000a81548160ff02191690831515021790555061012082015181600601559050506001600087815260200190815260200160002082908060018154018082558091505060019003906000526020600020016000909190919091505560028290806001815401808255809150506001900390600052602060002001600090919091909150556004600081548092919061089e90612ee6565b91905055506001806000888152602001908152602001600020805490506108c59190612f2f565b60066000848152602001908152602001600020819055507f59f9f03903d250b9088863ea41c64b2abc591d823643e4c51599100592df9f2e8287838789604051610913959493929190612f63565b60405180910390a181925050509392505050565b60606001600083815260200190815260200160002080548060200260200160405190810160405280929190818152602001828054801561098657602002820191906000526020600020905b815481526020019060010190808311610972575b50505050509050919050565b60008082815260200190815260200160002060020160009054906101000a900473ffffffffffffffffffffffffffffffffffffffff1673ffffffffffffffffffffffffffffffffffffffff163373ffffffffffffffffffffffffffffffffffffffff161480610a4e5750600360009054906101000a900473ffffffffffffffffffffffffffffffffffffffff1673ffffffffffffffffffffffffffffffffffffffff163373ffffffffffffffffffffffffffffffffffffffff16145b610a8d576040517f08c379a0000000000000000000000000000000000000000000000000000000008152600401610a8490613028565b60405180910390fd5b60008060008381526020019081526020016000206001015490506000600660008481526020019081526020016000205490506000600180600085815260200190815260200160002080549050610ae39190612f2f565b9050808214610b6e576000600160008581526020019081526020016000208281548110610b1357610b12613048565b5b9060005260206000200154905080600160008681526020019081526020016000208481548110610b4657610b45613048565b5b9060005260206000200181905550826006600083815260200190815260200160002081905550505b60016000848152602001908152602001600020805480610b9157610b90613077565b5b60019003818190600052602060002001600090559055600660008581526020019081526020016000206000905560008085815260200190815260200160002060008082016000905560018201600090556002820160006101000a81549073ffffffffffffffffffffffffffffffffffffffff02191690556002820160146101000a81549067ffffffffffffffff021916905560028201601c6101000a81549060ff021916905560028201601d6101000a81549060ff0219169055600382016000905560048201600090556005820160006101000a81549060ff0219169055600682016000905550507fd9a771705fc066b34f0996a0abae6a891c652869ac6b6e3b1e00e4e6d4638ea884604051610ca891906128c0565b60405180910390a150505050565b60606000805b600280549050811015610d315760008060028381548110610ce057610cdf613048565b5b9060005260206000200154815260200190815260200160002060050160009054906101000a900460ff1615610d1e578180610d1a90612ee6565b9250505b8080610d2990612ee6565b915050610cbc565b5060008167ffffffffffffffff811115610d4e57610d4d6130a6565b5b604051908082528060200260200182016040528015610d8757816020015b610d74612592565b815260200190600190039081610d6c5790505b5090506000805b600280549050811015610f685760008060028381548110610db257610db1613048565b5b9060005260206000200154815260200190815260200160002060050160009054906101000a900460ff1615610f555760008060028381548110610df857610df7613048565b5b906000526020600020015481526020019081526020016000206040518061014001604052908160008201548152602001600182015481526020016002820160009054906101000a900473ffffffffffffffffffffffffffffffffffffffff1673ffffffffffffffffffffffffffffffffffffffff1673ffffffffffffffffffffffffffffffffffffffff1681526020016002820160149054906101000a900467ffffffffffffffff1667ffffffffffffffff1667ffffffffffffffff16815260200160028201601c9054906101000a900460ff1615151515815260200160028201601d9054906101000a900460ff1615151515815260200160038201548152602001600482015481526020016005820160009054906101000a900460ff16151515158152602001600682015481525050838381518110610f3b57610f3a613048565b5b60200260200101819052508180610f5190612ee6565b9250505b8080610f6090612ee6565b915050610d8e565b5081935050505090565b600080600084815260200190815260200160002090508060020160009054906101000a900473ffffffffffffffffffffffffffffffffffffffff1673ffffffffffffffffffffffffffffffffffffffff163373ffffffffffffffffffffffffffffffffffffffff161461101a576040517f08c379a000000000000000000000000000000000000000000000000000000000815260040161101190613147565b60405180910390fd5b80600201601c9054906101000a900460ff161561106c576040517f08c379a0000000000000000000000000000000000000000000000000000000008152600401611063906131b3565b60405180910390fd5b80600201601d9054906101000a900460ff166110bd576040517f08c379a00000000000000000000000000000000000000000000000000000000081526004016110b49061321f565b60405180910390fd5b60018160050160006101000a81548160ff0219169083151502179055508181600601819055507f1c35376aa8f00acbd4bde96b765adb6cf6e0d5e6c991a3dbf994c0e59df232128360405161111291906128c0565b60405180910390a1505050565b6001602052816000526040600020818154811061113b57600080fd5b90600052602060002001600091509150505481565b600560009054906101000a900460ff16156111a0576040517f08c379a00000000000000000000000000000000000000000000000000000000081526004016111979061328b565b60405180910390fd5b6001600560006101000a81548160ff02191690831515021790555080600080828152602001908152602001600020600201601c9054906101000a900460ff161561121f576040517f08c379a00000000000000000000000000000000000000000000000000000000081526004016112169061331d565b60405180910390fd5b6000806000848152602001908152602001600020905080600201601d9054906101000a900460ff16611286576040517f08c379a000000000000000000000000000000000000000000000000000000000815260040161127d90613389565b60405180910390fd5b60008160020160009054906101000a900473ffffffffffffffffffffffffffffffffffffffff169050338260020160006101000a81548173ffffffffffffffffffffffffffffffffffffffff021916908373ffffffffffffffffffffffffffffffffffffffff1602179055503482600301819055508073ffffffffffffffffffffffffffffffffffffffff166108fc349081150290604051600060405180830381858888f19350505050158015611341573d6000803e3d6000fd5b507ffd8856e33cf0872c85c89d373a010f59eac73bef929cb9e91f2a9b4391cfbc6e8482333460405161137794939291906133a9565b60405180910390a15050506000600560006101000a81548160ff02191690831515021790555050565b600360009054906101000a900473ffffffffffffffffffffffffffffffffffffffff1681565b6113ce612592565b6000808381526020019081526020016000206040518061014001604052908160008201548152602001600182015481526020016002820160009054906101000a900473ffffffffffffffffffffffffffffffffffffffff1673ffffffffffffffffffffffffffffffffffffffff1673ffffffffffffffffffffffffffffffffffffffff1681526020016002820160149054906101000a900467ffffffffffffffff1667ffffffffffffffff1667ffffffffffffffff16815260200160028201601c9054906101000a900460ff1615151515815260200160028201601d9054906101000a900460ff1615151515815260200160038201548152602001600482015481526020016005820160009054906101000a900460ff161515151581526020016006820154815250509050919050565b600080600083815260200190815260200160002090503373ffffffffffffffffffffffffffffffffffffffff168160020160009054906101000a900473ffffffffffffffffffffffffffffffffffffffff1673ffffffffffffffffffffffffffffffffffffffff16146115a6576040517f08c379a000000000000000000000000000000000000000000000000000000000815260040161159d90613460565b60405180910390fd5b80600201601c9054906101000a900460ff16156115f8576040517f08c379a00000000000000000000000000000000000000000000000000000000081526004016115ef9061331d565b60405180910390fd5b80600201601d9054906101000a900460ff16611649576040517f08c379a000000000000000000000000000000000000000000000000000000000815260040161164090613389565b60405180910390fd5b60008160040154905060003390508073ffffffffffffffffffffffffffffffffffffffff166108fc839081150290604051600060405180830381858888f1935050505015801561169d573d6000803e3d6000fd5b506116ac8360010154856123b3565b60008085815260200190815260200160002060008082016000905560018201600090556002820160006101000a81549073ffffffffffffffffffffffffffffffffffffffff02191690556002820160146101000a81549067ffffffffffffffff021916905560028201601c6101000a81549060ff021916905560028201601d6101000a81549060ff0219169055600382016000905560048201600090556005820160006101000a81549060ff02191690556006820160009055505060066000858152602001908152602001600020600090557f264639f18b561b2178c34aef36b59305f75022f12fcecc6ed2f1e7b9662542de8433846040516117b193929190613480565b60405180910390a150505050565b600080600083815260200190815260200160002090508060020160009054906101000a900473ffffffffffffffffffffffffffffffffffffffff1673ffffffffffffffffffffffffffffffffffffffff163373ffffffffffffffffffffffffffffffffffffffff1614611867576040517f08c379a000000000000000000000000000000000000000000000000000000000815260040161185e90613529565b60405180910390fd5b8060050160009054906101000a900460ff166118b8576040517f08c379a00000000000000000000000000000000000000000000000000000000081526004016118af90613595565b60405180910390fd5b60008160050160006101000a81548160ff021916908315150217905550600081600601819055507f994d9be7adae57b16087faeafa892c98ec1428cf788e482656add12969413c878260405161190e91906128c0565b60405180910390a15050565b600560009054906101000a900460ff161561196a576040517f08c379a00000000000000000000000000000000000000000000000000000000081526004016119619061328b565b60405180910390fd5b6001600560006101000a81548160ff021916908315150217905550600080600083815260200190815260200160002090508060050160009054906101000a900460ff166119ec576040517f08c379a00000000000000000000000000000000000000000000000000000000081526004016119e390613601565b60405180910390fd5b80600601543414611a32576040517f08c379a0000000000000000000000000000000000000000000000000000000008152600401611a29906136b9565b60405180910390fd5b80600201601d9054906101000a900460ff16611a83576040517f08c379a0000000000000000000000000000000000000000000000000000000008152600401611a7a90613725565b60405180910390fd5b60008160020160009054906101000a900473ffffffffffffffffffffffffffffffffffffffff169050338260020160006101000a81548173ffffffffffffffffffffffffffffffffffffffff021916908373ffffffffffffffffffffffffffffffffffffffff16021790555060008260050160006101000a81548160ff021916908315150217905550600082600601819055508073ffffffffffffffffffffffffffffffffffffffff166108fc349081150290604051600060405180830381858888f19350505050158015611b5c573d6000803e3d6000fd5b507fdad241cbe6e066caf7dfc11828c6b2df6b430a639390ba0675040ed5d2bff24383823334604051611b9294939291906133a9565b60405180910390a150506000600560006101000a81548160ff02191690831515021790555050565b6000600160008381526020019081526020016000209050600081805490501415611c3a577fc0919dcb7e0b464ce8146ec897e4a566e6a1af62233364998f3da696e08b500b82604051611c0d91906128c0565b60405180910390a1600160008381526020019081526020016000206000611c349190612611565b50611e32565b60005b8180549050811015611dd9576000828281548110611c5e57611c5d613048565b5b906000526020600020015490506000806000838152602001908152602001600020905080600201601d9054906101000a900460ff168015611cae575080600201601c9054906101000a900460ff16155b15611cf257600081600201601d6101000a81548160ff021916908315150217905550611cd9826124b9565b60046000815480929190611cec90613745565b91905055505b60008083815260200190815260200160002060008082016000905560018201600090556002820160006101000a81549073ffffffffffffffffffffffffffffffffffffffff02191690556002820160146101000a81549067ffffffffffffffff021916905560028201601c6101000a81549060ff021916905560028201601d6101000a81549060ff0219169055600382016000905560048201600090556005820160006101000a81549060ff021916905560068201600090555050600660008381526020019081526020016000206000905550508080611dd190612ee6565b915050611c3d565b50600160008381526020019081526020016000206000611df99190612611565b7fc0919dcb7e0b464ce8146ec897e4a566e6a1af62233364998f3da696e08b500b82604051611e2891906128c0565b60405180910390a1505b50565b60028181548110611e4557600080fd5b906000526020600020016000915090505481565b80600360006101000a81548173ffffffffffffffffffffffffffffffffffffffff021916908373ffffffffffffffffffffffffffffffffffffffff16021790555050565b60045481565b60606000805b600280549050811015611f5f573373ffffffffffffffffffffffffffffffffffffffff1660008060028481548110611ee457611ee3613048565b5b9060005260206000200154815260200190815260200160002060020160009054906101000a900473ffffffffffffffffffffffffffffffffffffffff1673ffffffffffffffffffffffffffffffffffffffff161415611f4c578180611f4890612ee6565b9250505b8080611f5790612ee6565b915050611ea9565b5060008167ffffffffffffffff811115611f7c57611f7b6130a6565b5b604051908082528060200260200182016040528015611fb557816020015b611fa2612592565b815260200190600190039081611f9a5790505b5090506000805b6002805490508110156121d7573373ffffffffffffffffffffffffffffffffffffffff1660008060028481548110611ff757611ff6613048565b5b9060005260206000200154815260200190815260200160002060020160009054906101000a900473ffffffffffffffffffffffffffffffffffffffff1673ffffffffffffffffffffffffffffffffffffffff1614156121c4576000806002838154811061206757612066613048565b5b906000526020600020015481526020019081526020016000206040518061014001604052908160008201548152602001600182015481526020016002820160009054906101000a900473ffffffffffffffffffffffffffffffffffffffff1673ffffffffffffffffffffffffffffffffffffffff1673ffffffffffffffffffffffffffffffffffffffff1681526020016002820160149054906101000a900467ffffffffffffffff1667ffffffffffffffff1667ffffffffffffffff16815260200160028201601c9054906101000a900460ff1615151515815260200160028201601d9054906101000a900460ff1615151515815260200160038201548152602001600482015481526020016005820160009054906101000a900460ff161515151581526020016006820154815250508383815181106121aa576121a9613048565b5b602002602001018190525081806121c090612ee6565b9250505b80806121cf90612ee6565b915050611fbc565b5081935050505090565b3373ffffffffffffffffffffffffffffffffffffffff1660008083815260200190815260200160002060020160009054906101000a900473ffffffffffffffffffffffffffffffffffffffff1673ffffffffffffffffffffffffffffffffffffffff1614612284576040517f08c379a000000000000000000000000000000000000000000000000000000000815260040161227b906137e1565b60405180910390fd5b600080828152602001908152602001600020600201601c9054906101000a900460ff16156122e7576040517f08c379a00000000000000000000000000000000000000000000000000000000081526004016122de9061331d565b60405180910390fd5b600080828152602001908152602001600020600201601d9054906101000a900460ff16612349576040517f08c379a000000000000000000000000000000000000000000000000000000000815260040161234090613389565b60405180910390fd5b6001600080838152602001908152602001600020600201601c6101000a81548160ff0219169083151502179055507f5e887a439fa796c056dfd595ead77c343c193a22734ed54140ce3a543708506281336040516123a8929190613801565b60405180910390a150565b60006006600083815260200190815260200160002054905060006001806000868152602001908152602001600020805490506123ef9190612f2f565b905080821461247a57600060016000868152602001908152602001600020828154811061241f5761241e613048565b5b906000526020600020015490508060016000878152602001908152602001600020848154811061245257612451613048565b5b9060005260206000200181905550826006600083815260200190815260200160002081905550505b6001600085815260200190815260200160002080548061249d5761249c613077565b5b6001900381819060005260206000200160009055905550505050565b600060066000838152602001908152602001600020549050600060016002805490506124e59190612f2f565b905080821461254e5760006002828154811061250457612503613048565b5b90600052602060002001549050806002848154811061252657612525613048565b5b9060005260206000200181905550826006600083815260200190815260200160002081905550505b60028054806125605761255f613077565b5b600190038181906000526020600020016000905590556006600084815260200190815260200160002060009055505050565b6040518061014001604052806000801916815260200160008019168152602001600073ffffffffffffffffffffffffffffffffffffffff168152602001600067ffffffffffffffff1681526020016000151581526020016000151581526020016000815260200160008152602001600015158152602001600081525090565b508054600082559060005260206000209081019061262f9190612632565b50565b5b8082111561264b576000816000905550600101612633565b5090565b600080fd5b6000819050919050565b61266781612654565b811461267257600080fd5b50565b6000813590506126848161265e565b92915050565b6000602082840312156126a05761269f61264f565b5b60006126ae84828501612675565b91505092915050565b6126c081612654565b82525050565b600073ffffffffffffffffffffffffffffffffffffffff82169050919050565b60006126f1826126c6565b9050919050565b612701816126e6565b82525050565b600067ffffffffffffffff82169050919050565b61272481612707565b82525050565b60008115159050919050565b61273f8161272a565b82525050565b6000819050919050565b61275881612745565b82525050565b600061014082019050612774600083018d6126b7565b612781602083018c6126b7565b61278e604083018b6126f8565b61279b606083018a61271b565b6127a86080830189612736565b6127b560a0830188612736565b6127c260c083018761274f565b6127cf60e083018661274f565b6127dd610100830185612736565b6127eb61012083018461274f565b9b9a5050505050505050505050565b600060208201905061280f6000830184612736565b92915050565b61281e81612745565b811461282957600080fd5b50565b60008135905061283b81612815565b92915050565b61284a816126e6565b811461285557600080fd5b50565b60008135905061286781612841565b92915050565b6000806000606084860312156128865761288561264f565b5b600061289486828701612675565b93505060206128a58682870161282c565b92505060406128b686828701612858565b9150509250925092565b60006020820190506128d560008301846126b7565b92915050565b600081519050919050565b600082825260208201905092915050565b6000819050602082019050919050565b61291081612654565b82525050565b60006129228383612907565b60208301905092915050565b6000602082019050919050565b6000612946826128db565b61295081856128e6565b935061295b836128f7565b8060005b8381101561298c5781516129738882612916565b975061297e8361292e565b92505060018101905061295f565b5085935050505092915050565b600060208201905081810360008301526129b3818461293b565b905092915050565b600081519050919050565b600082825260208201905092915050565b6000819050602082019050919050565b6129f0816126e6565b82525050565b6129ff81612707565b82525050565b612a0e8161272a565b82525050565b612a1d81612745565b82525050565b61014082016000820151612a3a6000850182612907565b506020820151612a4d6020850182612907565b506040820151612a6060408501826129e7565b506060820151612a7360608501826129f6565b506080820151612a866080850182612a05565b5060a0820151612a9960a0850182612a05565b5060c0820151612aac60c0850182612a14565b5060e0820151612abf60e0850182612a14565b50610100820151612ad4610100850182612a05565b50610120820151612ae9610120850182612a14565b50505050565b6000612afb8383612a23565b6101408301905092915050565b6000602082019050919050565b6000612b20826129bb565b612b2a81856129c6565b9350612b35836129d7565b8060005b83811015612b66578151612b4d8882612aef565b9750612b5883612b08565b925050600181019050612b39565b5085935050505092915050565b60006020820190508181036000830152612b8d8184612b15565b905092915050565b60008060408385031215612bac57612bab61264f565b5b6000612bba85828601612675565b9250506020612bcb8582860161282c565b9150509250929050565b6000602082019050612bea60008301846126f8565b92915050565b61014082016000820151612c076000850182612907565b506020820151612c1a6020850182612907565b506040820151612c2d60408501826129e7565b506060820151612c4060608501826129f6565b506080820151612c536080850182612a05565b5060a0820151612c6660a0850182612a05565b5060c0820151612c7960c0850182612a14565b5060e0820151612c8c60e0850182612a14565b50610100820151612ca1610100850182612a05565b50610120820151612cb6610120850182612a14565b50505050565b600061014082019050612cd26000830184612bf0565b92915050565b600060208284031215612cee57612ced61264f565b5b6000612cfc8482850161282c565b91505092915050565b600060208284031215612d1b57612d1a61264f565b5b6000612d2984828501612858565b91505092915050565b6000602082019050612d47600083018461274f565b92915050565b600082825260208201905092915050565b7f556e617574686f72697a65643a2063616c6c6572206973206e6f74207468652060008201527f6576656e7420636f6e7472616374000000000000000000000000000000000000602082015250565b6000612dba602e83612d4d565b9150612dc582612d5e565b604082019050919050565b60006020820190508181036000830152612de981612dad565b9050919050565b6000819050919050565b612e0b612e0682612654565b612df0565b82525050565b60008160601b9050919050565b6000612e2982612e11565b9050919050565b6000612e3b82612e1e565b9050919050565b612e53612e4e826126e6565b612e30565b82525050565b6000819050919050565b612e74612e6f82612745565b612e59565b82525050565b6000612e868286612dfa565b602082019150612e968285612e42565b601482019150612ea68284612e63565b602082019150819050949350505050565b7f4e487b7100000000000000000000000000000000000000000000000000000000600052601160045260246000fd5b6000612ef182612745565b91507fffffffffffffffffffffffffffffffffffffffffffffffffffffffffffffffff821415612f2457612f23612eb7565b5b600182019050919050565b6000612f3a82612745565b9150612f4583612745565b925082821015612f5857612f57612eb7565b5b828203905092915050565b600060a082019050612f7860008301886126b7565b612f8560208301876126b7565b612f92604083018661271b565b612f9f60608301856126f8565b612fac608083018461274f565b9695505050505050565b7f556e617574686f72697a65643a2063616c6c6572206973206e6f74207468652060008201527f7469636b6574206f776e6572206f72206576656e7420636f6e74726163740000602082015250565b6000613012603e83612d4d565b915061301d82612fb6565b604082019050919050565b6000602082019050818103600083015261304181613005565b9050919050565b7f4e487b7100000000000000000000000000000000000000000000000000000000600052603260045260246000fd5b7f4e487b7100000000000000000000000000000000000000000000000000000000600052603160045260246000fd5b7f4e487b7100000000000000000000000000000000000000000000000000000000600052604160045260246000fd5b7f4f6e6c7920746865207469636b6574206f776e65722063616e2073657420697460008201527f20666f722073616c652e00000000000000000000000000000000000000000000602082015250565b6000613131602a83612d4d565b915061313c826130d5565b604082019050919050565b6000602082019050818103600083015261316081613124565b9050919050565b7f43616e6e6f742073656c6c20612072656465656d6564207469636b65742e0000600082015250565b600061319d601e83612d4d565b91506131a882613167565b602082019050919050565b600060208201905081810360008301526131cc81613190565b9050919050565b7f43616e6e6f742073656c6c20616e20696e76616c6964207469636b65742e0000600082015250565b6000613209601e83612d4d565b9150613214826131d3565b602082019050919050565b60006020820190508181036000830152613238816131fc565b9050919050565b7f5265656e7472616e6379206973206e6f7420616c6c6f77656400000000000000600082015250565b6000613275601983612d4d565b91506132808261323f565b602082019050919050565b600060208201905081810360008301526132a481613268565b9050919050565b7f5469636b65742068617320616c7265616479206265656e2072656465656d656460008201527f2e00000000000000000000000000000000000000000000000000000000000000602082015250565b6000613307602183612d4d565b9150613312826132ab565b604082019050919050565b60006020820190508181036000830152613336816132fa565b9050919050565b7f5469636b6574206973206e6f742076616c69642e000000000000000000000000600082015250565b6000613373601483612d4d565b915061337e8261333d565b602082019050919050565b600060208201905081810360008301526133a281613366565b9050919050565b60006080820190506133be60008301876126b7565b6133cb60208301866126f8565b6133d860408301856126f8565b6133e5606083018461274f565b95945050505050565b7f4f6e6c7920746865207469636b6574206f776e65722063616e2072657475726e60008201527f20746865207469636b65742e0000000000000000000000000000000000000000602082015250565b600061344a602c83612d4d565b9150613455826133ee565b604082019050919050565b600060208201905081810360008301526134798161343d565b9050919050565b600060608201905061349560008301866126b7565b6134a260208301856126f8565b6134af604083018461274f565b949350505050565b7f4f6e6c7920746865207469636b6574206f776e65722063616e2063616e63656c60008201527f207468652073616c652e00000000000000000000000000000000000000000000602082015250565b6000613513602a83612d4d565b915061351e826134b7565b604082019050919050565b6000602082019050818103600083015261354281613506565b9050919050565b7f5469636b6574206973206e6f7420666f722073616c652e000000000000000000600082015250565b600061357f601783612d4d565b915061358a82613549565b602082019050919050565b600060208201905081810360008301526135ae81613572565b9050919050565b7f54686973207469636b6574206973206e6f7420666f722073616c652e00000000600082015250565b60006135eb601c83612d4d565b91506135f6826135b5565b602082019050919050565b6000602082019050818103600083015261361a816135de565b9050919050565b7f506c65617365207375626d6974207468652061736b696e67207072696365206960008201527f6e206f7264657220746f20636f6d706c6574652074686520707572636861736560208201527f2e00000000000000000000000000000000000000000000000000000000000000604082015250565b60006136a3604183612d4d565b91506136ae82613621565b606082019050919050565b600060208201905081810360008301526136d281613696565b9050919050565b7f43616e6e6f742062757920616e20696e76616c6964207469636b65742e000000600082015250565b600061370f601d83612d4d565b915061371a826136d9565b602082019050919050565b6000602082019050818103600083015261373e81613702565b9050919050565b600061375082612745565b9150600082141561376457613763612eb7565b5b600182039050919050565b7f4f6e6c7920746865207469636b6574206f776e65722063616e2072656465656d60008201527f2069742e00000000000000000000000000000000000000000000000000000000602082015250565b60006137cb602483612d4d565b91506137d68261376f565b604082019050919050565b600060208201905081810360008301526137fa816137be565b9050919050565b600060408201905061381660008301856126b7565b61382360208301846126f8565b939250505056fea264697066735822122048910a5c2b2226d04c232f4e5eb09b55e31041622f5584cd94f5fb60f0a405d964736f6c634300080a0033",
  "immutableReferences": {},
  "source": "// SPDX-License-Identifier: MIT\npragma solidity ^0.8.10;\n\ncontract TicketContract {\n  struct Ticket {\n    bytes32 ticketID;\n    bytes32 eventID;\n    address ticketOwner;\n    uint64 purchasedDate;\n    bool isRedeemed;\n    bool isValid;\n    uint256 ticketPrice;\n    uint256 originalPrice;\n    bool forSale;\n    uint256 salePrice;\n  }\n  //mapping for allTickets for the TicketContract\n  mapping(bytes32 => Ticket) public allTickets;\n  // mapping for allEvents but by eventID\n  mapping(bytes32 => bytes32[]) public ticketsByEvent;\n  // array to keep all IDs for tickets\n  bytes32[] public allTicketIDs;\n  // address of EventContract, only this address can create new tickets\n  address public eventContractAddress;\n  // number of all tickets\n  uint256 public totalTickets;\n  // variable for this -> The reentrancy guard is a mechanism that prevents reentry to certain functions during\n  // their execution. This is particularly important for functions that involve the transfer of funds.\n  bool private locked;\n  // mapping for better and more optimalize indexing\n  mapping(bytes32 => uint256) private ticketIndexInEvent;\n\n  function setEventContractAddress(address _eventContractAddress) external {\n    eventContractAddress = _eventContractAddress;\n  }\n\n  // event emitters\n  event TicketTransferred(bytes32 ticketID, address from, address to, uint256 newPrice);\n  event TicketCreated(\n    bytes32 ticketID,\n    bytes32 eventID,\n    uint64 purchasedDate,\n    address buyer,\n    uint256 price\n  );\n  event TicketRedeemed(bytes32 ticketID, address redeemer);\n  event TicketDeleted(bytes32 ticketID);\n  event TicketReturned(bytes32 ticketID, address sender, uint256 refundAmount);\n  event TicketRefunded(bytes32 ticketID, address ticketOwner, uint256 refundAmount);\n  event EventCancelled(bytes32 eventID);\n\n  event TicketSetForSale(bytes32 ticketID);\n  event TicketSaleCancelled(bytes32 ticketID);\n  event TicketPurchasedFromMarket(\n    bytes32 ticketID,\n    address oldOwner,\n    address newOwner,\n    uint256 price\n  );\n\n  // constructor for create new instance of TicketContract\n  constructor(address _eventContractAddress) {\n    eventContractAddress = _eventContractAddress;\n  }\n  // modifier - check if request send EventContract\n  modifier onlyEventContract() {\n    require(msg.sender == eventContractAddress, 'Unauthorized: caller is not the event contract');\n    _;\n  }\n  // modifier - check if ticket is not redeemed yet. If yes user cant sell tickets to others\n  modifier isNotRedeemed(bytes32 _ticketID) {\n    require(!allTickets[_ticketID].isRedeemed, 'Ticket has already been redeemed.');\n    _;\n  }\n  // modifier - The reentrancy guard is a mechanism that prevents reentry to certain functions during\n  // their execution. This is particularly important for functions that involve the transfer of funds.\n  modifier noReentrancy() {\n    require(!locked, 'Reentrancy is not allowed');\n    locked = true;\n    _;\n    locked = false;\n  }\n  // Function to create new ticket for eventID\n  // @param _eventID is ID of event, for which is ticket\n  // @param _buyer is address of user, which ticket buy\n  // @param _tickerPrice is price of the ticket\n  // @ return - ID of new ticket\n  // Definice Solidity event pro debugging\n  event Debug(bytes32 indexed message, bytes32 data);\n  event DebugUint(string message, uint256 data);\n\n  function createNewTicket(\n    bytes32 _eventID,\n    uint256 _ticketPrice,\n    address userAddress\n  ) external payable onlyEventContract returns (bytes32) {\n    bytes32 ticketID = keccak256(abi.encodePacked(_eventID, userAddress, block.timestamp));\n    uint64 _purchasedDate = uint64(block.timestamp);\n    allTickets[ticketID] = Ticket({\n      ticketID: ticketID,\n      eventID: _eventID,\n      ticketOwner: userAddress,\n      purchasedDate: _purchasedDate,\n      isRedeemed: false,\n      isValid: true,\n      ticketPrice: _ticketPrice,\n      originalPrice: _ticketPrice,\n      forSale: false,\n      salePrice: 0\n    });\n    ticketsByEvent[_eventID].push(ticketID);\n    allTicketIDs.push(ticketID);\n    totalTickets++;\n\n    ticketIndexInEvent[ticketID] = ticketsByEvent[_eventID].length - 1;\n\n    emit TicketCreated(ticketID, _eventID, _purchasedDate, userAddress, _ticketPrice);\n\n    return ticketID;\n  }\n\n  // function to change ownership of the ticket, its for selling tickets between users\n  // @param _eventID is ID of event, for which is ticket\n  // @param _buyer is address of user, which ticket buy\n  // @return - bool value for FE handling\n  function transferTicket(\n    bytes32 _ticketID\n  ) external payable noReentrancy isNotRedeemed(_ticketID) {\n    Ticket storage ticket = allTickets[_ticketID];\n    require(ticket.isValid, 'Ticket is not valid.');\n\n    address oldOwner = ticket.ticketOwner;\n    ticket.ticketOwner = msg.sender;\n    ticket.ticketPrice = msg.value;\n\n    payable(oldOwner).transfer(msg.value);\n    emit TicketTransferred(_ticketID, oldOwner, msg.sender, msg.value);\n  }\n  // function return info about ticket with _ticketID\n  function getTicketInfo(bytes32 _ticketID) external view returns (Ticket memory) {\n    return allTickets[_ticketID];\n  }\n  // function to return array of tickets for one specific event\n  function getTicketsForEvent(bytes32 _eventID) external view returns (bytes32[] memory) {\n    return ticketsByEvent[_eventID];\n  }\n  // function to return tickets for one specific user\n  function getMyTickets() external view returns (Ticket[] memory) {\n    uint totalTicketsCount = 0;\n\n    for (uint256 i = 0; i < allTicketIDs.length; i++) {\n      if (allTickets[allTicketIDs[i]].ticketOwner == msg.sender) {\n        totalTicketsCount++;\n      }\n    }\n\n    Ticket[] memory ownedTickets = new Ticket[](totalTicketsCount);\n    uint256 index = 0;\n    for (uint256 i = 0; i < allTicketIDs.length; i++) {\n      if (allTickets[allTicketIDs[i]].ticketOwner == msg.sender) {\n        ownedTickets[index] = allTickets[allTicketIDs[i]];\n        index++;\n      }\n    }\n\n    return ownedTickets;\n  }\n  function getTicketsForSale() external view returns (Ticket[] memory) {\n    uint totalForSale = 0;\n\n    for (uint i = 0; i < allTicketIDs.length; i++) {\n      if (allTickets[allTicketIDs[i]].forSale) {\n        totalForSale++;\n      }\n    }\n\n    Ticket[] memory ticketsForSale = new Ticket[](totalForSale);\n    uint index = 0;\n\n    for (uint i = 0; i < allTicketIDs.length; i++) {\n      if (allTickets[allTicketIDs[i]].forSale) {\n        ticketsForSale[index] = allTickets[allTicketIDs[i]];\n        index++;\n      }\n    }\n\n    return ticketsForSale;\n  }\n  // function to flag ticket as reedeemed, which means user arrive on the event, so\n  // any other function cant run\n  function redeemTicket(bytes32 _ticketID) external {\n    require(\n      allTickets[_ticketID].ticketOwner == msg.sender,\n      'Only the ticket owner can redeem it.'\n    );\n    require(!allTickets[_ticketID].isRedeemed, 'Ticket has already been redeemed.');\n    require(allTickets[_ticketID].isValid, 'Ticket is not valid.');\n\n    allTickets[_ticketID].isRedeemed = true;\n\n    emit TicketRedeemed(_ticketID, msg.sender);\n  }\n  // function to verify ticket\n  function verifyTicket(bytes32 _ticketID) external view returns (bool) {\n    Ticket storage _ticket = allTickets[_ticketID];\n    if (_ticket.ticketID != 0 && _ticket.isValid) {\n      return true;\n    } else {\n      return false;\n    }\n  }\n  // function to delete one specific ticket with id\n  function deleteTicket(bytes32 _ticketID) external {\n    require(\n      msg.sender == allTickets[_ticketID].ticketOwner || msg.sender == eventContractAddress,\n      'Unauthorized: caller is not the ticket owner or event contract'\n    );\n\n    bytes32 eventId = allTickets[_ticketID].eventID;\n    uint index = ticketIndexInEvent[_ticketID];\n    uint lastIndex = ticketsByEvent[eventId].length - 1;\n\n    if (index != lastIndex) {\n      bytes32 lastTicketID = ticketsByEvent[eventId][lastIndex];\n      ticketsByEvent[eventId][index] = lastTicketID;\n      ticketIndexInEvent[lastTicketID] = index;\n    }\n    ticketsByEvent[eventId].pop();\n    delete ticketIndexInEvent[_ticketID];\n    delete allTickets[_ticketID];\n\n    emit TicketDeleted(_ticketID);\n  }\n  // Function to return a ticket and refund the purchase price\n  function returnTicket(bytes32 _ticketID) external {\n    Ticket storage ticket = allTickets[_ticketID];\n    require(ticket.ticketOwner == msg.sender, 'Only the ticket owner can return the ticket.');\n    require(!ticket.isRedeemed, 'Ticket has already been redeemed.');\n    require(ticket.isValid, 'Ticket is not valid.');\n\n    uint256 refundAmount = ticket.originalPrice;\n    address payable ownerPayable = payable(msg.sender);\n\n    ownerPayable.transfer(refundAmount);\n\n    removeTicketFromEventList(ticket.eventID, _ticketID);\n    delete allTickets[_ticketID];\n    delete ticketIndexInEvent[_ticketID];\n\n    emit TicketReturned(_ticketID, msg.sender, refundAmount);\n  }\n  // Function to remove a ticket from the ticketsByEvent mapping\n  function removeTicketFromEventList(bytes32 _eventId, bytes32 _ticketID) private {\n    uint index = ticketIndexInEvent[_ticketID];\n    uint lastIndex = ticketsByEvent[_eventId].length - 1;\n    if (index != lastIndex) {\n      bytes32 lastTicketID = ticketsByEvent[_eventId][lastIndex];\n      ticketsByEvent[_eventId][index] = lastTicketID;\n      ticketIndexInEvent[lastTicketID] = index;\n    }\n    ticketsByEvent[_eventId].pop();\n  }\n  // function to delete tickets, return all eth for ticketOwners atc. when event is cancelled\n  function cancelAllTickets(bytes32 eventId) external {\n    bytes32[] storage tickets = ticketsByEvent[eventId];\n\n    if (tickets.length == 0) {\n      emit EventCancelled(eventId);\n      delete ticketsByEvent[eventId];\n      return;\n    }\n\n    for (uint i = 0; i < tickets.length; i++) {\n      bytes32 ticketId = tickets[i];\n      Ticket storage ticket = allTickets[ticketId];\n\n      if (ticket.isValid && !ticket.isRedeemed) {\n        ticket.isValid = false;\n\n        removeTicketFromAllTickets(ticketId);\n        totalTickets--;\n      }\n\n      delete allTickets[ticketId];\n      delete ticketIndexInEvent[ticketId];\n    }\n\n    delete ticketsByEvent[eventId];\n    emit EventCancelled(eventId);\n  }\n\n  function removeTicketFromAllTickets(bytes32 ticketId) private {\n    uint index = ticketIndexInEvent[ticketId];\n    uint lastIndex = allTicketIDs.length - 1;\n\n    if (index != lastIndex) {\n      bytes32 lastTicketId = allTicketIDs[lastIndex];\n      allTicketIDs[index] = lastTicketId;\n      ticketIndexInEvent[lastTicketId] = index;\n    }\n    allTicketIDs.pop();\n    delete ticketIndexInEvent[ticketId];\n  }\n  // function to set ticket for sale\n  function setTicketForSale(bytes32 _ticketID, uint256 _price) external {\n    Ticket storage _ticket = allTickets[_ticketID];\n    require(msg.sender == _ticket.ticketOwner, 'Only the ticket owner can set it for sale.');\n    require(!_ticket.isRedeemed, 'Cannot sell a redeemed ticket.');\n    require(_ticket.isValid, 'Cannot sell an invalid ticket.');\n\n    _ticket.forSale = true;\n    _ticket.salePrice = _price;\n\n    emit TicketSetForSale(_ticketID);\n  }\n  // function to set ticket not for sale\n  function cancelTicketForSale(bytes32 _ticketID) external {\n    Ticket storage _ticket = allTickets[_ticketID];\n    require(msg.sender == _ticket.ticketOwner, 'Only the ticket owner can cancel the sale.');\n    require(_ticket.forSale, 'Ticket is not for sale.');\n\n    _ticket.forSale = false;\n    _ticket.salePrice = 0;\n\n    emit TicketSaleCancelled(_ticketID);\n  }\n\n  // function to buy ticket from market\n  function buyTicketFromMarket(bytes32 _ticketID) external payable noReentrancy {\n    Ticket storage _ticket = allTickets[_ticketID];\n    require(_ticket.forSale, 'This ticket is not for sale.');\n    require(\n      msg.value == _ticket.salePrice,\n      'Please submit the asking price in order to complete the purchase.'\n    );\n    require(_ticket.isValid, 'Cannot buy an invalid ticket.');\n\n    address oldOwner = _ticket.ticketOwner;\n    _ticket.ticketOwner = msg.sender;\n    _ticket.forSale = false;\n    _ticket.salePrice = 0;\n\n    payable(oldOwner).transfer(msg.value);\n\n    emit TicketPurchasedFromMarket(_ticketID, oldOwner, msg.sender, msg.value);\n  }\n}\n",
  "sourcePath": "/Users/janmrakava/Documents/GitHub/blockticket_blockchain/client/contracts/Ticket.sol",
  "compiler": {
    "name": "solc",
    "version": "0.8.10+commit.fc410830.Emscripten.clang"
  },
  "schemaVersion": "3.4.16",
  "updatedAt": "2024-05-02T08:58:46.837Z",
  "networkType": "ethereum",
  "devdoc": {
    "kind": "dev",
    "methods": {},
    "version": 1
  },
  "userdoc": {
    "kind": "user",
    "methods": {},
    "version": 1
  }
}